{
  "_format": "hh-sol-artifact-1",
  "contractName": "SimpleFlashLoan",
  "sourceName": "contracts/SimpleFlashLoan.sol",
  "abi": [
    {
      "inputs": [],
      "stateMutability": "nonpayable",
      "type": "constructor"
    },
    {
      "inputs": [
        {
          "internalType": "address",
          "name": "owner",
          "type": "address"
        }
      ],
      "name": "OwnableInvalidOwner",
      "type": "error"
    },
    {
      "inputs": [
        {
          "internalType": "address",
          "name": "account",
          "type": "address"
        }
      ],
      "name": "OwnableUnauthorizedAccount",
      "type": "error"
    },
    {
      "inputs": [],
      "name": "ReentrancyGuardReentrantCall",
      "type": "error"
    },
    {
      "anonymous": false,
      "inputs": [
        {
          "indexed": true,
          "internalType": "address",
          "name": "borrower",
          "type": "address"
        },
        {
          "indexed": true,
          "internalType": "address",
          "name": "asset",
          "type": "address"
        },
        {
          "indexed": false,
          "internalType": "uint256",
          "name": "amount",
          "type": "uint256"
        },
        {
          "indexed": false,
          "internalType": "uint256",
          "name": "fee",
          "type": "uint256"
        }
      ],
      "name": "FlashLoanExecuted",
      "type": "event"
    },
    {
      "anonymous": false,
      "inputs": [
        {
          "indexed": true,
          "internalType": "address",
          "name": "borrower",
          "type": "address"
        },
        {
          "indexed": true,
          "internalType": "address",
          "name": "asset",
          "type": "address"
        },
        {
          "indexed": false,
          "internalType": "uint256",
          "name": "amount",
          "type": "uint256"
        }
      ],
      "name": "FlashLoanRequested",
      "type": "event"
    },
    {
      "anonymous": false,
      "inputs": [
        {
          "indexed": true,
          "internalType": "address",
          "name": "previousOwner",
          "type": "address"
        },
        {
          "indexed": true,
          "internalType": "address",
          "name": "newOwner",
          "type": "address"
        }
      ],
      "name": "OwnershipTransferred",
      "type": "event"
    },
    {
      "inputs": [],
      "name": "FEE_DENOMINATOR",
      "outputs": [
        {
          "internalType": "uint256",
          "name": "",
          "type": "uint256"
        }
      ],
      "stateMutability": "view",
      "type": "function"
    },
    {
      "inputs": [
        {
          "internalType": "address",
          "name": "",
          "type": "address"
        }
      ],
      "name": "authorizedBorrowers",
      "outputs": [
        {
          "internalType": "bool",
          "name": "",
          "type": "bool"
        }
      ],
      "stateMutability": "view",
      "type": "function"
    },
    {
      "inputs": [
        {
          "internalType": "uint256",
          "name": "amount",
          "type": "uint256"
        }
      ],
      "name": "calculateFee",
      "outputs": [
        {
          "internalType": "uint256",
          "name": "",
          "type": "uint256"
        }
      ],
      "stateMutability": "view",
      "type": "function"
    },
    {
      "inputs": [
        {
          "internalType": "address",
          "name": "asset",
          "type": "address"
        },
        {
          "internalType": "uint256",
          "name": "amount",
          "type": "uint256"
        }
      ],
      "name": "deposit",
      "outputs": [],
      "stateMutability": "nonpayable",
      "type": "function"
    },
    {
      "inputs": [
        {
          "internalType": "address",
          "name": "asset",
          "type": "address"
        }
      ],
      "name": "emergencyRecover",
      "outputs": [],
      "stateMutability": "nonpayable",
      "type": "function"
    },
    {
      "inputs": [],
      "name": "flashLoanFeePercent",
      "outputs": [
        {
          "internalType": "uint256",
          "name": "",
          "type": "uint256"
        }
      ],
      "stateMutability": "view",
      "type": "function"
    },
    {
      "inputs": [
        {
          "internalType": "address",
          "name": "asset",
          "type": "address"
        }
      ],
      "name": "getBalance",
      "outputs": [
        {
          "internalType": "uint256",
          "name": "",
          "type": "uint256"
        }
      ],
      "stateMutability": "view",
      "type": "function"
    },
    {
      "inputs": [],
      "name": "owner",
      "outputs": [
        {
          "internalType": "address",
          "name": "",
          "type": "address"
        }
      ],
      "stateMutability": "view",
      "type": "function"
    },
    {
      "inputs": [],
      "name": "renounceOwnership",
      "outputs": [],
      "stateMutability": "nonpayable",
      "type": "function"
    },
    {
      "inputs": [
        {
          "internalType": "address",
          "name": "asset",
          "type": "address"
        },
        {
          "internalType": "uint256",
          "name": "amount",
          "type": "uint256"
        }
      ],
      "name": "requestFlashLoan",
      "outputs": [],
      "stateMutability": "nonpayable",
      "type": "function"
    },
    {
      "inputs": [
        {
          "internalType": "address",
          "name": "borrower",
          "type": "address"
        },
        {
          "internalType": "bool",
          "name": "authorized",
          "type": "bool"
        }
      ],
      "name": "setAuthorizedBorrower",
      "outputs": [],
      "stateMutability": "nonpayable",
      "type": "function"
    },
    {
      "inputs": [
        {
          "internalType": "uint256",
          "name": "feePercent",
          "type": "uint256"
        }
      ],
      "name": "setFlashLoanFee",
      "outputs": [],
      "stateMutability": "nonpayable",
      "type": "function"
    },
    {
      "inputs": [
        {
          "internalType": "address",
          "name": "",
          "type": "address"
        }
      ],
      "name": "totalBorrowed",
      "outputs": [
        {
          "internalType": "uint256",
          "name": "",
          "type": "uint256"
        }
      ],
      "stateMutability": "view",
      "type": "function"
    },
    {
      "inputs": [
        {
          "internalType": "address",
          "name": "newOwner",
          "type": "address"
        }
      ],
      "name": "transferOwnership",
      "outputs": [],
      "stateMutability": "nonpayable",
      "type": "function"
    },
    {
      "inputs": [
        {
          "internalType": "address",
          "name": "asset",
          "type": "address"
        },
        {
          "internalType": "uint256",
          "name": "amount",
          "type": "uint256"
        }
      ],
      "name": "withdraw",
      "outputs": [],
      "stateMutability": "nonpayable",
      "type": "function"
    },
    {
      "stateMutability": "payable",
      "type": "receive"
    }
  ],
  "bytecode": "0x6080806040523461009a5733156100845760008054336001600160a01b0319821681178355604080519390929091906001600160a01b03167f8be0079c531659141344cd1fd0a4f28419497f9722a3daafe3b4186f6b6457e08380a3600180556009600455338152600260205220600160ff19825416179055610b6d90816100a08239f35b631e4fbdf760e01b815260006004820152602490fd5b600080fdfe60406080815260049081361015610020575b5050361561001e57600080fd5b005b600090813560e01c806312314982146109c957806347e7ef241461093a578063715018a6146108e05780638da5cb5b146108b95780638fdbb0731461087c57806399a5d7471461084e578063aafafa9f1461073a578063d54ba9541461042f578063d73792a914610413578063e2e1ca2b146103dc578063e92d0d5d1461037e578063ea0af24914610360578063f2fde38b146102d9578063f3fef3a31461016f5763f8b2cb4f146100d25750610011565b3461016b576020928360031936011261016757836001600160a01b036100f6610a1e565b169160248451809481936370a0823160e01b835230908301525afa92831561015c578093610127575b505051908152f35b909192508382813d8311610155575b6101408183610ab1565b8101031261015257505190388061011f565b80fd5b503d610136565b8251903d90823e3d90fd5b8280fd5b5080fd5b503461016b578060031936011261016b57610188610a1e565b9060243593610195610a39565b6101a0851515610a65565b81516370a0823160e01b815230818301526020936001600160a01b0390811692918581602481875afa9081156102cf57908891889161029a575b5010610260578554845163a9059cbb60e01b815291166001600160a01b0316918101918252602082018790529291849184919082908890829060400103925af1908115610257575061022a578280f35b8161024992903d10610250575b6102418183610ab1565b810190610b1f565b5081808280f35b503d610237565b513d85823e3d90fd5b835162461bcd60e51b81528083018690526014602482015273496e73756666696369656e742062616c616e636560601b6044820152606490fd5b809250878092503d83116102c8575b6102b38183610ab1565b810103126102c457879051386101da565b8680fd5b503d6102a9565b85513d89823e3d90fd5b508234610167576020366003190112610167576102f4610a1e565b906102fd610a39565b6001600160a01b0391821692831561034a57505082546001600160a01b0319811683178455167f8be0079c531659141344cd1fd0a4f28419497f9722a3daafe3b4186f6b6457e08380a380f35b51631e4fbdf760e01b8152908101849052602490fd5b50823461016757826003193601126101675760209250549051908152f35b5082346101675760203660031901126101675780359161039c610a39565b6103e883116103aa57505580f35b906020606492519162461bcd60e51b8352820152600c60248201526b08ccaca40e8dede40d0d2ced60a31b6044820152fd5b503461016b57602036600319011261016b5760209181906001600160a01b03610403610a1e565b1681526003845220549051908152f35b503461016b578160031936011261016b57602090516127108152f35b5082903461016757806003193601126101675761044a610a1e565b9060248035923386526020906002825260ff84882054168015610727575b156106f4576002600154146106e4576002600155610487851515610a65565b83516370a0823160e01b80825230828901526001600160a01b039290921696919390838183818b5afa9081156106da5789916106a9575b50868110610668576127106104d4845489610ae9565b04946104e08689610b12565b508887518981527f292fb3c270ecb1c63f6f48e5c32cacb2be1e6e424d7da85cdde93cc321dbfb97873392a3865163a9059cbb60e01b815233858201908152602081018a905286908290819003604001818e8e5af1801561065e57610641575b5086519081523084820152848184818c5afa9081156106375786908b92610601575b5061056d9192610b12565b116105c1575050907f9d0d497e678f62d6b162c97b9724a39f45fe674650dcd4a5e88ff6317e63764f9291858752600381528287206105ad868254610b12565b905582519485528401523392a36001805580f35b601e9060649386519362461bcd60e51b85528401528201527f466c617368206c6f616e206e6f742072657061696420776974682066656500006044820152fd5b809250868092503d8311610630575b61061a8183610ab1565b8101031261062c57518561056d610562565b8980fd5b503d610610565b87513d8c823e3d90fd5b61065790863d8811610250576102418183610ab1565b508a610540565b88513d8d823e3d90fd5b50601d9060649386519362461bcd60e51b85528401528201527f496e73756666696369656e7420636f6e74726163742062616c616e63650000006044820152fd5b90508381813d83116106d3575b6106c08183610ab1565b810103126106cf5751896104be565b8880fd5b503d6106b6565b86513d8b823e3d90fd5b8351633ee5aeb560e01b81528690fd5b835162461bcd60e51b8152808701839052600e818501526d139bdd08185d5d1a1bdc9a5e995960921b6044820152606490fd5b5086546001600160a01b03163314610468565b508183913461016b576020928360031936011261016757610759610a1e565b90610762610a39565b82516370a0823160e01b815230828201526001600160a01b03929091908316908683602481855afa928315610844578693610811575b50826107a2578580f35b8554855163a9059cbb60e01b815294166001600160a01b0316908401908152602081019290925291938592859290918391829060400103925af190811561025757506107f3575b8080808086948580f35b8161080992903d10610250576102418183610ab1565b5081806107e9565b9092508681813d831161083d575b6108298183610ab1565b8101031261083957519188610798565b8580fd5b503d61081f565b85513d88823e3d90fd5b509034610152576020366003190112610152575061271061087483602094549035610ae9565b049051908152f35b503461016b57602036600319011261016b5760209160ff9082906001600160a01b036108a6610a1e565b1681526002855220541690519015158152f35b503461016b578160031936011261016b57905490516001600160a01b039091168152602090f35b82346101525780600319360112610152576108f9610a39565b80546001600160a01b03198116825581906001600160a01b03167f8be0079c531659141344cd1fd0a4f28419497f9722a3daafe3b4186f6b6457e08280a380f35b508290346101675780600319360112610167576020610957610a1e565b92606460243591610969831515610a65565b86855196879485936323b872dd60e01b85523390850152306024850152604484015260018060a01b03165af19081156109c057506109a5575080f35b6109bc9060203d8111610250576102418183610ab1565b5080f35b513d84823e3d90fd5b503461016b578060031936011261016b576109e2610a1e565b9060243591821515809303610a1a576109f9610a39565b60018060a01b03168352600260205282209060ff8019835416911617905580f35b8380fd5b600435906001600160a01b0382168203610a3457565b600080fd5b6000546001600160a01b03163303610a4d57565b60405163118cdaa760e01b8152336004820152602490fd5b15610a6c57565b60405162461bcd60e51b815260206004820152601d60248201527f416d6f756e74206d7573742062652067726561746572207468616e20300000006044820152606490fd5b90601f8019910116810190811067ffffffffffffffff821117610ad357604052565b634e487b7160e01b600052604160045260246000fd5b81810292918115918404141715610afc57565b634e487b7160e01b600052601160045260246000fd5b91908201809211610afc57565b90816020910312610a3457518015158103610a34579056fea2646970667358221220625dada579f4d48d15e3a5c23cc816523d61666509308e4f51c3276db772273f64736f6c63430008140033",
  "linkReferences": {},
  "deployedLinkReferences": {}
}