{
  "_format": "hh-sol-artifact-1",
  "contractName": "FlashLoanArbitrage",
  "sourceName": "contracts/FlashLoanArbitrage.sol",
  "abi": [
    {
      "inputs": [
        {
          "internalType": "address",
          "name": "_addressProvider",
          "type": "address"
        }
      ],
      "stateMutability": "nonpayable",
      "type": "constructor"
    },
    {
      "inputs": [
        {
          "internalType": "address",
          "name": "owner",
          "type": "address"
        }
      ],
      "name": "OwnableInvalidOwner",
      "type": "error"
    },
    {
      "inputs": [
        {
          "internalType": "address",
          "name": "account",
          "type": "address"
        }
      ],
      "name": "OwnableUnauthorizedAccount",
      "type": "error"
    },
    {
      "inputs": [],
      "name": "ReentrancyGuardReentrantCall",
      "type": "error"
    },
    {
      "anonymous": false,
      "inputs": [
        {
          "indexed": true,
          "internalType": "address",
          "name": "token",
          "type": "address"
        },
        {
          "indexed": false,
          "internalType": "uint256",
          "name": "amountIn",
          "type": "uint256"
        },
        {
          "indexed": false,
          "internalType": "uint256",
          "name": "profit",
          "type": "uint256"
        },
        {
          "indexed": false,
          "internalType": "uint256",
          "name": "gasUsed",
          "type": "uint256"
        }
      ],
      "name": "ArbitrageExecuted",
      "type": "event"
    },
    {
      "anonymous": false,
      "inputs": [
        {
          "indexed": true,
          "internalType": "address",
          "name": "token",
          "type": "address"
        },
        {
          "indexed": false,
          "internalType": "uint256",
          "name": "amountIn",
          "type": "uint256"
        },
        {
          "indexed": false,
          "internalType": "string",
          "name": "reason",
          "type": "string"
        }
      ],
      "name": "ArbitrageFailed",
      "type": "event"
    },
    {
      "anonymous": false,
      "inputs": [
        {
          "indexed": true,
          "internalType": "address",
          "name": "asset",
          "type": "address"
        },
        {
          "indexed": false,
          "internalType": "uint256",
          "name": "amount",
          "type": "uint256"
        },
        {
          "indexed": false,
          "internalType": "uint256",
          "name": "profit",
          "type": "uint256"
        },
        {
          "indexed": false,
          "internalType": "uint256",
          "name": "flashLoanFee",
          "type": "uint256"
        }
      ],
      "name": "FlashLoanArbitrageExecuted",
      "type": "event"
    },
    {
      "anonymous": false,
      "inputs": [
        {
          "indexed": true,
          "internalType": "address",
          "name": "previousOwner",
          "type": "address"
        },
        {
          "indexed": true,
          "internalType": "address",
          "name": "newOwner",
          "type": "address"
        }
      ],
      "name": "OwnershipTransferred",
      "type": "event"
    },
    {
      "inputs": [],
      "name": "ADDRESSES_PROVIDER",
      "outputs": [
        {
          "internalType": "contract IPoolAddressesProvider",
          "name": "",
          "type": "address"
        }
      ],
      "stateMutability": "view",
      "type": "function"
    },
    {
      "inputs": [],
      "name": "POOL",
      "outputs": [
        {
          "internalType": "contract IPool",
          "name": "",
          "type": "address"
        }
      ],
      "stateMutability": "view",
      "type": "function"
    },
    {
      "inputs": [
        {
          "internalType": "address",
          "name": "",
          "type": "address"
        }
      ],
      "name": "authorizedCallers",
      "outputs": [
        {
          "internalType": "bool",
          "name": "",
          "type": "bool"
        }
      ],
      "stateMutability": "view",
      "type": "function"
    },
    {
      "inputs": [
        {
          "internalType": "string",
          "name": "",
          "type": "string"
        }
      ],
      "name": "dexRouters",
      "outputs": [
        {
          "internalType": "address",
          "name": "router",
          "type": "address"
        },
        {
          "internalType": "bool",
          "name": "enabled",
          "type": "bool"
        }
      ],
      "stateMutability": "view",
      "type": "function"
    },
    {
      "inputs": [
        {
          "internalType": "address",
          "name": "token",
          "type": "address"
        },
        {
          "internalType": "uint256",
          "name": "amount",
          "type": "uint256"
        }
      ],
      "name": "emergencyWithdraw",
      "outputs": [],
      "stateMutability": "nonpayable",
      "type": "function"
    },
    {
      "inputs": [
        {
          "internalType": "address",
          "name": "asset",
          "type": "address"
        },
        {
          "internalType": "uint256",
          "name": "amount",
          "type": "uint256"
        },
        {
          "internalType": "bytes",
          "name": "params",
          "type": "bytes"
        }
      ],
      "name": "executeArbitrage",
      "outputs": [
        {
          "internalType": "uint256",
          "name": "profit",
          "type": "uint256"
        }
      ],
      "stateMutability": "nonpayable",
      "type": "function"
    },
    {
      "inputs": [
        {
          "internalType": "address",
          "name": "asset",
          "type": "address"
        },
        {
          "internalType": "uint256",
          "name": "amount",
          "type": "uint256"
        },
        {
          "internalType": "bytes",
          "name": "params",
          "type": "bytes"
        }
      ],
      "name": "executeFlashLoanArbitrage",
      "outputs": [],
      "stateMutability": "nonpayable",
      "type": "function"
    },
    {
      "inputs": [
        {
          "internalType": "address",
          "name": "asset",
          "type": "address"
        },
        {
          "internalType": "uint256",
          "name": "amount",
          "type": "uint256"
        },
        {
          "internalType": "uint256",
          "name": "premium",
          "type": "uint256"
        },
        {
          "internalType": "address",
          "name": "initiator",
          "type": "address"
        },
        {
          "internalType": "bytes",
          "name": "params",
          "type": "bytes"
        }
      ],
      "name": "executeOperation",
      "outputs": [
        {
          "internalType": "bool",
          "name": "",
          "type": "bool"
        }
      ],
      "stateMutability": "nonpayable",
      "type": "function"
    },
    {
      "inputs": [
        {
          "internalType": "address",
          "name": "token",
          "type": "address"
        }
      ],
      "name": "getBalance",
      "outputs": [
        {
          "internalType": "uint256",
          "name": "",
          "type": "uint256"
        }
      ],
      "stateMutability": "view",
      "type": "function"
    },
    {
      "inputs": [],
      "name": "getSuccessRate",
      "outputs": [
        {
          "internalType": "uint256",
          "name": "",
          "type": "uint256"
        }
      ],
      "stateMutability": "view",
      "type": "function"
    },
    {
      "inputs": [],
      "name": "getTotalProfit",
      "outputs": [
        {
          "internalType": "uint256",
          "name": "",
          "type": "uint256"
        }
      ],
      "stateMutability": "view",
      "type": "function"
    },
    {
      "inputs": [],
      "name": "owner",
      "outputs": [
        {
          "internalType": "address",
          "name": "",
          "type": "address"
        }
      ],
      "stateMutability": "view",
      "type": "function"
    },
    {
      "inputs": [],
      "name": "paused",
      "outputs": [
        {
          "internalType": "bool",
          "name": "",
          "type": "bool"
        }
      ],
      "stateMutability": "view",
      "type": "function"
    },
    {
      "inputs": [
        {
          "internalType": "address",
          "name": "tokenA",
          "type": "address"
        },
        {
          "internalType": "address",
          "name": "tokenB",
          "type": "address"
        },
        {
          "internalType": "uint256",
          "name": "amount",
          "type": "uint256"
        },
        {
          "internalType": "string",
          "name": "buyDex",
          "type": "string"
        },
        {
          "internalType": "string",
          "name": "sellDex",
          "type": "string"
        },
        {
          "internalType": "uint256",
          "name": "minProfit",
          "type": "uint256"
        }
      ],
      "name": "performArbitrage",
      "outputs": [],
      "stateMutability": "nonpayable",
      "type": "function"
    },
    {
      "inputs": [],
      "name": "renounceOwnership",
      "outputs": [],
      "stateMutability": "nonpayable",
      "type": "function"
    },
    {
      "inputs": [
        {
          "internalType": "address",
          "name": "caller",
          "type": "address"
        },
        {
          "internalType": "bool",
          "name": "authorized",
          "type": "bool"
        }
      ],
      "name": "setAuthorizedCaller",
      "outputs": [],
      "stateMutability": "nonpayable",
      "type": "function"
    },
    {
      "inputs": [
        {
          "internalType": "bool",
          "name": "_paused",
          "type": "bool"
        }
      ],
      "name": "setPaused",
      "outputs": [],
      "stateMutability": "nonpayable",
      "type": "function"
    },
    {
      "inputs": [],
      "name": "successfulTrades",
      "outputs": [
        {
          "internalType": "uint256",
          "name": "",
          "type": "uint256"
        }
      ],
      "stateMutability": "view",
      "type": "function"
    },
    {
      "inputs": [],
      "name": "totalProfit",
      "outputs": [
        {
          "internalType": "uint256",
          "name": "",
          "type": "uint256"
        }
      ],
      "stateMutability": "view",
      "type": "function"
    },
    {
      "inputs": [],
      "name": "totalTrades",
      "outputs": [
        {
          "internalType": "uint256",
          "name": "",
          "type": "uint256"
        }
      ],
      "stateMutability": "view",
      "type": "function"
    },
    {
      "inputs": [
        {
          "internalType": "address",
          "name": "newOwner",
          "type": "address"
        }
      ],
      "name": "transferOwnership",
      "outputs": [],
      "stateMutability": "nonpayable",
      "type": "function"
    },
    {
      "inputs": [
        {
          "internalType": "string",
          "name": "dexName",
          "type": "string"
        },
        {
          "internalType": "address",
          "name": "router",
          "type": "address"
        },
        {
          "internalType": "bool",
          "name": "enabled",
          "type": "bool"
        }
      ],
      "name": "updateDEXRouter",
      "outputs": [],
      "stateMutability": "nonpayable",
      "type": "function"
    },
    {
      "stateMutability": "payable",
      "type": "receive"
    }
  ],
  "bytecode": "0x60c0604090808252346200021f57620018f2803803809162000022828562000256565b83396001600160a01b039182916200003e91908101906200027a565b1690816080528251809263026b1d5f60e01b825281600460209586935afa801562000214578291600091620001e0575b501660a0523315620001c85760008054336001600160a01b0319821681178355855160029594909390928316907f8be0079c531659141344cd1fd0a4f28419497f9722a3daafe3b4186f6b6457e09080a360018055620000ce8262000224565b7394cc0aac535ccdb3c01d6787d6413c739ae12bc48252828201600181528160278751660756e69737761760cc1b8152600780820152209351169280549360ff60a01b809351151560a01b169060018060a81b031980961617179055855192620001388462000224565b731b02da8cb0d097eb8d57a175b88c7d8b4799750684528484019260018452602988516807375736869737761760bc1b815260076009820152209451169184549351151560a01b16921617179055336000525280600020600160ff198254161790555161165690816200029c82396080518161112a015260a051818181610506015281816109240152610be60152f35b8251631e4fbdf760e01b815260006004820152602490fd5b620002059150843d86116200020c575b620001fc818362000256565b8101906200027a565b386200006e565b503d620001f0565b84513d6000823e3d90fd5b600080fd5b604081019081106001600160401b038211176200024057604052565b634e487b7160e01b600052604160045260246000fd5b601f909101601f19168101906001600160401b038211908210176200024057604052565b908160209103126200021f57516001600160a01b03811681036200021f579056fe6080604081815260049182361015610022575b505050361561002057600080fd5b005b600092833560e01c9182630542975c146111165750816305785ad41461109d57816316c38b3c146110665781631b11d0ff14610b8d578163454bbd2914610b3b578163536fff6c14610afd5781635c975abb14610ad95781635e7ffa6714610a665781636dfef2b9146109ad578163715018a6146109535781637535d2461461090f5781637c1d9539146106c057816386001519146105d65781638da5cb5b1461069857816395ccea67146105f5578163a9a4cbcc146105d657838263c1386ab9146104b157508163e275c99714610493578163ea0ef62614610270578163f2fde38b146101df578163f8b2cb4f14610147575063fc213996146101265780610012565b346101435781600319360112610143576020906005549051908152f35b5080fd5b83833461014357602092836003193601126101db57836001600160a01b0361016d611159565b169160248451809481936370a0823160e01b835230908301525afa9283156101d0579261019c575b5051908152f35b9091508281813d83116101c9575b6101b4818361120d565b810103126101c457519083610195565b600080fd5b503d6101aa565b8251903d90823e3d90fd5b8280fd5b9050346101db5760203660031901126101db576101fa611159565b906102036112f0565b6001600160a01b0391821692831561025a575050600054826bffffffffffffffffffffffff60a01b821617600055167f8be0079c531659141344cd1fd0a4f28419497f9722a3daafe3b4186f6b6457e0600080a380f35b51631e4fbdf760e01b8152908101849052602490fd5b919050346101db5760c03660031901126101db5761028c611159565b61029461116f565b9160449283359460649182359067ffffffffffffffff9182811161048f576102bf903690850161122f565b9160843590811161048f576102d7903690850161122f565b91303303610454576102ea9089886114f5565b90811561042057906102fc92916114f5565b80156103ed57868111156103b757866103149161142c565b9460a435861061037857505050906103727fac5e73d65c7df1a72a57e0d680767c7e764095957ee44ec036b761799b56afd293925a9051958652602086019390935260408501929092526001600160a01b0316929081906060820190565b0390a280f35b7f50726f6669742062656c6f77206d696e696d756d207468726573686f6c64000090602085519362461bcd60e51b8552840152601e6024840152820152fd5b5072139bc8185c989a5d1c9859d9481c1c9bd99a5d606a1b85602085519362461bcd60e51b855284015260136024840152820152fd5b506f14d95b1b081cddd85c0819985a5b195960821b85602085519362461bcd60e51b855284015260106024840152820152fd5b5050506e109d5e481cddd85c0819985a5b1959608a1b85602085519362461bcd60e51b8552840152600f6024840152820152fd5b50505075496e7465726e616c2066756e6374696f6e206f6e6c7960501b85602085519362461bcd60e51b855284015260166024840152820152fd5b8980fd5b9050346101db57826003193601126101db5760209250549051908152f35b809184346105d2576104c2366112a9565b919492338752600260205260ff858820541680156105bf575b6104e49061131c565b6104f360ff6006541615611359565b6104fb61139a565b6001600160a01b03927f0000000000000000000000000000000000000000000000000000000000000000841692833b156105bb57889582879360c4938a519b8c998a9889966310ac2ddf60e21b88523090880152166024860152604485015260a060648501528160a48501528484013783838284010152836084830152601f801991011681010301925af19081156105b2575061059b575b506001805580f35b6105a4906111c7565b6105af578082610593565b80fd5b513d84823e3d90fd5b8880fd5b5086546001600160a01b031633146104db565b5050fd5b5050346101435781600319360112610143576020906003549051908152f35b919050346101db57806003193601126101db57602061065892610616611159565b61061e6112f0565b8554845163a9059cbb60e01b81526001600160a01b0391821693810193845260243560208501529586938492899290918491604090910190565b0393165af19081156105b2575061066d575080f35b61068d9060203d8111610691575b610685818361120d565b8101906114dd565b5080f35b503d61067b565b505034610143578160031936011261014357905490516001600160a01b039091168152602090f35b919050346101db576106d1366112a9565b9592903384526020966002885260ff868620541680156108fc575b6106f59061131c565b61070460ff6006541615611359565b61070c61139a565b81019160a0828403126108f85761072282611185565b9161072e898201611185565b67ffffffffffffffff94828901358681116105bb578161074f91850161122f565b9560608401359081116105bb579061076891840161122f565b88516370a0823160e01b808252308c83015290976001600160a01b039586169791968d8a6024818c5afa998a156108ee578b9a6108bf575b50303b156108bb57926107d692608095928c97958f8f8b90519b8c9a8b9a6375077b1360e11b8c520135971692169088016113e2565b038183305af180156108b1578892918691610894575b505060248651809481938252308a8301525afa90811561088a57839161085d575b508181111561085557610820925061142c565b915b61082e8360035461144f565b60035561083b815461145c565b905561084860055461145c565b6005556001805551908152f35b505091610822565b90508581813d8311610883575b610874818361120d565b810103126101c457513861080d565b503d61086a565b84513d85823e3d90fd5b6108a0919293506111c7565b6108ad57869084386107ec565b8380fd5b86513d87823e3d90fd5b8a80fd5b9099508d81813d83116108e7575b6108d7818361120d565b810103126101c4575198386107a0565b503d6108cd565b8c513d8d823e3d90fd5b8480fd5b5084546001600160a01b031633146106ec565b505034610143578160031936011261014357517f00000000000000000000000000000000000000000000000000000000000000006001600160a01b03168152602090f35b83346105af57806003193601126105af5761096c6112f0565b600080546001600160a01b0319811682556001600160a01b03167f8be0079c531659141344cd1fd0a4f28419497f9722a3daafe3b4186f6b6457e08280a380f35b9050346101db5760603660031901126101db5780359067ffffffffffffffff82116108ad576109de9136910161122f565b6109e661116f565b604435918215158093036101c4576020610a3191610a026112f0565b81865196610a0f886111f1565b60018060a01b0380961688528188019687525193828580945193849201611286565b8101600781520301902092511682549160ff60a01b9051151560a01b16916affffffffffffffffffffff60a81b161717905580f35b905082346105af5760203660031901126105af5781359067ffffffffffffffff82116105af5750610a9f610ab19260209236910161122f565b81845193828580945193849201611286565b810160078152030190205460ff82519160018060a01b038116835260a01c1615156020820152f35b50503461014357816003193601126101435760209060ff6006541690519015158152f35b5050346101435760203660031901126101435760209160ff9082906001600160a01b03610b28611159565b1681526002855220541690519015158152f35b505034610143578060031936011261014357610b55611159565b90602435918215158093036101c457610b6c6112f0565b60018060a01b03168352600260205282209060ff8019835416911617905580f35b8284346105af5760a03660031901126105af57610ba8611159565b926001600160a01b03606435818116908190036108ad5767ffffffffffffffff9160843583811161106257610be09036908601611199565b829891987f0000000000000000000000000000000000000000000000000000000000000000169384330361101f573003610fdc57880160c089820312610fd857610c2989611185565b94602099610c388b8201611185565b928a8201358381116108bb5781610c5091840161122f565b9260608301359081116108bb5790610c6991830161122f565b968a5193866370a0823160e01b96878752308c88015216988d866024818d5afa958615610fce578c96610f9f575b50303b15610f9b578b9392918b918e5196879586956375077b1360e11b87528c6024359d60808f9401359616911695870195610cd2966113e2565b038183305af19081610f88575b50610e0b57505060018560033d11610dfc575b6308c379a014610d94575b610d8a5791849391610d4995610d1889955b6044359061144f565b885163095ea7b360e01b81526001600160a01b03909316948301948552602085015290958693849291839160400190565b03925af1908115610d7f5750610d62575b505160018152f35b610d7890833d851161069157610685818361120d565b5082610d5a565b8351903d90823e3d90fd5b85513d86823e3d90fd5b610d9c61146b565b80610da8575b50610cfd565b9050837f0e192ba196a0e3aed10f33e5881150a855fdcce8919368f474c59d3741573a72888a610de78a9583519384938985528401528c8301906113bd565b0390a2610df4855461145c565b855588610da2565b508486803e855160e01c610cf2565b875191825230868301528882602481885afa918215610f7e578792610f4f575b5080821115610f4857610e3e908261142c565b60443591610e4c838561144f565b11610ef65795610d1885938a967f1fc0d591c16a3ae7535bc1bdc204cafde83640975dfd66561b790e44dce7d6c4858c869b9997610d499d818111600014610eea57610ee291610e9b9161142c565b915b610ea98360035461144f565b600355610eb68c5461145c565b8c55610ec360055461145c565b6005555192839287846040919493926060820195825260208201520152565b0390a2610d0f565b5050610ee28791610e9d565b875162461bcd60e51b81528087018a9052602660248201527f496e73756666696369656e742066756e647320746f20726570617920666c617360448201526534103637b0b760d11b6064820152608490fd5b5085610e3e565b9091508881813d8311610f77575b610f67818361120d565b810103126101c457519089610e2b565b503d610f5d565b88513d89823e3d90fd5b610f94909891986111c7565b968a610cdf565b8b80fd5b9095508d81813d8311610fc7575b610fb7818361120d565b81010312610f9b5751948e610c97565b503d610fad565b8d513d8e823e3d90fd5b8680fd5b875162461bcd60e51b8152602081880152601f60248201527f496e69746961746f72206d757374206265207468697320636f6e7472616374006044820152606490fd5b885162461bcd60e51b8152602081890152601860248201527f43616c6c6572206d757374206265204141564520506f6f6c00000000000000006044820152606490fd5b8580fd5b83903461014357602036600319011261014357358015158091036101435761108c6112f0565b60ff80196006541691161760065580f35b8284346105af57806003193601126105af578254908115908161110957600554916064830292808404606414901517156110f6576110e357506020935004905b51908152f35b634e487b7160e01b815260128552602490fd5b634e487b7160e01b825260118652602482fd5b91505060209250906110dd565b8490346101435781600319360112610143577f00000000000000000000000000000000000000000000000000000000000000006001600160a01b03168152602090f35b600435906001600160a01b03821682036101c457565b602435906001600160a01b03821682036101c457565b35906001600160a01b03821682036101c457565b9181601f840112156101c45782359167ffffffffffffffff83116101c457602083818601950101116101c457565b67ffffffffffffffff81116111db57604052565b634e487b7160e01b600052604160045260246000fd5b6040810190811067ffffffffffffffff8211176111db57604052565b90601f8019910116810190811067ffffffffffffffff8211176111db57604052565b81601f820112156101c45780359067ffffffffffffffff82116111db5760405192611264601f8401601f19166020018561120d565b828452602083830101116101c457816000926020809301838601378301015290565b60005b8381106112995750506000910152565b8181015183820152602001611289565b60606003198201126101c4576004356001600160a01b03811681036101c45791602435916044359067ffffffffffffffff82116101c4576112ec91600401611199565b9091565b6000546001600160a01b0316330361130457565b60405163118cdaa760e01b8152336004820152602490fd5b1561132357565b60405162461bcd60e51b815260206004820152600e60248201526d139bdd08185d5d1a1bdc9a5e995960921b6044820152606490fd5b1561136057565b60405162461bcd60e51b815260206004820152601260248201527110dbdb9d1c9858dd081a5cc81c185d5cd95960721b6044820152606490fd5b6002600154146113ab576002600155565b604051633ee5aeb560e01b8152600490fd5b906020916113d681518092818552858086019101611286565b601f01601f1916010190565b9695949193611427936114199260a096600180891b038092168b521660208a0152604089015260c0606089015260c08801906113bd565b9086820360808801526113bd565b930152565b9190820391821161143957565b634e487b7160e01b600052601160045260246000fd5b9190820180921161143957565b60001981146114395760010190565b600060443d106114c957604051600319913d83016004833e815167ffffffffffffffff918282113d6024840111176114cc578184019485519384116114d4573d850101602084870101116114cc57506114c99291016020019061120d565b90565b949350505050565b50949350505050565b908160209103126101c4575180151581036101c45790565b91909160405182818094516115108160209788809601611286565b8101600781520301902060405190611527826111f1565b546001600160a01b0380821680845260a09290921c60ff16151585840181905290929181611616575b50156115dd575160405163095ea7b360e01b81529082166001600160a01b031660048201526024810185905291839183916044918391600091165af180156115d1576115b3575b5050606381029080820460631490151715611439576064900490565b816115c992903d1061069157610685818361120d565b503880611597565b6040513d6000823e3d90fd5b60405162461bcd60e51b8152600481018590526011602482015270111156081b9bdd081cdd5c1c1bdc9d1959607a1b6044820152606490fd5b905015153861155056fea2646970667358221220673a2c4aa9e9772085c7aa322e5ba2c76154e5b0e38f1d1bae1148048558dad864736f6c63430008140033",
  "linkReferences": {},
  "deployedLinkReferences": {}
}