{"contracts/FlashLoanArbitrage.sol":{"FlashLoanArbitrage":{"abi":[{"inputs":[{"internalType":"address","name":"_addressProvider","type":"address"}],"stateMutability":"nonpayable","type":"constructor"},{"inputs":[{"internalType":"address","name":"owner","type":"address"}],"name":"OwnableInvalidOwner","type":"error"},{"inputs":[{"internalType":"address","name":"account","type":"address"}],"name":"OwnableUnauthorizedAccount","type":"error"},{"inputs":[],"name":"ReentrancyGuardReentrantCall","type":"error"},{"anonymous":false,"inputs":[{"indexed":true,"internalType":"address","name":"token","type":"address"},{"indexed":false,"internalType":"uint256","name":"amountIn","type":"uint256"},{"indexed":false,"internalType":"uint256","name":"profit","type":"uint256"},{"indexed":false,"internalType":"uint256","name":"gasUsed","type":"uint256"}],"name":"ArbitrageExecuted","type":"event"},{"anonymous":false,"inputs":[{"indexed":true,"internalType":"address","name":"token","type":"address"},{"indexed":false,"internalType":"uint256","name":"amountIn","type":"uint256"},{"indexed":false,"internalType":"string","name":"reason","type":"string"}],"name":"ArbitrageFailed","type":"event"},{"anonymous":false,"inputs":[{"indexed":true,"internalType":"address","name":"asset","type":"address"},{"indexed":false,"internalType":"uint256","name":"amount","type":"uint256"},{"indexed":false,"internalType":"uint256","name":"profit","type":"uint256"},{"indexed":false,"internalType":"uint256","name":"flashLoanFee","type":"uint256"}],"name":"FlashLoanArbitrageExecuted","type":"event"},{"anonymous":false,"inputs":[{"indexed":true,"internalType":"address","name":"previousOwner","type":"address"},{"indexed":true,"internalType":"address","name":"newOwner","type":"address"}],"name":"OwnershipTransferred","type":"event"},{"inputs":[],"name":"ADDRESSES_PROVIDER","outputs":[{"internalType":"contract IPoolAddressesProvider","name":"","type":"address"}],"stateMutability":"view","type":"function"},{"inputs":[],"name":"POOL","outputs":[{"internalType":"contract IPool","name":"","type":"address"}],"stateMutability":"view","type":"function"},{"inputs":[{"internalType":"address","name":"","type":"address"}],"name":"authorizedCallers","outputs":[{"internalType":"bool","name":"","type":"bool"}],"stateMutability":"view","type":"function"},{"inputs":[{"internalType":"string","name":"","type":"string"}],"name":"dexRouters","outputs":[{"internalType":"address","name":"router","type":"address"},{"internalType":"bool","name":"enabled","type":"bool"}],"stateMutability":"view","type":"function"},{"inputs":[{"internalType":"address","name":"token","type":"address"},{"internalType":"uint256","name":"amount","type":"uint256"}],"name":"emergencyWithdraw","outputs":[],"stateMutability":"nonpayable","type":"function"},{"inputs":[{"internalType":"address","name":"asset","type":"address"},{"internalType":"uint256","name":"amount","type":"uint256"},{"internalType":"bytes","name":"params","type":"bytes"}],"name":"executeArbitrage","outputs":[{"internalType":"uint256","name":"profit","type":"uint256"}],"stateMutability":"nonpayable","type":"function"},{"inputs":[{"internalType":"address","name":"asset","type":"address"},{"internalType":"uint256","name":"amount","type":"uint256"},{"internalType":"bytes","name":"params","type":"bytes"}],"name":"executeFlashLoanArbitrage","outputs":[],"stateMutability":"nonpayable","type":"function"},{"inputs":[{"internalType":"address","name":"asset","type":"address"},{"internalType":"uint256","name":"amount","type":"uint256"},{"internalType":"uint256","name":"premium","type":"uint256"},{"internalType":"address","name":"initiator","type":"address"},{"internalType":"bytes","name":"params","type":"bytes"}],"name":"executeOperation","outputs":[{"internalType":"bool","name":"","type":"bool"}],"stateMutability":"nonpayable","type":"function"},{"inputs":[{"internalType":"address","name":"token","type":"address"}],"name":"getBalance","outputs":[{"internalType":"uint256","name":"","type":"uint256"}],"stateMutability":"view","type":"function"},{"inputs":[],"name":"getSuccessRate","outputs":[{"internalType":"uint256","name":"","type":"uint256"}],"stateMutability":"view","type":"function"},{"inputs":[],"name":"getTotalProfit","outputs":[{"internalType":"uint256","name":"","type":"uint256"}],"stateMutability":"view","type":"function"},{"inputs":[],"name":"owner","outputs":[{"internalType":"address","name":"","type":"address"}],"stateMutability":"view","type":"function"},{"inputs":[],"name":"paused","outputs":[{"internalType":"bool","name":"","type":"bool"}],"stateMutability":"view","type":"function"},{"inputs":[{"internalType":"address","name":"tokenA","type":"address"},{"internalType":"address","name":"tokenB","type":"address"},{"internalType":"uint256","name":"amount","type":"uint256"},{"internalType":"string","name":"buyDex","type":"string"},{"internalType":"string","name":"sellDex","type":"string"},{"internalType":"uint256","name":"minProfit","type":"uint256"}],"name":"performArbitrage","outputs":[],"stateMutability":"nonpayable","type":"function"},{"inputs":[],"name":"renounceOwnership","outputs":[],"stateMutability":"nonpayable","type":"function"},{"inputs":[{"internalType":"address","name":"caller","type":"address"},{"internalType":"bool","name":"authorized","type":"bool"}],"name":"setAuthorizedCaller","outputs":[],"stateMutability":"nonpayable","type":"function"},{"inputs":[{"internalType":"bool","name":"_paused","type":"bool"}],"name":"setPaused","outputs":[],"stateMutability":"nonpayable","type":"function"},{"inputs":[],"name":"successfulTrades","outputs":[{"internalType":"uint256","name":"","type":"uint256"}],"stateMutability":"view","type":"function"},{"inputs":[],"name":"totalProfit","outputs":[{"internalType":"uint256","name":"","type":"uint256"}],"stateMutability":"view","type":"function"},{"inputs":[],"name":"totalTrades","outputs":[{"internalType":"uint256","name":"","type":"uint256"}],"stateMutability":"view","type":"function"},{"inputs":[{"internalType":"address","name":"newOwner","type":"address"}],"name":"transferOwnership","outputs":[],"stateMutability":"nonpayable","type":"function"},{"inputs":[{"internalType":"string","name":"dexName","type":"string"},{"internalType":"address","name":"router","type":"address"},{"internalType":"bool","name":"enabled","type":"bool"}],"name":"updateDEXRouter","outputs":[],"stateMutability":"nonpayable","type":"function"},{"stateMutability":"payable","type":"receive"}],"evm":{"bytecode":{"linkReferences":{},"object":"60c0604090808252346200021f57620018f2803803809162000022828562000256565b83396001600160a01b039182916200003e91908101906200027a565b1690816080528251809263026b1d5f60e01b825281600460209586935afa801562000214578291600091620001e0575b501660a0523315620001c85760008054336001600160a01b0319821681178355855160029594909390928316907f8be0079c531659141344cd1fd0a4f28419497f9722a3daafe3b4186f6b6457e09080a360018055620000ce8262000224565b7394cc0aac535ccdb3c01d6787d6413c739ae12bc48252828201600181528160278751660756e69737761760cc1b8152600780820152209351169280549360ff60a01b809351151560a01b169060018060a81b031980961617179055855192620001388462000224565b731b02da8cb0d097eb8d57a175b88c7d8b4799750684528484019260018452602988516807375736869737761760bc1b815260076009820152209451169184549351151560a01b16921617179055336000525280600020600160ff198254161790555161165690816200029c82396080518161112a015260a051818181610506015281816109240152610be60152f35b8251631e4fbdf760e01b815260006004820152602490fd5b620002059150843d86116200020c575b620001fc818362000256565b8101906200027a565b386200006e565b503d620001f0565b84513d6000823e3d90fd5b600080fd5b604081019081106001600160401b038211176200024057604052565b634e487b7160e01b600052604160045260246000fd5b601f909101601f19168101906001600160401b038211908210176200024057604052565b908160209103126200021f57516001600160a01b03811681036200021f579056fe6080604081815260049182361015610022575b505050361561002057600080fd5b005b600092833560e01c9182630542975c146111165750816305785ad41461109d57816316c38b3c146110665781631b11d0ff14610b8d578163454bbd2914610b3b578163536fff6c14610afd5781635c975abb14610ad95781635e7ffa6714610a665781636dfef2b9146109ad578163715018a6146109535781637535d2461461090f5781637c1d9539146106c057816386001519146105d65781638da5cb5b1461069857816395ccea67146105f5578163a9a4cbcc146105d657838263c1386ab9146104b157508163e275c99714610493578163ea0ef62614610270578163f2fde38b146101df578163f8b2cb4f14610147575063fc213996146101265780610012565b346101435781600319360112610143576020906005549051908152f35b5080fd5b83833461014357602092836003193601126101db57836001600160a01b0361016d611159565b169160248451809481936370a0823160e01b835230908301525afa9283156101d0579261019c575b5051908152f35b9091508281813d83116101c9575b6101b4818361120d565b810103126101c457519083610195565b600080fd5b503d6101aa565b8251903d90823e3d90fd5b8280fd5b9050346101db5760203660031901126101db576101fa611159565b906102036112f0565b6001600160a01b0391821692831561025a575050600054826bffffffffffffffffffffffff60a01b821617600055167f8be0079c531659141344cd1fd0a4f28419497f9722a3daafe3b4186f6b6457e0600080a380f35b51631e4fbdf760e01b8152908101849052602490fd5b919050346101db5760c03660031901126101db5761028c611159565b61029461116f565b9160449283359460649182359067ffffffffffffffff9182811161048f576102bf903690850161122f565b9160843590811161048f576102d7903690850161122f565b91303303610454576102ea9089886114f5565b90811561042057906102fc92916114f5565b80156103ed57868111156103b757866103149161142c565b9460a435861061037857505050906103727fac5e73d65c7df1a72a57e0d680767c7e764095957ee44ec036b761799b56afd293925a9051958652602086019390935260408501929092526001600160a01b0316929081906060820190565b0390a280f35b7f50726f6669742062656c6f77206d696e696d756d207468726573686f6c64000090602085519362461bcd60e51b8552840152601e6024840152820152fd5b5072139bc8185c989a5d1c9859d9481c1c9bd99a5d606a1b85602085519362461bcd60e51b855284015260136024840152820152fd5b506f14d95b1b081cddd85c0819985a5b195960821b85602085519362461bcd60e51b855284015260106024840152820152fd5b5050506e109d5e481cddd85c0819985a5b1959608a1b85602085519362461bcd60e51b8552840152600f6024840152820152fd5b50505075496e7465726e616c2066756e6374696f6e206f6e6c7960501b85602085519362461bcd60e51b855284015260166024840152820152fd5b8980fd5b9050346101db57826003193601126101db5760209250549051908152f35b809184346105d2576104c2366112a9565b919492338752600260205260ff858820541680156105bf575b6104e49061131c565b6104f360ff6006541615611359565b6104fb61139a565b6001600160a01b03927f0000000000000000000000000000000000000000000000000000000000000000841692833b156105bb57889582879360c4938a519b8c998a9889966310ac2ddf60e21b88523090880152166024860152604485015260a060648501528160a48501528484013783838284010152836084830152601f801991011681010301925af19081156105b2575061059b575b506001805580f35b6105a4906111c7565b6105af578082610593565b80fd5b513d84823e3d90fd5b8880fd5b5086546001600160a01b031633146104db565b5050fd5b5050346101435781600319360112610143576020906003549051908152f35b919050346101db57806003193601126101db57602061065892610616611159565b61061e6112f0565b8554845163a9059cbb60e01b81526001600160a01b0391821693810193845260243560208501529586938492899290918491604090910190565b0393165af19081156105b2575061066d575080f35b61068d9060203d8111610691575b610685818361120d565b8101906114dd565b5080f35b503d61067b565b505034610143578160031936011261014357905490516001600160a01b039091168152602090f35b919050346101db576106d1366112a9565b9592903384526020966002885260ff868620541680156108fc575b6106f59061131c565b61070460ff6006541615611359565b61070c61139a565b81019160a0828403126108f85761072282611185565b9161072e898201611185565b67ffffffffffffffff94828901358681116105bb578161074f91850161122f565b9560608401359081116105bb579061076891840161122f565b88516370a0823160e01b808252308c83015290976001600160a01b039586169791968d8a6024818c5afa998a156108ee578b9a6108bf575b50303b156108bb57926107d692608095928c97958f8f8b90519b8c9a8b9a6375077b1360e11b8c520135971692169088016113e2565b038183305af180156108b1578892918691610894575b505060248651809481938252308a8301525afa90811561088a57839161085d575b508181111561085557610820925061142c565b915b61082e8360035461144f565b60035561083b815461145c565b905561084860055461145c565b6005556001805551908152f35b505091610822565b90508581813d8311610883575b610874818361120d565b810103126101c457513861080d565b503d61086a565b84513d85823e3d90fd5b6108a0919293506111c7565b6108ad57869084386107ec565b8380fd5b86513d87823e3d90fd5b8a80fd5b9099508d81813d83116108e7575b6108d7818361120d565b810103126101c4575198386107a0565b503d6108cd565b8c513d8d823e3d90fd5b8480fd5b5084546001600160a01b031633146106ec565b505034610143578160031936011261014357517f00000000000000000000000000000000000000000000000000000000000000006001600160a01b03168152602090f35b83346105af57806003193601126105af5761096c6112f0565b600080546001600160a01b0319811682556001600160a01b03167f8be0079c531659141344cd1fd0a4f28419497f9722a3daafe3b4186f6b6457e08280a380f35b9050346101db5760603660031901126101db5780359067ffffffffffffffff82116108ad576109de9136910161122f565b6109e661116f565b604435918215158093036101c4576020610a3191610a026112f0565b81865196610a0f886111f1565b60018060a01b0380961688528188019687525193828580945193849201611286565b8101600781520301902092511682549160ff60a01b9051151560a01b16916affffffffffffffffffffff60a81b161717905580f35b905082346105af5760203660031901126105af5781359067ffffffffffffffff82116105af5750610a9f610ab19260209236910161122f565b81845193828580945193849201611286565b810160078152030190205460ff82519160018060a01b038116835260a01c1615156020820152f35b50503461014357816003193601126101435760209060ff6006541690519015158152f35b5050346101435760203660031901126101435760209160ff9082906001600160a01b03610b28611159565b1681526002855220541690519015158152f35b505034610143578060031936011261014357610b55611159565b90602435918215158093036101c457610b6c6112f0565b60018060a01b03168352600260205282209060ff8019835416911617905580f35b8284346105af5760a03660031901126105af57610ba8611159565b926001600160a01b03606435818116908190036108ad5767ffffffffffffffff9160843583811161106257610be09036908601611199565b829891987f0000000000000000000000000000000000000000000000000000000000000000169384330361101f573003610fdc57880160c089820312610fd857610c2989611185565b94602099610c388b8201611185565b928a8201358381116108bb5781610c5091840161122f565b9260608301359081116108bb5790610c6991830161122f565b968a5193866370a0823160e01b96878752308c88015216988d866024818d5afa958615610fce578c96610f9f575b50303b15610f9b578b9392918b918e5196879586956375077b1360e11b87528c6024359d60808f9401359616911695870195610cd2966113e2565b038183305af19081610f88575b50610e0b57505060018560033d11610dfc575b6308c379a014610d94575b610d8a5791849391610d4995610d1889955b6044359061144f565b885163095ea7b360e01b81526001600160a01b03909316948301948552602085015290958693849291839160400190565b03925af1908115610d7f5750610d62575b505160018152f35b610d7890833d851161069157610685818361120d565b5082610d5a565b8351903d90823e3d90fd5b85513d86823e3d90fd5b610d9c61146b565b80610da8575b50610cfd565b9050837f0e192ba196a0e3aed10f33e5881150a855fdcce8919368f474c59d3741573a72888a610de78a9583519384938985528401528c8301906113bd565b0390a2610df4855461145c565b855588610da2565b508486803e855160e01c610cf2565b875191825230868301528882602481885afa918215610f7e578792610f4f575b5080821115610f4857610e3e908261142c565b60443591610e4c838561144f565b11610ef65795610d1885938a967f1fc0d591c16a3ae7535bc1bdc204cafde83640975dfd66561b790e44dce7d6c4858c869b9997610d499d818111600014610eea57610ee291610e9b9161142c565b915b610ea98360035461144f565b600355610eb68c5461145c565b8c55610ec360055461145c565b6005555192839287846040919493926060820195825260208201520152565b0390a2610d0f565b5050610ee28791610e9d565b875162461bcd60e51b81528087018a9052602660248201527f496e73756666696369656e742066756e647320746f20726570617920666c617360448201526534103637b0b760d11b6064820152608490fd5b5085610e3e565b9091508881813d8311610f77575b610f67818361120d565b810103126101c457519089610e2b565b503d610f5d565b88513d89823e3d90fd5b610f94909891986111c7565b968a610cdf565b8b80fd5b9095508d81813d8311610fc7575b610fb7818361120d565b81010312610f9b5751948e610c97565b503d610fad565b8d513d8e823e3d90fd5b8680fd5b875162461bcd60e51b8152602081880152601f60248201527f496e69746961746f72206d757374206265207468697320636f6e7472616374006044820152606490fd5b885162461bcd60e51b8152602081890152601860248201527f43616c6c6572206d757374206265204141564520506f6f6c00000000000000006044820152606490fd5b8580fd5b83903461014357602036600319011261014357358015158091036101435761108c6112f0565b60ff80196006541691161760065580f35b8284346105af57806003193601126105af578254908115908161110957600554916064830292808404606414901517156110f6576110e357506020935004905b51908152f35b634e487b7160e01b815260128552602490fd5b634e487b7160e01b825260118652602482fd5b91505060209250906110dd565b8490346101435781600319360112610143577f00000000000000000000000000000000000000000000000000000000000000006001600160a01b03168152602090f35b600435906001600160a01b03821682036101c457565b602435906001600160a01b03821682036101c457565b35906001600160a01b03821682036101c457565b9181601f840112156101c45782359167ffffffffffffffff83116101c457602083818601950101116101c457565b67ffffffffffffffff81116111db57604052565b634e487b7160e01b600052604160045260246000fd5b6040810190811067ffffffffffffffff8211176111db57604052565b90601f8019910116810190811067ffffffffffffffff8211176111db57604052565b81601f820112156101c45780359067ffffffffffffffff82116111db5760405192611264601f8401601f19166020018561120d565b828452602083830101116101c457816000926020809301838601378301015290565b60005b8381106112995750506000910152565b8181015183820152602001611289565b60606003198201126101c4576004356001600160a01b03811681036101c45791602435916044359067ffffffffffffffff82116101c4576112ec91600401611199565b9091565b6000546001600160a01b0316330361130457565b60405163118cdaa760e01b8152336004820152602490fd5b1561132357565b60405162461bcd60e51b815260206004820152600e60248201526d139bdd08185d5d1a1bdc9a5e995960921b6044820152606490fd5b1561136057565b60405162461bcd60e51b815260206004820152601260248201527110dbdb9d1c9858dd081a5cc81c185d5cd95960721b6044820152606490fd5b6002600154146113ab576002600155565b604051633ee5aeb560e01b8152600490fd5b906020916113d681518092818552858086019101611286565b601f01601f1916010190565b9695949193611427936114199260a096600180891b038092168b521660208a0152604089015260c0606089015260c08801906113bd565b9086820360808801526113bd565b930152565b9190820391821161143957565b634e487b7160e01b600052601160045260246000fd5b9190820180921161143957565b60001981146114395760010190565b600060443d106114c957604051600319913d83016004833e815167ffffffffffffffff918282113d6024840111176114cc578184019485519384116114d4573d850101602084870101116114cc57506114c99291016020019061120d565b90565b949350505050565b50949350505050565b908160209103126101c4575180151581036101c45790565b91909160405182818094516115108160209788809601611286565b8101600781520301902060405190611527826111f1565b546001600160a01b0380821680845260a09290921c60ff16151585840181905290929181611616575b50156115dd575160405163095ea7b360e01b81529082166001600160a01b031660048201526024810185905291839183916044918391600091165af180156115d1576115b3575b5050606381029080820460631490151715611439576064900490565b816115c992903d1061069157610685818361120d565b503880611597565b6040513d6000823e3d90fd5b60405162461bcd60e51b8152600481018590526011602482015270111156081b9bdd081cdd5c1c1bdc9d1959607a1b6044820152606490fd5b905015153861155056fea2646970667358221220673a2c4aa9e9772085c7aa322e5ba2c76154e5b0e38f1d1bae1148048558dad864736f6c63430008140033","opcodes":"PUSH1 0xC0 PUSH1 0x40 SWAP1 DUP1 DUP3 MSTORE CALLVALUE PUSH3 0x21F JUMPI PUSH3 0x18F2 DUP1 CODESIZE SUB DUP1 SWAP2 PUSH3 0x22 DUP3 DUP6 PUSH3 0x256 JUMP JUMPDEST DUP4 CODECOPY PUSH1 0x1 PUSH1 0x1 PUSH1 0xA0 SHL SUB SWAP2 DUP3 SWAP2 PUSH3 0x3E SWAP2 SWAP1 DUP2 ADD SWAP1 PUSH3 0x27A JUMP JUMPDEST AND SWAP1 DUP2 PUSH1 0x80 MSTORE DUP3 MLOAD DUP1 SWAP3 PUSH4 0x26B1D5F PUSH1 0xE0 SHL DUP3 MSTORE DUP2 PUSH1 0x4 PUSH1 0x20 SWAP6 DUP7 SWAP4 GAS STATICCALL DUP1 ISZERO PUSH3 0x214 JUMPI DUP3 SWAP2 PUSH1 0x0 SWAP2 PUSH3 0x1E0 JUMPI JUMPDEST POP AND PUSH1 0xA0 MSTORE CALLER ISZERO PUSH3 0x1C8 JUMPI PUSH1 0x0 DUP1 SLOAD CALLER PUSH1 0x1 PUSH1 0x1 PUSH1 0xA0 SHL SUB NOT DUP3 AND DUP2 OR DUP4 SSTORE DUP6 MLOAD PUSH1 0x2 SWAP6 SWAP5 SWAP1 SWAP4 SWAP1 SWAP3 DUP4 AND SWAP1 PUSH32 0x8BE0079C531659141344CD1FD0A4F28419497F9722A3DAAFE3B4186F6B6457E0 SWAP1 DUP1 LOG3 PUSH1 0x1 DUP1 SSTORE PUSH3 0xCE DUP3 PUSH3 0x224 JUMP JUMPDEST PUSH20 0x94CC0AAC535CCDB3C01D6787D6413C739AE12BC4 DUP3 MSTORE DUP3 DUP3 ADD PUSH1 0x1 DUP2 MSTORE DUP2 PUSH1 0x27 DUP8 MLOAD PUSH7 0x756E697377617 PUSH1 0xCC SHL DUP2 MSTORE PUSH1 0x7 DUP1 DUP3 ADD MSTORE KECCAK256 SWAP4 MLOAD AND SWAP3 DUP1 SLOAD SWAP4 PUSH1 0xFF PUSH1 0xA0 SHL DUP1 SWAP4 MLOAD ISZERO ISZERO PUSH1 0xA0 SHL AND SWAP1 PUSH1 0x1 DUP1 PUSH1 0xA8 SHL SUB NOT DUP1 SWAP7 AND OR OR SWAP1 SSTORE DUP6 MLOAD SWAP3 PUSH3 0x138 DUP5 PUSH3 0x224 JUMP JUMPDEST PUSH20 0x1B02DA8CB0D097EB8D57A175B88C7D8B47997506 DUP5 MSTORE DUP5 DUP5 ADD SWAP3 PUSH1 0x1 DUP5 MSTORE PUSH1 0x29 DUP9 MLOAD PUSH9 0x73757368697377617 PUSH1 0xBC SHL DUP2 MSTORE PUSH1 0x7 PUSH1 0x9 DUP3 ADD MSTORE KECCAK256 SWAP5 MLOAD AND SWAP2 DUP5 SLOAD SWAP4 MLOAD ISZERO ISZERO PUSH1 0xA0 SHL AND SWAP3 AND OR OR SWAP1 SSTORE CALLER PUSH1 0x0 MSTORE MSTORE DUP1 PUSH1 0x0 KECCAK256 PUSH1 0x1 PUSH1 0xFF NOT DUP3 SLOAD AND OR SWAP1 SSTORE MLOAD PUSH2 0x1656 SWAP1 DUP2 PUSH3 0x29C DUP3 CODECOPY PUSH1 0x80 MLOAD DUP2 PUSH2 0x112A ADD MSTORE PUSH1 0xA0 MLOAD DUP2 DUP2 DUP2 PUSH2 0x506 ADD MSTORE DUP2 DUP2 PUSH2 0x924 ADD MSTORE PUSH2 0xBE6 ADD MSTORE RETURN JUMPDEST DUP3 MLOAD PUSH4 0x1E4FBDF7 PUSH1 0xE0 SHL DUP2 MSTORE PUSH1 0x0 PUSH1 0x4 DUP3 ADD MSTORE PUSH1 0x24 SWAP1 REVERT JUMPDEST PUSH3 0x205 SWAP2 POP DUP5 RETURNDATASIZE DUP7 GT PUSH3 0x20C JUMPI JUMPDEST PUSH3 0x1FC DUP2 DUP4 PUSH3 0x256 JUMP JUMPDEST DUP2 ADD SWAP1 PUSH3 0x27A JUMP JUMPDEST CODESIZE PUSH3 0x6E JUMP JUMPDEST POP RETURNDATASIZE PUSH3 0x1F0 JUMP JUMPDEST DUP5 MLOAD RETURNDATASIZE PUSH1 0x0 DUP3 RETURNDATACOPY RETURNDATASIZE SWAP1 REVERT JUMPDEST PUSH1 0x0 DUP1 REVERT JUMPDEST PUSH1 0x40 DUP2 ADD SWAP1 DUP2 LT PUSH1 0x1 PUSH1 0x1 PUSH1 0x40 SHL SUB DUP3 GT OR PUSH3 0x240 JUMPI PUSH1 0x40 MSTORE JUMP JUMPDEST PUSH4 0x4E487B71 PUSH1 0xE0 SHL PUSH1 0x0 MSTORE PUSH1 0x41 PUSH1 0x4 MSTORE PUSH1 0x24 PUSH1 0x0 REVERT JUMPDEST PUSH1 0x1F SWAP1 SWAP2 ADD PUSH1 0x1F NOT AND DUP2 ADD SWAP1 PUSH1 0x1 PUSH1 0x1 PUSH1 0x40 SHL SUB DUP3 GT SWAP1 DUP3 LT OR PUSH3 0x240 JUMPI PUSH1 0x40 MSTORE JUMP JUMPDEST SWAP1 DUP2 PUSH1 0x20 SWAP2 SUB SLT PUSH3 0x21F JUMPI MLOAD PUSH1 0x1 PUSH1 0x1 PUSH1 0xA0 SHL SUB DUP2 AND DUP2 SUB PUSH3 0x21F JUMPI SWAP1 JUMP INVALID PUSH1 0x80 PUSH1 0x40 DUP2 DUP2 MSTORE PUSH1 0x4 SWAP2 DUP3 CALLDATASIZE LT ISZERO PUSH2 0x22 JUMPI JUMPDEST POP POP POP CALLDATASIZE ISZERO PUSH2 0x20 JUMPI PUSH1 0x0 DUP1 REVERT JUMPDEST STOP JUMPDEST PUSH1 0x0 SWAP3 DUP4 CALLDATALOAD PUSH1 0xE0 SHR SWAP2 DUP3 PUSH4 0x542975C EQ PUSH2 0x1116 JUMPI POP DUP2 PUSH4 0x5785AD4 EQ PUSH2 0x109D JUMPI DUP2 PUSH4 0x16C38B3C EQ PUSH2 0x1066 JUMPI DUP2 PUSH4 0x1B11D0FF EQ PUSH2 0xB8D JUMPI DUP2 PUSH4 0x454BBD29 EQ PUSH2 0xB3B JUMPI DUP2 PUSH4 0x536FFF6C EQ PUSH2 0xAFD JUMPI DUP2 PUSH4 0x5C975ABB EQ PUSH2 0xAD9 JUMPI DUP2 PUSH4 0x5E7FFA67 EQ PUSH2 0xA66 JUMPI DUP2 PUSH4 0x6DFEF2B9 EQ PUSH2 0x9AD JUMPI DUP2 PUSH4 0x715018A6 EQ PUSH2 0x953 JUMPI DUP2 PUSH4 0x7535D246 EQ PUSH2 0x90F JUMPI DUP2 PUSH4 0x7C1D9539 EQ PUSH2 0x6C0 JUMPI DUP2 PUSH4 0x86001519 EQ PUSH2 0x5D6 JUMPI DUP2 PUSH4 0x8DA5CB5B EQ PUSH2 0x698 JUMPI DUP2 PUSH4 0x95CCEA67 EQ PUSH2 0x5F5 JUMPI DUP2 PUSH4 0xA9A4CBCC EQ PUSH2 0x5D6 JUMPI DUP4 DUP3 PUSH4 0xC1386AB9 EQ PUSH2 0x4B1 JUMPI POP DUP2 PUSH4 0xE275C997 EQ PUSH2 0x493 JUMPI DUP2 PUSH4 0xEA0EF626 EQ PUSH2 0x270 JUMPI DUP2 PUSH4 0xF2FDE38B EQ PUSH2 0x1DF JUMPI DUP2 PUSH4 0xF8B2CB4F EQ PUSH2 0x147 JUMPI POP PUSH4 0xFC213996 EQ PUSH2 0x126 JUMPI DUP1 PUSH2 0x12 JUMP JUMPDEST CALLVALUE PUSH2 0x143 JUMPI DUP2 PUSH1 0x3 NOT CALLDATASIZE ADD SLT PUSH2 0x143 JUMPI PUSH1 0x20 SWAP1 PUSH1 0x5 SLOAD SWAP1 MLOAD SWAP1 DUP2 MSTORE RETURN JUMPDEST POP DUP1 REVERT JUMPDEST DUP4 DUP4 CALLVALUE PUSH2 0x143 JUMPI PUSH1 0x20 SWAP3 DUP4 PUSH1 0x3 NOT CALLDATASIZE ADD SLT PUSH2 0x1DB JUMPI DUP4 PUSH1 0x1 PUSH1 0x1 PUSH1 0xA0 SHL SUB PUSH2 0x16D PUSH2 0x1159 JUMP JUMPDEST AND SWAP2 PUSH1 0x24 DUP5 MLOAD DUP1 SWAP5 DUP2 SWAP4 PUSH4 0x70A08231 PUSH1 0xE0 SHL DUP4 MSTORE ADDRESS SWAP1 DUP4 ADD MSTORE GAS STATICCALL SWAP3 DUP4 ISZERO PUSH2 0x1D0 JUMPI SWAP3 PUSH2 0x19C JUMPI JUMPDEST POP MLOAD SWAP1 DUP2 MSTORE RETURN JUMPDEST SWAP1 SWAP2 POP DUP3 DUP2 DUP2 RETURNDATASIZE DUP4 GT PUSH2 0x1C9 JUMPI JUMPDEST PUSH2 0x1B4 DUP2 DUP4 PUSH2 0x120D JUMP JUMPDEST DUP2 ADD SUB SLT PUSH2 0x1C4 JUMPI MLOAD SWAP1 DUP4 PUSH2 0x195 JUMP JUMPDEST PUSH1 0x0 DUP1 REVERT JUMPDEST POP RETURNDATASIZE PUSH2 0x1AA JUMP JUMPDEST DUP3 MLOAD SWAP1 RETURNDATASIZE SWAP1 DUP3 RETURNDATACOPY RETURNDATASIZE SWAP1 REVERT JUMPDEST DUP3 DUP1 REVERT JUMPDEST SWAP1 POP CALLVALUE PUSH2 0x1DB JUMPI PUSH1 0x20 CALLDATASIZE PUSH1 0x3 NOT ADD SLT PUSH2 0x1DB JUMPI PUSH2 0x1FA PUSH2 0x1159 JUMP JUMPDEST SWAP1 PUSH2 0x203 PUSH2 0x12F0 JUMP JUMPDEST PUSH1 0x1 PUSH1 0x1 PUSH1 0xA0 SHL SUB SWAP2 DUP3 AND SWAP3 DUP4 ISZERO PUSH2 0x25A JUMPI POP POP PUSH1 0x0 SLOAD DUP3 PUSH12 0xFFFFFFFFFFFFFFFFFFFFFFFF PUSH1 0xA0 SHL DUP3 AND OR PUSH1 0x0 SSTORE AND PUSH32 0x8BE0079C531659141344CD1FD0A4F28419497F9722A3DAAFE3B4186F6B6457E0 PUSH1 0x0 DUP1 LOG3 DUP1 RETURN JUMPDEST MLOAD PUSH4 0x1E4FBDF7 PUSH1 0xE0 SHL DUP2 MSTORE SWAP1 DUP2 ADD DUP5 SWAP1 MSTORE PUSH1 0x24 SWAP1 REVERT JUMPDEST SWAP2 SWAP1 POP CALLVALUE PUSH2 0x1DB JUMPI PUSH1 0xC0 CALLDATASIZE PUSH1 0x3 NOT ADD SLT PUSH2 0x1DB JUMPI PUSH2 0x28C PUSH2 0x1159 JUMP JUMPDEST PUSH2 0x294 PUSH2 0x116F JUMP JUMPDEST SWAP2 PUSH1 0x44 SWAP3 DUP4 CALLDATALOAD SWAP5 PUSH1 0x64 SWAP2 DUP3 CALLDATALOAD SWAP1 PUSH8 0xFFFFFFFFFFFFFFFF SWAP2 DUP3 DUP2 GT PUSH2 0x48F JUMPI PUSH2 0x2BF SWAP1 CALLDATASIZE SWAP1 DUP6 ADD PUSH2 0x122F JUMP JUMPDEST SWAP2 PUSH1 0x84 CALLDATALOAD SWAP1 DUP2 GT PUSH2 0x48F JUMPI PUSH2 0x2D7 SWAP1 CALLDATASIZE SWAP1 DUP6 ADD PUSH2 0x122F JUMP JUMPDEST SWAP2 ADDRESS CALLER SUB PUSH2 0x454 JUMPI PUSH2 0x2EA SWAP1 DUP10 DUP9 PUSH2 0x14F5 JUMP JUMPDEST SWAP1 DUP2 ISZERO PUSH2 0x420 JUMPI SWAP1 PUSH2 0x2FC SWAP3 SWAP2 PUSH2 0x14F5 JUMP JUMPDEST DUP1 ISZERO PUSH2 0x3ED JUMPI DUP7 DUP2 GT ISZERO PUSH2 0x3B7 JUMPI DUP7 PUSH2 0x314 SWAP2 PUSH2 0x142C JUMP JUMPDEST SWAP5 PUSH1 0xA4 CALLDATALOAD DUP7 LT PUSH2 0x378 JUMPI POP POP POP SWAP1 PUSH2 0x372 PUSH32 0xAC5E73D65C7DF1A72A57E0D680767C7E764095957EE44EC036B761799B56AFD2 SWAP4 SWAP3 GAS SWAP1 MLOAD SWAP6 DUP7 MSTORE PUSH1 0x20 DUP7 ADD SWAP4 SWAP1 SWAP4 MSTORE PUSH1 0x40 DUP6 ADD SWAP3 SWAP1 SWAP3 MSTORE PUSH1 0x1 PUSH1 0x1 PUSH1 0xA0 SHL SUB AND SWAP3 SWAP1 DUP2 SWAP1 PUSH1 0x60 DUP3 ADD SWAP1 JUMP JUMPDEST SUB SWAP1 LOG2 DUP1 RETURN JUMPDEST PUSH32 0x50726F6669742062656C6F77206D696E696D756D207468726573686F6C640000 SWAP1 PUSH1 0x20 DUP6 MLOAD SWAP4 PUSH3 0x461BCD PUSH1 0xE5 SHL DUP6 MSTORE DUP5 ADD MSTORE PUSH1 0x1E PUSH1 0x24 DUP5 ADD MSTORE DUP3 ADD MSTORE REVERT JUMPDEST POP PUSH19 0x139BC8185C989A5D1C9859D9481C1C9BD99A5D PUSH1 0x6A SHL DUP6 PUSH1 0x20 DUP6 MLOAD SWAP4 PUSH3 0x461BCD PUSH1 0xE5 SHL DUP6 MSTORE DUP5 ADD MSTORE PUSH1 0x13 PUSH1 0x24 DUP5 ADD MSTORE DUP3 ADD MSTORE REVERT JUMPDEST POP PUSH16 0x14D95B1B081CDDD85C0819985A5B1959 PUSH1 0x82 SHL DUP6 PUSH1 0x20 DUP6 MLOAD SWAP4 PUSH3 0x461BCD PUSH1 0xE5 SHL DUP6 MSTORE DUP5 ADD MSTORE PUSH1 0x10 PUSH1 0x24 DUP5 ADD MSTORE DUP3 ADD MSTORE REVERT JUMPDEST POP POP POP PUSH15 0x109D5E481CDDD85C0819985A5B1959 PUSH1 0x8A SHL DUP6 PUSH1 0x20 DUP6 MLOAD SWAP4 PUSH3 0x461BCD PUSH1 0xE5 SHL DUP6 MSTORE DUP5 ADD MSTORE PUSH1 0xF PUSH1 0x24 DUP5 ADD MSTORE DUP3 ADD MSTORE REVERT JUMPDEST POP POP POP PUSH22 0x496E7465726E616C2066756E6374696F6E206F6E6C79 PUSH1 0x50 SHL DUP6 PUSH1 0x20 DUP6 MLOAD SWAP4 PUSH3 0x461BCD PUSH1 0xE5 SHL DUP6 MSTORE DUP5 ADD MSTORE PUSH1 0x16 PUSH1 0x24 DUP5 ADD MSTORE DUP3 ADD MSTORE REVERT JUMPDEST DUP10 DUP1 REVERT JUMPDEST SWAP1 POP CALLVALUE PUSH2 0x1DB JUMPI DUP3 PUSH1 0x3 NOT CALLDATASIZE ADD SLT PUSH2 0x1DB JUMPI PUSH1 0x20 SWAP3 POP SLOAD SWAP1 MLOAD SWAP1 DUP2 MSTORE RETURN JUMPDEST DUP1 SWAP2 DUP5 CALLVALUE PUSH2 0x5D2 JUMPI PUSH2 0x4C2 CALLDATASIZE PUSH2 0x12A9 JUMP JUMPDEST SWAP2 SWAP5 SWAP3 CALLER DUP8 MSTORE PUSH1 0x2 PUSH1 0x20 MSTORE PUSH1 0xFF DUP6 DUP9 KECCAK256 SLOAD AND DUP1 ISZERO PUSH2 0x5BF JUMPI JUMPDEST PUSH2 0x4E4 SWAP1 PUSH2 0x131C JUMP JUMPDEST PUSH2 0x4F3 PUSH1 0xFF PUSH1 0x6 SLOAD AND ISZERO PUSH2 0x1359 JUMP JUMPDEST PUSH2 0x4FB PUSH2 0x139A JUMP JUMPDEST PUSH1 0x1 PUSH1 0x1 PUSH1 0xA0 SHL SUB SWAP3 PUSH32 0x0 DUP5 AND SWAP3 DUP4 EXTCODESIZE ISZERO PUSH2 0x5BB JUMPI DUP9 SWAP6 DUP3 DUP8 SWAP4 PUSH1 0xC4 SWAP4 DUP11 MLOAD SWAP12 DUP13 SWAP10 DUP11 SWAP9 DUP10 SWAP7 PUSH4 0x10AC2DDF PUSH1 0xE2 SHL DUP9 MSTORE ADDRESS SWAP1 DUP9 ADD MSTORE AND PUSH1 0x24 DUP7 ADD MSTORE PUSH1 0x44 DUP6 ADD MSTORE PUSH1 0xA0 PUSH1 0x64 DUP6 ADD MSTORE DUP2 PUSH1 0xA4 DUP6 ADD MSTORE DUP5 DUP5 ADD CALLDATACOPY DUP4 DUP4 DUP3 DUP5 ADD ADD MSTORE DUP4 PUSH1 0x84 DUP4 ADD MSTORE PUSH1 0x1F DUP1 NOT SWAP2 ADD AND DUP2 ADD SUB ADD SWAP3 GAS CALL SWAP1 DUP2 ISZERO PUSH2 0x5B2 JUMPI POP PUSH2 0x59B JUMPI JUMPDEST POP PUSH1 0x1 DUP1 SSTORE DUP1 RETURN JUMPDEST PUSH2 0x5A4 SWAP1 PUSH2 0x11C7 JUMP JUMPDEST PUSH2 0x5AF JUMPI DUP1 DUP3 PUSH2 0x593 JUMP JUMPDEST DUP1 REVERT JUMPDEST MLOAD RETURNDATASIZE DUP5 DUP3 RETURNDATACOPY RETURNDATASIZE SWAP1 REVERT JUMPDEST DUP9 DUP1 REVERT JUMPDEST POP DUP7 SLOAD PUSH1 0x1 PUSH1 0x1 PUSH1 0xA0 SHL SUB AND CALLER EQ PUSH2 0x4DB JUMP JUMPDEST POP POP REVERT JUMPDEST POP POP CALLVALUE PUSH2 0x143 JUMPI DUP2 PUSH1 0x3 NOT CALLDATASIZE ADD SLT PUSH2 0x143 JUMPI PUSH1 0x20 SWAP1 PUSH1 0x3 SLOAD SWAP1 MLOAD SWAP1 DUP2 MSTORE RETURN JUMPDEST SWAP2 SWAP1 POP CALLVALUE PUSH2 0x1DB JUMPI DUP1 PUSH1 0x3 NOT CALLDATASIZE ADD SLT PUSH2 0x1DB JUMPI PUSH1 0x20 PUSH2 0x658 SWAP3 PUSH2 0x616 PUSH2 0x1159 JUMP JUMPDEST PUSH2 0x61E PUSH2 0x12F0 JUMP JUMPDEST DUP6 SLOAD DUP5 MLOAD PUSH4 0xA9059CBB PUSH1 0xE0 SHL DUP2 MSTORE PUSH1 0x1 PUSH1 0x1 PUSH1 0xA0 SHL SUB SWAP2 DUP3 AND SWAP4 DUP2 ADD SWAP4 DUP5 MSTORE PUSH1 0x24 CALLDATALOAD PUSH1 0x20 DUP6 ADD MSTORE SWAP6 DUP7 SWAP4 DUP5 SWAP3 DUP10 SWAP3 SWAP1 SWAP2 DUP5 SWAP2 PUSH1 0x40 SWAP1 SWAP2 ADD SWAP1 JUMP JUMPDEST SUB SWAP4 AND GAS CALL SWAP1 DUP2 ISZERO PUSH2 0x5B2 JUMPI POP PUSH2 0x66D JUMPI POP DUP1 RETURN JUMPDEST PUSH2 0x68D SWAP1 PUSH1 0x20 RETURNDATASIZE DUP2 GT PUSH2 0x691 JUMPI JUMPDEST PUSH2 0x685 DUP2 DUP4 PUSH2 0x120D JUMP JUMPDEST DUP2 ADD SWAP1 PUSH2 0x14DD JUMP JUMPDEST POP DUP1 RETURN JUMPDEST POP RETURNDATASIZE PUSH2 0x67B JUMP JUMPDEST POP POP CALLVALUE PUSH2 0x143 JUMPI DUP2 PUSH1 0x3 NOT CALLDATASIZE ADD SLT PUSH2 0x143 JUMPI SWAP1 SLOAD SWAP1 MLOAD PUSH1 0x1 PUSH1 0x1 PUSH1 0xA0 SHL SUB SWAP1 SWAP2 AND DUP2 MSTORE PUSH1 0x20 SWAP1 RETURN JUMPDEST SWAP2 SWAP1 POP CALLVALUE PUSH2 0x1DB JUMPI PUSH2 0x6D1 CALLDATASIZE PUSH2 0x12A9 JUMP JUMPDEST SWAP6 SWAP3 SWAP1 CALLER DUP5 MSTORE PUSH1 0x20 SWAP7 PUSH1 0x2 DUP9 MSTORE PUSH1 0xFF DUP7 DUP7 KECCAK256 SLOAD AND DUP1 ISZERO PUSH2 0x8FC JUMPI JUMPDEST PUSH2 0x6F5 SWAP1 PUSH2 0x131C JUMP JUMPDEST PUSH2 0x704 PUSH1 0xFF PUSH1 0x6 SLOAD AND ISZERO PUSH2 0x1359 JUMP JUMPDEST PUSH2 0x70C PUSH2 0x139A JUMP JUMPDEST DUP2 ADD SWAP2 PUSH1 0xA0 DUP3 DUP5 SUB SLT PUSH2 0x8F8 JUMPI PUSH2 0x722 DUP3 PUSH2 0x1185 JUMP JUMPDEST SWAP2 PUSH2 0x72E DUP10 DUP3 ADD PUSH2 0x1185 JUMP JUMPDEST PUSH8 0xFFFFFFFFFFFFFFFF SWAP5 DUP3 DUP10 ADD CALLDATALOAD DUP7 DUP2 GT PUSH2 0x5BB JUMPI DUP2 PUSH2 0x74F SWAP2 DUP6 ADD PUSH2 0x122F JUMP JUMPDEST SWAP6 PUSH1 0x60 DUP5 ADD CALLDATALOAD SWAP1 DUP2 GT PUSH2 0x5BB JUMPI SWAP1 PUSH2 0x768 SWAP2 DUP5 ADD PUSH2 0x122F JUMP JUMPDEST DUP9 MLOAD PUSH4 0x70A08231 PUSH1 0xE0 SHL DUP1 DUP3 MSTORE ADDRESS DUP13 DUP4 ADD MSTORE SWAP1 SWAP8 PUSH1 0x1 PUSH1 0x1 PUSH1 0xA0 SHL SUB SWAP6 DUP7 AND SWAP8 SWAP2 SWAP7 DUP14 DUP11 PUSH1 0x24 DUP2 DUP13 GAS STATICCALL SWAP10 DUP11 ISZERO PUSH2 0x8EE JUMPI DUP12 SWAP11 PUSH2 0x8BF JUMPI JUMPDEST POP ADDRESS EXTCODESIZE ISZERO PUSH2 0x8BB JUMPI SWAP3 PUSH2 0x7D6 SWAP3 PUSH1 0x80 SWAP6 SWAP3 DUP13 SWAP8 SWAP6 DUP16 DUP16 DUP12 SWAP1 MLOAD SWAP12 DUP13 SWAP11 DUP12 SWAP11 PUSH4 0x75077B13 PUSH1 0xE1 SHL DUP13 MSTORE ADD CALLDATALOAD SWAP8 AND SWAP3 AND SWAP1 DUP9 ADD PUSH2 0x13E2 JUMP JUMPDEST SUB DUP2 DUP4 ADDRESS GAS CALL DUP1 ISZERO PUSH2 0x8B1 JUMPI DUP9 SWAP3 SWAP2 DUP7 SWAP2 PUSH2 0x894 JUMPI JUMPDEST POP POP PUSH1 0x24 DUP7 MLOAD DUP1 SWAP5 DUP2 SWAP4 DUP3 MSTORE ADDRESS DUP11 DUP4 ADD MSTORE GAS STATICCALL SWAP1 DUP2 ISZERO PUSH2 0x88A JUMPI DUP4 SWAP2 PUSH2 0x85D JUMPI JUMPDEST POP DUP2 DUP2 GT ISZERO PUSH2 0x855 JUMPI PUSH2 0x820 SWAP3 POP PUSH2 0x142C JUMP JUMPDEST SWAP2 JUMPDEST PUSH2 0x82E DUP4 PUSH1 0x3 SLOAD PUSH2 0x144F JUMP JUMPDEST PUSH1 0x3 SSTORE PUSH2 0x83B DUP2 SLOAD PUSH2 0x145C JUMP JUMPDEST SWAP1 SSTORE PUSH2 0x848 PUSH1 0x5 SLOAD PUSH2 0x145C JUMP JUMPDEST PUSH1 0x5 SSTORE PUSH1 0x1 DUP1 SSTORE MLOAD SWAP1 DUP2 MSTORE RETURN JUMPDEST POP POP SWAP2 PUSH2 0x822 JUMP JUMPDEST SWAP1 POP DUP6 DUP2 DUP2 RETURNDATASIZE DUP4 GT PUSH2 0x883 JUMPI JUMPDEST PUSH2 0x874 DUP2 DUP4 PUSH2 0x120D JUMP JUMPDEST DUP2 ADD SUB SLT PUSH2 0x1C4 JUMPI MLOAD CODESIZE PUSH2 0x80D JUMP JUMPDEST POP RETURNDATASIZE PUSH2 0x86A JUMP JUMPDEST DUP5 MLOAD RETURNDATASIZE DUP6 DUP3 RETURNDATACOPY RETURNDATASIZE SWAP1 REVERT JUMPDEST PUSH2 0x8A0 SWAP2 SWAP3 SWAP4 POP PUSH2 0x11C7 JUMP JUMPDEST PUSH2 0x8AD JUMPI DUP7 SWAP1 DUP5 CODESIZE PUSH2 0x7EC JUMP JUMPDEST DUP4 DUP1 REVERT JUMPDEST DUP7 MLOAD RETURNDATASIZE DUP8 DUP3 RETURNDATACOPY RETURNDATASIZE SWAP1 REVERT JUMPDEST DUP11 DUP1 REVERT JUMPDEST SWAP1 SWAP10 POP DUP14 DUP2 DUP2 RETURNDATASIZE DUP4 GT PUSH2 0x8E7 JUMPI JUMPDEST PUSH2 0x8D7 DUP2 DUP4 PUSH2 0x120D JUMP JUMPDEST DUP2 ADD SUB SLT PUSH2 0x1C4 JUMPI MLOAD SWAP9 CODESIZE PUSH2 0x7A0 JUMP JUMPDEST POP RETURNDATASIZE PUSH2 0x8CD JUMP JUMPDEST DUP13 MLOAD RETURNDATASIZE DUP14 DUP3 RETURNDATACOPY RETURNDATASIZE SWAP1 REVERT JUMPDEST DUP5 DUP1 REVERT JUMPDEST POP DUP5 SLOAD PUSH1 0x1 PUSH1 0x1 PUSH1 0xA0 SHL SUB AND CALLER EQ PUSH2 0x6EC JUMP JUMPDEST POP POP CALLVALUE PUSH2 0x143 JUMPI DUP2 PUSH1 0x3 NOT CALLDATASIZE ADD SLT PUSH2 0x143 JUMPI MLOAD PUSH32 0x0 PUSH1 0x1 PUSH1 0x1 PUSH1 0xA0 SHL SUB AND DUP2 MSTORE PUSH1 0x20 SWAP1 RETURN JUMPDEST DUP4 CALLVALUE PUSH2 0x5AF JUMPI DUP1 PUSH1 0x3 NOT CALLDATASIZE ADD SLT PUSH2 0x5AF JUMPI PUSH2 0x96C PUSH2 0x12F0 JUMP JUMPDEST PUSH1 0x0 DUP1 SLOAD PUSH1 0x1 PUSH1 0x1 PUSH1 0xA0 SHL SUB NOT DUP2 AND DUP3 SSTORE PUSH1 0x1 PUSH1 0x1 PUSH1 0xA0 SHL SUB AND PUSH32 0x8BE0079C531659141344CD1FD0A4F28419497F9722A3DAAFE3B4186F6B6457E0 DUP3 DUP1 LOG3 DUP1 RETURN JUMPDEST SWAP1 POP CALLVALUE PUSH2 0x1DB JUMPI PUSH1 0x60 CALLDATASIZE PUSH1 0x3 NOT ADD SLT PUSH2 0x1DB JUMPI DUP1 CALLDATALOAD SWAP1 PUSH8 0xFFFFFFFFFFFFFFFF DUP3 GT PUSH2 0x8AD JUMPI PUSH2 0x9DE SWAP2 CALLDATASIZE SWAP2 ADD PUSH2 0x122F JUMP JUMPDEST PUSH2 0x9E6 PUSH2 0x116F JUMP JUMPDEST PUSH1 0x44 CALLDATALOAD SWAP2 DUP3 ISZERO ISZERO DUP1 SWAP4 SUB PUSH2 0x1C4 JUMPI PUSH1 0x20 PUSH2 0xA31 SWAP2 PUSH2 0xA02 PUSH2 0x12F0 JUMP JUMPDEST DUP2 DUP7 MLOAD SWAP7 PUSH2 0xA0F DUP9 PUSH2 0x11F1 JUMP JUMPDEST PUSH1 0x1 DUP1 PUSH1 0xA0 SHL SUB DUP1 SWAP7 AND DUP9 MSTORE DUP2 DUP9 ADD SWAP7 DUP8 MSTORE MLOAD SWAP4 DUP3 DUP6 DUP1 SWAP5 MLOAD SWAP4 DUP5 SWAP3 ADD PUSH2 0x1286 JUMP JUMPDEST DUP2 ADD PUSH1 0x7 DUP2 MSTORE SUB ADD SWAP1 KECCAK256 SWAP3 MLOAD AND DUP3 SLOAD SWAP2 PUSH1 0xFF PUSH1 0xA0 SHL SWAP1 MLOAD ISZERO ISZERO PUSH1 0xA0 SHL AND SWAP2 PUSH11 0xFFFFFFFFFFFFFFFFFFFFFF PUSH1 0xA8 SHL AND OR OR SWAP1 SSTORE DUP1 RETURN JUMPDEST SWAP1 POP DUP3 CALLVALUE PUSH2 0x5AF JUMPI PUSH1 0x20 CALLDATASIZE PUSH1 0x3 NOT ADD SLT PUSH2 0x5AF JUMPI DUP2 CALLDATALOAD SWAP1 PUSH8 0xFFFFFFFFFFFFFFFF DUP3 GT PUSH2 0x5AF JUMPI POP PUSH2 0xA9F PUSH2 0xAB1 SWAP3 PUSH1 0x20 SWAP3 CALLDATASIZE SWAP2 ADD PUSH2 0x122F JUMP JUMPDEST DUP2 DUP5 MLOAD SWAP4 DUP3 DUP6 DUP1 SWAP5 MLOAD SWAP4 DUP5 SWAP3 ADD PUSH2 0x1286 JUMP JUMPDEST DUP2 ADD PUSH1 0x7 DUP2 MSTORE SUB ADD SWAP1 KECCAK256 SLOAD PUSH1 0xFF DUP3 MLOAD SWAP2 PUSH1 0x1 DUP1 PUSH1 0xA0 SHL SUB DUP2 AND DUP4 MSTORE PUSH1 0xA0 SHR AND ISZERO ISZERO PUSH1 0x20 DUP3 ADD MSTORE RETURN JUMPDEST POP POP CALLVALUE PUSH2 0x143 JUMPI DUP2 PUSH1 0x3 NOT CALLDATASIZE ADD SLT PUSH2 0x143 JUMPI PUSH1 0x20 SWAP1 PUSH1 0xFF PUSH1 0x6 SLOAD AND SWAP1 MLOAD SWAP1 ISZERO ISZERO DUP2 MSTORE RETURN JUMPDEST POP POP CALLVALUE PUSH2 0x143 JUMPI PUSH1 0x20 CALLDATASIZE PUSH1 0x3 NOT ADD SLT PUSH2 0x143 JUMPI PUSH1 0x20 SWAP2 PUSH1 0xFF SWAP1 DUP3 SWAP1 PUSH1 0x1 PUSH1 0x1 PUSH1 0xA0 SHL SUB PUSH2 0xB28 PUSH2 0x1159 JUMP JUMPDEST AND DUP2 MSTORE PUSH1 0x2 DUP6 MSTORE KECCAK256 SLOAD AND SWAP1 MLOAD SWAP1 ISZERO ISZERO DUP2 MSTORE RETURN JUMPDEST POP POP CALLVALUE PUSH2 0x143 JUMPI DUP1 PUSH1 0x3 NOT CALLDATASIZE ADD SLT PUSH2 0x143 JUMPI PUSH2 0xB55 PUSH2 0x1159 JUMP JUMPDEST SWAP1 PUSH1 0x24 CALLDATALOAD SWAP2 DUP3 ISZERO ISZERO DUP1 SWAP4 SUB PUSH2 0x1C4 JUMPI PUSH2 0xB6C PUSH2 0x12F0 JUMP JUMPDEST PUSH1 0x1 DUP1 PUSH1 0xA0 SHL SUB AND DUP4 MSTORE PUSH1 0x2 PUSH1 0x20 MSTORE DUP3 KECCAK256 SWAP1 PUSH1 0xFF DUP1 NOT DUP4 SLOAD AND SWAP2 AND OR SWAP1 SSTORE DUP1 RETURN JUMPDEST DUP3 DUP5 CALLVALUE PUSH2 0x5AF JUMPI PUSH1 0xA0 CALLDATASIZE PUSH1 0x3 NOT ADD SLT PUSH2 0x5AF JUMPI PUSH2 0xBA8 PUSH2 0x1159 JUMP JUMPDEST SWAP3 PUSH1 0x1 PUSH1 0x1 PUSH1 0xA0 SHL SUB PUSH1 0x64 CALLDATALOAD DUP2 DUP2 AND SWAP1 DUP2 SWAP1 SUB PUSH2 0x8AD JUMPI PUSH8 0xFFFFFFFFFFFFFFFF SWAP2 PUSH1 0x84 CALLDATALOAD DUP4 DUP2 GT PUSH2 0x1062 JUMPI PUSH2 0xBE0 SWAP1 CALLDATASIZE SWAP1 DUP7 ADD PUSH2 0x1199 JUMP JUMPDEST DUP3 SWAP9 SWAP2 SWAP9 PUSH32 0x0 AND SWAP4 DUP5 CALLER SUB PUSH2 0x101F JUMPI ADDRESS SUB PUSH2 0xFDC JUMPI DUP9 ADD PUSH1 0xC0 DUP10 DUP3 SUB SLT PUSH2 0xFD8 JUMPI PUSH2 0xC29 DUP10 PUSH2 0x1185 JUMP JUMPDEST SWAP5 PUSH1 0x20 SWAP10 PUSH2 0xC38 DUP12 DUP3 ADD PUSH2 0x1185 JUMP JUMPDEST SWAP3 DUP11 DUP3 ADD CALLDATALOAD DUP4 DUP2 GT PUSH2 0x8BB JUMPI DUP2 PUSH2 0xC50 SWAP2 DUP5 ADD PUSH2 0x122F JUMP JUMPDEST SWAP3 PUSH1 0x60 DUP4 ADD CALLDATALOAD SWAP1 DUP2 GT PUSH2 0x8BB JUMPI SWAP1 PUSH2 0xC69 SWAP2 DUP4 ADD PUSH2 0x122F JUMP JUMPDEST SWAP7 DUP11 MLOAD SWAP4 DUP7 PUSH4 0x70A08231 PUSH1 0xE0 SHL SWAP7 DUP8 DUP8 MSTORE ADDRESS DUP13 DUP9 ADD MSTORE AND SWAP9 DUP14 DUP7 PUSH1 0x24 DUP2 DUP14 GAS STATICCALL SWAP6 DUP7 ISZERO PUSH2 0xFCE JUMPI DUP13 SWAP7 PUSH2 0xF9F JUMPI JUMPDEST POP ADDRESS EXTCODESIZE ISZERO PUSH2 0xF9B JUMPI DUP12 SWAP4 SWAP3 SWAP2 DUP12 SWAP2 DUP15 MLOAD SWAP7 DUP8 SWAP6 DUP7 SWAP6 PUSH4 0x75077B13 PUSH1 0xE1 SHL DUP8 MSTORE DUP13 PUSH1 0x24 CALLDATALOAD SWAP14 PUSH1 0x80 DUP16 SWAP5 ADD CALLDATALOAD SWAP7 AND SWAP2 AND SWAP6 DUP8 ADD SWAP6 PUSH2 0xCD2 SWAP7 PUSH2 0x13E2 JUMP JUMPDEST SUB DUP2 DUP4 ADDRESS GAS CALL SWAP1 DUP2 PUSH2 0xF88 JUMPI JUMPDEST POP PUSH2 0xE0B JUMPI POP POP PUSH1 0x1 DUP6 PUSH1 0x3 RETURNDATASIZE GT PUSH2 0xDFC JUMPI JUMPDEST PUSH4 0x8C379A0 EQ PUSH2 0xD94 JUMPI JUMPDEST PUSH2 0xD8A JUMPI SWAP2 DUP5 SWAP4 SWAP2 PUSH2 0xD49 SWAP6 PUSH2 0xD18 DUP10 SWAP6 JUMPDEST PUSH1 0x44 CALLDATALOAD SWAP1 PUSH2 0x144F JUMP JUMPDEST DUP9 MLOAD PUSH4 0x95EA7B3 PUSH1 0xE0 SHL DUP2 MSTORE PUSH1 0x1 PUSH1 0x1 PUSH1 0xA0 SHL SUB SWAP1 SWAP4 AND SWAP5 DUP4 ADD SWAP5 DUP6 MSTORE PUSH1 0x20 DUP6 ADD MSTORE SWAP1 SWAP6 DUP7 SWAP4 DUP5 SWAP3 SWAP2 DUP4 SWAP2 PUSH1 0x40 ADD SWAP1 JUMP JUMPDEST SUB SWAP3 GAS CALL SWAP1 DUP2 ISZERO PUSH2 0xD7F JUMPI POP PUSH2 0xD62 JUMPI JUMPDEST POP MLOAD PUSH1 0x1 DUP2 MSTORE RETURN JUMPDEST PUSH2 0xD78 SWAP1 DUP4 RETURNDATASIZE DUP6 GT PUSH2 0x691 JUMPI PUSH2 0x685 DUP2 DUP4 PUSH2 0x120D JUMP JUMPDEST POP DUP3 PUSH2 0xD5A JUMP JUMPDEST DUP4 MLOAD SWAP1 RETURNDATASIZE SWAP1 DUP3 RETURNDATACOPY RETURNDATASIZE SWAP1 REVERT JUMPDEST DUP6 MLOAD RETURNDATASIZE DUP7 DUP3 RETURNDATACOPY RETURNDATASIZE SWAP1 REVERT JUMPDEST PUSH2 0xD9C PUSH2 0x146B JUMP JUMPDEST DUP1 PUSH2 0xDA8 JUMPI JUMPDEST POP PUSH2 0xCFD JUMP JUMPDEST SWAP1 POP DUP4 PUSH32 0xE192BA196A0E3AED10F33E5881150A855FDCCE8919368F474C59D3741573A72 DUP9 DUP11 PUSH2 0xDE7 DUP11 SWAP6 DUP4 MLOAD SWAP4 DUP5 SWAP4 DUP10 DUP6 MSTORE DUP5 ADD MSTORE DUP13 DUP4 ADD SWAP1 PUSH2 0x13BD JUMP JUMPDEST SUB SWAP1 LOG2 PUSH2 0xDF4 DUP6 SLOAD PUSH2 0x145C JUMP JUMPDEST DUP6 SSTORE DUP9 PUSH2 0xDA2 JUMP JUMPDEST POP DUP5 DUP7 DUP1 RETURNDATACOPY DUP6 MLOAD PUSH1 0xE0 SHR PUSH2 0xCF2 JUMP JUMPDEST DUP8 MLOAD SWAP2 DUP3 MSTORE ADDRESS DUP7 DUP4 ADD MSTORE DUP9 DUP3 PUSH1 0x24 DUP2 DUP9 GAS STATICCALL SWAP2 DUP3 ISZERO PUSH2 0xF7E JUMPI DUP8 SWAP3 PUSH2 0xF4F JUMPI JUMPDEST POP DUP1 DUP3 GT ISZERO PUSH2 0xF48 JUMPI PUSH2 0xE3E SWAP1 DUP3 PUSH2 0x142C JUMP JUMPDEST PUSH1 0x44 CALLDATALOAD SWAP2 PUSH2 0xE4C DUP4 DUP6 PUSH2 0x144F JUMP JUMPDEST GT PUSH2 0xEF6 JUMPI SWAP6 PUSH2 0xD18 DUP6 SWAP4 DUP11 SWAP7 PUSH32 0x1FC0D591C16A3AE7535BC1BDC204CAFDE83640975DFD66561B790E44DCE7D6C4 DUP6 DUP13 DUP7 SWAP12 SWAP10 SWAP8 PUSH2 0xD49 SWAP14 DUP2 DUP2 GT PUSH1 0x0 EQ PUSH2 0xEEA JUMPI PUSH2 0xEE2 SWAP2 PUSH2 0xE9B SWAP2 PUSH2 0x142C JUMP JUMPDEST SWAP2 JUMPDEST PUSH2 0xEA9 DUP4 PUSH1 0x3 SLOAD PUSH2 0x144F JUMP JUMPDEST PUSH1 0x3 SSTORE PUSH2 0xEB6 DUP13 SLOAD PUSH2 0x145C JUMP JUMPDEST DUP13 SSTORE PUSH2 0xEC3 PUSH1 0x5 SLOAD PUSH2 0x145C JUMP JUMPDEST PUSH1 0x5 SSTORE MLOAD SWAP3 DUP4 SWAP3 DUP8 DUP5 PUSH1 0x40 SWAP2 SWAP5 SWAP4 SWAP3 PUSH1 0x60 DUP3 ADD SWAP6 DUP3 MSTORE PUSH1 0x20 DUP3 ADD MSTORE ADD MSTORE JUMP JUMPDEST SUB SWAP1 LOG2 PUSH2 0xD0F JUMP JUMPDEST POP POP PUSH2 0xEE2 DUP8 SWAP2 PUSH2 0xE9D JUMP JUMPDEST DUP8 MLOAD PUSH3 0x461BCD PUSH1 0xE5 SHL DUP2 MSTORE DUP1 DUP8 ADD DUP11 SWAP1 MSTORE PUSH1 0x26 PUSH1 0x24 DUP3 ADD MSTORE PUSH32 0x496E73756666696369656E742066756E647320746F20726570617920666C6173 PUSH1 0x44 DUP3 ADD MSTORE PUSH6 0x34103637B0B7 PUSH1 0xD1 SHL PUSH1 0x64 DUP3 ADD MSTORE PUSH1 0x84 SWAP1 REVERT JUMPDEST POP DUP6 PUSH2 0xE3E JUMP JUMPDEST SWAP1 SWAP2 POP DUP9 DUP2 DUP2 RETURNDATASIZE DUP4 GT PUSH2 0xF77 JUMPI JUMPDEST PUSH2 0xF67 DUP2 DUP4 PUSH2 0x120D JUMP JUMPDEST DUP2 ADD SUB SLT PUSH2 0x1C4 JUMPI MLOAD SWAP1 DUP10 PUSH2 0xE2B JUMP JUMPDEST POP RETURNDATASIZE PUSH2 0xF5D JUMP JUMPDEST DUP9 MLOAD RETURNDATASIZE DUP10 DUP3 RETURNDATACOPY RETURNDATASIZE SWAP1 REVERT JUMPDEST PUSH2 0xF94 SWAP1 SWAP9 SWAP2 SWAP9 PUSH2 0x11C7 JUMP JUMPDEST SWAP7 DUP11 PUSH2 0xCDF JUMP JUMPDEST DUP12 DUP1 REVERT JUMPDEST SWAP1 SWAP6 POP DUP14 DUP2 DUP2 RETURNDATASIZE DUP4 GT PUSH2 0xFC7 JUMPI JUMPDEST PUSH2 0xFB7 DUP2 DUP4 PUSH2 0x120D JUMP JUMPDEST DUP2 ADD SUB SLT PUSH2 0xF9B JUMPI MLOAD SWAP5 DUP15 PUSH2 0xC97 JUMP JUMPDEST POP RETURNDATASIZE PUSH2 0xFAD JUMP JUMPDEST DUP14 MLOAD RETURNDATASIZE DUP15 DUP3 RETURNDATACOPY RETURNDATASIZE SWAP1 REVERT JUMPDEST DUP7 DUP1 REVERT JUMPDEST DUP8 MLOAD PUSH3 0x461BCD PUSH1 0xE5 SHL DUP2 MSTORE PUSH1 0x20 DUP2 DUP9 ADD MSTORE PUSH1 0x1F PUSH1 0x24 DUP3 ADD MSTORE PUSH32 0x496E69746961746F72206D757374206265207468697320636F6E747261637400 PUSH1 0x44 DUP3 ADD MSTORE PUSH1 0x64 SWAP1 REVERT JUMPDEST DUP9 MLOAD PUSH3 0x461BCD PUSH1 0xE5 SHL DUP2 MSTORE PUSH1 0x20 DUP2 DUP10 ADD MSTORE PUSH1 0x18 PUSH1 0x24 DUP3 ADD MSTORE PUSH32 0x43616C6C6572206D757374206265204141564520506F6F6C0000000000000000 PUSH1 0x44 DUP3 ADD MSTORE PUSH1 0x64 SWAP1 REVERT JUMPDEST DUP6 DUP1 REVERT JUMPDEST DUP4 SWAP1 CALLVALUE PUSH2 0x143 JUMPI PUSH1 0x20 CALLDATASIZE PUSH1 0x3 NOT ADD SLT PUSH2 0x143 JUMPI CALLDATALOAD DUP1 ISZERO ISZERO DUP1 SWAP2 SUB PUSH2 0x143 JUMPI PUSH2 0x108C PUSH2 0x12F0 JUMP JUMPDEST PUSH1 0xFF DUP1 NOT PUSH1 0x6 SLOAD AND SWAP2 AND OR PUSH1 0x6 SSTORE DUP1 RETURN JUMPDEST DUP3 DUP5 CALLVALUE PUSH2 0x5AF JUMPI DUP1 PUSH1 0x3 NOT CALLDATASIZE ADD SLT PUSH2 0x5AF JUMPI DUP3 SLOAD SWAP1 DUP2 ISZERO SWAP1 DUP2 PUSH2 0x1109 JUMPI PUSH1 0x5 SLOAD SWAP2 PUSH1 0x64 DUP4 MUL SWAP3 DUP1 DUP5 DIV PUSH1 0x64 EQ SWAP1 ISZERO OR ISZERO PUSH2 0x10F6 JUMPI PUSH2 0x10E3 JUMPI POP PUSH1 0x20 SWAP4 POP DIV SWAP1 JUMPDEST MLOAD SWAP1 DUP2 MSTORE RETURN JUMPDEST PUSH4 0x4E487B71 PUSH1 0xE0 SHL DUP2 MSTORE PUSH1 0x12 DUP6 MSTORE PUSH1 0x24 SWAP1 REVERT JUMPDEST PUSH4 0x4E487B71 PUSH1 0xE0 SHL DUP3 MSTORE PUSH1 0x11 DUP7 MSTORE PUSH1 0x24 DUP3 REVERT JUMPDEST SWAP2 POP POP PUSH1 0x20 SWAP3 POP SWAP1 PUSH2 0x10DD JUMP JUMPDEST DUP5 SWAP1 CALLVALUE PUSH2 0x143 JUMPI DUP2 PUSH1 0x3 NOT CALLDATASIZE ADD SLT PUSH2 0x143 JUMPI PUSH32 0x0 PUSH1 0x1 PUSH1 0x1 PUSH1 0xA0 SHL SUB AND DUP2 MSTORE PUSH1 0x20 SWAP1 RETURN JUMPDEST PUSH1 0x4 CALLDATALOAD SWAP1 PUSH1 0x1 PUSH1 0x1 PUSH1 0xA0 SHL SUB DUP3 AND DUP3 SUB PUSH2 0x1C4 JUMPI JUMP JUMPDEST PUSH1 0x24 CALLDATALOAD SWAP1 PUSH1 0x1 PUSH1 0x1 PUSH1 0xA0 SHL SUB DUP3 AND DUP3 SUB PUSH2 0x1C4 JUMPI JUMP JUMPDEST CALLDATALOAD SWAP1 PUSH1 0x1 PUSH1 0x1 PUSH1 0xA0 SHL SUB DUP3 AND DUP3 SUB PUSH2 0x1C4 JUMPI JUMP JUMPDEST SWAP2 DUP2 PUSH1 0x1F DUP5 ADD SLT ISZERO PUSH2 0x1C4 JUMPI DUP3 CALLDATALOAD SWAP2 PUSH8 0xFFFFFFFFFFFFFFFF DUP4 GT PUSH2 0x1C4 JUMPI PUSH1 0x20 DUP4 DUP2 DUP7 ADD SWAP6 ADD ADD GT PUSH2 0x1C4 JUMPI JUMP JUMPDEST PUSH8 0xFFFFFFFFFFFFFFFF DUP2 GT PUSH2 0x11DB JUMPI PUSH1 0x40 MSTORE JUMP JUMPDEST PUSH4 0x4E487B71 PUSH1 0xE0 SHL PUSH1 0x0 MSTORE PUSH1 0x41 PUSH1 0x4 MSTORE PUSH1 0x24 PUSH1 0x0 REVERT JUMPDEST PUSH1 0x40 DUP2 ADD SWAP1 DUP2 LT PUSH8 0xFFFFFFFFFFFFFFFF DUP3 GT OR PUSH2 0x11DB JUMPI PUSH1 0x40 MSTORE JUMP JUMPDEST SWAP1 PUSH1 0x1F DUP1 NOT SWAP2 ADD AND DUP2 ADD SWAP1 DUP2 LT PUSH8 0xFFFFFFFFFFFFFFFF DUP3 GT OR PUSH2 0x11DB JUMPI PUSH1 0x40 MSTORE JUMP JUMPDEST DUP2 PUSH1 0x1F DUP3 ADD SLT ISZERO PUSH2 0x1C4 JUMPI DUP1 CALLDATALOAD SWAP1 PUSH8 0xFFFFFFFFFFFFFFFF DUP3 GT PUSH2 0x11DB JUMPI PUSH1 0x40 MLOAD SWAP3 PUSH2 0x1264 PUSH1 0x1F DUP5 ADD PUSH1 0x1F NOT AND PUSH1 0x20 ADD DUP6 PUSH2 0x120D JUMP JUMPDEST DUP3 DUP5 MSTORE PUSH1 0x20 DUP4 DUP4 ADD ADD GT PUSH2 0x1C4 JUMPI DUP2 PUSH1 0x0 SWAP3 PUSH1 0x20 DUP1 SWAP4 ADD DUP4 DUP7 ADD CALLDATACOPY DUP4 ADD ADD MSTORE SWAP1 JUMP JUMPDEST PUSH1 0x0 JUMPDEST DUP4 DUP2 LT PUSH2 0x1299 JUMPI POP POP PUSH1 0x0 SWAP2 ADD MSTORE JUMP JUMPDEST DUP2 DUP2 ADD MLOAD DUP4 DUP3 ADD MSTORE PUSH1 0x20 ADD PUSH2 0x1289 JUMP JUMPDEST PUSH1 0x60 PUSH1 0x3 NOT DUP3 ADD SLT PUSH2 0x1C4 JUMPI PUSH1 0x4 CALLDATALOAD PUSH1 0x1 PUSH1 0x1 PUSH1 0xA0 SHL SUB DUP2 AND DUP2 SUB PUSH2 0x1C4 JUMPI SWAP2 PUSH1 0x24 CALLDATALOAD SWAP2 PUSH1 0x44 CALLDATALOAD SWAP1 PUSH8 0xFFFFFFFFFFFFFFFF DUP3 GT PUSH2 0x1C4 JUMPI PUSH2 0x12EC SWAP2 PUSH1 0x4 ADD PUSH2 0x1199 JUMP JUMPDEST SWAP1 SWAP2 JUMP JUMPDEST PUSH1 0x0 SLOAD PUSH1 0x1 PUSH1 0x1 PUSH1 0xA0 SHL SUB AND CALLER SUB PUSH2 0x1304 JUMPI JUMP JUMPDEST PUSH1 0x40 MLOAD PUSH4 0x118CDAA7 PUSH1 0xE0 SHL DUP2 MSTORE CALLER PUSH1 0x4 DUP3 ADD MSTORE PUSH1 0x24 SWAP1 REVERT JUMPDEST ISZERO PUSH2 0x1323 JUMPI JUMP JUMPDEST PUSH1 0x40 MLOAD PUSH3 0x461BCD PUSH1 0xE5 SHL DUP2 MSTORE PUSH1 0x20 PUSH1 0x4 DUP3 ADD MSTORE PUSH1 0xE PUSH1 0x24 DUP3 ADD MSTORE PUSH14 0x139BDD08185D5D1A1BDC9A5E9959 PUSH1 0x92 SHL PUSH1 0x44 DUP3 ADD MSTORE PUSH1 0x64 SWAP1 REVERT JUMPDEST ISZERO PUSH2 0x1360 JUMPI JUMP JUMPDEST PUSH1 0x40 MLOAD PUSH3 0x461BCD PUSH1 0xE5 SHL DUP2 MSTORE PUSH1 0x20 PUSH1 0x4 DUP3 ADD MSTORE PUSH1 0x12 PUSH1 0x24 DUP3 ADD MSTORE PUSH18 0x10DBDB9D1C9858DD081A5CC81C185D5CD959 PUSH1 0x72 SHL PUSH1 0x44 DUP3 ADD MSTORE PUSH1 0x64 SWAP1 REVERT JUMPDEST PUSH1 0x2 PUSH1 0x1 SLOAD EQ PUSH2 0x13AB JUMPI PUSH1 0x2 PUSH1 0x1 SSTORE JUMP JUMPDEST PUSH1 0x40 MLOAD PUSH4 0x3EE5AEB5 PUSH1 0xE0 SHL DUP2 MSTORE PUSH1 0x4 SWAP1 REVERT JUMPDEST SWAP1 PUSH1 0x20 SWAP2 PUSH2 0x13D6 DUP2 MLOAD DUP1 SWAP3 DUP2 DUP6 MSTORE DUP6 DUP1 DUP7 ADD SWAP2 ADD PUSH2 0x1286 JUMP JUMPDEST PUSH1 0x1F ADD PUSH1 0x1F NOT AND ADD ADD SWAP1 JUMP JUMPDEST SWAP7 SWAP6 SWAP5 SWAP2 SWAP4 PUSH2 0x1427 SWAP4 PUSH2 0x1419 SWAP3 PUSH1 0xA0 SWAP7 PUSH1 0x1 DUP1 DUP10 SHL SUB DUP1 SWAP3 AND DUP12 MSTORE AND PUSH1 0x20 DUP11 ADD MSTORE PUSH1 0x40 DUP10 ADD MSTORE PUSH1 0xC0 PUSH1 0x60 DUP10 ADD MSTORE PUSH1 0xC0 DUP9 ADD SWAP1 PUSH2 0x13BD JUMP JUMPDEST SWAP1 DUP7 DUP3 SUB PUSH1 0x80 DUP9 ADD MSTORE PUSH2 0x13BD JUMP JUMPDEST SWAP4 ADD MSTORE JUMP JUMPDEST SWAP2 SWAP1 DUP3 SUB SWAP2 DUP3 GT PUSH2 0x1439 JUMPI JUMP JUMPDEST PUSH4 0x4E487B71 PUSH1 0xE0 SHL PUSH1 0x0 MSTORE PUSH1 0x11 PUSH1 0x4 MSTORE PUSH1 0x24 PUSH1 0x0 REVERT JUMPDEST SWAP2 SWAP1 DUP3 ADD DUP1 SWAP3 GT PUSH2 0x1439 JUMPI JUMP JUMPDEST PUSH1 0x0 NOT DUP2 EQ PUSH2 0x1439 JUMPI PUSH1 0x1 ADD SWAP1 JUMP JUMPDEST PUSH1 0x0 PUSH1 0x44 RETURNDATASIZE LT PUSH2 0x14C9 JUMPI PUSH1 0x40 MLOAD PUSH1 0x3 NOT SWAP2 RETURNDATASIZE DUP4 ADD PUSH1 0x4 DUP4 RETURNDATACOPY DUP2 MLOAD PUSH8 0xFFFFFFFFFFFFFFFF SWAP2 DUP3 DUP3 GT RETURNDATASIZE PUSH1 0x24 DUP5 ADD GT OR PUSH2 0x14CC JUMPI DUP2 DUP5 ADD SWAP5 DUP6 MLOAD SWAP4 DUP5 GT PUSH2 0x14D4 JUMPI RETURNDATASIZE DUP6 ADD ADD PUSH1 0x20 DUP5 DUP8 ADD ADD GT PUSH2 0x14CC JUMPI POP PUSH2 0x14C9 SWAP3 SWAP2 ADD PUSH1 0x20 ADD SWAP1 PUSH2 0x120D JUMP JUMPDEST SWAP1 JUMP JUMPDEST SWAP5 SWAP4 POP POP POP POP JUMP JUMPDEST POP SWAP5 SWAP4 POP POP POP POP JUMP JUMPDEST SWAP1 DUP2 PUSH1 0x20 SWAP2 SUB SLT PUSH2 0x1C4 JUMPI MLOAD DUP1 ISZERO ISZERO DUP2 SUB PUSH2 0x1C4 JUMPI SWAP1 JUMP JUMPDEST SWAP2 SWAP1 SWAP2 PUSH1 0x40 MLOAD DUP3 DUP2 DUP1 SWAP5 MLOAD PUSH2 0x1510 DUP2 PUSH1 0x20 SWAP8 DUP9 DUP1 SWAP7 ADD PUSH2 0x1286 JUMP JUMPDEST DUP2 ADD PUSH1 0x7 DUP2 MSTORE SUB ADD SWAP1 KECCAK256 PUSH1 0x40 MLOAD SWAP1 PUSH2 0x1527 DUP3 PUSH2 0x11F1 JUMP JUMPDEST SLOAD PUSH1 0x1 PUSH1 0x1 PUSH1 0xA0 SHL SUB DUP1 DUP3 AND DUP1 DUP5 MSTORE PUSH1 0xA0 SWAP3 SWAP1 SWAP3 SHR PUSH1 0xFF AND ISZERO ISZERO DUP6 DUP5 ADD DUP2 SWAP1 MSTORE SWAP1 SWAP3 SWAP2 DUP2 PUSH2 0x1616 JUMPI JUMPDEST POP ISZERO PUSH2 0x15DD JUMPI MLOAD PUSH1 0x40 MLOAD PUSH4 0x95EA7B3 PUSH1 0xE0 SHL DUP2 MSTORE SWAP1 DUP3 AND PUSH1 0x1 PUSH1 0x1 PUSH1 0xA0 SHL SUB AND PUSH1 0x4 DUP3 ADD MSTORE PUSH1 0x24 DUP2 ADD DUP6 SWAP1 MSTORE SWAP2 DUP4 SWAP2 DUP4 SWAP2 PUSH1 0x44 SWAP2 DUP4 SWAP2 PUSH1 0x0 SWAP2 AND GAS CALL DUP1 ISZERO PUSH2 0x15D1 JUMPI PUSH2 0x15B3 JUMPI JUMPDEST POP POP PUSH1 0x63 DUP2 MUL SWAP1 DUP1 DUP3 DIV PUSH1 0x63 EQ SWAP1 ISZERO OR ISZERO PUSH2 0x1439 JUMPI PUSH1 0x64 SWAP1 DIV SWAP1 JUMP JUMPDEST DUP2 PUSH2 0x15C9 SWAP3 SWAP1 RETURNDATASIZE LT PUSH2 0x691 JUMPI PUSH2 0x685 DUP2 DUP4 PUSH2 0x120D JUMP JUMPDEST POP CODESIZE DUP1 PUSH2 0x1597 JUMP JUMPDEST PUSH1 0x40 MLOAD RETURNDATASIZE PUSH1 0x0 DUP3 RETURNDATACOPY RETURNDATASIZE SWAP1 REVERT JUMPDEST PUSH1 0x40 MLOAD PUSH3 0x461BCD PUSH1 0xE5 SHL DUP2 MSTORE PUSH1 0x4 DUP2 ADD DUP6 SWAP1 MSTORE PUSH1 0x11 PUSH1 0x24 DUP3 ADD MSTORE PUSH17 0x111156081B9BDD081CDD5C1C1BDC9D1959 PUSH1 0x7A SHL PUSH1 0x44 DUP3 ADD MSTORE PUSH1 0x64 SWAP1 REVERT JUMPDEST SWAP1 POP ISZERO ISZERO CODESIZE PUSH2 0x1550 JUMP INVALID LOG2 PUSH5 0x6970667358 0x22 SLT KECCAK256 PUSH8 0x3A2C4AA9E9772085 0xC7 0xAA ORIGIN 0x2E JUMPDEST LOG2 0xC7 PUSH2 0x54E5 0xB0 0xE3 DUP16 SAR SHL 0xAE GT BASEFEE DIV DUP6 PC 0xDA 0xD8 PUSH5 0x736F6C6343 STOP ADDMOD EQ STOP CALLER "},"methodIdentifiers":{"ADDRESSES_PROVIDER()":"0542975c","POOL()":"7535d246","authorizedCallers(address)":"536fff6c","dexRouters(string)":"5e7ffa67","emergencyWithdraw(address,uint256)":"95ccea67","executeArbitrage(address,uint256,bytes)":"7c1d9539","executeFlashLoanArbitrage(address,uint256,bytes)":"c1386ab9","executeOperation(address,uint256,uint256,address,bytes)":"1b11d0ff","getBalance(address)":"f8b2cb4f","getSuccessRate()":"05785ad4","getTotalProfit()":"a9a4cbcc","owner()":"8da5cb5b","paused()":"5c975abb","performArbitrage(address,address,uint256,string,string,uint256)":"ea0ef626","renounceOwnership()":"715018a6","setAuthorizedCaller(address,bool)":"454bbd29","setPaused(bool)":"16c38b3c","successfulTrades()":"fc213996","totalProfit()":"86001519","totalTrades()":"e275c997","transferOwnership(address)":"f2fde38b","updateDEXRouter(string,address,bool)":"6dfef2b9"}}}}}