{"contracts/ArbitrageBot.sol":{"AtomArbitrage":{"abi":[{"inputs":[{"internalType":"address","name":"_addressProvider","type":"address"}],"stateMutability":"nonpayable","type":"constructor"},{"inputs":[],"name":"EnforcedPause","type":"error"},{"inputs":[],"name":"ExpectedPause","type":"error"},{"inputs":[{"internalType":"address","name":"owner","type":"address"}],"name":"OwnableInvalidOwner","type":"error"},{"inputs":[{"internalType":"address","name":"account","type":"address"}],"name":"OwnableUnauthorizedAccount","type":"error"},{"inputs":[],"name":"ReentrancyGuardReentrantCall","type":"error"},{"inputs":[{"internalType":"address","name":"token","type":"address"}],"name":"SafeERC20FailedOperation","type":"error"},{"anonymous":false,"inputs":[{"indexed":true,"internalType":"address","name":"tokenIn","type":"address"},{"indexed":true,"internalType":"address","name":"tokenOut","type":"address"},{"indexed":false,"internalType":"uint256","name":"amountIn","type":"uint256"},{"indexed":false,"internalType":"uint256","name":"profit","type":"uint256"},{"indexed":false,"internalType":"uint256","name":"gasUsed","type":"uint256"},{"indexed":false,"internalType":"string","name":"dexPath","type":"string"},{"indexed":false,"internalType":"uint256","name":"timestamp","type":"uint256"}],"name":"ArbitrageExecuted","type":"event"},{"anonymous":false,"inputs":[{"indexed":false,"internalType":"uint256","name":"minProfitBasisPoints","type":"uint256"},{"indexed":false,"internalType":"uint256","name":"maxSlippageBasisPoints","type":"uint256"},{"indexed":false,"internalType":"uint256","name":"maxGasPrice","type":"uint256"}],"name":"ConfigUpdated","type":"event"},{"anonymous":false,"inputs":[{"indexed":true,"internalType":"address","name":"asset","type":"address"},{"indexed":false,"internalType":"uint256","name":"amount","type":"uint256"},{"indexed":false,"internalType":"uint256","name":"premium","type":"uint256"},{"indexed":false,"internalType":"bool","name":"success","type":"bool"}],"name":"FlashLoanExecuted","type":"event"},{"anonymous":false,"inputs":[{"indexed":false,"internalType":"address","name":"tokenA","type":"address"},{"indexed":false,"internalType":"address","name":"tokenB","type":"address"},{"indexed":false,"internalType":"uint256","name":"profitEstimate","type":"uint256"},{"indexed":false,"internalType":"string","name":"dexPair","type":"string"},{"indexed":false,"internalType":"uint256","name":"timestamp","type":"uint256"}],"name":"OpportunityDetected","type":"event"},{"anonymous":false,"inputs":[{"indexed":true,"internalType":"address","name":"previousOwner","type":"address"},{"indexed":true,"internalType":"address","name":"newOwner","type":"address"}],"name":"OwnershipTransferred","type":"event"},{"anonymous":false,"inputs":[{"indexed":false,"internalType":"address","name":"account","type":"address"}],"name":"Paused","type":"event"},{"anonymous":false,"inputs":[{"indexed":true,"internalType":"address","name":"owner","type":"address"},{"indexed":true,"internalType":"address","name":"token","type":"address"},{"indexed":false,"internalType":"uint256","name":"amount","type":"uint256"},{"indexed":false,"internalType":"uint256","name":"timestamp","type":"uint256"}],"name":"ProfitWithdrawn","type":"event"},{"anonymous":false,"inputs":[{"indexed":false,"internalType":"address","name":"account","type":"address"}],"name":"Unpaused","type":"event"},{"stateMutability":"payable","type":"fallback"},{"inputs":[],"name":"ADDRESSES_PROVIDER","outputs":[{"internalType":"contract IPoolAddressesProvider","name":"","type":"address"}],"stateMutability":"view","type":"function"},{"inputs":[],"name":"BALANCER_VAULT","outputs":[{"internalType":"contract IBalancerVault","name":"","type":"address"}],"stateMutability":"view","type":"function"},{"inputs":[],"name":"POOL","outputs":[{"internalType":"contract IPool","name":"","type":"address"}],"stateMutability":"view","type":"function"},{"inputs":[],"name":"UNISWAP_V2_ROUTER","outputs":[{"internalType":"contract IUniswapV2Router","name":"","type":"address"}],"stateMutability":"view","type":"function"},{"inputs":[],"name":"UNISWAP_V3_ROUTER","outputs":[{"internalType":"contract IUniswapV3Router","name":"","type":"address"}],"stateMutability":"view","type":"function"},{"inputs":[{"components":[{"internalType":"address","name":"tokenIn","type":"address"},{"internalType":"address","name":"tokenOut","type":"address"},{"internalType":"uint256","name":"amountIn","type":"uint256"},{"internalType":"address[]","name":"dexRouters","type":"address[]"},{"internalType":"bytes[]","name":"swapData","type":"bytes[]"},{"internalType":"uint256","name":"minProfit","type":"uint256"}],"internalType":"struct AtomArbitrage.ArbitrageParams","name":"params","type":"tuple"}],"name":"_executeArbitrageLogic","outputs":[{"internalType":"uint256","name":"profit","type":"uint256"},{"internalType":"string","name":"dexPath","type":"string"}],"stateMutability":"nonpayable","type":"function"},{"inputs":[{"internalType":"address","name":"","type":"address"},{"internalType":"address","name":"","type":"address"},{"internalType":"uint256","name":"amountIn","type":"uint256"},{"internalType":"address[]","name":"","type":"address[]"},{"internalType":"bytes[]","name":"","type":"bytes[]"}],"name":"checkProfitability","outputs":[{"internalType":"bool","name":"profitable","type":"bool"},{"internalType":"uint256","name":"estimatedProfit","type":"uint256"}],"stateMutability":"pure","type":"function"},{"inputs":[{"internalType":"string","name":"","type":"string"}],"name":"dexPairProfits","outputs":[{"internalType":"uint256","name":"","type":"uint256"}],"stateMutability":"view","type":"function"},{"inputs":[],"name":"emergencyETHRecovery","outputs":[],"stateMutability":"nonpayable","type":"function"},{"inputs":[{"internalType":"address","name":"token","type":"address"}],"name":"emergencyTokenRecovery","outputs":[],"stateMutability":"nonpayable","type":"function"},{"inputs":[{"internalType":"address","name":"asset","type":"address"},{"internalType":"uint256","name":"amount","type":"uint256"},{"internalType":"bytes","name":"params","type":"bytes"}],"name":"executeArbitrage","outputs":[],"stateMutability":"nonpayable","type":"function"},{"inputs":[{"internalType":"address","name":"asset","type":"address"},{"internalType":"uint256","name":"amount","type":"uint256"},{"internalType":"uint256","name":"premium","type":"uint256"},{"internalType":"address","name":"initiator","type":"address"},{"internalType":"bytes","name":"params","type":"bytes"}],"name":"executeOperation","outputs":[{"internalType":"bool","name":"","type":"bool"}],"stateMutability":"nonpayable","type":"function"},{"inputs":[],"name":"getAverageGasUsed","outputs":[{"internalType":"uint256","name":"","type":"uint256"}],"stateMutability":"view","type":"function"},{"inputs":[],"name":"getConfig","outputs":[{"internalType":"uint256","name":"_minProfitBasisPoints","type":"uint256"},{"internalType":"uint256","name":"_maxSlippageBasisPoints","type":"uint256"},{"internalType":"uint256","name":"_maxGasPrice","type":"uint256"},{"internalType":"uint256","name":"_totalTrades","type":"uint256"},{"internalType":"uint256","name":"_successfulTrades","type":"uint256"},{"internalType":"uint256","name":"_totalProfit","type":"uint256"},{"internalType":"uint256","name":"_totalGasUsed","type":"uint256"}],"stateMutability":"view","type":"function"},{"inputs":[{"internalType":"uint256","name":"count","type":"uint256"}],"name":"getRecentTrades","outputs":[{"components":[{"internalType":"address","name":"tokenIn","type":"address"},{"internalType":"address","name":"tokenOut","type":"address"},{"internalType":"uint256","name":"amountIn","type":"uint256"},{"internalType":"uint256","name":"profit","type":"uint256"},{"internalType":"uint256","name":"gasUsed","type":"uint256"},{"internalType":"string","name":"dexPath","type":"string"},{"internalType":"uint256","name":"timestamp","type":"uint256"},{"internalType":"bool","name":"successful","type":"bool"},{"internalType":"bytes32","name":"txHash","type":"bytes32"}],"internalType":"struct AtomArbitrage.Trade[]","name":"","type":"tuple[]"}],"stateMutability":"view","type":"function"},{"inputs":[],"name":"getSuccessRate","outputs":[{"internalType":"uint256","name":"","type":"uint256"}],"stateMutability":"view","type":"function"},{"inputs":[],"name":"getTotalProfit","outputs":[{"internalType":"uint256","name":"","type":"uint256"}],"stateMutability":"view","type":"function"},{"inputs":[],"name":"getTradeHistoryCount","outputs":[{"internalType":"uint256","name":"","type":"uint256"}],"stateMutability":"view","type":"function"},{"inputs":[],"name":"maxGasPrice","outputs":[{"internalType":"uint256","name":"","type":"uint256"}],"stateMutability":"view","type":"function"},{"inputs":[],"name":"maxSlippageBasisPoints","outputs":[{"internalType":"uint256","name":"","type":"uint256"}],"stateMutability":"view","type":"function"},{"inputs":[],"name":"minProfitBasisPoints","outputs":[{"internalType":"uint256","name":"","type":"uint256"}],"stateMutability":"view","type":"function"},{"inputs":[],"name":"owner","outputs":[{"internalType":"address","name":"","type":"address"}],"stateMutability":"view","type":"function"},{"inputs":[],"name":"pause","outputs":[],"stateMutability":"nonpayable","type":"function"},{"inputs":[],"name":"paused","outputs":[{"internalType":"bool","name":"","type":"bool"}],"stateMutability":"view","type":"function"},{"inputs":[],"name":"renounceOwnership","outputs":[],"stateMutability":"nonpayable","type":"function"},{"inputs":[],"name":"successfulTrades","outputs":[{"internalType":"uint256","name":"","type":"uint256"}],"stateMutability":"view","type":"function"},{"inputs":[{"internalType":"address","name":"","type":"address"}],"name":"tokenProfits","outputs":[{"internalType":"uint256","name":"","type":"uint256"}],"stateMutability":"view","type":"function"},{"inputs":[{"internalType":"address","name":"","type":"address"}],"name":"tokenVolume","outputs":[{"internalType":"uint256","name":"","type":"uint256"}],"stateMutability":"view","type":"function"},{"inputs":[],"name":"totalGasUsed","outputs":[{"internalType":"uint256","name":"","type":"uint256"}],"stateMutability":"view","type":"function"},{"inputs":[],"name":"totalProfit","outputs":[{"internalType":"uint256","name":"","type":"uint256"}],"stateMutability":"view","type":"function"},{"inputs":[],"name":"totalTrades","outputs":[{"internalType":"uint256","name":"","type":"uint256"}],"stateMutability":"view","type":"function"},{"inputs":[{"internalType":"uint256","name":"","type":"uint256"}],"name":"tradeHistory","outputs":[{"internalType":"address","name":"tokenIn","type":"address"},{"internalType":"address","name":"tokenOut","type":"address"},{"internalType":"uint256","name":"amountIn","type":"uint256"},{"internalType":"uint256","name":"profit","type":"uint256"},{"internalType":"uint256","name":"gasUsed","type":"uint256"},{"internalType":"string","name":"dexPath","type":"string"},{"internalType":"uint256","name":"timestamp","type":"uint256"},{"internalType":"bool","name":"successful","type":"bool"},{"internalType":"bytes32","name":"txHash","type":"bytes32"}],"stateMutability":"view","type":"function"},{"inputs":[{"internalType":"address","name":"newOwner","type":"address"}],"name":"transferOwnership","outputs":[],"stateMutability":"nonpayable","type":"function"},{"inputs":[],"name":"unpause","outputs":[],"stateMutability":"nonpayable","type":"function"},{"inputs":[{"internalType":"uint256","name":"_minProfitBasisPoints","type":"uint256"},{"internalType":"uint256","name":"_maxSlippageBasisPoints","type":"uint256"},{"internalType":"uint256","name":"_maxGasPrice","type":"uint256"}],"name":"updateConfig","outputs":[],"stateMutability":"nonpayable","type":"function"},{"inputs":[{"internalType":"uint256","name":"amount","type":"uint256"}],"name":"withdrawETH","outputs":[],"stateMutability":"nonpayable","type":"function"},{"inputs":[{"internalType":"address","name":"token","type":"address"},{"internalType":"uint256","name":"amount","type":"uint256"}],"name":"withdrawToken","outputs":[],"stateMutability":"nonpayable","type":"function"},{"stateMutability":"payable","type":"receive"}],"evm":{"bytecode":{"linkReferences":{},"object":"60c0806040523462000170576004602062002ef4803803809162000024828762000175565b85396001600160a01b03938491620000409190810190620001af565b16806080526040519283809263026b1d5f60e01b82525afa8015620001645782916000916200012f575b501660a05260016000553315620001165760018054336001600160a01b03198216811790925560405192167f8be0079c531659141344cd1fd0a4f28419497f9722a3daafe3b4186f6b6457e0600080a3603260025561012c600355640ba43b74006004556000600555600060065560006007556000600855612d239081620001d1823960805181611f99015260a051818181610e8701528181610fa3015281816114ea0152611a6c0152f35b604051631e4fbdf760e01b815260006004820152602490fd5b62000155915060203d81116200015c575b6200014c818362000175565b810190620001af565b386200006a565b503d62000140565b6040513d6000823e3d90fd5b600080fd5b601f909101601f19168101906001600160401b038211908210176200019957604052565b634e487b7160e01b600052604160045260246000fd5b908160209103126200017057516001600160a01b038116810362000170579056fe608080604052600436101561001a575b50361561001857005b005b600090813560e01c9081630542975c14611f855750806305785ad414611f6a578063075f631d14611efd5780631b11d0ff14611497578063331f566e146114795780633667fc16146113f75780633de39c11146113d95780633f4ba83a1461136657806341c64a2f1461133757806349acbc4d146113195780634c2458a8146112f65780634eaa6001146112975780635b0c5dbd146111e35780635c975abb146111bd578063697659f214611184578063715018a61461112757806373ad494614610fd25780637535d24614610f8d5780637c1d953914610e1e5780638456cb5914610dbb5780638600151914610b1b5780638da5cb5b14610d925780639e281a9814610c465780639fbefb2614610c28578063a0b2eefe14610b68578063a82ed9ec14610b39578063a9a4cbcc14610b1b578063ae58c206146106ab578063bc1638461461067c578063c3f909d41461062b578063c63877eb146103ce578063d6b735b5146103b0578063e275c99714610392578063e922c75c14610359578063f14210a61461026a578063f2fde38b146101da5763fc2139960361000f57346101d757806003193601126101d7576020600754604051908152f35b80fd5b50346101d75760203660031901126101d7576101f46120e1565b6101fc6122d5565b6001600160a01b0390811690811561025157600154826bffffffffffffffffffffffff60a01b821617600155167f8be0079c531659141344cd1fd0a4f28419497f9722a3daafe3b4186f6b6457e0600080a380f35b604051631e4fbdf760e01b815260048101849052602490fd5b50346101d75760203660031901126101d7576004356102876122d5565b61028f612322565b47811161031457808291156102a48115612c65565b828080808560018060a01b0395866001541690839061030b575bf1156103005760407fc47d27fd39a471117fc0e9b9713ab14c3b4cafb5eeb0aae4177d2817244d5d259160015416928151908152426020820152a36001815580f35b6040513d84823e3d90fd5b506108fc6102be565b60405162461bcd60e51b815260206004820152601860248201527f496e73756666696369656e74204554482062616c616e636500000000000000006044820152606490fd5b50346101d75760203660031901126101d7576020906040906001600160a01b036103816120e1565b168152600a83522054604051908152f35b50346101d757806003193601126101d7576020600654604051908152f35b50346101d757806003193601126101d7576020600254604051908152f35b50346101d75760208060031936011261062757600c546004358082111561061d579291925b6103fc816122be565b9161040a604051938461204b565b818352601f19610419836122be565b01845b8181106105cb5750506000198101908111845b8381106104fd575050505060405191838301848452825180915260408401948060408360051b870101940192955b82871061046a5785850386f35b909192938280600192603f19898203018552875190848060a01b038083511682528383015116838201526040820151604082015260608083015190820152608080830151908201526104cc60a080840151906101208091850152830190612299565b9160c0808201519083015260e0810151151560e083015261010080910151910152960192019601959291909261045d565b819695966105b7578061051b6105166105af9386612382565b612168565b5060086040519161052b83611fc8565b80546001600160a01b0390811684526001820154168a84015260028101546040840152600381015460608401526004810154608084015261056e600582016121f3565b60a0840152600681015460c084015260ff600782015416151560e0840152015461010082015261059e828861252e565b526105a9818761252e565b50612bcb565b95949561042f565b634e487b7160e01b87526011600452602487fd5b958095966040516105db81611fc8565b88815288838201528860408201526060898183015289608083015260a08201528860c08201528860e0820152886101008201528282880101520195949561041c565b50809291926103f3565b5080fd5b50346101d757806003193601126101d75760e0600254600354600454600654600754906005549260085494604051968752602087015260408601526060850152608084015260a083015260c0820152f35b50346101d757806003193601126101d757602060405173ba12222222228d8ba445958a75a0704d566bf2c88152f35b50346101d757600319602036820112610afe576001600160401b0360043511610afe5760c09060043536030112610afe57604051906106e982611ffa565b6106f76004356004016120f7565b82526107076024600435016120f7565b9060208301918252604460043501356040840152606460043501356001600160401b038111610afe576004350136602382011215610afe5760048101359061074e826122be565b9161075c604051938461204b565b8083526024602084019160051b83010191368311610afe57602401905b828210610b0357505050606084015260846004350135906001600160401b038211610afe573660238360043501011215610afe576004828135010135916107bf836122be565b926107cd604051948561204b565b80845260208401913660248360051b8360043501010111610afe576024816004350101925b60248360051b836004350101018410610ab657505050506080840191825260a084019260a460043501358452303303610a7d5760018060a01b039261085f848751168584511660408901518761084b60608c0151612511565b5116916108588651612511565b5193612562565b908115610a44578461088c93511691858851166108588761088360608c015161251e565b5116935161251e565b6040850151811115610a075760408501516108a691612382565b925183106109c257612710908184029184830414841517156109ae575060408401516108d191612542565b60025411610971576024610906826108f760606108fe610951966108f7838b0151612511565b5116612adf565b97015161251e565b9360405194816109208793518092602080870191016120be565b820163010169f160e51b602082015261094282518093602087850191016120be565b0103600481018552018361204b565b61096d6040519283928352604060208401526040830190612299565b0390f35b60405162461bcd60e51b815260206004820152601560248201527450726f666974206d617267696e20746f6f206c6f7760581b6044820152606490fd5b634e487b7160e01b81526011600452602490fd5b60405162461bcd60e51b815260206004820152601e60248201527f50726f6669742062656c6f77206d696e696d756d207468726573686f6c6400006044820152606490fd5b60405162461bcd60e51b81526020600482015260156024820152744e6f2070726f666974206f70706f7274756e69747960581b6044820152606490fd5b60405162461bcd60e51b8152602060048201526011602482015270119a5c9cdd081cddd85c0819985a5b1959607a1b6044820152606490fd5b60405162461bcd60e51b815260206004820152601160248201527024b73a32b93730b610333ab731ba34b7b760791b6044820152606490fd5b83356001600160401b038111610afe578260043501019036604383011215610afe5760208091610af160249436906044878201359101612087565b81520194019390506107f2565b600080fd5b60208091610b10846120f7565b815201910190610779565b50346101d757806003193601126101d7576020600554604051908152f35b50346101d757806003193601126101d7576020604051734752ba5dbc23f44d87826276bf6fd6b1c372ad248152f35b50346101d75760203660031901126101d757610b826120e1565b610b8a6122d5565b6001600160a01b03908116610ba0811515612c21565b6040516370a0823160e01b815230600482015290602082602481845afa918215610c1d578492610bea575b5081610bd5578380f35b610be3926001541690612cb1565b3880808380f35b9091506020813d8211610c15575b81610c056020938361204b565b81010312610afe57519038610bcb565b3d9150610bf8565b6040513d86823e3d90fd5b50346101d757806003193601126101d7576020600854604051908152f35b50346101d75760403660031901126101d757610c606120e1565b60243590610c6c6122d5565b610c74612322565b6001600160a01b0390811691610c8b831515612c21565b610c96811515612c65565b6040516370a0823160e01b8152306004820152602092908381602481885afa908115610d87578691610d5a575b508211610d15578181610cfe7fc47d27fd39a471117fc0e9b9713ab14c3b4cafb5eeb0aae4177d2817244d5d25946040946001541688612cb1565b600154169382519182524290820152a36001815580f35b60405162461bcd60e51b815260048101849052601a60248201527f496e73756666696369656e7420746f6b656e2062616c616e63650000000000006044820152606490fd5b90508381813d8311610d80575b610d71818361204b565b81010312610afe575138610cc3565b503d610d67565b6040513d88823e3d90fd5b50346101d757806003193601126101d7576001546040516001600160a01b039091168152602090f35b50346101d757806003193601126101d757610dd46122d5565b610ddc612301565b6001805460ff60a01b1916600160a01b1790556040513381527f62e78cea01bee320cd4e420270b5ea74000d11b0c9f74754ebdbfc544b05a25890602090a180f35b50346101d75760603660031901126101d757610e386120e1565b6001600160401b03604435818111610f8957610e5890369060040161210b565b9290610e626122d5565b610e6a612322565b610e72612301565b6004543a11610f4f5784916001600160a01b037f0000000000000000000000000000000000000000000000000000000000000000811691823b15610f4b5760c4859188604051998a97889687946310ac2ddf60e21b8652306004870152166024850152602435604485015260a060648501528160a48501528484013783838284010152836084830152601f801991011681010301925af18015610f4057610f1c575b826001815580f35b8111610f2c576040523880610f14565b634e487b7160e01b82526041600452602482fd5b6040513d85823e3d90fd5b8480fd5b60405162461bcd60e51b815260206004820152601260248201527108ec2e640e0e4d2c6ca40e8dede40d0d2ced60731b6044820152606490fd5b8380fd5b50346101d757806003193601126101d7576040517f00000000000000000000000000000000000000000000000000000000000000006001600160a01b03168152602090f35b50346101d75760603660031901126101d757604435602435600435610ff56122d5565b8015158061111b575b156110e157811515806110d5575b1561109957821561105c577f6d05db271e19f930af71c4765de54ef86294762644c20f4d6fd2609d057d3c7b9260609282600255806003558160045560405192835260208301526040820152a180f35b60405162461bcd60e51b8152602060048201526015602482015274496e76616c6964206d61782067617320707269636560581b6044820152606490fd5b60405162461bcd60e51b8152602060048201526014602482015273496e76616c6964206d617820736c69707061676560601b6044820152606490fd5b506103e882111561100c565b60405162461bcd60e51b8152602060048201526012602482015271125b9d985b1a59081b5a5b881c1c9bd99a5d60721b6044820152606490fd5b506103e8811115610ffe565b50346101d757806003193601126101d7576111406122d5565b600180546001600160a01b0319811690915581906001600160a01b03167f8be0079c531659141344cd1fd0a4f28419497f9722a3daafe3b4186f6b6457e08280a380f35b50346101d75760203660031901126101d7576020906040906001600160a01b036111ac6120e1565b168152600983522054604051908152f35b50346101d757806003193601126101d757602060ff60015460a01c166040519015158152f35b50346101d75760203660031901126101d757600435600c548110156106275761120b90612168565b5060018060a01b038082541690600183015416916002810154600382015491611280600482015461123e600584016121f3565b90600684015495600860ff60078701541695015495604051998a998a5260208a01526040890152606088015260808701526101208060a0880152860190612299565b9260c0850152151560e08401526101008301520390f35b50346101d757806003193601126101d7576112b06122d5565b804780159081156112bf575050f35b82809291819260018060a01b03600154169083906112ed575bf1156112e15780f35b604051903d90823e3d90fd5b506108fc6112d8565b50346101d757806003193601126101d7576020611311612c0c565b604051908152f35b50346101d757806003193601126101d7576020600c54604051908152f35b50346101d757806003193601126101d7576020604051732626664c2603336e57b271c5c0b26f421741e4818152f35b50346101d757806003193601126101d75761137f6122d5565b60015460ff8160a01c16156113c75760ff60a01b19166001556040513381527f5db9ee0a495bf2e6ff9c91a7834c1ba4fdd244a5e8aa4e537bd38aeae4b073aa90602090a180f35b604051638dfc202b60e01b8152600490fd5b50346101d757806003193601126101d7576020600454604051908152f35b50346101d75760a03660031901126101d7576114116120e1565b506024356001600160a01b038116036101d7576001600160401b0360643581811161147557611444903690600401612138565b50506084359081116106275761145e903690600401612138565b505060408051600181526064604435046020820152f35b8280fd5b50346101d757806003193601126101d7576020600354604051908152f35b50346101d75760a03660031901126101d7576114b16120e1565b6064356001600160a01b0381169190829003611475576084356001600160401b038111610f89576114e690369060040161210b565b90927f00000000000000000000000000000000000000000000000000000000000000006001600160a01b03163303611eb8573003611e73575a926020818381010312610f4b578035906001600160401b038211611e6f5760c08282018483010312611e6f576040519261155884611ffa565b6115638383016120f7565b84526115736020848401016120f7565b602085015281830160408181013590860152606001356001600160401b038111611e6b57818301601f8286860101011215611e6b578084840101356115b7816122be565b916115c5604051938461204b565b818352602083019084860160208460051b838a8a0101010111611db457906020828888010101915b60208460051b828a8a010101018310611e50575050505060608501526001600160401b036080848401013511611e4c57818101838301608081013501601f011215611e4c578183016080810135013590611646826122be565b91611654604051938461204b565b808352602083019180850160208360051b6080898901013589890101010111611e4857848601608081013501602001925b858701608081013501600584901b016020018410611ded57505050509060a09291608085015201013560a082015283906040516116c181612015565b8581526040805163572c610360e11b815260206004820181905284516001600160a01b03908116602484015290850151166044820152908301516064820152606083015160c06084830152919391879082906117219060e4830190612345565b6080860151906023198382030160a4840152815180825260208201916020808360051b83010194019286915b838310611dbc575050505050819060a087015160c4830152038183305af1908188918993611d23575b50611d1457505061178a86955b5a90612382565b82519360406020850151940151916040514260208201526bffffffffffffffffffffffff19808860601b1660408301528660601b1660548201528360688201523360601b6088820152607c81528060a08101106001600160401b0360a083011117611d005760a081016040528051602082012061180960a08301611fc8565b6001600160a01b0388811660a0840152871660c083015260e08201859052610100820186905261012082018390526101408201849052426101608301528915156101808301526101a0820152600c5468010000000000000000811015611cec578060016118799201600c55612168565b919091611cd85760a081015182546001600160a01b039182166001600160a01b031991821617845560c083015160018501805491909316911617905560e08101516002830155610100810151600383015561012081015160048301556101408101518051906001600160401b038211611cc4576118f960058501546121b9565b8d601f8211611c7d575b9050506020908d601f8411600114611be15793837fed7eba35acf844a173245a4fd7397564c70edbcd3764df0a10e30712c021e59f9a999896946008946101a0946119d59a9892611bd6575b50508160011b916000199060031b1c19161760058501555b610160810151600685015560078401610180820151151560ff80198354169116179055015191015561199a600654612bcb565b600655896119aa826008546123a5565b600855611b40575b60405194859485526020850152604084015260a0606084015260a0830190612299565b4260808301526001600160a01b0394851695909416930390a36044359160243590611a0084836123a5565b6040516370a0823160e01b81523060048201526001600160a01b039094169590936020816024818a5afa9182156112e15790818693611b08575b505010611ab8577fe7055bb7f757aae8cfbf6ea2247e26371914425f5500c1d720f0746ae1ff880393606093611a9a907f00000000000000000000000000000000000000000000000000000000000000006001600160a01b0316886123b2565b604051928352602083015215156040820152a2602060405160018152f35b60405162461bcd60e51b815260206004820152602260248201527f496e73756666696369656e742062616c616e636520746f207265706179206c6f60448201526130b760f11b6064820152608490fd5b915091506020823d602011611b38575b81611b256020938361204b565b810103126101d757508390513880611a3a565b3d9150611b18565b611b4b600754612bcb565b600755611b5a856005546123a5565b6005556001600160a01b0388168b52600960205260408b208054611b7f9087906123a5565b90556001600160a01b0388168b52600a60205260408b208054611ba39086906123a5565b90556040516020818451611bba81838589016120be565b8101600b815203019020611bcf8682546123a5565b90556119b2565b01519050388061194f565b919060058601835260208320925b601f1985168110611c655750936001846008946101a0946119d59a987fed7eba35acf844a173245a4fd7397564c70edbcd3764df0a10e30712c021e59f9e9d9c9a98601f19811610611c4c575b505050811b016005850155611967565b015160001960f88460031b161c19169055388080611c3c565b91926020600181928685015181550194019201611bef565b60209060058701815220601f840160051c810160208510611cbd575b8f5b601f840160051c83018210611cb257915050611903565b81556001018f611c9b565b5080611c99565b634e487b7160e01b8d52604160045260248dfd5b634e487b7160e01b8b5260048b905260248bfd5b634e487b7160e01b8b52604160045260248bfd5b634e487b7160e01b8a52604160045260248afd5b9150925061178a600195611783565b915091503d908189823e611d37828261204b565b6040818381010312611db8578051906020810151906001600160401b038211611db457838101601f838301011215611db4578181015190611d778261206c565b94611d85604051968761204b565b8286528101602083858401010111611db0576020611da8938187019201016120be565b909138611776565b8b80fd5b8a80fd5b8880fd5b92955092955092602080611ddc600193601f198682030187528951612299565b9701930193018c959387959261174d565b8335906001600160401b038211611db0578683018888016080810135018301603f011215611db05760209182918291611e3b908a8701908b8d01608081013501018085013590604001612087565b8152019401939050611685565b8980fd5b8680fd5b6020808093611e5e866120f7565b81520193019291506115ed565b8780fd5b8580fd5b60405162461bcd60e51b815260206004820152601f60248201527f496e69746961746f72206d757374206265207468697320636f6e7472616374006044820152606490fd5b60405162461bcd60e51b815260206004820152601860248201527f43616c6c6572206d757374206265204141564520706f6f6c00000000000000006044820152606490fd5b50346101d75760203660031901126101d757600435906001600160401b0382116101d757366023830112156101d7576020611f5781611f4436600487013560248801612087565b81604051938285809451938492016120be565b8101600b81520301902054604051908152f35b50346101d757806003193601126101d7576020611311612bda565b9050346106275781600319360112610627577f00000000000000000000000000000000000000000000000000000000000000006001600160a01b03168152602090f35b61012081019081106001600160401b03821117611fe457604052565b634e487b7160e01b600052604160045260246000fd5b60c081019081106001600160401b03821117611fe457604052565b602081019081106001600160401b03821117611fe457604052565b604081019081106001600160401b03821117611fe457604052565b90601f801991011681019081106001600160401b03821117611fe457604052565b6001600160401b038111611fe457601f01601f191660200190565b9291926120938261206c565b916120a1604051938461204b565b829481845281830111610afe578281602093846000960137010152565b60005b8381106120d15750506000910152565b81810151838201526020016120c1565b600435906001600160a01b0382168203610afe57565b35906001600160a01b0382168203610afe57565b9181601f84011215610afe578235916001600160401b038311610afe5760208381860195010111610afe57565b9181601f84011215610afe578235916001600160401b038311610afe576020808501948460051b010111610afe57565b600c548110156121a357600990600c600052027fdf6966c971051c3d54ec59162606531493a51404a002842f56009d7e5cf4a8c70190600090565b634e487b7160e01b600052603260045260246000fd5b90600182811c921680156121e9575b60208310146121d357565b634e487b7160e01b600052602260045260246000fd5b91607f16916121c8565b9060405191826000825492612207846121b9565b9081845260019485811690816000146122765750600114612233575b50506122319250038361204b565b565b9093915060005260209081600020936000915b81831061225e57505061223193508201013880612223565b85548884018501529485019487945091830191612246565b91505061223194506020925060ff191682840152151560051b8201013880612223565b906020916122b2815180928185528580860191016120be565b601f01601f1916010190565b6001600160401b038111611fe45760051b60200190565b6001546001600160a01b031633036122e957565b60405163118cdaa760e01b8152336004820152602490fd5b60ff60015460a01c1661231057565b60405163d93c066560e01b8152600490fd5b600260005414612333576002600055565b604051633ee5aeb560e01b8152600490fd5b90815180825260208080930193019160005b828110612365575050505090565b83516001600160a01b031685529381019392810192600101612357565b9190820391821161238f57565b634e487b7160e01b600052601160045260246000fd5b9190820180921161238f57565b60405163095ea7b360e01b602082018181526001600160a01b0385166024840152604480840196909652948252949390926123ee60648561204b565b60206000809386519082875af182513d82612484575b505015612414575b505050509050565b60405160208101969096526001600160a01b031660248601526044808601829052855260808501906001600160401b038211868310176124705750612466939461246191604052826124a9565b6124a9565b803880808061240c565b634e487b7160e01b81526041600452602490fd5b9091506124a157506001600160a01b0383163b15155b3880612404565b60011461249a565b906000602091828151910182855af115612505576000513d6124fc57506001600160a01b0381163b155b6124da5750565b604051635274afe760e01b81526001600160a01b039091166004820152602490fd5b600114156124d3565b6040513d6000823e3d90fd5b8051156121a35760200190565b8051600110156121a35760400190565b80518210156121a35760209160051b010190565b811561254c570490565b634e487b7160e01b600052601260045260246000fd5b9194939290916001600160a01b03169061257d8682846123b2565b734752ba5dbc23f44d87826276bf6fd6b1c372ad24926001600160a01b0391909116919083830361276b57505050815182016020908184818301920312610afe57818401516001600160401b0394858211610afe57019281603f85011215610afe5782840151916125ed836122be565b926040956125fd8751958661204b565b818552868686019260051b820101928311610afe578601905b82821061274c5750505061012c42019687421161238f57612665918551809481936338ed173960e01b835260048301528160009b8c96879384602485015260a0604485015260a4840190612345565b90306064840152608483015203925af19384156127425786946126b9575b5050505080519060001982019182116126a5576126a192935061252e565b5190565b634e487b7160e01b84526011600452602484fd5b90919293503d8087843e6126cd818461204b565b8201918381840312611e4c578051918211611e4c570181601f82011215611e6f578051906127066126fd836122be565b9551958661204b565b818552838086019260051b820101928311611e4c578301905b828210612733575050505038808080612683565b8151815290830190830161271f565b83513d88823e3d90fd5b81516001600160a01b0381168103610afe578152908501908501612616565b90919394959250732626664c2603336e57b271c5c0b26f421741e481938481146000146128d157506020948581805181010312610afe578501519362ffffff8516809503610afe5761012c420180421161238f57604051906101008201928284106001600160401b03851117611fe45760409384529482526001600160a01b0393841682890190815282840197885230606084019081526080840192835260a08401978852600060c0850181815260e08601828152965163414bf38960e01b8152955188166004870152925187166024860152985162ffffff166044850152518516606484015290516084830152945160a4820152935160c4850152511660e48301529091908390839061010490829085905af19283156128c4578193612893575b50505090565b9091809350813d83116128bd575b6128ab818361204b565b810103126101d757505138808061288d565b503d6128a1565b50604051903d90823e3d90fd5b91949093509073ba12222222228d8ba445958a75a0704d566bf2c803612aa857602081805181010312610afe57602001519160409384519361291285611ffa565b845260006020850152848401526001600160a01b031660608301526080820152815161293d81612015565b6000815260a0820152815190608082018281106001600160401b03821117611fe45783523082526000602083015230838301526000606083015261012c4201421161238f5760a06020916129fb936060865195869485946352bbbe2960e01b865260e06004870152805160e487015260ff8882015116610104870152600180831b038a82015116610124870152600180831b0384820151166101448701526080810151610164870152015160c06101848601526101a4850190612299565b82516001600160a01b03908116602486015286840151151560448601528884015116606485015291015115156084830152600060a483018190524261012c0160c484015291900390829073ba12222222228d8ba445958a75a0704d566bf2c85af1918215612a9e5750600091612a6f575090565b90506020813d602011612a96575b81612a8a6020938361204b565b81010312610afe575190565b3d9150612a7d565b513d6000823e3d90fd5b60405162461bcd60e51b815260206004820152600f60248201526e0aadce6eae0e0dee4e8cac840888ab608b1b6044820152606490fd5b6001600160a01b0316734752ba5dbc23f44d87826276bf6fd6b1c372ad248114612ba557732626664c2603336e57b271c5c0b26f421741e4818114612b7f5773ba12222222228d8ba445958a75a0704d566bf2c814612b5b57604051612b4481612030565b60078152662ab735b737bbb760c91b602082015290565b604051612b6781612030565b60088152672130b630b731b2b960c11b602082015290565b50604051612b8c81612030565b6009815268556e6973776170563360b81b602082015290565b50604051612bb281612030565b60098152682ab734b9bbb0b82b1960b91b602082015290565b600019811461238f5760010190565b6006548015612c06576007549060648202918083046064149015171561238f57612c0391612542565b90565b50600090565b6006548015612c0657612c0390600854612542565b15612c2857565b60405162461bcd60e51b8152602060048201526015602482015274496e76616c696420746f6b656e206164647265737360581b6044820152606490fd5b15612c6c57565b60405162461bcd60e51b815260206004820152601760248201527f416d6f756e74206d75737420626520706f7369746976650000000000000000006044820152606490fd5b60405163a9059cbb60e01b60208201526001600160a01b039290921660248301526044808301939093529181526122319161246160648361204b56fea2646970667358221220a908f470c88b29ded7a05cad8302fa61c802c0e2f1f1f9f9982c1eacbfeb552e64736f6c63430008140033","opcodes":"PUSH1 0xC0 DUP1 PUSH1 0x40 MSTORE CALLVALUE PUSH3 0x170 JUMPI PUSH1 0x4 PUSH1 0x20 PUSH3 0x2EF4 DUP1 CODESIZE SUB DUP1 SWAP2 PUSH3 0x24 DUP3 DUP8 PUSH3 0x175 JUMP JUMPDEST DUP6 CODECOPY PUSH1 0x1 PUSH1 0x1 PUSH1 0xA0 SHL SUB SWAP4 DUP5 SWAP2 PUSH3 0x40 SWAP2 SWAP1 DUP2 ADD SWAP1 PUSH3 0x1AF JUMP JUMPDEST AND DUP1 PUSH1 0x80 MSTORE PUSH1 0x40 MLOAD SWAP3 DUP4 DUP1 SWAP3 PUSH4 0x26B1D5F PUSH1 0xE0 SHL DUP3 MSTORE GAS STATICCALL DUP1 ISZERO PUSH3 0x164 JUMPI DUP3 SWAP2 PUSH1 0x0 SWAP2 PUSH3 0x12F JUMPI JUMPDEST POP AND PUSH1 0xA0 MSTORE PUSH1 0x1 PUSH1 0x0 SSTORE CALLER ISZERO PUSH3 0x116 JUMPI PUSH1 0x1 DUP1 SLOAD CALLER PUSH1 0x1 PUSH1 0x1 PUSH1 0xA0 SHL SUB NOT DUP3 AND DUP2 OR SWAP1 SWAP3 SSTORE PUSH1 0x40 MLOAD SWAP3 AND PUSH32 0x8BE0079C531659141344CD1FD0A4F28419497F9722A3DAAFE3B4186F6B6457E0 PUSH1 0x0 DUP1 LOG3 PUSH1 0x32 PUSH1 0x2 SSTORE PUSH2 0x12C PUSH1 0x3 SSTORE PUSH5 0xBA43B7400 PUSH1 0x4 SSTORE PUSH1 0x0 PUSH1 0x5 SSTORE PUSH1 0x0 PUSH1 0x6 SSTORE PUSH1 0x0 PUSH1 0x7 SSTORE PUSH1 0x0 PUSH1 0x8 SSTORE PUSH2 0x2D23 SWAP1 DUP2 PUSH3 0x1D1 DUP3 CODECOPY PUSH1 0x80 MLOAD DUP2 PUSH2 0x1F99 ADD MSTORE PUSH1 0xA0 MLOAD DUP2 DUP2 DUP2 PUSH2 0xE87 ADD MSTORE DUP2 DUP2 PUSH2 0xFA3 ADD MSTORE DUP2 DUP2 PUSH2 0x14EA ADD MSTORE PUSH2 0x1A6C ADD MSTORE RETURN JUMPDEST PUSH1 0x40 MLOAD PUSH4 0x1E4FBDF7 PUSH1 0xE0 SHL DUP2 MSTORE PUSH1 0x0 PUSH1 0x4 DUP3 ADD MSTORE PUSH1 0x24 SWAP1 REVERT JUMPDEST PUSH3 0x155 SWAP2 POP PUSH1 0x20 RETURNDATASIZE DUP2 GT PUSH3 0x15C JUMPI JUMPDEST PUSH3 0x14C DUP2 DUP4 PUSH3 0x175 JUMP JUMPDEST DUP2 ADD SWAP1 PUSH3 0x1AF JUMP JUMPDEST CODESIZE PUSH3 0x6A JUMP JUMPDEST POP RETURNDATASIZE PUSH3 0x140 JUMP JUMPDEST PUSH1 0x40 MLOAD RETURNDATASIZE PUSH1 0x0 DUP3 RETURNDATACOPY RETURNDATASIZE SWAP1 REVERT JUMPDEST PUSH1 0x0 DUP1 REVERT JUMPDEST PUSH1 0x1F SWAP1 SWAP2 ADD PUSH1 0x1F NOT AND DUP2 ADD SWAP1 PUSH1 0x1 PUSH1 0x1 PUSH1 0x40 SHL SUB DUP3 GT SWAP1 DUP3 LT OR PUSH3 0x199 JUMPI PUSH1 0x40 MSTORE JUMP JUMPDEST PUSH4 0x4E487B71 PUSH1 0xE0 SHL PUSH1 0x0 MSTORE PUSH1 0x41 PUSH1 0x4 MSTORE PUSH1 0x24 PUSH1 0x0 REVERT JUMPDEST SWAP1 DUP2 PUSH1 0x20 SWAP2 SUB SLT PUSH3 0x170 JUMPI MLOAD PUSH1 0x1 PUSH1 0x1 PUSH1 0xA0 SHL SUB DUP2 AND DUP2 SUB PUSH3 0x170 JUMPI SWAP1 JUMP INVALID PUSH1 0x80 DUP1 PUSH1 0x40 MSTORE PUSH1 0x4 CALLDATASIZE LT ISZERO PUSH2 0x1A JUMPI JUMPDEST POP CALLDATASIZE ISZERO PUSH2 0x18 JUMPI STOP JUMPDEST STOP JUMPDEST PUSH1 0x0 SWAP1 DUP2 CALLDATALOAD PUSH1 0xE0 SHR SWAP1 DUP2 PUSH4 0x542975C EQ PUSH2 0x1F85 JUMPI POP DUP1 PUSH4 0x5785AD4 EQ PUSH2 0x1F6A JUMPI DUP1 PUSH4 0x75F631D EQ PUSH2 0x1EFD JUMPI DUP1 PUSH4 0x1B11D0FF EQ PUSH2 0x1497 JUMPI DUP1 PUSH4 0x331F566E EQ PUSH2 0x1479 JUMPI DUP1 PUSH4 0x3667FC16 EQ PUSH2 0x13F7 JUMPI DUP1 PUSH4 0x3DE39C11 EQ PUSH2 0x13D9 JUMPI DUP1 PUSH4 0x3F4BA83A EQ PUSH2 0x1366 JUMPI DUP1 PUSH4 0x41C64A2F EQ PUSH2 0x1337 JUMPI DUP1 PUSH4 0x49ACBC4D EQ PUSH2 0x1319 JUMPI DUP1 PUSH4 0x4C2458A8 EQ PUSH2 0x12F6 JUMPI DUP1 PUSH4 0x4EAA6001 EQ PUSH2 0x1297 JUMPI DUP1 PUSH4 0x5B0C5DBD EQ PUSH2 0x11E3 JUMPI DUP1 PUSH4 0x5C975ABB EQ PUSH2 0x11BD JUMPI DUP1 PUSH4 0x697659F2 EQ PUSH2 0x1184 JUMPI DUP1 PUSH4 0x715018A6 EQ PUSH2 0x1127 JUMPI DUP1 PUSH4 0x73AD4946 EQ PUSH2 0xFD2 JUMPI DUP1 PUSH4 0x7535D246 EQ PUSH2 0xF8D JUMPI DUP1 PUSH4 0x7C1D9539 EQ PUSH2 0xE1E JUMPI DUP1 PUSH4 0x8456CB59 EQ PUSH2 0xDBB JUMPI DUP1 PUSH4 0x86001519 EQ PUSH2 0xB1B JUMPI DUP1 PUSH4 0x8DA5CB5B EQ PUSH2 0xD92 JUMPI DUP1 PUSH4 0x9E281A98 EQ PUSH2 0xC46 JUMPI DUP1 PUSH4 0x9FBEFB26 EQ PUSH2 0xC28 JUMPI DUP1 PUSH4 0xA0B2EEFE EQ PUSH2 0xB68 JUMPI DUP1 PUSH4 0xA82ED9EC EQ PUSH2 0xB39 JUMPI DUP1 PUSH4 0xA9A4CBCC EQ PUSH2 0xB1B JUMPI DUP1 PUSH4 0xAE58C206 EQ PUSH2 0x6AB JUMPI DUP1 PUSH4 0xBC163846 EQ PUSH2 0x67C JUMPI DUP1 PUSH4 0xC3F909D4 EQ PUSH2 0x62B JUMPI DUP1 PUSH4 0xC63877EB EQ PUSH2 0x3CE JUMPI DUP1 PUSH4 0xD6B735B5 EQ PUSH2 0x3B0 JUMPI DUP1 PUSH4 0xE275C997 EQ PUSH2 0x392 JUMPI DUP1 PUSH4 0xE922C75C EQ PUSH2 0x359 JUMPI DUP1 PUSH4 0xF14210A6 EQ PUSH2 0x26A JUMPI DUP1 PUSH4 0xF2FDE38B EQ PUSH2 0x1DA JUMPI PUSH4 0xFC213996 SUB PUSH2 0xF JUMPI CALLVALUE PUSH2 0x1D7 JUMPI DUP1 PUSH1 0x3 NOT CALLDATASIZE ADD SLT PUSH2 0x1D7 JUMPI PUSH1 0x20 PUSH1 0x7 SLOAD PUSH1 0x40 MLOAD SWAP1 DUP2 MSTORE RETURN JUMPDEST DUP1 REVERT JUMPDEST POP CALLVALUE PUSH2 0x1D7 JUMPI PUSH1 0x20 CALLDATASIZE PUSH1 0x3 NOT ADD SLT PUSH2 0x1D7 JUMPI PUSH2 0x1F4 PUSH2 0x20E1 JUMP JUMPDEST PUSH2 0x1FC PUSH2 0x22D5 JUMP JUMPDEST PUSH1 0x1 PUSH1 0x1 PUSH1 0xA0 SHL SUB SWAP1 DUP2 AND SWAP1 DUP2 ISZERO PUSH2 0x251 JUMPI PUSH1 0x1 SLOAD DUP3 PUSH12 0xFFFFFFFFFFFFFFFFFFFFFFFF PUSH1 0xA0 SHL DUP3 AND OR PUSH1 0x1 SSTORE AND PUSH32 0x8BE0079C531659141344CD1FD0A4F28419497F9722A3DAAFE3B4186F6B6457E0 PUSH1 0x0 DUP1 LOG3 DUP1 RETURN JUMPDEST PUSH1 0x40 MLOAD PUSH4 0x1E4FBDF7 PUSH1 0xE0 SHL DUP2 MSTORE PUSH1 0x4 DUP2 ADD DUP5 SWAP1 MSTORE PUSH1 0x24 SWAP1 REVERT JUMPDEST POP CALLVALUE PUSH2 0x1D7 JUMPI PUSH1 0x20 CALLDATASIZE PUSH1 0x3 NOT ADD SLT PUSH2 0x1D7 JUMPI PUSH1 0x4 CALLDATALOAD PUSH2 0x287 PUSH2 0x22D5 JUMP JUMPDEST PUSH2 0x28F PUSH2 0x2322 JUMP JUMPDEST SELFBALANCE DUP2 GT PUSH2 0x314 JUMPI DUP1 DUP3 SWAP2 ISZERO PUSH2 0x2A4 DUP2 ISZERO PUSH2 0x2C65 JUMP JUMPDEST DUP3 DUP1 DUP1 DUP1 DUP6 PUSH1 0x1 DUP1 PUSH1 0xA0 SHL SUB SWAP6 DUP7 PUSH1 0x1 SLOAD AND SWAP1 DUP4 SWAP1 PUSH2 0x30B JUMPI JUMPDEST CALL ISZERO PUSH2 0x300 JUMPI PUSH1 0x40 PUSH32 0xC47D27FD39A471117FC0E9B9713AB14C3B4CAFB5EEB0AAE4177D2817244D5D25 SWAP2 PUSH1 0x1 SLOAD AND SWAP3 DUP2 MLOAD SWAP1 DUP2 MSTORE TIMESTAMP PUSH1 0x20 DUP3 ADD MSTORE LOG3 PUSH1 0x1 DUP2 SSTORE DUP1 RETURN JUMPDEST PUSH1 0x40 MLOAD RETURNDATASIZE DUP5 DUP3 RETURNDATACOPY RETURNDATASIZE SWAP1 REVERT JUMPDEST POP PUSH2 0x8FC PUSH2 0x2BE JUMP JUMPDEST PUSH1 0x40 MLOAD PUSH3 0x461BCD PUSH1 0xE5 SHL DUP2 MSTORE PUSH1 0x20 PUSH1 0x4 DUP3 ADD MSTORE PUSH1 0x18 PUSH1 0x24 DUP3 ADD MSTORE PUSH32 0x496E73756666696369656E74204554482062616C616E63650000000000000000 PUSH1 0x44 DUP3 ADD MSTORE PUSH1 0x64 SWAP1 REVERT JUMPDEST POP CALLVALUE PUSH2 0x1D7 JUMPI PUSH1 0x20 CALLDATASIZE PUSH1 0x3 NOT ADD SLT PUSH2 0x1D7 JUMPI PUSH1 0x20 SWAP1 PUSH1 0x40 SWAP1 PUSH1 0x1 PUSH1 0x1 PUSH1 0xA0 SHL SUB PUSH2 0x381 PUSH2 0x20E1 JUMP JUMPDEST AND DUP2 MSTORE PUSH1 0xA DUP4 MSTORE KECCAK256 SLOAD PUSH1 0x40 MLOAD SWAP1 DUP2 MSTORE RETURN JUMPDEST POP CALLVALUE PUSH2 0x1D7 JUMPI DUP1 PUSH1 0x3 NOT CALLDATASIZE ADD SLT PUSH2 0x1D7 JUMPI PUSH1 0x20 PUSH1 0x6 SLOAD PUSH1 0x40 MLOAD SWAP1 DUP2 MSTORE RETURN JUMPDEST POP CALLVALUE PUSH2 0x1D7 JUMPI DUP1 PUSH1 0x3 NOT CALLDATASIZE ADD SLT PUSH2 0x1D7 JUMPI PUSH1 0x20 PUSH1 0x2 SLOAD PUSH1 0x40 MLOAD SWAP1 DUP2 MSTORE RETURN JUMPDEST POP CALLVALUE PUSH2 0x1D7 JUMPI PUSH1 0x20 DUP1 PUSH1 0x3 NOT CALLDATASIZE ADD SLT PUSH2 0x627 JUMPI PUSH1 0xC SLOAD PUSH1 0x4 CALLDATALOAD DUP1 DUP3 GT ISZERO PUSH2 0x61D JUMPI SWAP3 SWAP2 SWAP3 JUMPDEST PUSH2 0x3FC DUP2 PUSH2 0x22BE JUMP JUMPDEST SWAP2 PUSH2 0x40A PUSH1 0x40 MLOAD SWAP4 DUP5 PUSH2 0x204B JUMP JUMPDEST DUP2 DUP4 MSTORE PUSH1 0x1F NOT PUSH2 0x419 DUP4 PUSH2 0x22BE JUMP JUMPDEST ADD DUP5 JUMPDEST DUP2 DUP2 LT PUSH2 0x5CB JUMPI POP POP PUSH1 0x0 NOT DUP2 ADD SWAP1 DUP2 GT DUP5 JUMPDEST DUP4 DUP2 LT PUSH2 0x4FD JUMPI POP POP POP POP PUSH1 0x40 MLOAD SWAP2 DUP4 DUP4 ADD DUP5 DUP5 MSTORE DUP3 MLOAD DUP1 SWAP2 MSTORE PUSH1 0x40 DUP5 ADD SWAP5 DUP1 PUSH1 0x40 DUP4 PUSH1 0x5 SHL DUP8 ADD ADD SWAP5 ADD SWAP3 SWAP6 JUMPDEST DUP3 DUP8 LT PUSH2 0x46A JUMPI DUP6 DUP6 SUB DUP7 RETURN JUMPDEST SWAP1 SWAP2 SWAP3 SWAP4 DUP3 DUP1 PUSH1 0x1 SWAP3 PUSH1 0x3F NOT DUP10 DUP3 SUB ADD DUP6 MSTORE DUP8 MLOAD SWAP1 DUP5 DUP1 PUSH1 0xA0 SHL SUB DUP1 DUP4 MLOAD AND DUP3 MSTORE DUP4 DUP4 ADD MLOAD AND DUP4 DUP3 ADD MSTORE PUSH1 0x40 DUP3 ADD MLOAD PUSH1 0x40 DUP3 ADD MSTORE PUSH1 0x60 DUP1 DUP4 ADD MLOAD SWAP1 DUP3 ADD MSTORE PUSH1 0x80 DUP1 DUP4 ADD MLOAD SWAP1 DUP3 ADD MSTORE PUSH2 0x4CC PUSH1 0xA0 DUP1 DUP5 ADD MLOAD SWAP1 PUSH2 0x120 DUP1 SWAP2 DUP6 ADD MSTORE DUP4 ADD SWAP1 PUSH2 0x2299 JUMP JUMPDEST SWAP2 PUSH1 0xC0 DUP1 DUP3 ADD MLOAD SWAP1 DUP4 ADD MSTORE PUSH1 0xE0 DUP2 ADD MLOAD ISZERO ISZERO PUSH1 0xE0 DUP4 ADD MSTORE PUSH2 0x100 DUP1 SWAP2 ADD MLOAD SWAP2 ADD MSTORE SWAP7 ADD SWAP3 ADD SWAP7 ADD SWAP6 SWAP3 SWAP2 SWAP1 SWAP3 PUSH2 0x45D JUMP JUMPDEST DUP2 SWAP7 SWAP6 SWAP7 PUSH2 0x5B7 JUMPI DUP1 PUSH2 0x51B PUSH2 0x516 PUSH2 0x5AF SWAP4 DUP7 PUSH2 0x2382 JUMP JUMPDEST PUSH2 0x2168 JUMP JUMPDEST POP PUSH1 0x8 PUSH1 0x40 MLOAD SWAP2 PUSH2 0x52B DUP4 PUSH2 0x1FC8 JUMP JUMPDEST DUP1 SLOAD PUSH1 0x1 PUSH1 0x1 PUSH1 0xA0 SHL SUB SWAP1 DUP2 AND DUP5 MSTORE PUSH1 0x1 DUP3 ADD SLOAD AND DUP11 DUP5 ADD MSTORE PUSH1 0x2 DUP2 ADD SLOAD PUSH1 0x40 DUP5 ADD MSTORE PUSH1 0x3 DUP2 ADD SLOAD PUSH1 0x60 DUP5 ADD MSTORE PUSH1 0x4 DUP2 ADD SLOAD PUSH1 0x80 DUP5 ADD MSTORE PUSH2 0x56E PUSH1 0x5 DUP3 ADD PUSH2 0x21F3 JUMP JUMPDEST PUSH1 0xA0 DUP5 ADD MSTORE PUSH1 0x6 DUP2 ADD SLOAD PUSH1 0xC0 DUP5 ADD MSTORE PUSH1 0xFF PUSH1 0x7 DUP3 ADD SLOAD AND ISZERO ISZERO PUSH1 0xE0 DUP5 ADD MSTORE ADD SLOAD PUSH2 0x100 DUP3 ADD MSTORE PUSH2 0x59E DUP3 DUP9 PUSH2 0x252E JUMP JUMPDEST MSTORE PUSH2 0x5A9 DUP2 DUP8 PUSH2 0x252E JUMP JUMPDEST POP PUSH2 0x2BCB JUMP JUMPDEST SWAP6 SWAP5 SWAP6 PUSH2 0x42F JUMP JUMPDEST PUSH4 0x4E487B71 PUSH1 0xE0 SHL DUP8 MSTORE PUSH1 0x11 PUSH1 0x4 MSTORE PUSH1 0x24 DUP8 REVERT JUMPDEST SWAP6 DUP1 SWAP6 SWAP7 PUSH1 0x40 MLOAD PUSH2 0x5DB DUP2 PUSH2 0x1FC8 JUMP JUMPDEST DUP9 DUP2 MSTORE DUP9 DUP4 DUP3 ADD MSTORE DUP9 PUSH1 0x40 DUP3 ADD MSTORE PUSH1 0x60 DUP10 DUP2 DUP4 ADD MSTORE DUP10 PUSH1 0x80 DUP4 ADD MSTORE PUSH1 0xA0 DUP3 ADD MSTORE DUP9 PUSH1 0xC0 DUP3 ADD MSTORE DUP9 PUSH1 0xE0 DUP3 ADD MSTORE DUP9 PUSH2 0x100 DUP3 ADD MSTORE DUP3 DUP3 DUP9 ADD ADD MSTORE ADD SWAP6 SWAP5 SWAP6 PUSH2 0x41C JUMP JUMPDEST POP DUP1 SWAP3 SWAP2 SWAP3 PUSH2 0x3F3 JUMP JUMPDEST POP DUP1 REVERT JUMPDEST POP CALLVALUE PUSH2 0x1D7 JUMPI DUP1 PUSH1 0x3 NOT CALLDATASIZE ADD SLT PUSH2 0x1D7 JUMPI PUSH1 0xE0 PUSH1 0x2 SLOAD PUSH1 0x3 SLOAD PUSH1 0x4 SLOAD PUSH1 0x6 SLOAD PUSH1 0x7 SLOAD SWAP1 PUSH1 0x5 SLOAD SWAP3 PUSH1 0x8 SLOAD SWAP5 PUSH1 0x40 MLOAD SWAP7 DUP8 MSTORE PUSH1 0x20 DUP8 ADD MSTORE PUSH1 0x40 DUP7 ADD MSTORE PUSH1 0x60 DUP6 ADD MSTORE PUSH1 0x80 DUP5 ADD MSTORE PUSH1 0xA0 DUP4 ADD MSTORE PUSH1 0xC0 DUP3 ADD MSTORE RETURN JUMPDEST POP CALLVALUE PUSH2 0x1D7 JUMPI DUP1 PUSH1 0x3 NOT CALLDATASIZE ADD SLT PUSH2 0x1D7 JUMPI PUSH1 0x20 PUSH1 0x40 MLOAD PUSH20 0xBA12222222228D8BA445958A75A0704D566BF2C8 DUP2 MSTORE RETURN JUMPDEST POP CALLVALUE PUSH2 0x1D7 JUMPI PUSH1 0x3 NOT PUSH1 0x20 CALLDATASIZE DUP3 ADD SLT PUSH2 0xAFE JUMPI PUSH1 0x1 PUSH1 0x1 PUSH1 0x40 SHL SUB PUSH1 0x4 CALLDATALOAD GT PUSH2 0xAFE JUMPI PUSH1 0xC0 SWAP1 PUSH1 0x4 CALLDATALOAD CALLDATASIZE SUB ADD SLT PUSH2 0xAFE JUMPI PUSH1 0x40 MLOAD SWAP1 PUSH2 0x6E9 DUP3 PUSH2 0x1FFA JUMP JUMPDEST PUSH2 0x6F7 PUSH1 0x4 CALLDATALOAD PUSH1 0x4 ADD PUSH2 0x20F7 JUMP JUMPDEST DUP3 MSTORE PUSH2 0x707 PUSH1 0x24 PUSH1 0x4 CALLDATALOAD ADD PUSH2 0x20F7 JUMP JUMPDEST SWAP1 PUSH1 0x20 DUP4 ADD SWAP2 DUP3 MSTORE PUSH1 0x44 PUSH1 0x4 CALLDATALOAD ADD CALLDATALOAD PUSH1 0x40 DUP5 ADD MSTORE PUSH1 0x64 PUSH1 0x4 CALLDATALOAD ADD CALLDATALOAD PUSH1 0x1 PUSH1 0x1 PUSH1 0x40 SHL SUB DUP2 GT PUSH2 0xAFE JUMPI PUSH1 0x4 CALLDATALOAD ADD CALLDATASIZE PUSH1 0x23 DUP3 ADD SLT ISZERO PUSH2 0xAFE JUMPI PUSH1 0x4 DUP2 ADD CALLDATALOAD SWAP1 PUSH2 0x74E DUP3 PUSH2 0x22BE JUMP JUMPDEST SWAP2 PUSH2 0x75C PUSH1 0x40 MLOAD SWAP4 DUP5 PUSH2 0x204B JUMP JUMPDEST DUP1 DUP4 MSTORE PUSH1 0x24 PUSH1 0x20 DUP5 ADD SWAP2 PUSH1 0x5 SHL DUP4 ADD ADD SWAP2 CALLDATASIZE DUP4 GT PUSH2 0xAFE JUMPI PUSH1 0x24 ADD SWAP1 JUMPDEST DUP3 DUP3 LT PUSH2 0xB03 JUMPI POP POP POP PUSH1 0x60 DUP5 ADD MSTORE PUSH1 0x84 PUSH1 0x4 CALLDATALOAD ADD CALLDATALOAD SWAP1 PUSH1 0x1 PUSH1 0x1 PUSH1 0x40 SHL SUB DUP3 GT PUSH2 0xAFE JUMPI CALLDATASIZE PUSH1 0x23 DUP4 PUSH1 0x4 CALLDATALOAD ADD ADD SLT ISZERO PUSH2 0xAFE JUMPI PUSH1 0x4 DUP3 DUP2 CALLDATALOAD ADD ADD CALLDATALOAD SWAP2 PUSH2 0x7BF DUP4 PUSH2 0x22BE JUMP JUMPDEST SWAP3 PUSH2 0x7CD PUSH1 0x40 MLOAD SWAP5 DUP6 PUSH2 0x204B JUMP JUMPDEST DUP1 DUP5 MSTORE PUSH1 0x20 DUP5 ADD SWAP2 CALLDATASIZE PUSH1 0x24 DUP4 PUSH1 0x5 SHL DUP4 PUSH1 0x4 CALLDATALOAD ADD ADD ADD GT PUSH2 0xAFE JUMPI PUSH1 0x24 DUP2 PUSH1 0x4 CALLDATALOAD ADD ADD SWAP3 JUMPDEST PUSH1 0x24 DUP4 PUSH1 0x5 SHL DUP4 PUSH1 0x4 CALLDATALOAD ADD ADD ADD DUP5 LT PUSH2 0xAB6 JUMPI POP POP POP POP PUSH1 0x80 DUP5 ADD SWAP2 DUP3 MSTORE PUSH1 0xA0 DUP5 ADD SWAP3 PUSH1 0xA4 PUSH1 0x4 CALLDATALOAD ADD CALLDATALOAD DUP5 MSTORE ADDRESS CALLER SUB PUSH2 0xA7D JUMPI PUSH1 0x1 DUP1 PUSH1 0xA0 SHL SUB SWAP3 PUSH2 0x85F DUP5 DUP8 MLOAD AND DUP6 DUP5 MLOAD AND PUSH1 0x40 DUP10 ADD MLOAD DUP8 PUSH2 0x84B PUSH1 0x60 DUP13 ADD MLOAD PUSH2 0x2511 JUMP JUMPDEST MLOAD AND SWAP2 PUSH2 0x858 DUP7 MLOAD PUSH2 0x2511 JUMP JUMPDEST MLOAD SWAP4 PUSH2 0x2562 JUMP JUMPDEST SWAP1 DUP2 ISZERO PUSH2 0xA44 JUMPI DUP5 PUSH2 0x88C SWAP4 MLOAD AND SWAP2 DUP6 DUP9 MLOAD AND PUSH2 0x858 DUP8 PUSH2 0x883 PUSH1 0x60 DUP13 ADD MLOAD PUSH2 0x251E JUMP JUMPDEST MLOAD AND SWAP4 MLOAD PUSH2 0x251E JUMP JUMPDEST PUSH1 0x40 DUP6 ADD MLOAD DUP2 GT ISZERO PUSH2 0xA07 JUMPI PUSH1 0x40 DUP6 ADD MLOAD PUSH2 0x8A6 SWAP2 PUSH2 0x2382 JUMP JUMPDEST SWAP3 MLOAD DUP4 LT PUSH2 0x9C2 JUMPI PUSH2 0x2710 SWAP1 DUP2 DUP5 MUL SWAP2 DUP5 DUP4 DIV EQ DUP5 ISZERO OR ISZERO PUSH2 0x9AE JUMPI POP PUSH1 0x40 DUP5 ADD MLOAD PUSH2 0x8D1 SWAP2 PUSH2 0x2542 JUMP JUMPDEST PUSH1 0x2 SLOAD GT PUSH2 0x971 JUMPI PUSH1 0x24 PUSH2 0x906 DUP3 PUSH2 0x8F7 PUSH1 0x60 PUSH2 0x8FE PUSH2 0x951 SWAP7 PUSH2 0x8F7 DUP4 DUP12 ADD MLOAD PUSH2 0x2511 JUMP JUMPDEST MLOAD AND PUSH2 0x2ADF JUMP JUMPDEST SWAP8 ADD MLOAD PUSH2 0x251E JUMP JUMPDEST SWAP4 PUSH1 0x40 MLOAD SWAP5 DUP2 PUSH2 0x920 DUP8 SWAP4 MLOAD DUP1 SWAP3 PUSH1 0x20 DUP1 DUP8 ADD SWAP2 ADD PUSH2 0x20BE JUMP JUMPDEST DUP3 ADD PUSH4 0x10169F1 PUSH1 0xE5 SHL PUSH1 0x20 DUP3 ADD MSTORE PUSH2 0x942 DUP3 MLOAD DUP1 SWAP4 PUSH1 0x20 DUP8 DUP6 ADD SWAP2 ADD PUSH2 0x20BE JUMP JUMPDEST ADD SUB PUSH1 0x4 DUP2 ADD DUP6 MSTORE ADD DUP4 PUSH2 0x204B JUMP JUMPDEST PUSH2 0x96D PUSH1 0x40 MLOAD SWAP3 DUP4 SWAP3 DUP4 MSTORE PUSH1 0x40 PUSH1 0x20 DUP5 ADD MSTORE PUSH1 0x40 DUP4 ADD SWAP1 PUSH2 0x2299 JUMP JUMPDEST SUB SWAP1 RETURN JUMPDEST PUSH1 0x40 MLOAD PUSH3 0x461BCD PUSH1 0xE5 SHL DUP2 MSTORE PUSH1 0x20 PUSH1 0x4 DUP3 ADD MSTORE PUSH1 0x15 PUSH1 0x24 DUP3 ADD MSTORE PUSH21 0x50726F666974206D617267696E20746F6F206C6F77 PUSH1 0x58 SHL PUSH1 0x44 DUP3 ADD MSTORE PUSH1 0x64 SWAP1 REVERT JUMPDEST PUSH4 0x4E487B71 PUSH1 0xE0 SHL DUP2 MSTORE PUSH1 0x11 PUSH1 0x4 MSTORE PUSH1 0x24 SWAP1 REVERT JUMPDEST PUSH1 0x40 MLOAD PUSH3 0x461BCD PUSH1 0xE5 SHL DUP2 MSTORE PUSH1 0x20 PUSH1 0x4 DUP3 ADD MSTORE PUSH1 0x1E PUSH1 0x24 DUP3 ADD MSTORE PUSH32 0x50726F6669742062656C6F77206D696E696D756D207468726573686F6C640000 PUSH1 0x44 DUP3 ADD MSTORE PUSH1 0x64 SWAP1 REVERT JUMPDEST PUSH1 0x40 MLOAD PUSH3 0x461BCD PUSH1 0xE5 SHL DUP2 MSTORE PUSH1 0x20 PUSH1 0x4 DUP3 ADD MSTORE PUSH1 0x15 PUSH1 0x24 DUP3 ADD MSTORE PUSH21 0x4E6F2070726F666974206F70706F7274756E697479 PUSH1 0x58 SHL PUSH1 0x44 DUP3 ADD MSTORE PUSH1 0x64 SWAP1 REVERT JUMPDEST PUSH1 0x40 MLOAD PUSH3 0x461BCD PUSH1 0xE5 SHL DUP2 MSTORE PUSH1 0x20 PUSH1 0x4 DUP3 ADD MSTORE PUSH1 0x11 PUSH1 0x24 DUP3 ADD MSTORE PUSH17 0x119A5C9CDD081CDDD85C0819985A5B1959 PUSH1 0x7A SHL PUSH1 0x44 DUP3 ADD MSTORE PUSH1 0x64 SWAP1 REVERT JUMPDEST PUSH1 0x40 MLOAD PUSH3 0x461BCD PUSH1 0xE5 SHL DUP2 MSTORE PUSH1 0x20 PUSH1 0x4 DUP3 ADD MSTORE PUSH1 0x11 PUSH1 0x24 DUP3 ADD MSTORE PUSH17 0x24B73A32B93730B610333AB731BA34B7B7 PUSH1 0x79 SHL PUSH1 0x44 DUP3 ADD MSTORE PUSH1 0x64 SWAP1 REVERT JUMPDEST DUP4 CALLDATALOAD PUSH1 0x1 PUSH1 0x1 PUSH1 0x40 SHL SUB DUP2 GT PUSH2 0xAFE JUMPI DUP3 PUSH1 0x4 CALLDATALOAD ADD ADD SWAP1 CALLDATASIZE PUSH1 0x43 DUP4 ADD SLT ISZERO PUSH2 0xAFE JUMPI PUSH1 0x20 DUP1 SWAP2 PUSH2 0xAF1 PUSH1 0x24 SWAP5 CALLDATASIZE SWAP1 PUSH1 0x44 DUP8 DUP3 ADD CALLDATALOAD SWAP2 ADD PUSH2 0x2087 JUMP JUMPDEST DUP2 MSTORE ADD SWAP5 ADD SWAP4 SWAP1 POP PUSH2 0x7F2 JUMP JUMPDEST PUSH1 0x0 DUP1 REVERT JUMPDEST PUSH1 0x20 DUP1 SWAP2 PUSH2 0xB10 DUP5 PUSH2 0x20F7 JUMP JUMPDEST DUP2 MSTORE ADD SWAP2 ADD SWAP1 PUSH2 0x779 JUMP JUMPDEST POP CALLVALUE PUSH2 0x1D7 JUMPI DUP1 PUSH1 0x3 NOT CALLDATASIZE ADD SLT PUSH2 0x1D7 JUMPI PUSH1 0x20 PUSH1 0x5 SLOAD PUSH1 0x40 MLOAD SWAP1 DUP2 MSTORE RETURN JUMPDEST POP CALLVALUE PUSH2 0x1D7 JUMPI DUP1 PUSH1 0x3 NOT CALLDATASIZE ADD SLT PUSH2 0x1D7 JUMPI PUSH1 0x20 PUSH1 0x40 MLOAD PUSH20 0x4752BA5DBC23F44D87826276BF6FD6B1C372AD24 DUP2 MSTORE RETURN JUMPDEST POP CALLVALUE PUSH2 0x1D7 JUMPI PUSH1 0x20 CALLDATASIZE PUSH1 0x3 NOT ADD SLT PUSH2 0x1D7 JUMPI PUSH2 0xB82 PUSH2 0x20E1 JUMP JUMPDEST PUSH2 0xB8A PUSH2 0x22D5 JUMP JUMPDEST PUSH1 0x1 PUSH1 0x1 PUSH1 0xA0 SHL SUB SWAP1 DUP2 AND PUSH2 0xBA0 DUP2 ISZERO ISZERO PUSH2 0x2C21 JUMP JUMPDEST PUSH1 0x40 MLOAD PUSH4 0x70A08231 PUSH1 0xE0 SHL DUP2 MSTORE ADDRESS PUSH1 0x4 DUP3 ADD MSTORE SWAP1 PUSH1 0x20 DUP3 PUSH1 0x24 DUP2 DUP5 GAS STATICCALL SWAP2 DUP3 ISZERO PUSH2 0xC1D JUMPI DUP5 SWAP3 PUSH2 0xBEA JUMPI JUMPDEST POP DUP2 PUSH2 0xBD5 JUMPI DUP4 DUP1 RETURN JUMPDEST PUSH2 0xBE3 SWAP3 PUSH1 0x1 SLOAD AND SWAP1 PUSH2 0x2CB1 JUMP JUMPDEST CODESIZE DUP1 DUP1 DUP4 DUP1 RETURN JUMPDEST SWAP1 SWAP2 POP PUSH1 0x20 DUP2 RETURNDATASIZE DUP3 GT PUSH2 0xC15 JUMPI JUMPDEST DUP2 PUSH2 0xC05 PUSH1 0x20 SWAP4 DUP4 PUSH2 0x204B JUMP JUMPDEST DUP2 ADD SUB SLT PUSH2 0xAFE JUMPI MLOAD SWAP1 CODESIZE PUSH2 0xBCB JUMP JUMPDEST RETURNDATASIZE SWAP2 POP PUSH2 0xBF8 JUMP JUMPDEST PUSH1 0x40 MLOAD RETURNDATASIZE DUP7 DUP3 RETURNDATACOPY RETURNDATASIZE SWAP1 REVERT JUMPDEST POP CALLVALUE PUSH2 0x1D7 JUMPI DUP1 PUSH1 0x3 NOT CALLDATASIZE ADD SLT PUSH2 0x1D7 JUMPI PUSH1 0x20 PUSH1 0x8 SLOAD PUSH1 0x40 MLOAD SWAP1 DUP2 MSTORE RETURN JUMPDEST POP CALLVALUE PUSH2 0x1D7 JUMPI PUSH1 0x40 CALLDATASIZE PUSH1 0x3 NOT ADD SLT PUSH2 0x1D7 JUMPI PUSH2 0xC60 PUSH2 0x20E1 JUMP JUMPDEST PUSH1 0x24 CALLDATALOAD SWAP1 PUSH2 0xC6C PUSH2 0x22D5 JUMP JUMPDEST PUSH2 0xC74 PUSH2 0x2322 JUMP JUMPDEST PUSH1 0x1 PUSH1 0x1 PUSH1 0xA0 SHL SUB SWAP1 DUP2 AND SWAP2 PUSH2 0xC8B DUP4 ISZERO ISZERO PUSH2 0x2C21 JUMP JUMPDEST PUSH2 0xC96 DUP2 ISZERO ISZERO PUSH2 0x2C65 JUMP JUMPDEST PUSH1 0x40 MLOAD PUSH4 0x70A08231 PUSH1 0xE0 SHL DUP2 MSTORE ADDRESS PUSH1 0x4 DUP3 ADD MSTORE PUSH1 0x20 SWAP3 SWAP1 DUP4 DUP2 PUSH1 0x24 DUP2 DUP9 GAS STATICCALL SWAP1 DUP2 ISZERO PUSH2 0xD87 JUMPI DUP7 SWAP2 PUSH2 0xD5A JUMPI JUMPDEST POP DUP3 GT PUSH2 0xD15 JUMPI DUP2 DUP2 PUSH2 0xCFE PUSH32 0xC47D27FD39A471117FC0E9B9713AB14C3B4CAFB5EEB0AAE4177D2817244D5D25 SWAP5 PUSH1 0x40 SWAP5 PUSH1 0x1 SLOAD AND DUP9 PUSH2 0x2CB1 JUMP JUMPDEST PUSH1 0x1 SLOAD AND SWAP4 DUP3 MLOAD SWAP2 DUP3 MSTORE TIMESTAMP SWAP1 DUP3 ADD MSTORE LOG3 PUSH1 0x1 DUP2 SSTORE DUP1 RETURN JUMPDEST PUSH1 0x40 MLOAD PUSH3 0x461BCD PUSH1 0xE5 SHL DUP2 MSTORE PUSH1 0x4 DUP2 ADD DUP5 SWAP1 MSTORE PUSH1 0x1A PUSH1 0x24 DUP3 ADD MSTORE PUSH32 0x496E73756666696369656E7420746F6B656E2062616C616E6365000000000000 PUSH1 0x44 DUP3 ADD MSTORE PUSH1 0x64 SWAP1 REVERT JUMPDEST SWAP1 POP DUP4 DUP2 DUP2 RETURNDATASIZE DUP4 GT PUSH2 0xD80 JUMPI JUMPDEST PUSH2 0xD71 DUP2 DUP4 PUSH2 0x204B JUMP JUMPDEST DUP2 ADD SUB SLT PUSH2 0xAFE JUMPI MLOAD CODESIZE PUSH2 0xCC3 JUMP JUMPDEST POP RETURNDATASIZE PUSH2 0xD67 JUMP JUMPDEST PUSH1 0x40 MLOAD RETURNDATASIZE DUP9 DUP3 RETURNDATACOPY RETURNDATASIZE SWAP1 REVERT JUMPDEST POP CALLVALUE PUSH2 0x1D7 JUMPI DUP1 PUSH1 0x3 NOT CALLDATASIZE ADD SLT PUSH2 0x1D7 JUMPI PUSH1 0x1 SLOAD PUSH1 0x40 MLOAD PUSH1 0x1 PUSH1 0x1 PUSH1 0xA0 SHL SUB SWAP1 SWAP2 AND DUP2 MSTORE PUSH1 0x20 SWAP1 RETURN JUMPDEST POP CALLVALUE PUSH2 0x1D7 JUMPI DUP1 PUSH1 0x3 NOT CALLDATASIZE ADD SLT PUSH2 0x1D7 JUMPI PUSH2 0xDD4 PUSH2 0x22D5 JUMP JUMPDEST PUSH2 0xDDC PUSH2 0x2301 JUMP JUMPDEST PUSH1 0x1 DUP1 SLOAD PUSH1 0xFF PUSH1 0xA0 SHL NOT AND PUSH1 0x1 PUSH1 0xA0 SHL OR SWAP1 SSTORE PUSH1 0x40 MLOAD CALLER DUP2 MSTORE PUSH32 0x62E78CEA01BEE320CD4E420270B5EA74000D11B0C9F74754EBDBFC544B05A258 SWAP1 PUSH1 0x20 SWAP1 LOG1 DUP1 RETURN JUMPDEST POP CALLVALUE PUSH2 0x1D7 JUMPI PUSH1 0x60 CALLDATASIZE PUSH1 0x3 NOT ADD SLT PUSH2 0x1D7 JUMPI PUSH2 0xE38 PUSH2 0x20E1 JUMP JUMPDEST PUSH1 0x1 PUSH1 0x1 PUSH1 0x40 SHL SUB PUSH1 0x44 CALLDATALOAD DUP2 DUP2 GT PUSH2 0xF89 JUMPI PUSH2 0xE58 SWAP1 CALLDATASIZE SWAP1 PUSH1 0x4 ADD PUSH2 0x210B JUMP JUMPDEST SWAP3 SWAP1 PUSH2 0xE62 PUSH2 0x22D5 JUMP JUMPDEST PUSH2 0xE6A PUSH2 0x2322 JUMP JUMPDEST PUSH2 0xE72 PUSH2 0x2301 JUMP JUMPDEST PUSH1 0x4 SLOAD GASPRICE GT PUSH2 0xF4F JUMPI DUP5 SWAP2 PUSH1 0x1 PUSH1 0x1 PUSH1 0xA0 SHL SUB PUSH32 0x0 DUP2 AND SWAP2 DUP3 EXTCODESIZE ISZERO PUSH2 0xF4B JUMPI PUSH1 0xC4 DUP6 SWAP2 DUP9 PUSH1 0x40 MLOAD SWAP10 DUP11 SWAP8 DUP9 SWAP7 DUP8 SWAP5 PUSH4 0x10AC2DDF PUSH1 0xE2 SHL DUP7 MSTORE ADDRESS PUSH1 0x4 DUP8 ADD MSTORE AND PUSH1 0x24 DUP6 ADD MSTORE PUSH1 0x24 CALLDATALOAD PUSH1 0x44 DUP6 ADD MSTORE PUSH1 0xA0 PUSH1 0x64 DUP6 ADD MSTORE DUP2 PUSH1 0xA4 DUP6 ADD MSTORE DUP5 DUP5 ADD CALLDATACOPY DUP4 DUP4 DUP3 DUP5 ADD ADD MSTORE DUP4 PUSH1 0x84 DUP4 ADD MSTORE PUSH1 0x1F DUP1 NOT SWAP2 ADD AND DUP2 ADD SUB ADD SWAP3 GAS CALL DUP1 ISZERO PUSH2 0xF40 JUMPI PUSH2 0xF1C JUMPI JUMPDEST DUP3 PUSH1 0x1 DUP2 SSTORE DUP1 RETURN JUMPDEST DUP2 GT PUSH2 0xF2C JUMPI PUSH1 0x40 MSTORE CODESIZE DUP1 PUSH2 0xF14 JUMP JUMPDEST PUSH4 0x4E487B71 PUSH1 0xE0 SHL DUP3 MSTORE PUSH1 0x41 PUSH1 0x4 MSTORE PUSH1 0x24 DUP3 REVERT JUMPDEST PUSH1 0x40 MLOAD RETURNDATASIZE DUP6 DUP3 RETURNDATACOPY RETURNDATASIZE SWAP1 REVERT JUMPDEST DUP5 DUP1 REVERT JUMPDEST PUSH1 0x40 MLOAD PUSH3 0x461BCD PUSH1 0xE5 SHL DUP2 MSTORE PUSH1 0x20 PUSH1 0x4 DUP3 ADD MSTORE PUSH1 0x12 PUSH1 0x24 DUP3 ADD MSTORE PUSH18 0x8EC2E640E0E4D2C6CA40E8DEDE40D0D2CED PUSH1 0x73 SHL PUSH1 0x44 DUP3 ADD MSTORE PUSH1 0x64 SWAP1 REVERT JUMPDEST DUP4 DUP1 REVERT JUMPDEST POP CALLVALUE PUSH2 0x1D7 JUMPI DUP1 PUSH1 0x3 NOT CALLDATASIZE ADD SLT PUSH2 0x1D7 JUMPI PUSH1 0x40 MLOAD PUSH32 0x0 PUSH1 0x1 PUSH1 0x1 PUSH1 0xA0 SHL SUB AND DUP2 MSTORE PUSH1 0x20 SWAP1 RETURN JUMPDEST POP CALLVALUE PUSH2 0x1D7 JUMPI PUSH1 0x60 CALLDATASIZE PUSH1 0x3 NOT ADD SLT PUSH2 0x1D7 JUMPI PUSH1 0x44 CALLDATALOAD PUSH1 0x24 CALLDATALOAD PUSH1 0x4 CALLDATALOAD PUSH2 0xFF5 PUSH2 0x22D5 JUMP JUMPDEST DUP1 ISZERO ISZERO DUP1 PUSH2 0x111B JUMPI JUMPDEST ISZERO PUSH2 0x10E1 JUMPI DUP2 ISZERO ISZERO DUP1 PUSH2 0x10D5 JUMPI JUMPDEST ISZERO PUSH2 0x1099 JUMPI DUP3 ISZERO PUSH2 0x105C JUMPI PUSH32 0x6D05DB271E19F930AF71C4765DE54EF86294762644C20F4D6FD2609D057D3C7B SWAP3 PUSH1 0x60 SWAP3 DUP3 PUSH1 0x2 SSTORE DUP1 PUSH1 0x3 SSTORE DUP2 PUSH1 0x4 SSTORE PUSH1 0x40 MLOAD SWAP3 DUP4 MSTORE PUSH1 0x20 DUP4 ADD MSTORE PUSH1 0x40 DUP3 ADD MSTORE LOG1 DUP1 RETURN JUMPDEST PUSH1 0x40 MLOAD PUSH3 0x461BCD PUSH1 0xE5 SHL DUP2 MSTORE PUSH1 0x20 PUSH1 0x4 DUP3 ADD MSTORE PUSH1 0x15 PUSH1 0x24 DUP3 ADD MSTORE PUSH21 0x496E76616C6964206D617820676173207072696365 PUSH1 0x58 SHL PUSH1 0x44 DUP3 ADD MSTORE PUSH1 0x64 SWAP1 REVERT JUMPDEST PUSH1 0x40 MLOAD PUSH3 0x461BCD PUSH1 0xE5 SHL DUP2 MSTORE PUSH1 0x20 PUSH1 0x4 DUP3 ADD MSTORE PUSH1 0x14 PUSH1 0x24 DUP3 ADD MSTORE PUSH20 0x496E76616C6964206D617820736C697070616765 PUSH1 0x60 SHL PUSH1 0x44 DUP3 ADD MSTORE PUSH1 0x64 SWAP1 REVERT JUMPDEST POP PUSH2 0x3E8 DUP3 GT ISZERO PUSH2 0x100C JUMP JUMPDEST PUSH1 0x40 MLOAD PUSH3 0x461BCD PUSH1 0xE5 SHL DUP2 MSTORE PUSH1 0x20 PUSH1 0x4 DUP3 ADD MSTORE PUSH1 0x12 PUSH1 0x24 DUP3 ADD MSTORE PUSH18 0x125B9D985B1A59081B5A5B881C1C9BD99A5D PUSH1 0x72 SHL PUSH1 0x44 DUP3 ADD MSTORE PUSH1 0x64 SWAP1 REVERT JUMPDEST POP PUSH2 0x3E8 DUP2 GT ISZERO PUSH2 0xFFE JUMP JUMPDEST POP CALLVALUE PUSH2 0x1D7 JUMPI DUP1 PUSH1 0x3 NOT CALLDATASIZE ADD SLT PUSH2 0x1D7 JUMPI PUSH2 0x1140 PUSH2 0x22D5 JUMP JUMPDEST PUSH1 0x1 DUP1 SLOAD PUSH1 0x1 PUSH1 0x1 PUSH1 0xA0 SHL SUB NOT DUP2 AND SWAP1 SWAP2 SSTORE DUP2 SWAP1 PUSH1 0x1 PUSH1 0x1 PUSH1 0xA0 SHL SUB AND PUSH32 0x8BE0079C531659141344CD1FD0A4F28419497F9722A3DAAFE3B4186F6B6457E0 DUP3 DUP1 LOG3 DUP1 RETURN JUMPDEST POP CALLVALUE PUSH2 0x1D7 JUMPI PUSH1 0x20 CALLDATASIZE PUSH1 0x3 NOT ADD SLT PUSH2 0x1D7 JUMPI PUSH1 0x20 SWAP1 PUSH1 0x40 SWAP1 PUSH1 0x1 PUSH1 0x1 PUSH1 0xA0 SHL SUB PUSH2 0x11AC PUSH2 0x20E1 JUMP JUMPDEST AND DUP2 MSTORE PUSH1 0x9 DUP4 MSTORE KECCAK256 SLOAD PUSH1 0x40 MLOAD SWAP1 DUP2 MSTORE RETURN JUMPDEST POP CALLVALUE PUSH2 0x1D7 JUMPI DUP1 PUSH1 0x3 NOT CALLDATASIZE ADD SLT PUSH2 0x1D7 JUMPI PUSH1 0x20 PUSH1 0xFF PUSH1 0x1 SLOAD PUSH1 0xA0 SHR AND PUSH1 0x40 MLOAD SWAP1 ISZERO ISZERO DUP2 MSTORE RETURN JUMPDEST POP CALLVALUE PUSH2 0x1D7 JUMPI PUSH1 0x20 CALLDATASIZE PUSH1 0x3 NOT ADD SLT PUSH2 0x1D7 JUMPI PUSH1 0x4 CALLDATALOAD PUSH1 0xC SLOAD DUP2 LT ISZERO PUSH2 0x627 JUMPI PUSH2 0x120B SWAP1 PUSH2 0x2168 JUMP JUMPDEST POP PUSH1 0x1 DUP1 PUSH1 0xA0 SHL SUB DUP1 DUP3 SLOAD AND SWAP1 PUSH1 0x1 DUP4 ADD SLOAD AND SWAP2 PUSH1 0x2 DUP2 ADD SLOAD PUSH1 0x3 DUP3 ADD SLOAD SWAP2 PUSH2 0x1280 PUSH1 0x4 DUP3 ADD SLOAD PUSH2 0x123E PUSH1 0x5 DUP5 ADD PUSH2 0x21F3 JUMP JUMPDEST SWAP1 PUSH1 0x6 DUP5 ADD SLOAD SWAP6 PUSH1 0x8 PUSH1 0xFF PUSH1 0x7 DUP8 ADD SLOAD AND SWAP6 ADD SLOAD SWAP6 PUSH1 0x40 MLOAD SWAP10 DUP11 SWAP10 DUP11 MSTORE PUSH1 0x20 DUP11 ADD MSTORE PUSH1 0x40 DUP10 ADD MSTORE PUSH1 0x60 DUP9 ADD MSTORE PUSH1 0x80 DUP8 ADD MSTORE PUSH2 0x120 DUP1 PUSH1 0xA0 DUP9 ADD MSTORE DUP7 ADD SWAP1 PUSH2 0x2299 JUMP JUMPDEST SWAP3 PUSH1 0xC0 DUP6 ADD MSTORE ISZERO ISZERO PUSH1 0xE0 DUP5 ADD MSTORE PUSH2 0x100 DUP4 ADD MSTORE SUB SWAP1 RETURN JUMPDEST POP CALLVALUE PUSH2 0x1D7 JUMPI DUP1 PUSH1 0x3 NOT CALLDATASIZE ADD SLT PUSH2 0x1D7 JUMPI PUSH2 0x12B0 PUSH2 0x22D5 JUMP JUMPDEST DUP1 SELFBALANCE DUP1 ISZERO SWAP1 DUP2 ISZERO PUSH2 0x12BF JUMPI POP POP RETURN JUMPDEST DUP3 DUP1 SWAP3 SWAP2 DUP2 SWAP3 PUSH1 0x1 DUP1 PUSH1 0xA0 SHL SUB PUSH1 0x1 SLOAD AND SWAP1 DUP4 SWAP1 PUSH2 0x12ED JUMPI JUMPDEST CALL ISZERO PUSH2 0x12E1 JUMPI DUP1 RETURN JUMPDEST PUSH1 0x40 MLOAD SWAP1 RETURNDATASIZE SWAP1 DUP3 RETURNDATACOPY RETURNDATASIZE SWAP1 REVERT JUMPDEST POP PUSH2 0x8FC PUSH2 0x12D8 JUMP JUMPDEST POP CALLVALUE PUSH2 0x1D7 JUMPI DUP1 PUSH1 0x3 NOT CALLDATASIZE ADD SLT PUSH2 0x1D7 JUMPI PUSH1 0x20 PUSH2 0x1311 PUSH2 0x2C0C JUMP JUMPDEST PUSH1 0x40 MLOAD SWAP1 DUP2 MSTORE RETURN JUMPDEST POP CALLVALUE PUSH2 0x1D7 JUMPI DUP1 PUSH1 0x3 NOT CALLDATASIZE ADD SLT PUSH2 0x1D7 JUMPI PUSH1 0x20 PUSH1 0xC SLOAD PUSH1 0x40 MLOAD SWAP1 DUP2 MSTORE RETURN JUMPDEST POP CALLVALUE PUSH2 0x1D7 JUMPI DUP1 PUSH1 0x3 NOT CALLDATASIZE ADD SLT PUSH2 0x1D7 JUMPI PUSH1 0x20 PUSH1 0x40 MLOAD PUSH20 0x2626664C2603336E57B271C5C0B26F421741E481 DUP2 MSTORE RETURN JUMPDEST POP CALLVALUE PUSH2 0x1D7 JUMPI DUP1 PUSH1 0x3 NOT CALLDATASIZE ADD SLT PUSH2 0x1D7 JUMPI PUSH2 0x137F PUSH2 0x22D5 JUMP JUMPDEST PUSH1 0x1 SLOAD PUSH1 0xFF DUP2 PUSH1 0xA0 SHR AND ISZERO PUSH2 0x13C7 JUMPI PUSH1 0xFF PUSH1 0xA0 SHL NOT AND PUSH1 0x1 SSTORE PUSH1 0x40 MLOAD CALLER DUP2 MSTORE PUSH32 0x5DB9EE0A495BF2E6FF9C91A7834C1BA4FDD244A5E8AA4E537BD38AEAE4B073AA SWAP1 PUSH1 0x20 SWAP1 LOG1 DUP1 RETURN JUMPDEST PUSH1 0x40 MLOAD PUSH4 0x8DFC202B PUSH1 0xE0 SHL DUP2 MSTORE PUSH1 0x4 SWAP1 REVERT JUMPDEST POP CALLVALUE PUSH2 0x1D7 JUMPI DUP1 PUSH1 0x3 NOT CALLDATASIZE ADD SLT PUSH2 0x1D7 JUMPI PUSH1 0x20 PUSH1 0x4 SLOAD PUSH1 0x40 MLOAD SWAP1 DUP2 MSTORE RETURN JUMPDEST POP CALLVALUE PUSH2 0x1D7 JUMPI PUSH1 0xA0 CALLDATASIZE PUSH1 0x3 NOT ADD SLT PUSH2 0x1D7 JUMPI PUSH2 0x1411 PUSH2 0x20E1 JUMP JUMPDEST POP PUSH1 0x24 CALLDATALOAD PUSH1 0x1 PUSH1 0x1 PUSH1 0xA0 SHL SUB DUP2 AND SUB PUSH2 0x1D7 JUMPI PUSH1 0x1 PUSH1 0x1 PUSH1 0x40 SHL SUB PUSH1 0x64 CALLDATALOAD DUP2 DUP2 GT PUSH2 0x1475 JUMPI PUSH2 0x1444 SWAP1 CALLDATASIZE SWAP1 PUSH1 0x4 ADD PUSH2 0x2138 JUMP JUMPDEST POP POP PUSH1 0x84 CALLDATALOAD SWAP1 DUP2 GT PUSH2 0x627 JUMPI PUSH2 0x145E SWAP1 CALLDATASIZE SWAP1 PUSH1 0x4 ADD PUSH2 0x2138 JUMP JUMPDEST POP POP PUSH1 0x40 DUP1 MLOAD PUSH1 0x1 DUP2 MSTORE PUSH1 0x64 PUSH1 0x44 CALLDATALOAD DIV PUSH1 0x20 DUP3 ADD MSTORE RETURN JUMPDEST DUP3 DUP1 REVERT JUMPDEST POP CALLVALUE PUSH2 0x1D7 JUMPI DUP1 PUSH1 0x3 NOT CALLDATASIZE ADD SLT PUSH2 0x1D7 JUMPI PUSH1 0x20 PUSH1 0x3 SLOAD PUSH1 0x40 MLOAD SWAP1 DUP2 MSTORE RETURN JUMPDEST POP CALLVALUE PUSH2 0x1D7 JUMPI PUSH1 0xA0 CALLDATASIZE PUSH1 0x3 NOT ADD SLT PUSH2 0x1D7 JUMPI PUSH2 0x14B1 PUSH2 0x20E1 JUMP JUMPDEST PUSH1 0x64 CALLDATALOAD PUSH1 0x1 PUSH1 0x1 PUSH1 0xA0 SHL SUB DUP2 AND SWAP2 SWAP1 DUP3 SWAP1 SUB PUSH2 0x1475 JUMPI PUSH1 0x84 CALLDATALOAD PUSH1 0x1 PUSH1 0x1 PUSH1 0x40 SHL SUB DUP2 GT PUSH2 0xF89 JUMPI PUSH2 0x14E6 SWAP1 CALLDATASIZE SWAP1 PUSH1 0x4 ADD PUSH2 0x210B JUMP JUMPDEST SWAP1 SWAP3 PUSH32 0x0 PUSH1 0x1 PUSH1 0x1 PUSH1 0xA0 SHL SUB AND CALLER SUB PUSH2 0x1EB8 JUMPI ADDRESS SUB PUSH2 0x1E73 JUMPI GAS SWAP3 PUSH1 0x20 DUP2 DUP4 DUP2 ADD SUB SLT PUSH2 0xF4B JUMPI DUP1 CALLDATALOAD SWAP1 PUSH1 0x1 PUSH1 0x1 PUSH1 0x40 SHL SUB DUP3 GT PUSH2 0x1E6F JUMPI PUSH1 0xC0 DUP3 DUP3 ADD DUP5 DUP4 ADD SUB SLT PUSH2 0x1E6F JUMPI PUSH1 0x40 MLOAD SWAP3 PUSH2 0x1558 DUP5 PUSH2 0x1FFA JUMP JUMPDEST PUSH2 0x1563 DUP4 DUP4 ADD PUSH2 0x20F7 JUMP JUMPDEST DUP5 MSTORE PUSH2 0x1573 PUSH1 0x20 DUP5 DUP5 ADD ADD PUSH2 0x20F7 JUMP JUMPDEST PUSH1 0x20 DUP6 ADD MSTORE DUP2 DUP4 ADD PUSH1 0x40 DUP2 DUP2 ADD CALLDATALOAD SWAP1 DUP7 ADD MSTORE PUSH1 0x60 ADD CALLDATALOAD PUSH1 0x1 PUSH1 0x1 PUSH1 0x40 SHL SUB DUP2 GT PUSH2 0x1E6B JUMPI DUP2 DUP4 ADD PUSH1 0x1F DUP3 DUP7 DUP7 ADD ADD ADD SLT ISZERO PUSH2 0x1E6B JUMPI DUP1 DUP5 DUP5 ADD ADD CALLDATALOAD PUSH2 0x15B7 DUP2 PUSH2 0x22BE JUMP JUMPDEST SWAP2 PUSH2 0x15C5 PUSH1 0x40 MLOAD SWAP4 DUP5 PUSH2 0x204B JUMP JUMPDEST DUP2 DUP4 MSTORE PUSH1 0x20 DUP4 ADD SWAP1 DUP5 DUP7 ADD PUSH1 0x20 DUP5 PUSH1 0x5 SHL DUP4 DUP11 DUP11 ADD ADD ADD ADD GT PUSH2 0x1DB4 JUMPI SWAP1 PUSH1 0x20 DUP3 DUP9 DUP9 ADD ADD ADD SWAP2 JUMPDEST PUSH1 0x20 DUP5 PUSH1 0x5 SHL DUP3 DUP11 DUP11 ADD ADD ADD ADD DUP4 LT PUSH2 0x1E50 JUMPI POP POP POP POP PUSH1 0x60 DUP6 ADD MSTORE PUSH1 0x1 PUSH1 0x1 PUSH1 0x40 SHL SUB PUSH1 0x80 DUP5 DUP5 ADD ADD CALLDATALOAD GT PUSH2 0x1E4C JUMPI DUP2 DUP2 ADD DUP4 DUP4 ADD PUSH1 0x80 DUP2 ADD CALLDATALOAD ADD PUSH1 0x1F ADD SLT ISZERO PUSH2 0x1E4C JUMPI DUP2 DUP4 ADD PUSH1 0x80 DUP2 ADD CALLDATALOAD ADD CALLDATALOAD SWAP1 PUSH2 0x1646 DUP3 PUSH2 0x22BE JUMP JUMPDEST SWAP2 PUSH2 0x1654 PUSH1 0x40 MLOAD SWAP4 DUP5 PUSH2 0x204B JUMP JUMPDEST DUP1 DUP4 MSTORE PUSH1 0x20 DUP4 ADD SWAP2 DUP1 DUP6 ADD PUSH1 0x20 DUP4 PUSH1 0x5 SHL PUSH1 0x80 DUP10 DUP10 ADD ADD CALLDATALOAD DUP10 DUP10 ADD ADD ADD ADD GT PUSH2 0x1E48 JUMPI DUP5 DUP7 ADD PUSH1 0x80 DUP2 ADD CALLDATALOAD ADD PUSH1 0x20 ADD SWAP3 JUMPDEST DUP6 DUP8 ADD PUSH1 0x80 DUP2 ADD CALLDATALOAD ADD PUSH1 0x5 DUP5 SWAP1 SHL ADD PUSH1 0x20 ADD DUP5 LT PUSH2 0x1DED JUMPI POP POP POP POP SWAP1 PUSH1 0xA0 SWAP3 SWAP2 PUSH1 0x80 DUP6 ADD MSTORE ADD ADD CALLDATALOAD PUSH1 0xA0 DUP3 ADD MSTORE DUP4 SWAP1 PUSH1 0x40 MLOAD PUSH2 0x16C1 DUP2 PUSH2 0x2015 JUMP JUMPDEST DUP6 DUP2 MSTORE PUSH1 0x40 DUP1 MLOAD PUSH4 0x572C6103 PUSH1 0xE1 SHL DUP2 MSTORE PUSH1 0x20 PUSH1 0x4 DUP3 ADD DUP2 SWAP1 MSTORE DUP5 MLOAD PUSH1 0x1 PUSH1 0x1 PUSH1 0xA0 SHL SUB SWAP1 DUP2 AND PUSH1 0x24 DUP5 ADD MSTORE SWAP1 DUP6 ADD MLOAD AND PUSH1 0x44 DUP3 ADD MSTORE SWAP1 DUP4 ADD MLOAD PUSH1 0x64 DUP3 ADD MSTORE PUSH1 0x60 DUP4 ADD MLOAD PUSH1 0xC0 PUSH1 0x84 DUP4 ADD MSTORE SWAP2 SWAP4 SWAP2 DUP8 SWAP1 DUP3 SWAP1 PUSH2 0x1721 SWAP1 PUSH1 0xE4 DUP4 ADD SWAP1 PUSH2 0x2345 JUMP JUMPDEST PUSH1 0x80 DUP7 ADD MLOAD SWAP1 PUSH1 0x23 NOT DUP4 DUP3 SUB ADD PUSH1 0xA4 DUP5 ADD MSTORE DUP2 MLOAD DUP1 DUP3 MSTORE PUSH1 0x20 DUP3 ADD SWAP2 PUSH1 0x20 DUP1 DUP4 PUSH1 0x5 SHL DUP4 ADD ADD SWAP5 ADD SWAP3 DUP7 SWAP2 JUMPDEST DUP4 DUP4 LT PUSH2 0x1DBC JUMPI POP POP POP POP POP DUP2 SWAP1 PUSH1 0xA0 DUP8 ADD MLOAD PUSH1 0xC4 DUP4 ADD MSTORE SUB DUP2 DUP4 ADDRESS GAS CALL SWAP1 DUP2 DUP9 SWAP2 DUP10 SWAP4 PUSH2 0x1D23 JUMPI JUMPDEST POP PUSH2 0x1D14 JUMPI POP POP PUSH2 0x178A DUP7 SWAP6 JUMPDEST GAS SWAP1 PUSH2 0x2382 JUMP JUMPDEST DUP3 MLOAD SWAP4 PUSH1 0x40 PUSH1 0x20 DUP6 ADD MLOAD SWAP5 ADD MLOAD SWAP2 PUSH1 0x40 MLOAD TIMESTAMP PUSH1 0x20 DUP3 ADD MSTORE PUSH12 0xFFFFFFFFFFFFFFFFFFFFFFFF NOT DUP1 DUP9 PUSH1 0x60 SHL AND PUSH1 0x40 DUP4 ADD MSTORE DUP7 PUSH1 0x60 SHL AND PUSH1 0x54 DUP3 ADD MSTORE DUP4 PUSH1 0x68 DUP3 ADD MSTORE CALLER PUSH1 0x60 SHL PUSH1 0x88 DUP3 ADD MSTORE PUSH1 0x7C DUP2 MSTORE DUP1 PUSH1 0xA0 DUP2 ADD LT PUSH1 0x1 PUSH1 0x1 PUSH1 0x40 SHL SUB PUSH1 0xA0 DUP4 ADD GT OR PUSH2 0x1D00 JUMPI PUSH1 0xA0 DUP2 ADD PUSH1 0x40 MSTORE DUP1 MLOAD PUSH1 0x20 DUP3 ADD KECCAK256 PUSH2 0x1809 PUSH1 0xA0 DUP4 ADD PUSH2 0x1FC8 JUMP JUMPDEST PUSH1 0x1 PUSH1 0x1 PUSH1 0xA0 SHL SUB DUP9 DUP2 AND PUSH1 0xA0 DUP5 ADD MSTORE DUP8 AND PUSH1 0xC0 DUP4 ADD MSTORE PUSH1 0xE0 DUP3 ADD DUP6 SWAP1 MSTORE PUSH2 0x100 DUP3 ADD DUP7 SWAP1 MSTORE PUSH2 0x120 DUP3 ADD DUP4 SWAP1 MSTORE PUSH2 0x140 DUP3 ADD DUP5 SWAP1 MSTORE TIMESTAMP PUSH2 0x160 DUP4 ADD MSTORE DUP10 ISZERO ISZERO PUSH2 0x180 DUP4 ADD MSTORE PUSH2 0x1A0 DUP3 ADD MSTORE PUSH1 0xC SLOAD PUSH9 0x10000000000000000 DUP2 LT ISZERO PUSH2 0x1CEC JUMPI DUP1 PUSH1 0x1 PUSH2 0x1879 SWAP3 ADD PUSH1 0xC SSTORE PUSH2 0x2168 JUMP JUMPDEST SWAP2 SWAP1 SWAP2 PUSH2 0x1CD8 JUMPI PUSH1 0xA0 DUP2 ADD MLOAD DUP3 SLOAD PUSH1 0x1 PUSH1 0x1 PUSH1 0xA0 SHL SUB SWAP2 DUP3 AND PUSH1 0x1 PUSH1 0x1 PUSH1 0xA0 SHL SUB NOT SWAP2 DUP3 AND OR DUP5 SSTORE PUSH1 0xC0 DUP4 ADD MLOAD PUSH1 0x1 DUP6 ADD DUP1 SLOAD SWAP2 SWAP1 SWAP4 AND SWAP2 AND OR SWAP1 SSTORE PUSH1 0xE0 DUP2 ADD MLOAD PUSH1 0x2 DUP4 ADD SSTORE PUSH2 0x100 DUP2 ADD MLOAD PUSH1 0x3 DUP4 ADD SSTORE PUSH2 0x120 DUP2 ADD MLOAD PUSH1 0x4 DUP4 ADD SSTORE PUSH2 0x140 DUP2 ADD MLOAD DUP1 MLOAD SWAP1 PUSH1 0x1 PUSH1 0x1 PUSH1 0x40 SHL SUB DUP3 GT PUSH2 0x1CC4 JUMPI PUSH2 0x18F9 PUSH1 0x5 DUP6 ADD SLOAD PUSH2 0x21B9 JUMP JUMPDEST DUP14 PUSH1 0x1F DUP3 GT PUSH2 0x1C7D JUMPI JUMPDEST SWAP1 POP POP PUSH1 0x20 SWAP1 DUP14 PUSH1 0x1F DUP5 GT PUSH1 0x1 EQ PUSH2 0x1BE1 JUMPI SWAP4 DUP4 PUSH32 0xED7EBA35ACF844A173245A4FD7397564C70EDBCD3764DF0A10E30712C021E59F SWAP11 SWAP10 SWAP9 SWAP7 SWAP5 PUSH1 0x8 SWAP5 PUSH2 0x1A0 SWAP5 PUSH2 0x19D5 SWAP11 SWAP9 SWAP3 PUSH2 0x1BD6 JUMPI JUMPDEST POP POP DUP2 PUSH1 0x1 SHL SWAP2 PUSH1 0x0 NOT SWAP1 PUSH1 0x3 SHL SHR NOT AND OR PUSH1 0x5 DUP6 ADD SSTORE JUMPDEST PUSH2 0x160 DUP2 ADD MLOAD PUSH1 0x6 DUP6 ADD SSTORE PUSH1 0x7 DUP5 ADD PUSH2 0x180 DUP3 ADD MLOAD ISZERO ISZERO PUSH1 0xFF DUP1 NOT DUP4 SLOAD AND SWAP2 AND OR SWAP1 SSTORE ADD MLOAD SWAP2 ADD SSTORE PUSH2 0x199A PUSH1 0x6 SLOAD PUSH2 0x2BCB JUMP JUMPDEST PUSH1 0x6 SSTORE DUP10 PUSH2 0x19AA DUP3 PUSH1 0x8 SLOAD PUSH2 0x23A5 JUMP JUMPDEST PUSH1 0x8 SSTORE PUSH2 0x1B40 JUMPI JUMPDEST PUSH1 0x40 MLOAD SWAP5 DUP6 SWAP5 DUP6 MSTORE PUSH1 0x20 DUP6 ADD MSTORE PUSH1 0x40 DUP5 ADD MSTORE PUSH1 0xA0 PUSH1 0x60 DUP5 ADD MSTORE PUSH1 0xA0 DUP4 ADD SWAP1 PUSH2 0x2299 JUMP JUMPDEST TIMESTAMP PUSH1 0x80 DUP4 ADD MSTORE PUSH1 0x1 PUSH1 0x1 PUSH1 0xA0 SHL SUB SWAP5 DUP6 AND SWAP6 SWAP1 SWAP5 AND SWAP4 SUB SWAP1 LOG3 PUSH1 0x44 CALLDATALOAD SWAP2 PUSH1 0x24 CALLDATALOAD SWAP1 PUSH2 0x1A00 DUP5 DUP4 PUSH2 0x23A5 JUMP JUMPDEST PUSH1 0x40 MLOAD PUSH4 0x70A08231 PUSH1 0xE0 SHL DUP2 MSTORE ADDRESS PUSH1 0x4 DUP3 ADD MSTORE PUSH1 0x1 PUSH1 0x1 PUSH1 0xA0 SHL SUB SWAP1 SWAP5 AND SWAP6 SWAP1 SWAP4 PUSH1 0x20 DUP2 PUSH1 0x24 DUP2 DUP11 GAS STATICCALL SWAP2 DUP3 ISZERO PUSH2 0x12E1 JUMPI SWAP1 DUP2 DUP7 SWAP4 PUSH2 0x1B08 JUMPI JUMPDEST POP POP LT PUSH2 0x1AB8 JUMPI PUSH32 0xE7055BB7F757AAE8CFBF6EA2247E26371914425F5500C1D720F0746AE1FF8803 SWAP4 PUSH1 0x60 SWAP4 PUSH2 0x1A9A SWAP1 PUSH32 0x0 PUSH1 0x1 PUSH1 0x1 PUSH1 0xA0 SHL SUB AND DUP9 PUSH2 0x23B2 JUMP JUMPDEST PUSH1 0x40 MLOAD SWAP3 DUP4 MSTORE PUSH1 0x20 DUP4 ADD MSTORE ISZERO ISZERO PUSH1 0x40 DUP3 ADD MSTORE LOG2 PUSH1 0x20 PUSH1 0x40 MLOAD PUSH1 0x1 DUP2 MSTORE RETURN JUMPDEST PUSH1 0x40 MLOAD PUSH3 0x461BCD PUSH1 0xE5 SHL DUP2 MSTORE PUSH1 0x20 PUSH1 0x4 DUP3 ADD MSTORE PUSH1 0x22 PUSH1 0x24 DUP3 ADD MSTORE PUSH32 0x496E73756666696369656E742062616C616E636520746F207265706179206C6F PUSH1 0x44 DUP3 ADD MSTORE PUSH2 0x30B7 PUSH1 0xF1 SHL PUSH1 0x64 DUP3 ADD MSTORE PUSH1 0x84 SWAP1 REVERT JUMPDEST SWAP2 POP SWAP2 POP PUSH1 0x20 DUP3 RETURNDATASIZE PUSH1 0x20 GT PUSH2 0x1B38 JUMPI JUMPDEST DUP2 PUSH2 0x1B25 PUSH1 0x20 SWAP4 DUP4 PUSH2 0x204B JUMP JUMPDEST DUP2 ADD SUB SLT PUSH2 0x1D7 JUMPI POP DUP4 SWAP1 MLOAD CODESIZE DUP1 PUSH2 0x1A3A JUMP JUMPDEST RETURNDATASIZE SWAP2 POP PUSH2 0x1B18 JUMP JUMPDEST PUSH2 0x1B4B PUSH1 0x7 SLOAD PUSH2 0x2BCB JUMP JUMPDEST PUSH1 0x7 SSTORE PUSH2 0x1B5A DUP6 PUSH1 0x5 SLOAD PUSH2 0x23A5 JUMP JUMPDEST PUSH1 0x5 SSTORE PUSH1 0x1 PUSH1 0x1 PUSH1 0xA0 SHL SUB DUP9 AND DUP12 MSTORE PUSH1 0x9 PUSH1 0x20 MSTORE PUSH1 0x40 DUP12 KECCAK256 DUP1 SLOAD PUSH2 0x1B7F SWAP1 DUP8 SWAP1 PUSH2 0x23A5 JUMP JUMPDEST SWAP1 SSTORE PUSH1 0x1 PUSH1 0x1 PUSH1 0xA0 SHL SUB DUP9 AND DUP12 MSTORE PUSH1 0xA PUSH1 0x20 MSTORE PUSH1 0x40 DUP12 KECCAK256 DUP1 SLOAD PUSH2 0x1BA3 SWAP1 DUP7 SWAP1 PUSH2 0x23A5 JUMP JUMPDEST SWAP1 SSTORE PUSH1 0x40 MLOAD PUSH1 0x20 DUP2 DUP5 MLOAD PUSH2 0x1BBA DUP2 DUP4 DUP6 DUP10 ADD PUSH2 0x20BE JUMP JUMPDEST DUP2 ADD PUSH1 0xB DUP2 MSTORE SUB ADD SWAP1 KECCAK256 PUSH2 0x1BCF DUP7 DUP3 SLOAD PUSH2 0x23A5 JUMP JUMPDEST SWAP1 SSTORE PUSH2 0x19B2 JUMP JUMPDEST ADD MLOAD SWAP1 POP CODESIZE DUP1 PUSH2 0x194F JUMP JUMPDEST SWAP2 SWAP1 PUSH1 0x5 DUP7 ADD DUP4 MSTORE PUSH1 0x20 DUP4 KECCAK256 SWAP3 JUMPDEST PUSH1 0x1F NOT DUP6 AND DUP2 LT PUSH2 0x1C65 JUMPI POP SWAP4 PUSH1 0x1 DUP5 PUSH1 0x8 SWAP5 PUSH2 0x1A0 SWAP5 PUSH2 0x19D5 SWAP11 SWAP9 PUSH32 0xED7EBA35ACF844A173245A4FD7397564C70EDBCD3764DF0A10E30712C021E59F SWAP15 SWAP14 SWAP13 SWAP11 SWAP9 PUSH1 0x1F NOT DUP2 AND LT PUSH2 0x1C4C JUMPI JUMPDEST POP POP POP DUP2 SHL ADD PUSH1 0x5 DUP6 ADD SSTORE PUSH2 0x1967 JUMP JUMPDEST ADD MLOAD PUSH1 0x0 NOT PUSH1 0xF8 DUP5 PUSH1 0x3 SHL AND SHR NOT AND SWAP1 SSTORE CODESIZE DUP1 DUP1 PUSH2 0x1C3C JUMP JUMPDEST SWAP2 SWAP3 PUSH1 0x20 PUSH1 0x1 DUP2 SWAP3 DUP7 DUP6 ADD MLOAD DUP2 SSTORE ADD SWAP5 ADD SWAP3 ADD PUSH2 0x1BEF JUMP JUMPDEST PUSH1 0x20 SWAP1 PUSH1 0x5 DUP8 ADD DUP2 MSTORE KECCAK256 PUSH1 0x1F DUP5 ADD PUSH1 0x5 SHR DUP2 ADD PUSH1 0x20 DUP6 LT PUSH2 0x1CBD JUMPI JUMPDEST DUP16 JUMPDEST PUSH1 0x1F DUP5 ADD PUSH1 0x5 SHR DUP4 ADD DUP3 LT PUSH2 0x1CB2 JUMPI SWAP2 POP POP PUSH2 0x1903 JUMP JUMPDEST DUP2 SSTORE PUSH1 0x1 ADD DUP16 PUSH2 0x1C9B JUMP JUMPDEST POP DUP1 PUSH2 0x1C99 JUMP JUMPDEST PUSH4 0x4E487B71 PUSH1 0xE0 SHL DUP14 MSTORE PUSH1 0x41 PUSH1 0x4 MSTORE PUSH1 0x24 DUP14 REVERT JUMPDEST PUSH4 0x4E487B71 PUSH1 0xE0 SHL DUP12 MSTORE PUSH1 0x4 DUP12 SWAP1 MSTORE PUSH1 0x24 DUP12 REVERT JUMPDEST PUSH4 0x4E487B71 PUSH1 0xE0 SHL DUP12 MSTORE PUSH1 0x41 PUSH1 0x4 MSTORE PUSH1 0x24 DUP12 REVERT JUMPDEST PUSH4 0x4E487B71 PUSH1 0xE0 SHL DUP11 MSTORE PUSH1 0x41 PUSH1 0x4 MSTORE PUSH1 0x24 DUP11 REVERT JUMPDEST SWAP2 POP SWAP3 POP PUSH2 0x178A PUSH1 0x1 SWAP6 PUSH2 0x1783 JUMP JUMPDEST SWAP2 POP SWAP2 POP RETURNDATASIZE SWAP1 DUP2 DUP10 DUP3 RETURNDATACOPY PUSH2 0x1D37 DUP3 DUP3 PUSH2 0x204B JUMP JUMPDEST PUSH1 0x40 DUP2 DUP4 DUP2 ADD SUB SLT PUSH2 0x1DB8 JUMPI DUP1 MLOAD SWAP1 PUSH1 0x20 DUP2 ADD MLOAD SWAP1 PUSH1 0x1 PUSH1 0x1 PUSH1 0x40 SHL SUB DUP3 GT PUSH2 0x1DB4 JUMPI DUP4 DUP2 ADD PUSH1 0x1F DUP4 DUP4 ADD ADD SLT ISZERO PUSH2 0x1DB4 JUMPI DUP2 DUP2 ADD MLOAD SWAP1 PUSH2 0x1D77 DUP3 PUSH2 0x206C JUMP JUMPDEST SWAP5 PUSH2 0x1D85 PUSH1 0x40 MLOAD SWAP7 DUP8 PUSH2 0x204B JUMP JUMPDEST DUP3 DUP7 MSTORE DUP2 ADD PUSH1 0x20 DUP4 DUP6 DUP5 ADD ADD ADD GT PUSH2 0x1DB0 JUMPI PUSH1 0x20 PUSH2 0x1DA8 SWAP4 DUP2 DUP8 ADD SWAP3 ADD ADD PUSH2 0x20BE JUMP JUMPDEST SWAP1 SWAP2 CODESIZE PUSH2 0x1776 JUMP JUMPDEST DUP12 DUP1 REVERT JUMPDEST DUP11 DUP1 REVERT JUMPDEST DUP9 DUP1 REVERT JUMPDEST SWAP3 SWAP6 POP SWAP3 SWAP6 POP SWAP3 PUSH1 0x20 DUP1 PUSH2 0x1DDC PUSH1 0x1 SWAP4 PUSH1 0x1F NOT DUP7 DUP3 SUB ADD DUP8 MSTORE DUP10 MLOAD PUSH2 0x2299 JUMP JUMPDEST SWAP8 ADD SWAP4 ADD SWAP4 ADD DUP13 SWAP6 SWAP4 DUP8 SWAP6 SWAP3 PUSH2 0x174D JUMP JUMPDEST DUP4 CALLDATALOAD SWAP1 PUSH1 0x1 PUSH1 0x1 PUSH1 0x40 SHL SUB DUP3 GT PUSH2 0x1DB0 JUMPI DUP7 DUP4 ADD DUP9 DUP9 ADD PUSH1 0x80 DUP2 ADD CALLDATALOAD ADD DUP4 ADD PUSH1 0x3F ADD SLT ISZERO PUSH2 0x1DB0 JUMPI PUSH1 0x20 SWAP2 DUP3 SWAP2 DUP3 SWAP2 PUSH2 0x1E3B SWAP1 DUP11 DUP8 ADD SWAP1 DUP12 DUP14 ADD PUSH1 0x80 DUP2 ADD CALLDATALOAD ADD ADD DUP1 DUP6 ADD CALLDATALOAD SWAP1 PUSH1 0x40 ADD PUSH2 0x2087 JUMP JUMPDEST DUP2 MSTORE ADD SWAP5 ADD SWAP4 SWAP1 POP PUSH2 0x1685 JUMP JUMPDEST DUP10 DUP1 REVERT JUMPDEST DUP7 DUP1 REVERT JUMPDEST PUSH1 0x20 DUP1 DUP1 SWAP4 PUSH2 0x1E5E DUP7 PUSH2 0x20F7 JUMP JUMPDEST DUP2 MSTORE ADD SWAP4 ADD SWAP3 SWAP2 POP PUSH2 0x15ED JUMP JUMPDEST DUP8 DUP1 REVERT JUMPDEST DUP6 DUP1 REVERT JUMPDEST PUSH1 0x40 MLOAD PUSH3 0x461BCD PUSH1 0xE5 SHL DUP2 MSTORE PUSH1 0x20 PUSH1 0x4 DUP3 ADD MSTORE PUSH1 0x1F PUSH1 0x24 DUP3 ADD MSTORE PUSH32 0x496E69746961746F72206D757374206265207468697320636F6E747261637400 PUSH1 0x44 DUP3 ADD MSTORE PUSH1 0x64 SWAP1 REVERT JUMPDEST PUSH1 0x40 MLOAD PUSH3 0x461BCD PUSH1 0xE5 SHL DUP2 MSTORE PUSH1 0x20 PUSH1 0x4 DUP3 ADD MSTORE PUSH1 0x18 PUSH1 0x24 DUP3 ADD MSTORE PUSH32 0x43616C6C6572206D757374206265204141564520706F6F6C0000000000000000 PUSH1 0x44 DUP3 ADD MSTORE PUSH1 0x64 SWAP1 REVERT JUMPDEST POP CALLVALUE PUSH2 0x1D7 JUMPI PUSH1 0x20 CALLDATASIZE PUSH1 0x3 NOT ADD SLT PUSH2 0x1D7 JUMPI PUSH1 0x4 CALLDATALOAD SWAP1 PUSH1 0x1 PUSH1 0x1 PUSH1 0x40 SHL SUB DUP3 GT PUSH2 0x1D7 JUMPI CALLDATASIZE PUSH1 0x23 DUP4 ADD SLT ISZERO PUSH2 0x1D7 JUMPI PUSH1 0x20 PUSH2 0x1F57 DUP2 PUSH2 0x1F44 CALLDATASIZE PUSH1 0x4 DUP8 ADD CALLDATALOAD PUSH1 0x24 DUP9 ADD PUSH2 0x2087 JUMP JUMPDEST DUP2 PUSH1 0x40 MLOAD SWAP4 DUP3 DUP6 DUP1 SWAP5 MLOAD SWAP4 DUP5 SWAP3 ADD PUSH2 0x20BE JUMP JUMPDEST DUP2 ADD PUSH1 0xB DUP2 MSTORE SUB ADD SWAP1 KECCAK256 SLOAD PUSH1 0x40 MLOAD SWAP1 DUP2 MSTORE RETURN JUMPDEST POP CALLVALUE PUSH2 0x1D7 JUMPI DUP1 PUSH1 0x3 NOT CALLDATASIZE ADD SLT PUSH2 0x1D7 JUMPI PUSH1 0x20 PUSH2 0x1311 PUSH2 0x2BDA JUMP JUMPDEST SWAP1 POP CALLVALUE PUSH2 0x627 JUMPI DUP2 PUSH1 0x3 NOT CALLDATASIZE ADD SLT PUSH2 0x627 JUMPI PUSH32 0x0 PUSH1 0x1 PUSH1 0x1 PUSH1 0xA0 SHL SUB AND DUP2 MSTORE PUSH1 0x20 SWAP1 RETURN JUMPDEST PUSH2 0x120 DUP2 ADD SWAP1 DUP2 LT PUSH1 0x1 PUSH1 0x1 PUSH1 0x40 SHL SUB DUP3 GT OR PUSH2 0x1FE4 JUMPI PUSH1 0x40 MSTORE JUMP JUMPDEST PUSH4 0x4E487B71 PUSH1 0xE0 SHL PUSH1 0x0 MSTORE PUSH1 0x41 PUSH1 0x4 MSTORE PUSH1 0x24 PUSH1 0x0 REVERT JUMPDEST PUSH1 0xC0 DUP2 ADD SWAP1 DUP2 LT PUSH1 0x1 PUSH1 0x1 PUSH1 0x40 SHL SUB DUP3 GT OR PUSH2 0x1FE4 JUMPI PUSH1 0x40 MSTORE JUMP JUMPDEST PUSH1 0x20 DUP2 ADD SWAP1 DUP2 LT PUSH1 0x1 PUSH1 0x1 PUSH1 0x40 SHL SUB DUP3 GT OR PUSH2 0x1FE4 JUMPI PUSH1 0x40 MSTORE JUMP JUMPDEST PUSH1 0x40 DUP2 ADD SWAP1 DUP2 LT PUSH1 0x1 PUSH1 0x1 PUSH1 0x40 SHL SUB DUP3 GT OR PUSH2 0x1FE4 JUMPI PUSH1 0x40 MSTORE JUMP JUMPDEST SWAP1 PUSH1 0x1F DUP1 NOT SWAP2 ADD AND DUP2 ADD SWAP1 DUP2 LT PUSH1 0x1 PUSH1 0x1 PUSH1 0x40 SHL SUB DUP3 GT OR PUSH2 0x1FE4 JUMPI PUSH1 0x40 MSTORE JUMP JUMPDEST PUSH1 0x1 PUSH1 0x1 PUSH1 0x40 SHL SUB DUP2 GT PUSH2 0x1FE4 JUMPI PUSH1 0x1F ADD PUSH1 0x1F NOT AND PUSH1 0x20 ADD SWAP1 JUMP JUMPDEST SWAP3 SWAP2 SWAP3 PUSH2 0x2093 DUP3 PUSH2 0x206C JUMP JUMPDEST SWAP2 PUSH2 0x20A1 PUSH1 0x40 MLOAD SWAP4 DUP5 PUSH2 0x204B JUMP JUMPDEST DUP3 SWAP5 DUP2 DUP5 MSTORE DUP2 DUP4 ADD GT PUSH2 0xAFE JUMPI DUP3 DUP2 PUSH1 0x20 SWAP4 DUP5 PUSH1 0x0 SWAP7 ADD CALLDATACOPY ADD ADD MSTORE JUMP JUMPDEST PUSH1 0x0 JUMPDEST DUP4 DUP2 LT PUSH2 0x20D1 JUMPI POP POP PUSH1 0x0 SWAP2 ADD MSTORE JUMP JUMPDEST DUP2 DUP2 ADD MLOAD DUP4 DUP3 ADD MSTORE PUSH1 0x20 ADD PUSH2 0x20C1 JUMP JUMPDEST PUSH1 0x4 CALLDATALOAD SWAP1 PUSH1 0x1 PUSH1 0x1 PUSH1 0xA0 SHL SUB DUP3 AND DUP3 SUB PUSH2 0xAFE JUMPI JUMP JUMPDEST CALLDATALOAD SWAP1 PUSH1 0x1 PUSH1 0x1 PUSH1 0xA0 SHL SUB DUP3 AND DUP3 SUB PUSH2 0xAFE JUMPI JUMP JUMPDEST SWAP2 DUP2 PUSH1 0x1F DUP5 ADD SLT ISZERO PUSH2 0xAFE JUMPI DUP3 CALLDATALOAD SWAP2 PUSH1 0x1 PUSH1 0x1 PUSH1 0x40 SHL SUB DUP4 GT PUSH2 0xAFE JUMPI PUSH1 0x20 DUP4 DUP2 DUP7 ADD SWAP6 ADD ADD GT PUSH2 0xAFE JUMPI JUMP JUMPDEST SWAP2 DUP2 PUSH1 0x1F DUP5 ADD SLT ISZERO PUSH2 0xAFE JUMPI DUP3 CALLDATALOAD SWAP2 PUSH1 0x1 PUSH1 0x1 PUSH1 0x40 SHL SUB DUP4 GT PUSH2 0xAFE JUMPI PUSH1 0x20 DUP1 DUP6 ADD SWAP5 DUP5 PUSH1 0x5 SHL ADD ADD GT PUSH2 0xAFE JUMPI JUMP JUMPDEST PUSH1 0xC SLOAD DUP2 LT ISZERO PUSH2 0x21A3 JUMPI PUSH1 0x9 SWAP1 PUSH1 0xC PUSH1 0x0 MSTORE MUL PUSH32 0xDF6966C971051C3D54EC59162606531493A51404A002842F56009D7E5CF4A8C7 ADD SWAP1 PUSH1 0x0 SWAP1 JUMP JUMPDEST PUSH4 0x4E487B71 PUSH1 0xE0 SHL PUSH1 0x0 MSTORE PUSH1 0x32 PUSH1 0x4 MSTORE PUSH1 0x24 PUSH1 0x0 REVERT JUMPDEST SWAP1 PUSH1 0x1 DUP3 DUP2 SHR SWAP3 AND DUP1 ISZERO PUSH2 0x21E9 JUMPI JUMPDEST PUSH1 0x20 DUP4 LT EQ PUSH2 0x21D3 JUMPI JUMP JUMPDEST PUSH4 0x4E487B71 PUSH1 0xE0 SHL PUSH1 0x0 MSTORE PUSH1 0x22 PUSH1 0x4 MSTORE PUSH1 0x24 PUSH1 0x0 REVERT JUMPDEST SWAP2 PUSH1 0x7F AND SWAP2 PUSH2 0x21C8 JUMP JUMPDEST SWAP1 PUSH1 0x40 MLOAD SWAP2 DUP3 PUSH1 0x0 DUP3 SLOAD SWAP3 PUSH2 0x2207 DUP5 PUSH2 0x21B9 JUMP JUMPDEST SWAP1 DUP2 DUP5 MSTORE PUSH1 0x1 SWAP5 DUP6 DUP2 AND SWAP1 DUP2 PUSH1 0x0 EQ PUSH2 0x2276 JUMPI POP PUSH1 0x1 EQ PUSH2 0x2233 JUMPI JUMPDEST POP POP PUSH2 0x2231 SWAP3 POP SUB DUP4 PUSH2 0x204B JUMP JUMPDEST JUMP JUMPDEST SWAP1 SWAP4 SWAP2 POP PUSH1 0x0 MSTORE PUSH1 0x20 SWAP1 DUP2 PUSH1 0x0 KECCAK256 SWAP4 PUSH1 0x0 SWAP2 JUMPDEST DUP2 DUP4 LT PUSH2 0x225E JUMPI POP POP PUSH2 0x2231 SWAP4 POP DUP3 ADD ADD CODESIZE DUP1 PUSH2 0x2223 JUMP JUMPDEST DUP6 SLOAD DUP9 DUP5 ADD DUP6 ADD MSTORE SWAP5 DUP6 ADD SWAP5 DUP8 SWAP5 POP SWAP2 DUP4 ADD SWAP2 PUSH2 0x2246 JUMP JUMPDEST SWAP2 POP POP PUSH2 0x2231 SWAP5 POP PUSH1 0x20 SWAP3 POP PUSH1 0xFF NOT AND DUP3 DUP5 ADD MSTORE ISZERO ISZERO PUSH1 0x5 SHL DUP3 ADD ADD CODESIZE DUP1 PUSH2 0x2223 JUMP JUMPDEST SWAP1 PUSH1 0x20 SWAP2 PUSH2 0x22B2 DUP2 MLOAD DUP1 SWAP3 DUP2 DUP6 MSTORE DUP6 DUP1 DUP7 ADD SWAP2 ADD PUSH2 0x20BE JUMP JUMPDEST PUSH1 0x1F ADD PUSH1 0x1F NOT AND ADD ADD SWAP1 JUMP JUMPDEST PUSH1 0x1 PUSH1 0x1 PUSH1 0x40 SHL SUB DUP2 GT PUSH2 0x1FE4 JUMPI PUSH1 0x5 SHL PUSH1 0x20 ADD SWAP1 JUMP JUMPDEST PUSH1 0x1 SLOAD PUSH1 0x1 PUSH1 0x1 PUSH1 0xA0 SHL SUB AND CALLER SUB PUSH2 0x22E9 JUMPI JUMP JUMPDEST PUSH1 0x40 MLOAD PUSH4 0x118CDAA7 PUSH1 0xE0 SHL DUP2 MSTORE CALLER PUSH1 0x4 DUP3 ADD MSTORE PUSH1 0x24 SWAP1 REVERT JUMPDEST PUSH1 0xFF PUSH1 0x1 SLOAD PUSH1 0xA0 SHR AND PUSH2 0x2310 JUMPI JUMP JUMPDEST PUSH1 0x40 MLOAD PUSH4 0xD93C0665 PUSH1 0xE0 SHL DUP2 MSTORE PUSH1 0x4 SWAP1 REVERT JUMPDEST PUSH1 0x2 PUSH1 0x0 SLOAD EQ PUSH2 0x2333 JUMPI PUSH1 0x2 PUSH1 0x0 SSTORE JUMP JUMPDEST PUSH1 0x40 MLOAD PUSH4 0x3EE5AEB5 PUSH1 0xE0 SHL DUP2 MSTORE PUSH1 0x4 SWAP1 REVERT JUMPDEST SWAP1 DUP2 MLOAD DUP1 DUP3 MSTORE PUSH1 0x20 DUP1 DUP1 SWAP4 ADD SWAP4 ADD SWAP2 PUSH1 0x0 JUMPDEST DUP3 DUP2 LT PUSH2 0x2365 JUMPI POP POP POP POP SWAP1 JUMP JUMPDEST DUP4 MLOAD PUSH1 0x1 PUSH1 0x1 PUSH1 0xA0 SHL SUB AND DUP6 MSTORE SWAP4 DUP2 ADD SWAP4 SWAP3 DUP2 ADD SWAP3 PUSH1 0x1 ADD PUSH2 0x2357 JUMP JUMPDEST SWAP2 SWAP1 DUP3 SUB SWAP2 DUP3 GT PUSH2 0x238F JUMPI JUMP JUMPDEST PUSH4 0x4E487B71 PUSH1 0xE0 SHL PUSH1 0x0 MSTORE PUSH1 0x11 PUSH1 0x4 MSTORE PUSH1 0x24 PUSH1 0x0 REVERT JUMPDEST SWAP2 SWAP1 DUP3 ADD DUP1 SWAP3 GT PUSH2 0x238F JUMPI JUMP JUMPDEST PUSH1 0x40 MLOAD PUSH4 0x95EA7B3 PUSH1 0xE0 SHL PUSH1 0x20 DUP3 ADD DUP2 DUP2 MSTORE PUSH1 0x1 PUSH1 0x1 PUSH1 0xA0 SHL SUB DUP6 AND PUSH1 0x24 DUP5 ADD MSTORE PUSH1 0x44 DUP1 DUP5 ADD SWAP7 SWAP1 SWAP7 MSTORE SWAP5 DUP3 MSTORE SWAP5 SWAP4 SWAP1 SWAP3 PUSH2 0x23EE PUSH1 0x64 DUP6 PUSH2 0x204B JUMP JUMPDEST PUSH1 0x20 PUSH1 0x0 DUP1 SWAP4 DUP7 MLOAD SWAP1 DUP3 DUP8 GAS CALL DUP3 MLOAD RETURNDATASIZE DUP3 PUSH2 0x2484 JUMPI JUMPDEST POP POP ISZERO PUSH2 0x2414 JUMPI JUMPDEST POP POP POP POP SWAP1 POP JUMP JUMPDEST PUSH1 0x40 MLOAD PUSH1 0x20 DUP2 ADD SWAP7 SWAP1 SWAP7 MSTORE PUSH1 0x1 PUSH1 0x1 PUSH1 0xA0 SHL SUB AND PUSH1 0x24 DUP7 ADD MSTORE PUSH1 0x44 DUP1 DUP7 ADD DUP3 SWAP1 MSTORE DUP6 MSTORE PUSH1 0x80 DUP6 ADD SWAP1 PUSH1 0x1 PUSH1 0x1 PUSH1 0x40 SHL SUB DUP3 GT DUP7 DUP4 LT OR PUSH2 0x2470 JUMPI POP PUSH2 0x2466 SWAP4 SWAP5 PUSH2 0x2461 SWAP2 PUSH1 0x40 MSTORE DUP3 PUSH2 0x24A9 JUMP JUMPDEST PUSH2 0x24A9 JUMP JUMPDEST DUP1 CODESIZE DUP1 DUP1 DUP1 PUSH2 0x240C JUMP JUMPDEST PUSH4 0x4E487B71 PUSH1 0xE0 SHL DUP2 MSTORE PUSH1 0x41 PUSH1 0x4 MSTORE PUSH1 0x24 SWAP1 REVERT JUMPDEST SWAP1 SWAP2 POP PUSH2 0x24A1 JUMPI POP PUSH1 0x1 PUSH1 0x1 PUSH1 0xA0 SHL SUB DUP4 AND EXTCODESIZE ISZERO ISZERO JUMPDEST CODESIZE DUP1 PUSH2 0x2404 JUMP JUMPDEST PUSH1 0x1 EQ PUSH2 0x249A JUMP JUMPDEST SWAP1 PUSH1 0x0 PUSH1 0x20 SWAP2 DUP3 DUP2 MLOAD SWAP2 ADD DUP3 DUP6 GAS CALL ISZERO PUSH2 0x2505 JUMPI PUSH1 0x0 MLOAD RETURNDATASIZE PUSH2 0x24FC JUMPI POP PUSH1 0x1 PUSH1 0x1 PUSH1 0xA0 SHL SUB DUP2 AND EXTCODESIZE ISZERO JUMPDEST PUSH2 0x24DA JUMPI POP JUMP JUMPDEST PUSH1 0x40 MLOAD PUSH4 0x5274AFE7 PUSH1 0xE0 SHL DUP2 MSTORE PUSH1 0x1 PUSH1 0x1 PUSH1 0xA0 SHL SUB SWAP1 SWAP2 AND PUSH1 0x4 DUP3 ADD MSTORE PUSH1 0x24 SWAP1 REVERT JUMPDEST PUSH1 0x1 EQ ISZERO PUSH2 0x24D3 JUMP JUMPDEST PUSH1 0x40 MLOAD RETURNDATASIZE PUSH1 0x0 DUP3 RETURNDATACOPY RETURNDATASIZE SWAP1 REVERT JUMPDEST DUP1 MLOAD ISZERO PUSH2 0x21A3 JUMPI PUSH1 0x20 ADD SWAP1 JUMP JUMPDEST DUP1 MLOAD PUSH1 0x1 LT ISZERO PUSH2 0x21A3 JUMPI PUSH1 0x40 ADD SWAP1 JUMP JUMPDEST DUP1 MLOAD DUP3 LT ISZERO PUSH2 0x21A3 JUMPI PUSH1 0x20 SWAP2 PUSH1 0x5 SHL ADD ADD SWAP1 JUMP JUMPDEST DUP2 ISZERO PUSH2 0x254C JUMPI DIV SWAP1 JUMP JUMPDEST PUSH4 0x4E487B71 PUSH1 0xE0 SHL PUSH1 0x0 MSTORE PUSH1 0x12 PUSH1 0x4 MSTORE PUSH1 0x24 PUSH1 0x0 REVERT JUMPDEST SWAP2 SWAP5 SWAP4 SWAP3 SWAP1 SWAP2 PUSH1 0x1 PUSH1 0x1 PUSH1 0xA0 SHL SUB AND SWAP1 PUSH2 0x257D DUP7 DUP3 DUP5 PUSH2 0x23B2 JUMP JUMPDEST PUSH20 0x4752BA5DBC23F44D87826276BF6FD6B1C372AD24 SWAP3 PUSH1 0x1 PUSH1 0x1 PUSH1 0xA0 SHL SUB SWAP2 SWAP1 SWAP2 AND SWAP2 SWAP1 DUP4 DUP4 SUB PUSH2 0x276B JUMPI POP POP POP DUP2 MLOAD DUP3 ADD PUSH1 0x20 SWAP1 DUP2 DUP5 DUP2 DUP4 ADD SWAP3 SUB SLT PUSH2 0xAFE JUMPI DUP2 DUP5 ADD MLOAD PUSH1 0x1 PUSH1 0x1 PUSH1 0x40 SHL SUB SWAP5 DUP6 DUP3 GT PUSH2 0xAFE JUMPI ADD SWAP3 DUP2 PUSH1 0x3F DUP6 ADD SLT ISZERO PUSH2 0xAFE JUMPI DUP3 DUP5 ADD MLOAD SWAP2 PUSH2 0x25ED DUP4 PUSH2 0x22BE JUMP JUMPDEST SWAP3 PUSH1 0x40 SWAP6 PUSH2 0x25FD DUP8 MLOAD SWAP6 DUP7 PUSH2 0x204B JUMP JUMPDEST DUP2 DUP6 MSTORE DUP7 DUP7 DUP7 ADD SWAP3 PUSH1 0x5 SHL DUP3 ADD ADD SWAP3 DUP4 GT PUSH2 0xAFE JUMPI DUP7 ADD SWAP1 JUMPDEST DUP3 DUP3 LT PUSH2 0x274C JUMPI POP POP POP PUSH2 0x12C TIMESTAMP ADD SWAP7 DUP8 TIMESTAMP GT PUSH2 0x238F JUMPI PUSH2 0x2665 SWAP2 DUP6 MLOAD DUP1 SWAP5 DUP2 SWAP4 PUSH4 0x38ED1739 PUSH1 0xE0 SHL DUP4 MSTORE PUSH1 0x4 DUP4 ADD MSTORE DUP2 PUSH1 0x0 SWAP12 DUP13 SWAP7 DUP8 SWAP4 DUP5 PUSH1 0x24 DUP6 ADD MSTORE PUSH1 0xA0 PUSH1 0x44 DUP6 ADD MSTORE PUSH1 0xA4 DUP5 ADD SWAP1 PUSH2 0x2345 JUMP JUMPDEST SWAP1 ADDRESS PUSH1 0x64 DUP5 ADD MSTORE PUSH1 0x84 DUP4 ADD MSTORE SUB SWAP3 GAS CALL SWAP4 DUP5 ISZERO PUSH2 0x2742 JUMPI DUP7 SWAP5 PUSH2 0x26B9 JUMPI JUMPDEST POP POP POP POP DUP1 MLOAD SWAP1 PUSH1 0x0 NOT DUP3 ADD SWAP2 DUP3 GT PUSH2 0x26A5 JUMPI PUSH2 0x26A1 SWAP3 SWAP4 POP PUSH2 0x252E JUMP JUMPDEST MLOAD SWAP1 JUMP JUMPDEST PUSH4 0x4E487B71 PUSH1 0xE0 SHL DUP5 MSTORE PUSH1 0x11 PUSH1 0x4 MSTORE PUSH1 0x24 DUP5 REVERT JUMPDEST SWAP1 SWAP2 SWAP3 SWAP4 POP RETURNDATASIZE DUP1 DUP8 DUP5 RETURNDATACOPY PUSH2 0x26CD DUP2 DUP5 PUSH2 0x204B JUMP JUMPDEST DUP3 ADD SWAP2 DUP4 DUP2 DUP5 SUB SLT PUSH2 0x1E4C JUMPI DUP1 MLOAD SWAP2 DUP3 GT PUSH2 0x1E4C JUMPI ADD DUP2 PUSH1 0x1F DUP3 ADD SLT ISZERO PUSH2 0x1E6F JUMPI DUP1 MLOAD SWAP1 PUSH2 0x2706 PUSH2 0x26FD DUP4 PUSH2 0x22BE JUMP JUMPDEST SWAP6 MLOAD SWAP6 DUP7 PUSH2 0x204B JUMP JUMPDEST DUP2 DUP6 MSTORE DUP4 DUP1 DUP7 ADD SWAP3 PUSH1 0x5 SHL DUP3 ADD ADD SWAP3 DUP4 GT PUSH2 0x1E4C JUMPI DUP4 ADD SWAP1 JUMPDEST DUP3 DUP3 LT PUSH2 0x2733 JUMPI POP POP POP POP CODESIZE DUP1 DUP1 DUP1 PUSH2 0x2683 JUMP JUMPDEST DUP2 MLOAD DUP2 MSTORE SWAP1 DUP4 ADD SWAP1 DUP4 ADD PUSH2 0x271F JUMP JUMPDEST DUP4 MLOAD RETURNDATASIZE DUP9 DUP3 RETURNDATACOPY RETURNDATASIZE SWAP1 REVERT JUMPDEST DUP2 MLOAD PUSH1 0x1 PUSH1 0x1 PUSH1 0xA0 SHL SUB DUP2 AND DUP2 SUB PUSH2 0xAFE JUMPI DUP2 MSTORE SWAP1 DUP6 ADD SWAP1 DUP6 ADD PUSH2 0x2616 JUMP JUMPDEST SWAP1 SWAP2 SWAP4 SWAP5 SWAP6 SWAP3 POP PUSH20 0x2626664C2603336E57B271C5C0B26F421741E481 SWAP4 DUP5 DUP2 EQ PUSH1 0x0 EQ PUSH2 0x28D1 JUMPI POP PUSH1 0x20 SWAP5 DUP6 DUP2 DUP1 MLOAD DUP2 ADD SUB SLT PUSH2 0xAFE JUMPI DUP6 ADD MLOAD SWAP4 PUSH3 0xFFFFFF DUP6 AND DUP1 SWAP6 SUB PUSH2 0xAFE JUMPI PUSH2 0x12C TIMESTAMP ADD DUP1 TIMESTAMP GT PUSH2 0x238F JUMPI PUSH1 0x40 MLOAD SWAP1 PUSH2 0x100 DUP3 ADD SWAP3 DUP3 DUP5 LT PUSH1 0x1 PUSH1 0x1 PUSH1 0x40 SHL SUB DUP6 GT OR PUSH2 0x1FE4 JUMPI PUSH1 0x40 SWAP4 DUP5 MSTORE SWAP5 DUP3 MSTORE PUSH1 0x1 PUSH1 0x1 PUSH1 0xA0 SHL SUB SWAP4 DUP5 AND DUP3 DUP10 ADD SWAP1 DUP2 MSTORE DUP3 DUP5 ADD SWAP8 DUP9 MSTORE ADDRESS PUSH1 0x60 DUP5 ADD SWAP1 DUP2 MSTORE PUSH1 0x80 DUP5 ADD SWAP3 DUP4 MSTORE PUSH1 0xA0 DUP5 ADD SWAP8 DUP9 MSTORE PUSH1 0x0 PUSH1 0xC0 DUP6 ADD DUP2 DUP2 MSTORE PUSH1 0xE0 DUP7 ADD DUP3 DUP2 MSTORE SWAP7 MLOAD PUSH4 0x414BF389 PUSH1 0xE0 SHL DUP2 MSTORE SWAP6 MLOAD DUP9 AND PUSH1 0x4 DUP8 ADD MSTORE SWAP3 MLOAD DUP8 AND PUSH1 0x24 DUP7 ADD MSTORE SWAP9 MLOAD PUSH3 0xFFFFFF AND PUSH1 0x44 DUP6 ADD MSTORE MLOAD DUP6 AND PUSH1 0x64 DUP5 ADD MSTORE SWAP1 MLOAD PUSH1 0x84 DUP4 ADD MSTORE SWAP5 MLOAD PUSH1 0xA4 DUP3 ADD MSTORE SWAP4 MLOAD PUSH1 0xC4 DUP6 ADD MSTORE MLOAD AND PUSH1 0xE4 DUP4 ADD MSTORE SWAP1 SWAP2 SWAP1 DUP4 SWAP1 DUP4 SWAP1 PUSH2 0x104 SWAP1 DUP3 SWAP1 DUP6 SWAP1 GAS CALL SWAP3 DUP4 ISZERO PUSH2 0x28C4 JUMPI DUP2 SWAP4 PUSH2 0x2893 JUMPI JUMPDEST POP POP POP SWAP1 JUMP JUMPDEST SWAP1 SWAP2 DUP1 SWAP4 POP DUP2 RETURNDATASIZE DUP4 GT PUSH2 0x28BD JUMPI JUMPDEST PUSH2 0x28AB DUP2 DUP4 PUSH2 0x204B JUMP JUMPDEST DUP2 ADD SUB SLT PUSH2 0x1D7 JUMPI POP MLOAD CODESIZE DUP1 DUP1 PUSH2 0x288D JUMP JUMPDEST POP RETURNDATASIZE PUSH2 0x28A1 JUMP JUMPDEST POP PUSH1 0x40 MLOAD SWAP1 RETURNDATASIZE SWAP1 DUP3 RETURNDATACOPY RETURNDATASIZE SWAP1 REVERT JUMPDEST SWAP2 SWAP5 SWAP1 SWAP4 POP SWAP1 PUSH20 0xBA12222222228D8BA445958A75A0704D566BF2C8 SUB PUSH2 0x2AA8 JUMPI PUSH1 0x20 DUP2 DUP1 MLOAD DUP2 ADD SUB SLT PUSH2 0xAFE JUMPI PUSH1 0x20 ADD MLOAD SWAP2 PUSH1 0x40 SWAP4 DUP5 MLOAD SWAP4 PUSH2 0x2912 DUP6 PUSH2 0x1FFA JUMP JUMPDEST DUP5 MSTORE PUSH1 0x0 PUSH1 0x20 DUP6 ADD MSTORE DUP5 DUP5 ADD MSTORE PUSH1 0x1 PUSH1 0x1 PUSH1 0xA0 SHL SUB AND PUSH1 0x60 DUP4 ADD MSTORE PUSH1 0x80 DUP3 ADD MSTORE DUP2 MLOAD PUSH2 0x293D DUP2 PUSH2 0x2015 JUMP JUMPDEST PUSH1 0x0 DUP2 MSTORE PUSH1 0xA0 DUP3 ADD MSTORE DUP2 MLOAD SWAP1 PUSH1 0x80 DUP3 ADD DUP3 DUP2 LT PUSH1 0x1 PUSH1 0x1 PUSH1 0x40 SHL SUB DUP3 GT OR PUSH2 0x1FE4 JUMPI DUP4 MSTORE ADDRESS DUP3 MSTORE PUSH1 0x0 PUSH1 0x20 DUP4 ADD MSTORE ADDRESS DUP4 DUP4 ADD MSTORE PUSH1 0x0 PUSH1 0x60 DUP4 ADD MSTORE PUSH2 0x12C TIMESTAMP ADD TIMESTAMP GT PUSH2 0x238F JUMPI PUSH1 0xA0 PUSH1 0x20 SWAP2 PUSH2 0x29FB SWAP4 PUSH1 0x60 DUP7 MLOAD SWAP6 DUP7 SWAP5 DUP6 SWAP5 PUSH4 0x52BBBE29 PUSH1 0xE0 SHL DUP7 MSTORE PUSH1 0xE0 PUSH1 0x4 DUP8 ADD MSTORE DUP1 MLOAD PUSH1 0xE4 DUP8 ADD MSTORE PUSH1 0xFF DUP9 DUP3 ADD MLOAD AND PUSH2 0x104 DUP8 ADD MSTORE PUSH1 0x1 DUP1 DUP4 SHL SUB DUP11 DUP3 ADD MLOAD AND PUSH2 0x124 DUP8 ADD MSTORE PUSH1 0x1 DUP1 DUP4 SHL SUB DUP5 DUP3 ADD MLOAD AND PUSH2 0x144 DUP8 ADD MSTORE PUSH1 0x80 DUP2 ADD MLOAD PUSH2 0x164 DUP8 ADD MSTORE ADD MLOAD PUSH1 0xC0 PUSH2 0x184 DUP7 ADD MSTORE PUSH2 0x1A4 DUP6 ADD SWAP1 PUSH2 0x2299 JUMP JUMPDEST DUP3 MLOAD PUSH1 0x1 PUSH1 0x1 PUSH1 0xA0 SHL SUB SWAP1 DUP2 AND PUSH1 0x24 DUP7 ADD MSTORE DUP7 DUP5 ADD MLOAD ISZERO ISZERO PUSH1 0x44 DUP7 ADD MSTORE DUP9 DUP5 ADD MLOAD AND PUSH1 0x64 DUP6 ADD MSTORE SWAP2 ADD MLOAD ISZERO ISZERO PUSH1 0x84 DUP4 ADD MSTORE PUSH1 0x0 PUSH1 0xA4 DUP4 ADD DUP2 SWAP1 MSTORE TIMESTAMP PUSH2 0x12C ADD PUSH1 0xC4 DUP5 ADD MSTORE SWAP2 SWAP1 SUB SWAP1 DUP3 SWAP1 PUSH20 0xBA12222222228D8BA445958A75A0704D566BF2C8 GAS CALL SWAP2 DUP3 ISZERO PUSH2 0x2A9E JUMPI POP PUSH1 0x0 SWAP2 PUSH2 0x2A6F JUMPI POP SWAP1 JUMP JUMPDEST SWAP1 POP PUSH1 0x20 DUP2 RETURNDATASIZE PUSH1 0x20 GT PUSH2 0x2A96 JUMPI JUMPDEST DUP2 PUSH2 0x2A8A PUSH1 0x20 SWAP4 DUP4 PUSH2 0x204B JUMP JUMPDEST DUP2 ADD SUB SLT PUSH2 0xAFE JUMPI MLOAD SWAP1 JUMP JUMPDEST RETURNDATASIZE SWAP2 POP PUSH2 0x2A7D JUMP JUMPDEST MLOAD RETURNDATASIZE PUSH1 0x0 DUP3 RETURNDATACOPY RETURNDATASIZE SWAP1 REVERT JUMPDEST PUSH1 0x40 MLOAD PUSH3 0x461BCD PUSH1 0xE5 SHL DUP2 MSTORE PUSH1 0x20 PUSH1 0x4 DUP3 ADD MSTORE PUSH1 0xF PUSH1 0x24 DUP3 ADD MSTORE PUSH15 0xAADCE6EAE0E0DEE4E8CAC840888AB PUSH1 0x8B SHL PUSH1 0x44 DUP3 ADD MSTORE PUSH1 0x64 SWAP1 REVERT JUMPDEST PUSH1 0x1 PUSH1 0x1 PUSH1 0xA0 SHL SUB AND PUSH20 0x4752BA5DBC23F44D87826276BF6FD6B1C372AD24 DUP2 EQ PUSH2 0x2BA5 JUMPI PUSH20 0x2626664C2603336E57B271C5C0B26F421741E481 DUP2 EQ PUSH2 0x2B7F JUMPI PUSH20 0xBA12222222228D8BA445958A75A0704D566BF2C8 EQ PUSH2 0x2B5B JUMPI PUSH1 0x40 MLOAD PUSH2 0x2B44 DUP2 PUSH2 0x2030 JUMP JUMPDEST PUSH1 0x7 DUP2 MSTORE PUSH7 0x2AB735B737BBB7 PUSH1 0xC9 SHL PUSH1 0x20 DUP3 ADD MSTORE SWAP1 JUMP JUMPDEST PUSH1 0x40 MLOAD PUSH2 0x2B67 DUP2 PUSH2 0x2030 JUMP JUMPDEST PUSH1 0x8 DUP2 MSTORE PUSH8 0x2130B630B731B2B9 PUSH1 0xC1 SHL PUSH1 0x20 DUP3 ADD MSTORE SWAP1 JUMP JUMPDEST POP PUSH1 0x40 MLOAD PUSH2 0x2B8C DUP2 PUSH2 0x2030 JUMP JUMPDEST PUSH1 0x9 DUP2 MSTORE PUSH9 0x556E69737761705633 PUSH1 0xB8 SHL PUSH1 0x20 DUP3 ADD MSTORE SWAP1 JUMP JUMPDEST POP PUSH1 0x40 MLOAD PUSH2 0x2BB2 DUP2 PUSH2 0x2030 JUMP JUMPDEST PUSH1 0x9 DUP2 MSTORE PUSH9 0x2AB734B9BBB0B82B19 PUSH1 0xB9 SHL PUSH1 0x20 DUP3 ADD MSTORE SWAP1 JUMP JUMPDEST PUSH1 0x0 NOT DUP2 EQ PUSH2 0x238F JUMPI PUSH1 0x1 ADD SWAP1 JUMP JUMPDEST PUSH1 0x6 SLOAD DUP1 ISZERO PUSH2 0x2C06 JUMPI PUSH1 0x7 SLOAD SWAP1 PUSH1 0x64 DUP3 MUL SWAP2 DUP1 DUP4 DIV PUSH1 0x64 EQ SWAP1 ISZERO OR ISZERO PUSH2 0x238F JUMPI PUSH2 0x2C03 SWAP2 PUSH2 0x2542 JUMP JUMPDEST SWAP1 JUMP JUMPDEST POP PUSH1 0x0 SWAP1 JUMP JUMPDEST PUSH1 0x6 SLOAD DUP1 ISZERO PUSH2 0x2C06 JUMPI PUSH2 0x2C03 SWAP1 PUSH1 0x8 SLOAD PUSH2 0x2542 JUMP JUMPDEST ISZERO PUSH2 0x2C28 JUMPI JUMP JUMPDEST PUSH1 0x40 MLOAD PUSH3 0x461BCD PUSH1 0xE5 SHL DUP2 MSTORE PUSH1 0x20 PUSH1 0x4 DUP3 ADD MSTORE PUSH1 0x15 PUSH1 0x24 DUP3 ADD MSTORE PUSH21 0x496E76616C696420746F6B656E2061646472657373 PUSH1 0x58 SHL PUSH1 0x44 DUP3 ADD MSTORE PUSH1 0x64 SWAP1 REVERT JUMPDEST ISZERO PUSH2 0x2C6C JUMPI JUMP JUMPDEST PUSH1 0x40 MLOAD PUSH3 0x461BCD PUSH1 0xE5 SHL DUP2 MSTORE PUSH1 0x20 PUSH1 0x4 DUP3 ADD MSTORE PUSH1 0x17 PUSH1 0x24 DUP3 ADD MSTORE PUSH32 0x416D6F756E74206D75737420626520706F736974697665000000000000000000 PUSH1 0x44 DUP3 ADD MSTORE PUSH1 0x64 SWAP1 REVERT JUMPDEST PUSH1 0x40 MLOAD PUSH4 0xA9059CBB PUSH1 0xE0 SHL PUSH1 0x20 DUP3 ADD MSTORE PUSH1 0x1 PUSH1 0x1 PUSH1 0xA0 SHL SUB SWAP3 SWAP1 SWAP3 AND PUSH1 0x24 DUP4 ADD MSTORE PUSH1 0x44 DUP1 DUP4 ADD SWAP4 SWAP1 SWAP4 MSTORE SWAP2 DUP2 MSTORE PUSH2 0x2231 SWAP2 PUSH2 0x2461 PUSH1 0x64 DUP4 PUSH2 0x204B JUMP INVALID LOG2 PUSH5 0x6970667358 0x22 SLT KECCAK256 0xA9 ADDMOD DELEGATECALL PUSH17 0xC88B29DED7A05CAD8302FA61C802C0E2F1 CALL 0xF9 0xF9 SWAP9 0x2C 0x1E 0xAC 0xBF 0xEB SSTORE 0x2E PUSH5 0x736F6C6343 STOP ADDMOD EQ STOP CALLER "},"methodIdentifiers":{"ADDRESSES_PROVIDER()":"0542975c","BALANCER_VAULT()":"bc163846","POOL()":"7535d246","UNISWAP_V2_ROUTER()":"a82ed9ec","UNISWAP_V3_ROUTER()":"41c64a2f","_executeArbitrageLogic((address,address,uint256,address[],bytes[],uint256))":"ae58c206","checkProfitability(address,address,uint256,address[],bytes[])":"3667fc16","dexPairProfits(string)":"075f631d","emergencyETHRecovery()":"4eaa6001","emergencyTokenRecovery(address)":"a0b2eefe","executeArbitrage(address,uint256,bytes)":"7c1d9539","executeOperation(address,uint256,uint256,address,bytes)":"1b11d0ff","getAverageGasUsed()":"4c2458a8","getConfig()":"c3f909d4","getRecentTrades(uint256)":"c63877eb","getSuccessRate()":"05785ad4","getTotalProfit()":"a9a4cbcc","getTradeHistoryCount()":"49acbc4d","maxGasPrice()":"3de39c11","maxSlippageBasisPoints()":"331f566e","minProfitBasisPoints()":"d6b735b5","owner()":"8da5cb5b","pause()":"8456cb59","paused()":"5c975abb","renounceOwnership()":"715018a6","successfulTrades()":"fc213996","tokenProfits(address)":"697659f2","tokenVolume(address)":"e922c75c","totalGasUsed()":"9fbefb26","totalProfit()":"86001519","totalTrades()":"e275c997","tradeHistory(uint256)":"5b0c5dbd","transferOwnership(address)":"f2fde38b","unpause()":"3f4ba83a","updateConfig(uint256,uint256,uint256)":"73ad4946","withdrawETH(uint256)":"f14210a6","withdrawToken(address,uint256)":"9e281a98"}}}}}