{"contracts/SimpleFlashLoan.sol":{"SimpleFlashLoan":{"abi":[{"inputs":[],"stateMutability":"nonpayable","type":"constructor"},{"inputs":[{"internalType":"address","name":"owner","type":"address"}],"name":"OwnableInvalidOwner","type":"error"},{"inputs":[{"internalType":"address","name":"account","type":"address"}],"name":"OwnableUnauthorizedAccount","type":"error"},{"inputs":[],"name":"ReentrancyGuardReentrantCall","type":"error"},{"anonymous":false,"inputs":[{"indexed":true,"internalType":"address","name":"borrower","type":"address"},{"indexed":true,"internalType":"address","name":"asset","type":"address"},{"indexed":false,"internalType":"uint256","name":"amount","type":"uint256"},{"indexed":false,"internalType":"uint256","name":"fee","type":"uint256"}],"name":"FlashLoanExecuted","type":"event"},{"anonymous":false,"inputs":[{"indexed":true,"internalType":"address","name":"borrower","type":"address"},{"indexed":true,"internalType":"address","name":"asset","type":"address"},{"indexed":false,"internalType":"uint256","name":"amount","type":"uint256"}],"name":"FlashLoanRequested","type":"event"},{"anonymous":false,"inputs":[{"indexed":true,"internalType":"address","name":"previousOwner","type":"address"},{"indexed":true,"internalType":"address","name":"newOwner","type":"address"}],"name":"OwnershipTransferred","type":"event"},{"inputs":[],"name":"FEE_DENOMINATOR","outputs":[{"internalType":"uint256","name":"","type":"uint256"}],"stateMutability":"view","type":"function"},{"inputs":[{"internalType":"address","name":"","type":"address"}],"name":"authorizedBorrowers","outputs":[{"internalType":"bool","name":"","type":"bool"}],"stateMutability":"view","type":"function"},{"inputs":[{"internalType":"uint256","name":"amount","type":"uint256"}],"name":"calculateFee","outputs":[{"internalType":"uint256","name":"","type":"uint256"}],"stateMutability":"view","type":"function"},{"inputs":[{"internalType":"address","name":"asset","type":"address"},{"internalType":"uint256","name":"amount","type":"uint256"}],"name":"deposit","outputs":[],"stateMutability":"nonpayable","type":"function"},{"inputs":[{"internalType":"address","name":"asset","type":"address"}],"name":"emergencyRecover","outputs":[],"stateMutability":"nonpayable","type":"function"},{"inputs":[],"name":"flashLoanFeePercent","outputs":[{"internalType":"uint256","name":"","type":"uint256"}],"stateMutability":"view","type":"function"},{"inputs":[{"internalType":"address","name":"asset","type":"address"}],"name":"getBalance","outputs":[{"internalType":"uint256","name":"","type":"uint256"}],"stateMutability":"view","type":"function"},{"inputs":[],"name":"owner","outputs":[{"internalType":"address","name":"","type":"address"}],"stateMutability":"view","type":"function"},{"inputs":[],"name":"renounceOwnership","outputs":[],"stateMutability":"nonpayable","type":"function"},{"inputs":[{"internalType":"address","name":"asset","type":"address"},{"internalType":"uint256","name":"amount","type":"uint256"}],"name":"requestFlashLoan","outputs":[],"stateMutability":"nonpayable","type":"function"},{"inputs":[{"internalType":"address","name":"borrower","type":"address"},{"internalType":"bool","name":"authorized","type":"bool"}],"name":"setAuthorizedBorrower","outputs":[],"stateMutability":"nonpayable","type":"function"},{"inputs":[{"internalType":"uint256","name":"feePercent","type":"uint256"}],"name":"setFlashLoanFee","outputs":[],"stateMutability":"nonpayable","type":"function"},{"inputs":[{"internalType":"address","name":"","type":"address"}],"name":"totalBorrowed","outputs":[{"internalType":"uint256","name":"","type":"uint256"}],"stateMutability":"view","type":"function"},{"inputs":[{"internalType":"address","name":"newOwner","type":"address"}],"name":"transferOwnership","outputs":[],"stateMutability":"nonpayable","type":"function"},{"inputs":[{"internalType":"address","name":"asset","type":"address"},{"internalType":"uint256","name":"amount","type":"uint256"}],"name":"withdraw","outputs":[],"stateMutability":"nonpayable","type":"function"},{"stateMutability":"payable","type":"receive"}],"evm":{"bytecode":{"linkReferences":{},"object":"6080806040523461009a5733156100845760008054336001600160a01b0319821681178355604080519390929091906001600160a01b03167f8be0079c531659141344cd1fd0a4f28419497f9722a3daafe3b4186f6b6457e08380a3600180556009600455338152600260205220600160ff19825416179055610b6d90816100a08239f35b631e4fbdf760e01b815260006004820152602490fd5b600080fdfe60406080815260049081361015610020575b5050361561001e57600080fd5b005b600090813560e01c806312314982146109c957806347e7ef241461093a578063715018a6146108e05780638da5cb5b146108b95780638fdbb0731461087c57806399a5d7471461084e578063aafafa9f1461073a578063d54ba9541461042f578063d73792a914610413578063e2e1ca2b146103dc578063e92d0d5d1461037e578063ea0af24914610360578063f2fde38b146102d9578063f3fef3a31461016f5763f8b2cb4f146100d25750610011565b3461016b576020928360031936011261016757836001600160a01b036100f6610a1e565b169160248451809481936370a0823160e01b835230908301525afa92831561015c578093610127575b505051908152f35b909192508382813d8311610155575b6101408183610ab1565b8101031261015257505190388061011f565b80fd5b503d610136565b8251903d90823e3d90fd5b8280fd5b5080fd5b503461016b578060031936011261016b57610188610a1e565b9060243593610195610a39565b6101a0851515610a65565b81516370a0823160e01b815230818301526020936001600160a01b0390811692918581602481875afa9081156102cf57908891889161029a575b5010610260578554845163a9059cbb60e01b815291166001600160a01b0316918101918252602082018790529291849184919082908890829060400103925af1908115610257575061022a578280f35b8161024992903d10610250575b6102418183610ab1565b810190610b1f565b5081808280f35b503d610237565b513d85823e3d90fd5b835162461bcd60e51b81528083018690526014602482015273496e73756666696369656e742062616c616e636560601b6044820152606490fd5b809250878092503d83116102c8575b6102b38183610ab1565b810103126102c457879051386101da565b8680fd5b503d6102a9565b85513d89823e3d90fd5b508234610167576020366003190112610167576102f4610a1e565b906102fd610a39565b6001600160a01b0391821692831561034a57505082546001600160a01b0319811683178455167f8be0079c531659141344cd1fd0a4f28419497f9722a3daafe3b4186f6b6457e08380a380f35b51631e4fbdf760e01b8152908101849052602490fd5b50823461016757826003193601126101675760209250549051908152f35b5082346101675760203660031901126101675780359161039c610a39565b6103e883116103aa57505580f35b906020606492519162461bcd60e51b8352820152600c60248201526b08ccaca40e8dede40d0d2ced60a31b6044820152fd5b503461016b57602036600319011261016b5760209181906001600160a01b03610403610a1e565b1681526003845220549051908152f35b503461016b578160031936011261016b57602090516127108152f35b5082903461016757806003193601126101675761044a610a1e565b9060248035923386526020906002825260ff84882054168015610727575b156106f4576002600154146106e4576002600155610487851515610a65565b83516370a0823160e01b80825230828901526001600160a01b039290921696919390838183818b5afa9081156106da5789916106a9575b50868110610668576127106104d4845489610ae9565b04946104e08689610b12565b508887518981527f292fb3c270ecb1c63f6f48e5c32cacb2be1e6e424d7da85cdde93cc321dbfb97873392a3865163a9059cbb60e01b815233858201908152602081018a905286908290819003604001818e8e5af1801561065e57610641575b5086519081523084820152848184818c5afa9081156106375786908b92610601575b5061056d9192610b12565b116105c1575050907f9d0d497e678f62d6b162c97b9724a39f45fe674650dcd4a5e88ff6317e63764f9291858752600381528287206105ad868254610b12565b905582519485528401523392a36001805580f35b601e9060649386519362461bcd60e51b85528401528201527f466c617368206c6f616e206e6f742072657061696420776974682066656500006044820152fd5b809250868092503d8311610630575b61061a8183610ab1565b8101031261062c57518561056d610562565b8980fd5b503d610610565b87513d8c823e3d90fd5b61065790863d8811610250576102418183610ab1565b508a610540565b88513d8d823e3d90fd5b50601d9060649386519362461bcd60e51b85528401528201527f496e73756666696369656e7420636f6e74726163742062616c616e63650000006044820152fd5b90508381813d83116106d3575b6106c08183610ab1565b810103126106cf5751896104be565b8880fd5b503d6106b6565b86513d8b823e3d90fd5b8351633ee5aeb560e01b81528690fd5b835162461bcd60e51b8152808701839052600e818501526d139bdd08185d5d1a1bdc9a5e995960921b6044820152606490fd5b5086546001600160a01b03163314610468565b508183913461016b576020928360031936011261016757610759610a1e565b90610762610a39565b82516370a0823160e01b815230828201526001600160a01b03929091908316908683602481855afa928315610844578693610811575b50826107a2578580f35b8554855163a9059cbb60e01b815294166001600160a01b0316908401908152602081019290925291938592859290918391829060400103925af190811561025757506107f3575b8080808086948580f35b8161080992903d10610250576102418183610ab1565b5081806107e9565b9092508681813d831161083d575b6108298183610ab1565b8101031261083957519188610798565b8580fd5b503d61081f565b85513d88823e3d90fd5b509034610152576020366003190112610152575061271061087483602094549035610ae9565b049051908152f35b503461016b57602036600319011261016b5760209160ff9082906001600160a01b036108a6610a1e565b1681526002855220541690519015158152f35b503461016b578160031936011261016b57905490516001600160a01b039091168152602090f35b82346101525780600319360112610152576108f9610a39565b80546001600160a01b03198116825581906001600160a01b03167f8be0079c531659141344cd1fd0a4f28419497f9722a3daafe3b4186f6b6457e08280a380f35b508290346101675780600319360112610167576020610957610a1e565b92606460243591610969831515610a65565b86855196879485936323b872dd60e01b85523390850152306024850152604484015260018060a01b03165af19081156109c057506109a5575080f35b6109bc9060203d8111610250576102418183610ab1565b5080f35b513d84823e3d90fd5b503461016b578060031936011261016b576109e2610a1e565b9060243591821515809303610a1a576109f9610a39565b60018060a01b03168352600260205282209060ff8019835416911617905580f35b8380fd5b600435906001600160a01b0382168203610a3457565b600080fd5b6000546001600160a01b03163303610a4d57565b60405163118cdaa760e01b8152336004820152602490fd5b15610a6c57565b60405162461bcd60e51b815260206004820152601d60248201527f416d6f756e74206d7573742062652067726561746572207468616e20300000006044820152606490fd5b90601f8019910116810190811067ffffffffffffffff821117610ad357604052565b634e487b7160e01b600052604160045260246000fd5b81810292918115918404141715610afc57565b634e487b7160e01b600052601160045260246000fd5b91908201809211610afc57565b90816020910312610a3457518015158103610a34579056fea2646970667358221220625dada579f4d48d15e3a5c23cc816523d61666509308e4f51c3276db772273f64736f6c63430008140033","opcodes":"PUSH1 0x80 DUP1 PUSH1 0x40 MSTORE CALLVALUE PUSH2 0x9A JUMPI CALLER ISZERO PUSH2 0x84 JUMPI PUSH1 0x0 DUP1 SLOAD CALLER PUSH1 0x1 PUSH1 0x1 PUSH1 0xA0 SHL SUB NOT DUP3 AND DUP2 OR DUP4 SSTORE PUSH1 0x40 DUP1 MLOAD SWAP4 SWAP1 SWAP3 SWAP1 SWAP2 SWAP1 PUSH1 0x1 PUSH1 0x1 PUSH1 0xA0 SHL SUB AND PUSH32 0x8BE0079C531659141344CD1FD0A4F28419497F9722A3DAAFE3B4186F6B6457E0 DUP4 DUP1 LOG3 PUSH1 0x1 DUP1 SSTORE PUSH1 0x9 PUSH1 0x4 SSTORE CALLER DUP2 MSTORE PUSH1 0x2 PUSH1 0x20 MSTORE KECCAK256 PUSH1 0x1 PUSH1 0xFF NOT DUP3 SLOAD AND OR SWAP1 SSTORE PUSH2 0xB6D SWAP1 DUP2 PUSH2 0xA0 DUP3 CODECOPY RETURN JUMPDEST PUSH4 0x1E4FBDF7 PUSH1 0xE0 SHL DUP2 MSTORE PUSH1 0x0 PUSH1 0x4 DUP3 ADD MSTORE PUSH1 0x24 SWAP1 REVERT JUMPDEST PUSH1 0x0 DUP1 REVERT INVALID PUSH1 0x40 PUSH1 0x80 DUP2 MSTORE PUSH1 0x4 SWAP1 DUP2 CALLDATASIZE LT ISZERO PUSH2 0x20 JUMPI JUMPDEST POP POP CALLDATASIZE ISZERO PUSH2 0x1E JUMPI PUSH1 0x0 DUP1 REVERT JUMPDEST STOP JUMPDEST PUSH1 0x0 SWAP1 DUP2 CALLDATALOAD PUSH1 0xE0 SHR DUP1 PUSH4 0x12314982 EQ PUSH2 0x9C9 JUMPI DUP1 PUSH4 0x47E7EF24 EQ PUSH2 0x93A JUMPI DUP1 PUSH4 0x715018A6 EQ PUSH2 0x8E0 JUMPI DUP1 PUSH4 0x8DA5CB5B EQ PUSH2 0x8B9 JUMPI DUP1 PUSH4 0x8FDBB073 EQ PUSH2 0x87C JUMPI DUP1 PUSH4 0x99A5D747 EQ PUSH2 0x84E JUMPI DUP1 PUSH4 0xAAFAFA9F EQ PUSH2 0x73A JUMPI DUP1 PUSH4 0xD54BA954 EQ PUSH2 0x42F JUMPI DUP1 PUSH4 0xD73792A9 EQ PUSH2 0x413 JUMPI DUP1 PUSH4 0xE2E1CA2B EQ PUSH2 0x3DC JUMPI DUP1 PUSH4 0xE92D0D5D EQ PUSH2 0x37E JUMPI DUP1 PUSH4 0xEA0AF249 EQ PUSH2 0x360 JUMPI DUP1 PUSH4 0xF2FDE38B EQ PUSH2 0x2D9 JUMPI DUP1 PUSH4 0xF3FEF3A3 EQ PUSH2 0x16F JUMPI PUSH4 0xF8B2CB4F EQ PUSH2 0xD2 JUMPI POP PUSH2 0x11 JUMP JUMPDEST CALLVALUE PUSH2 0x16B JUMPI PUSH1 0x20 SWAP3 DUP4 PUSH1 0x3 NOT CALLDATASIZE ADD SLT PUSH2 0x167 JUMPI DUP4 PUSH1 0x1 PUSH1 0x1 PUSH1 0xA0 SHL SUB PUSH2 0xF6 PUSH2 0xA1E JUMP JUMPDEST AND SWAP2 PUSH1 0x24 DUP5 MLOAD DUP1 SWAP5 DUP2 SWAP4 PUSH4 0x70A08231 PUSH1 0xE0 SHL DUP4 MSTORE ADDRESS SWAP1 DUP4 ADD MSTORE GAS STATICCALL SWAP3 DUP4 ISZERO PUSH2 0x15C JUMPI DUP1 SWAP4 PUSH2 0x127 JUMPI JUMPDEST POP POP MLOAD SWAP1 DUP2 MSTORE RETURN JUMPDEST SWAP1 SWAP2 SWAP3 POP DUP4 DUP3 DUP2 RETURNDATASIZE DUP4 GT PUSH2 0x155 JUMPI JUMPDEST PUSH2 0x140 DUP2 DUP4 PUSH2 0xAB1 JUMP JUMPDEST DUP2 ADD SUB SLT PUSH2 0x152 JUMPI POP MLOAD SWAP1 CODESIZE DUP1 PUSH2 0x11F JUMP JUMPDEST DUP1 REVERT JUMPDEST POP RETURNDATASIZE PUSH2 0x136 JUMP JUMPDEST DUP3 MLOAD SWAP1 RETURNDATASIZE SWAP1 DUP3 RETURNDATACOPY RETURNDATASIZE SWAP1 REVERT JUMPDEST DUP3 DUP1 REVERT JUMPDEST POP DUP1 REVERT JUMPDEST POP CALLVALUE PUSH2 0x16B JUMPI DUP1 PUSH1 0x3 NOT CALLDATASIZE ADD SLT PUSH2 0x16B JUMPI PUSH2 0x188 PUSH2 0xA1E JUMP JUMPDEST SWAP1 PUSH1 0x24 CALLDATALOAD SWAP4 PUSH2 0x195 PUSH2 0xA39 JUMP JUMPDEST PUSH2 0x1A0 DUP6 ISZERO ISZERO PUSH2 0xA65 JUMP JUMPDEST DUP2 MLOAD PUSH4 0x70A08231 PUSH1 0xE0 SHL DUP2 MSTORE ADDRESS DUP2 DUP4 ADD MSTORE PUSH1 0x20 SWAP4 PUSH1 0x1 PUSH1 0x1 PUSH1 0xA0 SHL SUB SWAP1 DUP2 AND SWAP3 SWAP2 DUP6 DUP2 PUSH1 0x24 DUP2 DUP8 GAS STATICCALL SWAP1 DUP2 ISZERO PUSH2 0x2CF JUMPI SWAP1 DUP9 SWAP2 DUP9 SWAP2 PUSH2 0x29A JUMPI JUMPDEST POP LT PUSH2 0x260 JUMPI DUP6 SLOAD DUP5 MLOAD PUSH4 0xA9059CBB PUSH1 0xE0 SHL DUP2 MSTORE SWAP2 AND PUSH1 0x1 PUSH1 0x1 PUSH1 0xA0 SHL SUB AND SWAP2 DUP2 ADD SWAP2 DUP3 MSTORE PUSH1 0x20 DUP3 ADD DUP8 SWAP1 MSTORE SWAP3 SWAP2 DUP5 SWAP2 DUP5 SWAP2 SWAP1 DUP3 SWAP1 DUP9 SWAP1 DUP3 SWAP1 PUSH1 0x40 ADD SUB SWAP3 GAS CALL SWAP1 DUP2 ISZERO PUSH2 0x257 JUMPI POP PUSH2 0x22A JUMPI DUP3 DUP1 RETURN JUMPDEST DUP2 PUSH2 0x249 SWAP3 SWAP1 RETURNDATASIZE LT PUSH2 0x250 JUMPI JUMPDEST PUSH2 0x241 DUP2 DUP4 PUSH2 0xAB1 JUMP JUMPDEST DUP2 ADD SWAP1 PUSH2 0xB1F JUMP JUMPDEST POP DUP2 DUP1 DUP3 DUP1 RETURN JUMPDEST POP RETURNDATASIZE PUSH2 0x237 JUMP JUMPDEST MLOAD RETURNDATASIZE DUP6 DUP3 RETURNDATACOPY RETURNDATASIZE SWAP1 REVERT JUMPDEST DUP4 MLOAD PUSH3 0x461BCD PUSH1 0xE5 SHL DUP2 MSTORE DUP1 DUP4 ADD DUP7 SWAP1 MSTORE PUSH1 0x14 PUSH1 0x24 DUP3 ADD MSTORE PUSH20 0x496E73756666696369656E742062616C616E6365 PUSH1 0x60 SHL PUSH1 0x44 DUP3 ADD MSTORE PUSH1 0x64 SWAP1 REVERT JUMPDEST DUP1 SWAP3 POP DUP8 DUP1 SWAP3 POP RETURNDATASIZE DUP4 GT PUSH2 0x2C8 JUMPI JUMPDEST PUSH2 0x2B3 DUP2 DUP4 PUSH2 0xAB1 JUMP JUMPDEST DUP2 ADD SUB SLT PUSH2 0x2C4 JUMPI DUP8 SWAP1 MLOAD CODESIZE PUSH2 0x1DA JUMP JUMPDEST DUP7 DUP1 REVERT JUMPDEST POP RETURNDATASIZE PUSH2 0x2A9 JUMP JUMPDEST DUP6 MLOAD RETURNDATASIZE DUP10 DUP3 RETURNDATACOPY RETURNDATASIZE SWAP1 REVERT JUMPDEST POP DUP3 CALLVALUE PUSH2 0x167 JUMPI PUSH1 0x20 CALLDATASIZE PUSH1 0x3 NOT ADD SLT PUSH2 0x167 JUMPI PUSH2 0x2F4 PUSH2 0xA1E JUMP JUMPDEST SWAP1 PUSH2 0x2FD PUSH2 0xA39 JUMP JUMPDEST PUSH1 0x1 PUSH1 0x1 PUSH1 0xA0 SHL SUB SWAP2 DUP3 AND SWAP3 DUP4 ISZERO PUSH2 0x34A JUMPI POP POP DUP3 SLOAD PUSH1 0x1 PUSH1 0x1 PUSH1 0xA0 SHL SUB NOT DUP2 AND DUP4 OR DUP5 SSTORE AND PUSH32 0x8BE0079C531659141344CD1FD0A4F28419497F9722A3DAAFE3B4186F6B6457E0 DUP4 DUP1 LOG3 DUP1 RETURN JUMPDEST MLOAD PUSH4 0x1E4FBDF7 PUSH1 0xE0 SHL DUP2 MSTORE SWAP1 DUP2 ADD DUP5 SWAP1 MSTORE PUSH1 0x24 SWAP1 REVERT JUMPDEST POP DUP3 CALLVALUE PUSH2 0x167 JUMPI DUP3 PUSH1 0x3 NOT CALLDATASIZE ADD SLT PUSH2 0x167 JUMPI PUSH1 0x20 SWAP3 POP SLOAD SWAP1 MLOAD SWAP1 DUP2 MSTORE RETURN JUMPDEST POP DUP3 CALLVALUE PUSH2 0x167 JUMPI PUSH1 0x20 CALLDATASIZE PUSH1 0x3 NOT ADD SLT PUSH2 0x167 JUMPI DUP1 CALLDATALOAD SWAP2 PUSH2 0x39C PUSH2 0xA39 JUMP JUMPDEST PUSH2 0x3E8 DUP4 GT PUSH2 0x3AA JUMPI POP SSTORE DUP1 RETURN JUMPDEST SWAP1 PUSH1 0x20 PUSH1 0x64 SWAP3 MLOAD SWAP2 PUSH3 0x461BCD PUSH1 0xE5 SHL DUP4 MSTORE DUP3 ADD MSTORE PUSH1 0xC PUSH1 0x24 DUP3 ADD MSTORE PUSH12 0x8CCACA40E8DEDE40D0D2CED PUSH1 0xA3 SHL PUSH1 0x44 DUP3 ADD MSTORE REVERT JUMPDEST POP CALLVALUE PUSH2 0x16B JUMPI PUSH1 0x20 CALLDATASIZE PUSH1 0x3 NOT ADD SLT PUSH2 0x16B JUMPI PUSH1 0x20 SWAP2 DUP2 SWAP1 PUSH1 0x1 PUSH1 0x1 PUSH1 0xA0 SHL SUB PUSH2 0x403 PUSH2 0xA1E JUMP JUMPDEST AND DUP2 MSTORE PUSH1 0x3 DUP5 MSTORE KECCAK256 SLOAD SWAP1 MLOAD SWAP1 DUP2 MSTORE RETURN JUMPDEST POP CALLVALUE PUSH2 0x16B JUMPI DUP2 PUSH1 0x3 NOT CALLDATASIZE ADD SLT PUSH2 0x16B JUMPI PUSH1 0x20 SWAP1 MLOAD PUSH2 0x2710 DUP2 MSTORE RETURN JUMPDEST POP DUP3 SWAP1 CALLVALUE PUSH2 0x167 JUMPI DUP1 PUSH1 0x3 NOT CALLDATASIZE ADD SLT PUSH2 0x167 JUMPI PUSH2 0x44A PUSH2 0xA1E JUMP JUMPDEST SWAP1 PUSH1 0x24 DUP1 CALLDATALOAD SWAP3 CALLER DUP7 MSTORE PUSH1 0x20 SWAP1 PUSH1 0x2 DUP3 MSTORE PUSH1 0xFF DUP5 DUP9 KECCAK256 SLOAD AND DUP1 ISZERO PUSH2 0x727 JUMPI JUMPDEST ISZERO PUSH2 0x6F4 JUMPI PUSH1 0x2 PUSH1 0x1 SLOAD EQ PUSH2 0x6E4 JUMPI PUSH1 0x2 PUSH1 0x1 SSTORE PUSH2 0x487 DUP6 ISZERO ISZERO PUSH2 0xA65 JUMP JUMPDEST DUP4 MLOAD PUSH4 0x70A08231 PUSH1 0xE0 SHL DUP1 DUP3 MSTORE ADDRESS DUP3 DUP10 ADD MSTORE PUSH1 0x1 PUSH1 0x1 PUSH1 0xA0 SHL SUB SWAP3 SWAP1 SWAP3 AND SWAP7 SWAP2 SWAP4 SWAP1 DUP4 DUP2 DUP4 DUP2 DUP12 GAS STATICCALL SWAP1 DUP2 ISZERO PUSH2 0x6DA JUMPI DUP10 SWAP2 PUSH2 0x6A9 JUMPI JUMPDEST POP DUP7 DUP2 LT PUSH2 0x668 JUMPI PUSH2 0x2710 PUSH2 0x4D4 DUP5 SLOAD DUP10 PUSH2 0xAE9 JUMP JUMPDEST DIV SWAP5 PUSH2 0x4E0 DUP7 DUP10 PUSH2 0xB12 JUMP JUMPDEST POP DUP9 DUP8 MLOAD DUP10 DUP2 MSTORE PUSH32 0x292FB3C270ECB1C63F6F48E5C32CACB2BE1E6E424D7DA85CDDE93CC321DBFB97 DUP8 CALLER SWAP3 LOG3 DUP7 MLOAD PUSH4 0xA9059CBB PUSH1 0xE0 SHL DUP2 MSTORE CALLER DUP6 DUP3 ADD SWAP1 DUP2 MSTORE PUSH1 0x20 DUP2 ADD DUP11 SWAP1 MSTORE DUP7 SWAP1 DUP3 SWAP1 DUP2 SWAP1 SUB PUSH1 0x40 ADD DUP2 DUP15 DUP15 GAS CALL DUP1 ISZERO PUSH2 0x65E JUMPI PUSH2 0x641 JUMPI JUMPDEST POP DUP7 MLOAD SWAP1 DUP2 MSTORE ADDRESS DUP5 DUP3 ADD MSTORE DUP5 DUP2 DUP5 DUP2 DUP13 GAS STATICCALL SWAP1 DUP2 ISZERO PUSH2 0x637 JUMPI DUP7 SWAP1 DUP12 SWAP3 PUSH2 0x601 JUMPI JUMPDEST POP PUSH2 0x56D SWAP2 SWAP3 PUSH2 0xB12 JUMP JUMPDEST GT PUSH2 0x5C1 JUMPI POP POP SWAP1 PUSH32 0x9D0D497E678F62D6B162C97B9724A39F45FE674650DCD4A5E88FF6317E63764F SWAP3 SWAP2 DUP6 DUP8 MSTORE PUSH1 0x3 DUP2 MSTORE DUP3 DUP8 KECCAK256 PUSH2 0x5AD DUP7 DUP3 SLOAD PUSH2 0xB12 JUMP JUMPDEST SWAP1 SSTORE DUP3 MLOAD SWAP5 DUP6 MSTORE DUP5 ADD MSTORE CALLER SWAP3 LOG3 PUSH1 0x1 DUP1 SSTORE DUP1 RETURN JUMPDEST PUSH1 0x1E SWAP1 PUSH1 0x64 SWAP4 DUP7 MLOAD SWAP4 PUSH3 0x461BCD PUSH1 0xE5 SHL DUP6 MSTORE DUP5 ADD MSTORE DUP3 ADD MSTORE PUSH32 0x466C617368206C6F616E206E6F74207265706169642077697468206665650000 PUSH1 0x44 DUP3 ADD MSTORE REVERT JUMPDEST DUP1 SWAP3 POP DUP7 DUP1 SWAP3 POP RETURNDATASIZE DUP4 GT PUSH2 0x630 JUMPI JUMPDEST PUSH2 0x61A DUP2 DUP4 PUSH2 0xAB1 JUMP JUMPDEST DUP2 ADD SUB SLT PUSH2 0x62C JUMPI MLOAD DUP6 PUSH2 0x56D PUSH2 0x562 JUMP JUMPDEST DUP10 DUP1 REVERT JUMPDEST POP RETURNDATASIZE PUSH2 0x610 JUMP JUMPDEST DUP8 MLOAD RETURNDATASIZE DUP13 DUP3 RETURNDATACOPY RETURNDATASIZE SWAP1 REVERT JUMPDEST PUSH2 0x657 SWAP1 DUP7 RETURNDATASIZE DUP9 GT PUSH2 0x250 JUMPI PUSH2 0x241 DUP2 DUP4 PUSH2 0xAB1 JUMP JUMPDEST POP DUP11 PUSH2 0x540 JUMP JUMPDEST DUP9 MLOAD RETURNDATASIZE DUP14 DUP3 RETURNDATACOPY RETURNDATASIZE SWAP1 REVERT JUMPDEST POP PUSH1 0x1D SWAP1 PUSH1 0x64 SWAP4 DUP7 MLOAD SWAP4 PUSH3 0x461BCD PUSH1 0xE5 SHL DUP6 MSTORE DUP5 ADD MSTORE DUP3 ADD MSTORE PUSH32 0x496E73756666696369656E7420636F6E74726163742062616C616E6365000000 PUSH1 0x44 DUP3 ADD MSTORE REVERT JUMPDEST SWAP1 POP DUP4 DUP2 DUP2 RETURNDATASIZE DUP4 GT PUSH2 0x6D3 JUMPI JUMPDEST PUSH2 0x6C0 DUP2 DUP4 PUSH2 0xAB1 JUMP JUMPDEST DUP2 ADD SUB SLT PUSH2 0x6CF JUMPI MLOAD DUP10 PUSH2 0x4BE JUMP JUMPDEST DUP9 DUP1 REVERT JUMPDEST POP RETURNDATASIZE PUSH2 0x6B6 JUMP JUMPDEST DUP7 MLOAD RETURNDATASIZE DUP12 DUP3 RETURNDATACOPY RETURNDATASIZE SWAP1 REVERT JUMPDEST DUP4 MLOAD PUSH4 0x3EE5AEB5 PUSH1 0xE0 SHL DUP2 MSTORE DUP7 SWAP1 REVERT JUMPDEST DUP4 MLOAD PUSH3 0x461BCD PUSH1 0xE5 SHL DUP2 MSTORE DUP1 DUP8 ADD DUP4 SWAP1 MSTORE PUSH1 0xE DUP2 DUP6 ADD MSTORE PUSH14 0x139BDD08185D5D1A1BDC9A5E9959 PUSH1 0x92 SHL PUSH1 0x44 DUP3 ADD MSTORE PUSH1 0x64 SWAP1 REVERT JUMPDEST POP DUP7 SLOAD PUSH1 0x1 PUSH1 0x1 PUSH1 0xA0 SHL SUB AND CALLER EQ PUSH2 0x468 JUMP JUMPDEST POP DUP2 DUP4 SWAP2 CALLVALUE PUSH2 0x16B JUMPI PUSH1 0x20 SWAP3 DUP4 PUSH1 0x3 NOT CALLDATASIZE ADD SLT PUSH2 0x167 JUMPI PUSH2 0x759 PUSH2 0xA1E JUMP JUMPDEST SWAP1 PUSH2 0x762 PUSH2 0xA39 JUMP JUMPDEST DUP3 MLOAD PUSH4 0x70A08231 PUSH1 0xE0 SHL DUP2 MSTORE ADDRESS DUP3 DUP3 ADD MSTORE PUSH1 0x1 PUSH1 0x1 PUSH1 0xA0 SHL SUB SWAP3 SWAP1 SWAP2 SWAP1 DUP4 AND SWAP1 DUP7 DUP4 PUSH1 0x24 DUP2 DUP6 GAS STATICCALL SWAP3 DUP4 ISZERO PUSH2 0x844 JUMPI DUP7 SWAP4 PUSH2 0x811 JUMPI JUMPDEST POP DUP3 PUSH2 0x7A2 JUMPI DUP6 DUP1 RETURN JUMPDEST DUP6 SLOAD DUP6 MLOAD PUSH4 0xA9059CBB PUSH1 0xE0 SHL DUP2 MSTORE SWAP5 AND PUSH1 0x1 PUSH1 0x1 PUSH1 0xA0 SHL SUB AND SWAP1 DUP5 ADD SWAP1 DUP2 MSTORE PUSH1 0x20 DUP2 ADD SWAP3 SWAP1 SWAP3 MSTORE SWAP2 SWAP4 DUP6 SWAP3 DUP6 SWAP3 SWAP1 SWAP2 DUP4 SWAP2 DUP3 SWAP1 PUSH1 0x40 ADD SUB SWAP3 GAS CALL SWAP1 DUP2 ISZERO PUSH2 0x257 JUMPI POP PUSH2 0x7F3 JUMPI JUMPDEST DUP1 DUP1 DUP1 DUP1 DUP7 SWAP5 DUP6 DUP1 RETURN JUMPDEST DUP2 PUSH2 0x809 SWAP3 SWAP1 RETURNDATASIZE LT PUSH2 0x250 JUMPI PUSH2 0x241 DUP2 DUP4 PUSH2 0xAB1 JUMP JUMPDEST POP DUP2 DUP1 PUSH2 0x7E9 JUMP JUMPDEST SWAP1 SWAP3 POP DUP7 DUP2 DUP2 RETURNDATASIZE DUP4 GT PUSH2 0x83D JUMPI JUMPDEST PUSH2 0x829 DUP2 DUP4 PUSH2 0xAB1 JUMP JUMPDEST DUP2 ADD SUB SLT PUSH2 0x839 JUMPI MLOAD SWAP2 DUP9 PUSH2 0x798 JUMP JUMPDEST DUP6 DUP1 REVERT JUMPDEST POP RETURNDATASIZE PUSH2 0x81F JUMP JUMPDEST DUP6 MLOAD RETURNDATASIZE DUP9 DUP3 RETURNDATACOPY RETURNDATASIZE SWAP1 REVERT JUMPDEST POP SWAP1 CALLVALUE PUSH2 0x152 JUMPI PUSH1 0x20 CALLDATASIZE PUSH1 0x3 NOT ADD SLT PUSH2 0x152 JUMPI POP PUSH2 0x2710 PUSH2 0x874 DUP4 PUSH1 0x20 SWAP5 SLOAD SWAP1 CALLDATALOAD PUSH2 0xAE9 JUMP JUMPDEST DIV SWAP1 MLOAD SWAP1 DUP2 MSTORE RETURN JUMPDEST POP CALLVALUE PUSH2 0x16B JUMPI PUSH1 0x20 CALLDATASIZE PUSH1 0x3 NOT ADD SLT PUSH2 0x16B JUMPI PUSH1 0x20 SWAP2 PUSH1 0xFF SWAP1 DUP3 SWAP1 PUSH1 0x1 PUSH1 0x1 PUSH1 0xA0 SHL SUB PUSH2 0x8A6 PUSH2 0xA1E JUMP JUMPDEST AND DUP2 MSTORE PUSH1 0x2 DUP6 MSTORE KECCAK256 SLOAD AND SWAP1 MLOAD SWAP1 ISZERO ISZERO DUP2 MSTORE RETURN JUMPDEST POP CALLVALUE PUSH2 0x16B JUMPI DUP2 PUSH1 0x3 NOT CALLDATASIZE ADD SLT PUSH2 0x16B JUMPI SWAP1 SLOAD SWAP1 MLOAD PUSH1 0x1 PUSH1 0x1 PUSH1 0xA0 SHL SUB SWAP1 SWAP2 AND DUP2 MSTORE PUSH1 0x20 SWAP1 RETURN JUMPDEST DUP3 CALLVALUE PUSH2 0x152 JUMPI DUP1 PUSH1 0x3 NOT CALLDATASIZE ADD SLT PUSH2 0x152 JUMPI PUSH2 0x8F9 PUSH2 0xA39 JUMP JUMPDEST DUP1 SLOAD PUSH1 0x1 PUSH1 0x1 PUSH1 0xA0 SHL SUB NOT DUP2 AND DUP3 SSTORE DUP2 SWAP1 PUSH1 0x1 PUSH1 0x1 PUSH1 0xA0 SHL SUB AND PUSH32 0x8BE0079C531659141344CD1FD0A4F28419497F9722A3DAAFE3B4186F6B6457E0 DUP3 DUP1 LOG3 DUP1 RETURN JUMPDEST POP DUP3 SWAP1 CALLVALUE PUSH2 0x167 JUMPI DUP1 PUSH1 0x3 NOT CALLDATASIZE ADD SLT PUSH2 0x167 JUMPI PUSH1 0x20 PUSH2 0x957 PUSH2 0xA1E JUMP JUMPDEST SWAP3 PUSH1 0x64 PUSH1 0x24 CALLDATALOAD SWAP2 PUSH2 0x969 DUP4 ISZERO ISZERO PUSH2 0xA65 JUMP JUMPDEST DUP7 DUP6 MLOAD SWAP7 DUP8 SWAP5 DUP6 SWAP4 PUSH4 0x23B872DD PUSH1 0xE0 SHL DUP6 MSTORE CALLER SWAP1 DUP6 ADD MSTORE ADDRESS PUSH1 0x24 DUP6 ADD MSTORE PUSH1 0x44 DUP5 ADD MSTORE PUSH1 0x1 DUP1 PUSH1 0xA0 SHL SUB AND GAS CALL SWAP1 DUP2 ISZERO PUSH2 0x9C0 JUMPI POP PUSH2 0x9A5 JUMPI POP DUP1 RETURN JUMPDEST PUSH2 0x9BC SWAP1 PUSH1 0x20 RETURNDATASIZE DUP2 GT PUSH2 0x250 JUMPI PUSH2 0x241 DUP2 DUP4 PUSH2 0xAB1 JUMP JUMPDEST POP DUP1 RETURN JUMPDEST MLOAD RETURNDATASIZE DUP5 DUP3 RETURNDATACOPY RETURNDATASIZE SWAP1 REVERT JUMPDEST POP CALLVALUE PUSH2 0x16B JUMPI DUP1 PUSH1 0x3 NOT CALLDATASIZE ADD SLT PUSH2 0x16B JUMPI PUSH2 0x9E2 PUSH2 0xA1E JUMP JUMPDEST SWAP1 PUSH1 0x24 CALLDATALOAD SWAP2 DUP3 ISZERO ISZERO DUP1 SWAP4 SUB PUSH2 0xA1A JUMPI PUSH2 0x9F9 PUSH2 0xA39 JUMP JUMPDEST PUSH1 0x1 DUP1 PUSH1 0xA0 SHL SUB AND DUP4 MSTORE PUSH1 0x2 PUSH1 0x20 MSTORE DUP3 KECCAK256 SWAP1 PUSH1 0xFF DUP1 NOT DUP4 SLOAD AND SWAP2 AND OR SWAP1 SSTORE DUP1 RETURN JUMPDEST DUP4 DUP1 REVERT JUMPDEST PUSH1 0x4 CALLDATALOAD SWAP1 PUSH1 0x1 PUSH1 0x1 PUSH1 0xA0 SHL SUB DUP3 AND DUP3 SUB PUSH2 0xA34 JUMPI JUMP JUMPDEST PUSH1 0x0 DUP1 REVERT JUMPDEST PUSH1 0x0 SLOAD PUSH1 0x1 PUSH1 0x1 PUSH1 0xA0 SHL SUB AND CALLER SUB PUSH2 0xA4D JUMPI JUMP JUMPDEST PUSH1 0x40 MLOAD PUSH4 0x118CDAA7 PUSH1 0xE0 SHL DUP2 MSTORE CALLER PUSH1 0x4 DUP3 ADD MSTORE PUSH1 0x24 SWAP1 REVERT JUMPDEST ISZERO PUSH2 0xA6C JUMPI JUMP JUMPDEST PUSH1 0x40 MLOAD PUSH3 0x461BCD PUSH1 0xE5 SHL DUP2 MSTORE PUSH1 0x20 PUSH1 0x4 DUP3 ADD MSTORE PUSH1 0x1D PUSH1 0x24 DUP3 ADD MSTORE PUSH32 0x416D6F756E74206D7573742062652067726561746572207468616E2030000000 PUSH1 0x44 DUP3 ADD MSTORE PUSH1 0x64 SWAP1 REVERT JUMPDEST SWAP1 PUSH1 0x1F DUP1 NOT SWAP2 ADD AND DUP2 ADD SWAP1 DUP2 LT PUSH8 0xFFFFFFFFFFFFFFFF DUP3 GT OR PUSH2 0xAD3 JUMPI PUSH1 0x40 MSTORE JUMP JUMPDEST PUSH4 0x4E487B71 PUSH1 0xE0 SHL PUSH1 0x0 MSTORE PUSH1 0x41 PUSH1 0x4 MSTORE PUSH1 0x24 PUSH1 0x0 REVERT JUMPDEST DUP2 DUP2 MUL SWAP3 SWAP2 DUP2 ISZERO SWAP2 DUP5 DIV EQ OR ISZERO PUSH2 0xAFC JUMPI JUMP JUMPDEST PUSH4 0x4E487B71 PUSH1 0xE0 SHL PUSH1 0x0 MSTORE PUSH1 0x11 PUSH1 0x4 MSTORE PUSH1 0x24 PUSH1 0x0 REVERT JUMPDEST SWAP2 SWAP1 DUP3 ADD DUP1 SWAP3 GT PUSH2 0xAFC JUMPI JUMP JUMPDEST SWAP1 DUP2 PUSH1 0x20 SWAP2 SUB SLT PUSH2 0xA34 JUMPI MLOAD DUP1 ISZERO ISZERO DUP2 SUB PUSH2 0xA34 JUMPI SWAP1 JUMP INVALID LOG2 PUSH5 0x6970667358 0x22 SLT KECCAK256 PUSH3 0x5DADA5 PUSH26 0xF4D48D15E3A5C23CC816523D61666509308E4F51C3276DB77227 EXTCODEHASH PUSH5 0x736F6C6343 STOP ADDMOD EQ STOP CALLER "},"methodIdentifiers":{"FEE_DENOMINATOR()":"d73792a9","authorizedBorrowers(address)":"8fdbb073","calculateFee(uint256)":"99a5d747","deposit(address,uint256)":"47e7ef24","emergencyRecover(address)":"aafafa9f","flashLoanFeePercent()":"ea0af249","getBalance(address)":"f8b2cb4f","owner()":"8da5cb5b","renounceOwnership()":"715018a6","requestFlashLoan(address,uint256)":"d54ba954","setAuthorizedBorrower(address,bool)":"12314982","setFlashLoanFee(uint256)":"e92d0d5d","totalBorrowed(address)":"e2e1ca2b","transferOwnership(address)":"f2fde38b","withdraw(address,uint256)":"f3fef3a3"}}}}}