{"contracts/BaseAtomArbitrage.sol":{"BaseAtomArbitrage":{"abi":[{"inputs":[],"stateMutability":"nonpayable","type":"constructor"},{"inputs":[{"internalType":"address","name":"owner","type":"address"}],"name":"OwnableInvalidOwner","type":"error"},{"inputs":[{"internalType":"address","name":"account","type":"address"}],"name":"OwnableUnauthorizedAccount","type":"error"},{"inputs":[],"name":"ReentrancyGuardReentrantCall","type":"error"},{"inputs":[{"internalType":"address","name":"token","type":"address"}],"name":"SafeERC20FailedOperation","type":"error"},{"anonymous":false,"inputs":[{"indexed":true,"internalType":"address","name":"tokenA","type":"address"},{"indexed":true,"internalType":"address","name":"tokenB","type":"address"},{"indexed":false,"internalType":"uint256","name":"amountIn","type":"uint256"},{"indexed":false,"internalType":"uint256","name":"profit","type":"uint256"},{"indexed":false,"internalType":"enum BaseAtomArbitrage.DEX","name":"buyDex","type":"uint8"},{"indexed":false,"internalType":"enum BaseAtomArbitrage.DEX","name":"sellDex","type":"uint8"},{"indexed":true,"internalType":"address","name":"executor","type":"address"}],"name":"ArbitrageExecuted","type":"event"},{"anonymous":false,"inputs":[{"indexed":true,"internalType":"address","name":"asset","type":"address"},{"indexed":false,"internalType":"uint256","name":"amount","type":"uint256"},{"indexed":false,"internalType":"uint256","name":"premium","type":"uint256"},{"indexed":false,"internalType":"bool","name":"success","type":"bool"}],"name":"FlashLoanExecuted","type":"event"},{"anonymous":false,"inputs":[{"indexed":true,"internalType":"address","name":"previousOwner","type":"address"},{"indexed":true,"internalType":"address","name":"newOwner","type":"address"}],"name":"OwnershipTransferred","type":"event"},{"anonymous":false,"inputs":[{"indexed":true,"internalType":"address","name":"token","type":"address"},{"indexed":false,"internalType":"uint256","name":"amount","type":"uint256"},{"indexed":false,"internalType":"uint256","name":"timestamp","type":"uint256"}],"name":"ProfitExtracted","type":"event"},{"inputs":[],"name":"ADDRESSES_PROVIDER","outputs":[{"internalType":"contract IPoolAddressesProvider","name":"","type":"address"}],"stateMutability":"view","type":"function"},{"inputs":[],"name":"BALANCER_VAULT","outputs":[{"internalType":"contract IVault","name":"","type":"address"}],"stateMutability":"view","type":"function"},{"inputs":[],"name":"BASIS_POINTS","outputs":[{"internalType":"uint256","name":"","type":"uint256"}],"stateMutability":"view","type":"function"},{"inputs":[],"name":"CURVE_REGISTRY","outputs":[{"internalType":"contract ICurveRegistry","name":"","type":"address"}],"stateMutability":"view","type":"function"},{"inputs":[],"name":"ETH_PRICE_USD","outputs":[{"internalType":"uint256","name":"","type":"uint256"}],"stateMutability":"view","type":"function"},{"inputs":[],"name":"MAX_FLASH_LOAN_AMOUNT","outputs":[{"internalType":"uint256","name":"","type":"uint256"}],"stateMutability":"view","type":"function"},{"inputs":[],"name":"MAX_GAS_COST_USD","outputs":[{"internalType":"uint256","name":"","type":"uint256"}],"stateMutability":"view","type":"function"},{"inputs":[],"name":"MIN_PROFIT_BASIS_POINTS","outputs":[{"internalType":"uint256","name":"","type":"uint256"}],"stateMutability":"view","type":"function"},{"inputs":[],"name":"SUSHISWAP_ROUTER","outputs":[{"internalType":"contract IUniswapV2Router","name":"","type":"address"}],"stateMutability":"view","type":"function"},{"inputs":[],"name":"UNISWAP_ROUTER","outputs":[{"internalType":"contract IUniswapV2Router","name":"","type":"address"}],"stateMutability":"view","type":"function"},{"inputs":[{"internalType":"address","name":"token","type":"address"}],"name":"emergencyWithdraw","outputs":[],"stateMutability":"nonpayable","type":"function"},{"inputs":[{"internalType":"uint256","name":"estimatedGasUnits","type":"uint256"},{"internalType":"uint256","name":"gasPriceGwei","type":"uint256"}],"name":"estimateGasCostUSD","outputs":[{"internalType":"uint256","name":"gasCostUSD","type":"uint256"}],"stateMutability":"pure","type":"function"},{"inputs":[{"internalType":"address","name":"asset","type":"address"},{"internalType":"uint256","name":"amount","type":"uint256"},{"internalType":"bytes","name":"params","type":"bytes"}],"name":"executeArbitrage","outputs":[],"stateMutability":"nonpayable","type":"function"},{"inputs":[{"internalType":"address[]","name":"tokens","type":"address[]"},{"internalType":"uint256[]","name":"amounts","type":"uint256[]"},{"internalType":"bytes","name":"params","type":"bytes"}],"name":"executeBalancerFlashLoan","outputs":[],"stateMutability":"nonpayable","type":"function"},{"inputs":[{"internalType":"address","name":"asset","type":"address"},{"internalType":"uint256","name":"amount","type":"uint256"},{"internalType":"uint256","name":"premium","type":"uint256"},{"internalType":"address","name":"initiator","type":"address"},{"internalType":"bytes","name":"params","type":"bytes"}],"name":"executeOperation","outputs":[{"internalType":"bool","name":"","type":"bool"}],"stateMutability":"nonpayable","type":"function"},{"inputs":[{"internalType":"uint256","name":"estimatedGasUnits","type":"uint256"}],"name":"getMaxGasPriceForLimit","outputs":[{"internalType":"uint256","name":"maxGasPriceGwei","type":"uint256"}],"stateMutability":"pure","type":"function"},{"inputs":[{"internalType":"uint256","name":"estimatedGasUnits","type":"uint256"},{"internalType":"uint256","name":"gasPriceGwei","type":"uint256"}],"name":"isGasCostAcceptable","outputs":[{"internalType":"bool","name":"acceptable","type":"bool"},{"internalType":"uint256","name":"gasCostUSD","type":"uint256"}],"stateMutability":"pure","type":"function"},{"inputs":[],"name":"owner","outputs":[{"internalType":"address","name":"","type":"address"}],"stateMutability":"view","type":"function"},{"inputs":[{"internalType":"address[]","name":"tokens","type":"address[]"},{"internalType":"uint256[]","name":"amounts","type":"uint256[]"},{"internalType":"uint256[]","name":"","type":"uint256[]"},{"internalType":"bytes","name":"userData","type":"bytes"}],"name":"receiveFlashLoan","outputs":[],"stateMutability":"nonpayable","type":"function"},{"inputs":[],"name":"renounceOwnership","outputs":[],"stateMutability":"nonpayable","type":"function"},{"inputs":[{"internalType":"address","name":"newOwner","type":"address"}],"name":"transferOwnership","outputs":[],"stateMutability":"nonpayable","type":"function"},{"inputs":[],"name":"withdrawETH","outputs":[],"stateMutability":"nonpayable","type":"function"},{"inputs":[{"internalType":"address","name":"token","type":"address"},{"internalType":"uint256","name":"amount","type":"uint256"}],"name":"withdrawToken","outputs":[],"stateMutability":"nonpayable","type":"function"},{"stateMutability":"payable","type":"receive"}],"evm":{"bytecode":{"linkReferences":{},"object":"6080806040523461007f57600160005533156100695760018054336001600160a01b03198216811790925560405191906001600160a01b03167f8be0079c531659141344cd1fd0a4f28419497f9722a3daafe3b4186f6b6457e0600080a36122ee90816100858239f35b631e4fbdf760e01b815260006004820152602490fd5b600080fdfe6080604090808252600480361015610022575b505050361561002057600080fd5b005b600091823560e01c9081630542975c1461108a5750806306ec9b9e1461106d5780631b11d0ff14610dff578063277754ed14610dd05780636e85962014610d6d5780636ff1c9bc14610ca0578063715018a614610c43578063720387cb14610c1d5780637c1d9539146109d25780637e8db6b3146109b65780638da5cb5b1461098d5780639e281a981461094d578063a852b22714610931578063b7ec8f26146108b1578063b942717b14610882578063bc16384614610853578063ce6a9f01146106a0578063d826492014610671578063e086e5ec14610621578063e1f1c4a714610604578063f04f270714610232578063f2fde38b1461019c5763f9b2d6aa036100125734610198576020366003190112610198576107d0813581810293918115918504141715610186575081156101715750633b9aca0060209251916801158e460913d0000004048152f35b601290634e487b7160e01b6000525260246000fd5b6011602492634e487b7160e01b835252fd5b5080fd5b5082903461022e57602036600319011261022e576101b86110b8565b906101c16112ad565b6001600160a01b03918216928315610218575050600154826bffffffffffffffffffffffff60a01b821617600155167f8be0079c531659141344cd1fd0a4f28419497f9722a3daafe3b4186f6b6457e0600080a380f35b51631e4fbdf760e01b8152908101849052602490fd5b8280fd5b509134610198576080366003190112610198578235916001600160401b03918284116101985736602385011215610198578385013591610271836111d6565b9261027e835194856111b5565b8084526020958685016024809360051b830101913683116105e05783899101915b8383106105ec5750505050803585811161022e576102c090369089016111ed565b9460449485358281116105e0576102da9036908b016111ed565b506064358281116105e0576102f29036908b01611266565b9373ba12222222228d8ba445958a75a0704d566bf2c894610314863314611493565b805181018a8101918b818303126105e8578b810151908682116105e0570191829161014092839103126105e85788519561034d8761117e565b6103588d850161142c565b87526103658a850161142c565b878e015260608401518a88015260808401518e8110156105e457606088015260a08401518e8110156105e457608088015260c08401518181116105e457828e6103b09287010161163e565b60a088015260e08401519081116105e057908c6103cf9285010161163e565b60c08601526101008281015160e08701526101208084015191870191909152910151908401526001600160a01b039261041e908461040c85611683565b51166104178b611683565b51906116dd565b1561059f578261042d83611683565b5116898b868951809481936370a0823160e01b835230908301525afa8015610595578290610561575b61048091506104706104678b611683565b518210156114d0565b6104798a611683565b519061151c565b9961048a89611683565b519060648202918083046064149015171561054f57506127106104b091048b1015611529565b805b825181101561050f57806105058b8b6104db84896104d361050a988b6116a6565b5116926116a6565b518b519263a9059cbb60e01b908401528a8a8401528c8301528b82526105008261119a565b6115b3565b611484565b6104b2565b50887f26f6bbbd455b9507bac0682b6ff4a332a2834a438d602a13bdb22d491d440f3c878c8661053e87611683565b51169382519182524290820152a280f35b634e487b7160e01b8352601190528482fd5b508981813d831161058e575b61057781836111b5565b81010312610589576104809051610456565b600080fd5b503d61056d565b87513d84823e3d90fd5b855162461bcd60e51b8152808b018a9052601a818601527f41726269747261676520657865637574696f6e206661696c656400000000000081890152606490fd5b8480fd5b8580fd5b8380fd5b81906105f7846110ce565b815201910190889061029f565b828434610198578160031936011261019857602090516127108152f35b82843461019857816003193601126101985761063b6112ad565b8180808060018060a01b03600154164790828215610668575bf11561065e575080f35b51903d90823e3d90fd5b506108fc610654565b82843461019857816003193601126101985760209051734752ba5dbc23f44d87826276bf6fd6b1c372ad248152f35b5034610198576003199260603685011261022e576001600160401b039382358581116105e0576106d39036908501611125565b95909160243582811161084f576106ed9036908701611125565b909260443590811161084b5761070690369088016110e2565b9190936107116112ad565b610719611461565b885b828110610825575073ba12222222228d8ba445958a75a0704d566bf2c893843b15610821578a885199632e1c224f60e11b8b5260848b019030908c0152608060248c01525260a48901968a9b5b808d106107f857505088870301604489015281865297985088976001600160fb1b0382116107f4576107bb88958694602086948d9a8b9760051b80928483013701601c8682030160648701520191611440565b03925af19081156107eb57506107d4575b506001905580f35b6107dd90611155565b6107e85780386107cc565b80fd5b513d84823e3d90fd5b8880fd5b90976001906001600160a01b0361080e8b6110ce565b168152602080910199019c019b90610768565b8980fd5b806105056a084595161401484a0000006108469360051b85013511156112d9565b61071b565b8780fd5b8680fd5b8284346101985781600319360112610198576020905173ba12222222228d8ba445958a75a0704d566bf2c88152f35b8284346101985781600319360112610198576020905173f98b45fa17de75fb1ad0e7afd971b0ca00e379fc8152f35b5090346107e8576108c13661110f565b90633b9aca009182810292818404149015171561091e57906108e291611403565b916107d09283810293818504149015171561090b57602083670de0b6b3a7640000865191048152f35b634e487b7160e01b825260119052602490fd5b634e487b7160e01b835260118452602483fd5b8284346101985781600319360112610198576020905160148152f35b828434610198573660031901126107e85761098a6109696110b8565b6109716112ad565b600154602435916001600160a01b039182169116611575565b80f35b82843461019857816003193601126101985760015490516001600160a01b039091168152602090f35b8284346101985781600319360112610198576020905160648152f35b50823461022e57606036600319011261022e576109ed6110b8565b91602435926044356001600160401b0381116105e457610a1090369084016110e2565b9190610a1a6112ad565b610a22611461565b610a396a084595161401484a0000008711156112d9565b610a4583820182611325565b610a556101208201513a90611403565b6107d090818102918183041490151715610c0a57670de0b6b3a76400006014910411610bc75761010001513a11610b8457845163026b1d5f60e01b815287949093929190602085828173e20fcbdbffc4dd138ce8b2e6fbb6cb49777ad64d5afa948515610b7a578695610b3f575b506001600160a01b0394851693843b1561084f578692610b119189519a8b98899788966310ac2ddf60e21b88523090880152166024860152604485015260a0606485015260a4840191611440565b82608483015203925af19081156107eb5750610b30575b506001815580f35b610b3990611155565b81610b28565b9094506020813d8211610b72575b81610b5a602093836111b5565b810103126105e457610b6b9061142c565b9389610ac3565b3d9150610b4d565b87513d88823e3d90fd5b845162461bcd60e51b8152602081860152601c60248201527f47617320707269636520657863656564732075736572206c696d6974000000006044820152606490fd5b855162461bcd60e51b8152602081870152601c60248201527f47617320636f7374206578636565647320243230206d6178696d756d000000006044820152606490fd5b634e487b7160e01b895260118652602489fd5b828434610198578160031936011261019857602090516a084595161401484a0000008152f35b82346107e857806003193601126107e857610c5c6112ad565b600180546001600160a01b0319811690915581906001600160a01b03167f8be0079c531659141344cd1fd0a4f28419497f9722a3daafe3b4186f6b6457e08280a380f35b50823461022e57602036600319011261022e5782610cbc6110b8565b92610cc56112ad565b6001600160a01b0393841680610cf3575050808080939460015416479082821561066857f11561065e575080f35b91509260015416908251936370a0823160e01b85523090850152602084602481845afa928315610d6457508492610d2f575b61098a9350611575565b91506020833d8211610d5c575b81610d49602093836111b5565b810103126105e85761098a925191610d25565b3d9150610d3c565b513d86823e3d90fd5b5090346107e857610d7d3661110f565b90633b9aca009182810292818404149015171561091e5790610d9e91611403565b916107d09283810293818504149015171561090b5783670de0b6b3a76400008404815190601481111582526020820152f35b82843461019857816003193601126101985760209051736bded42c6da8fbf0d2ba55b2fa120c5e0c8d78918152f35b5082903461022e5760a036600319011261022e57610e1b6110b8565b6064356001600160a01b0381811695926024359260443591908890036105e0576084356001600160401b0381116105e457610e5990369088016110e2565b885163026b1d5f60e01b815260209a908b818b8173e20fcbdbffc4dd138ce8b2e6fbb6cb49777ad64d5afa80156110635787908a9061102b575b610ea09250163314611493565b3003610ff45781610eb691610ebd930190611325565b85836116dd565b9282850191828611610fe157169587516370a0823160e01b8152308282015289816024818b5afa8015610fd75783908890610fa6575b610f099250610f04828210156114d0565b61151c565b9560648602918683046064148715171561090b57505087947f26f6bbbd455b9507bac0682b6ff4a332a2834a438d602a13bdb22d491d440f3c96948894610f847fe7055bb7f757aae8cfbf6ea2247e26371914425f5500c1d720f0746ae1ff880395610f7d612710606097048a1015611529565b3388611575565b87519283528b830152151586820152a281519081524286820152a25160018152f35b50508981813d8311610fd0575b610fbd81836111b5565b8101031261084f5782610f099151610ef3565b503d610fb3565b89513d89823e3d90fd5b634e487b7160e01b875260118852602487fd5b885162461bcd60e51b81528089018b9052601160248201527024b73b30b634b21034b734ba34b0ba37b960791b6044820152606490fd5b50508b81813d831161105c575b61104281836111b5565b810103126107f45786611057610ea09261142c565b610e93565b503d611038565b8b513d8b823e3d90fd5b828434610198578160031936011261019857602090516107d08152f35b8390346101985781600319360112610198578073e20fcbdbffc4dd138ce8b2e6fbb6cb49777ad64d60209252f35b600435906001600160a01b038216820361058957565b35906001600160a01b038216820361058957565b9181601f84011215610589578235916001600160401b038311610589576020838186019501011161058957565b6040906003190112610589576004359060243590565b9181601f84011215610589578235916001600160401b038311610589576020808501948460051b01011161058957565b6001600160401b03811161116857604052565b634e487b7160e01b600052604160045260246000fd5b61014081019081106001600160401b0382111761116857604052565b608081019081106001600160401b0382111761116857604052565b90601f801991011681019081106001600160401b0382111761116857604052565b6001600160401b0381116111685760051b60200190565b81601f8201121561058957803591611204836111d6565b9261121260405194856111b5565b808452602092838086019260051b820101928311610589578301905b82821061123c575050505090565b8135815290830190830161122e565b6001600160401b03811161116857601f01601f191660200190565b81601f820112156105895780359061127d8261124b565b9261128b60405194856111b5565b8284526020838301011161058957816000926020809301838601378301015290565b6001546001600160a01b031633036112c157565b60405163118cdaa760e01b8152336004820152602490fd5b156112e057565b60405162461bcd60e51b815260206004820152601960248201527f416d6f756e742065786365656473202431304d206c696d6974000000000000006044820152606490fd5b6020818303126105895780356001600160401b039182821161058957019061014082840312610589576040519261135b8461117e565b611364836110ce565b8452611372602084016110ce565b602085015260408301356040850152606083013560048110156105895760608501526080830135600481101561058957608085015260a083013582811161058957816113bf918501611266565b60a085015260c0830135918211610589576113db918301611266565b60c083015260e081013560e08301526101008082013590830152610120809101359082015290565b8181029291811591840414171561141657565b634e487b7160e01b600052601160045260246000fd5b51906001600160a01b038216820361058957565b908060209392818452848401376000828201840152601f01601f1916010190565b600260005414611472576002600055565b604051633ee5aeb560e01b8152600490fd5b60001981146114165760010190565b1561149a57565b60405162461bcd60e51b815260206004820152600e60248201526d24b73b30b634b21031b0b63632b960911b6044820152606490fd5b156114d757565b60405162461bcd60e51b815260206004820152601d60248201527f496e73756666696369656e742062616c616e636520746f2072657061790000006044820152606490fd5b9190820391821161141657565b1561153057565b60405162461bcd60e51b815260206004820152601960248201527f50726f6669742062656c6f77203125207468726573686f6c64000000000000006044820152606490fd5b60405163a9059cbb60e01b60208201526001600160a01b039290921660248301526044808301939093529181526115b1916105006064836111b5565b565b906000602091828151910182855af11561160f576000513d61160657506001600160a01b0381163b155b6115e45750565b604051635274afe760e01b81526001600160a01b039091166004820152602490fd5b600114156115dd565b6040513d6000823e3d90fd5b60005b83811061162e5750506000910152565b818101518382015260200161161e565b81601f820112156105895780516116548161124b565b9261166260405194856111b5565b8184526020828401011161058957611680916020808501910161161b565b90565b8051156116905760200190565b634e487b7160e01b600052603260045260246000fd5b80518210156116905760209160051b010190565b9060048210156116c75752565b634e487b7160e01b600052602160045260246000fd5b6060830191825191600492838110156117e65790611701918360a088015192611852565b60208501805160808701805192959390926001600160a01b03928316918582101561183d5790611737929160c08b015192611852565b846000918181116000146118355761174f925061151c565b965b60e081015188106117fb578180915116955116955191838310156117e6575192808410156117d157506080926117c17f99f5f2282ea6a09a6f4eca16f69a79543bd628094c28102155974b489b01959a95936117cb936001541699604051958652602086015260408501906116ba565b60608301906116ba565ba4600190565b602190634e487b7160e01b6000525260246000fd5b602184634e487b7160e01b6000525260246000fd5b60405162461bcd60e51b81526020818601526013602482015272125b9cdd59999a58da595b9d081c1c9bd99a5d606a1b6044820152606490fd5b505096611751565b602186634e487b7160e01b6000525260246000fd5b9093929160048110156116c75780611ad45750815182019160209081818503126105895781810151906001600160401b03948583116105895761189b9284809201920101612244565b60405163095ea7b360e01b838201818152734752ba5dbc23f44d87826276bf6fd6b1c372ad246024840181905260448085018b9052845290986001600160a01b039691949390929187166118ee8261119a565b866000809c84519082855af18b513d82611ab8575b505015611a82575b50505061012c420190814211611a6e57918893916040519687946338ed173960e01b865260a4860190600487015286602487015260a0604487015283518091528760c4870194019187905b89838310611a4e5750505050508380928692306064840152608483015203925af1928315611a435785936119ba575b50508151600019810192915082116119a6576119a29293506116a6565b5190565b634e487b7160e01b84526011600452602484fd5b909192503d8086853e6119cd81856111b5565b83019282818503126105e45780519182116105e457019180601f840112156105e05782516119fa816111d6565b93611a0860405195866111b5565b818552838086019260051b82010192831161084f578301905b828210611a345750505050388080611985565b81518152908301908301611a21565b6040513d87823e3d90fd5b8451821687528e99508b9850958601959390930192600190910190611956565b634e487b7160e01b89526011600452602489fd5b610500611ab09360405190898201528760248201528c604482015260448152611aaa8161119a565b826115b3565b38808061190b565b909150611acc5750803b15155b3880611903565b600114611ac5565b60018103611d0e5750815182019160209081818503126105895781810151906001600160401b039485831161058957611b139284809201920101612244565b60405163095ea7b360e01b838201818152736bded42c6da8fbf0d2ba55b2fa120c5e0c8d78916024840181905260448085018b9052845290986001600160a01b03969194939092918716611b668261119a565b866000809c84519082855af18b513d82611cf2575b505015611cc2575b50505061012c420190814211611a6e57918893916040519687946338ed173960e01b865260a4860190600487015286602487015260a0604487015283518091528760c4870194019187905b89838310611ca25750505050508380928692306064840152608483015203925af1928315611a43578593611c195750508151600019810192915082116119a6576119a29293506116a6565b909192503d8086853e611c2c81856111b5565b83019282818503126105e45780519182116105e457019180601f840112156105e0578251611c59816111d6565b93611c6760405195866111b5565b818552838086019260051b82010192831161084f578301905b828210611c935750505050388080611985565b81518152908301908301611c80565b8451821687528e99508b9850958601959390930192600190910190611bce565b610500611cea9360405190898201528760248201528c604482015260448152611aaa8161119a565b388080611b83565b909150611d065750803b15155b3880611b7b565b600114611cff565b60028195929394951460001461205f5750825183016020848203126105895760208401516001600160401b039485821161058957019060408282031261058957604051916040830183811087821117611168576040526020810151835260408101519186831161058957611d89926020809201920101612244565b602082810191825260405163095ea7b360e01b81830181815273ba12222222228d8ba445958a75a0704d566bf2c860248401526044808401889052835293966001600160a01b03169493909290600090611de28461119a565b83519082885af16000513d82612043575b505015611ff2575b505051925180516000198101908111611416576001600160a01b0391611e2191906116a6565b5116906040519360c0850185811087821117611168576040528452600060208501526040840152606083015260808201526040516040810181811084821117611168576040526002815261060f60f31b602082015260a08201526040519160808301908382109082111761116857604052308252600060208301523060408301526000606083015261012c42014211611416576040516352bbbe2960e01b815260e06004820152815160e48201526020820151909260028210156116c7578360a06020948294610104840152600180831b03604082015116610124840152600180831b03606082015116610144840152608081015161016484015201519160c06101848301526060835191826101a4850152611f46836101c49689888801910161161b565b60018060a01b038151166024850152868101511515604485015260018060a01b036040820151166064850152015115156084830152600060a483015261012c420160c4830152601f80199101168101030181600073ba12222222228d8ba445958a75a0704d566bf2c85af190811561160f57600091611fc3575090565b90506020813d602011611fea575b81611fde602093836111b5565b81010312610589575190565b3d9150611fd1565b61203661203c9260405190602082015273ba12222222228d8ba445958a75a0704d566bf2c8602482015260006044820152604481526120308161119a565b856115b3565b836115b3565b3880611dfb565b9091506120575750833b15155b3880611df3565b600114612050565b919290916003146120a15760405162461bcd60e51b815260206004820152600f60248201526e0aadce6eae0e0dee4e8cac840888ab608b1b6044820152606490fd5b6060818051810103126105895760409283519060608201928284106001600160401b03851117611168576084938652602093849384936120e285850161142c565b9081835261210360606120f68c88016122aa565b96888601978852016122aa565b838b019081528a5163095ea7b360e01b8882018181526001600160a01b039586166024840181905260448085018f90528452939690959490939291908516908e9061214f6064856111b5565b60009d8e809986519082875af188513d82612228575b5050156121f8575b50505050505116935191519389519889958694630f7c084960e21b8652600f0b6004860152600f0b602485015260448401528160648401525af19384156121ed575081936121bc575b50505090565b9091809350813d83116121e6575b6121d481836111b5565b810103126107e85750513880806121b6565b503d6121ca565b51913d9150823e3d90fd5b61221e946105009251918d830152602482015287604482015260448152611aaa8161119a565b3880808d8161216d565b90915061223c5750823b15155b3880612165565b600114612235565b81601f820112156105895780519161225b836111d6565b9261226960405194856111b5565b808452602092838086019260051b820101928311610589578301905b828210612293575050505090565b83809161229f8461142c565b815201910190612285565b519081600f0b82036105895756fea2646970667358221220047c56f55483bcb92362dec44b3b3d1cf4df15976a3937fde9772a05c3f3c29f64736f6c63430008140033","opcodes":"PUSH1 0x80 DUP1 PUSH1 0x40 MSTORE CALLVALUE PUSH2 0x7F JUMPI PUSH1 0x1 PUSH1 0x0 SSTORE CALLER ISZERO PUSH2 0x69 JUMPI PUSH1 0x1 DUP1 SLOAD CALLER PUSH1 0x1 PUSH1 0x1 PUSH1 0xA0 SHL SUB NOT DUP3 AND DUP2 OR SWAP1 SWAP3 SSTORE PUSH1 0x40 MLOAD SWAP2 SWAP1 PUSH1 0x1 PUSH1 0x1 PUSH1 0xA0 SHL SUB AND PUSH32 0x8BE0079C531659141344CD1FD0A4F28419497F9722A3DAAFE3B4186F6B6457E0 PUSH1 0x0 DUP1 LOG3 PUSH2 0x22EE SWAP1 DUP2 PUSH2 0x85 DUP3 CODECOPY RETURN JUMPDEST PUSH4 0x1E4FBDF7 PUSH1 0xE0 SHL DUP2 MSTORE PUSH1 0x0 PUSH1 0x4 DUP3 ADD MSTORE PUSH1 0x24 SWAP1 REVERT JUMPDEST PUSH1 0x0 DUP1 REVERT INVALID PUSH1 0x80 PUSH1 0x40 SWAP1 DUP1 DUP3 MSTORE PUSH1 0x4 DUP1 CALLDATASIZE LT ISZERO PUSH2 0x22 JUMPI JUMPDEST POP POP POP CALLDATASIZE ISZERO PUSH2 0x20 JUMPI PUSH1 0x0 DUP1 REVERT JUMPDEST STOP JUMPDEST PUSH1 0x0 SWAP2 DUP3 CALLDATALOAD PUSH1 0xE0 SHR SWAP1 DUP2 PUSH4 0x542975C EQ PUSH2 0x108A JUMPI POP DUP1 PUSH4 0x6EC9B9E EQ PUSH2 0x106D JUMPI DUP1 PUSH4 0x1B11D0FF EQ PUSH2 0xDFF JUMPI DUP1 PUSH4 0x277754ED EQ PUSH2 0xDD0 JUMPI DUP1 PUSH4 0x6E859620 EQ PUSH2 0xD6D JUMPI DUP1 PUSH4 0x6FF1C9BC EQ PUSH2 0xCA0 JUMPI DUP1 PUSH4 0x715018A6 EQ PUSH2 0xC43 JUMPI DUP1 PUSH4 0x720387CB EQ PUSH2 0xC1D JUMPI DUP1 PUSH4 0x7C1D9539 EQ PUSH2 0x9D2 JUMPI DUP1 PUSH4 0x7E8DB6B3 EQ PUSH2 0x9B6 JUMPI DUP1 PUSH4 0x8DA5CB5B EQ PUSH2 0x98D JUMPI DUP1 PUSH4 0x9E281A98 EQ PUSH2 0x94D JUMPI DUP1 PUSH4 0xA852B227 EQ PUSH2 0x931 JUMPI DUP1 PUSH4 0xB7EC8F26 EQ PUSH2 0x8B1 JUMPI DUP1 PUSH4 0xB942717B EQ PUSH2 0x882 JUMPI DUP1 PUSH4 0xBC163846 EQ PUSH2 0x853 JUMPI DUP1 PUSH4 0xCE6A9F01 EQ PUSH2 0x6A0 JUMPI DUP1 PUSH4 0xD8264920 EQ PUSH2 0x671 JUMPI DUP1 PUSH4 0xE086E5EC EQ PUSH2 0x621 JUMPI DUP1 PUSH4 0xE1F1C4A7 EQ PUSH2 0x604 JUMPI DUP1 PUSH4 0xF04F2707 EQ PUSH2 0x232 JUMPI DUP1 PUSH4 0xF2FDE38B EQ PUSH2 0x19C JUMPI PUSH4 0xF9B2D6AA SUB PUSH2 0x12 JUMPI CALLVALUE PUSH2 0x198 JUMPI PUSH1 0x20 CALLDATASIZE PUSH1 0x3 NOT ADD SLT PUSH2 0x198 JUMPI PUSH2 0x7D0 DUP2 CALLDATALOAD DUP2 DUP2 MUL SWAP4 SWAP2 DUP2 ISZERO SWAP2 DUP6 DIV EQ OR ISZERO PUSH2 0x186 JUMPI POP DUP2 ISZERO PUSH2 0x171 JUMPI POP PUSH4 0x3B9ACA00 PUSH1 0x20 SWAP3 MLOAD SWAP2 PUSH9 0x1158E460913D00000 DIV DIV DUP2 MSTORE RETURN JUMPDEST PUSH1 0x12 SWAP1 PUSH4 0x4E487B71 PUSH1 0xE0 SHL PUSH1 0x0 MSTORE MSTORE PUSH1 0x24 PUSH1 0x0 REVERT JUMPDEST PUSH1 0x11 PUSH1 0x24 SWAP3 PUSH4 0x4E487B71 PUSH1 0xE0 SHL DUP4 MSTORE MSTORE REVERT JUMPDEST POP DUP1 REVERT JUMPDEST POP DUP3 SWAP1 CALLVALUE PUSH2 0x22E JUMPI PUSH1 0x20 CALLDATASIZE PUSH1 0x3 NOT ADD SLT PUSH2 0x22E JUMPI PUSH2 0x1B8 PUSH2 0x10B8 JUMP JUMPDEST SWAP1 PUSH2 0x1C1 PUSH2 0x12AD JUMP JUMPDEST PUSH1 0x1 PUSH1 0x1 PUSH1 0xA0 SHL SUB SWAP2 DUP3 AND SWAP3 DUP4 ISZERO PUSH2 0x218 JUMPI POP POP PUSH1 0x1 SLOAD DUP3 PUSH12 0xFFFFFFFFFFFFFFFFFFFFFFFF PUSH1 0xA0 SHL DUP3 AND OR PUSH1 0x1 SSTORE AND PUSH32 0x8BE0079C531659141344CD1FD0A4F28419497F9722A3DAAFE3B4186F6B6457E0 PUSH1 0x0 DUP1 LOG3 DUP1 RETURN JUMPDEST MLOAD PUSH4 0x1E4FBDF7 PUSH1 0xE0 SHL DUP2 MSTORE SWAP1 DUP2 ADD DUP5 SWAP1 MSTORE PUSH1 0x24 SWAP1 REVERT JUMPDEST DUP3 DUP1 REVERT JUMPDEST POP SWAP2 CALLVALUE PUSH2 0x198 JUMPI PUSH1 0x80 CALLDATASIZE PUSH1 0x3 NOT ADD SLT PUSH2 0x198 JUMPI DUP3 CALLDATALOAD SWAP2 PUSH1 0x1 PUSH1 0x1 PUSH1 0x40 SHL SUB SWAP2 DUP3 DUP5 GT PUSH2 0x198 JUMPI CALLDATASIZE PUSH1 0x23 DUP6 ADD SLT ISZERO PUSH2 0x198 JUMPI DUP4 DUP6 ADD CALLDATALOAD SWAP2 PUSH2 0x271 DUP4 PUSH2 0x11D6 JUMP JUMPDEST SWAP3 PUSH2 0x27E DUP4 MLOAD SWAP5 DUP6 PUSH2 0x11B5 JUMP JUMPDEST DUP1 DUP5 MSTORE PUSH1 0x20 SWAP6 DUP7 DUP6 ADD PUSH1 0x24 DUP1 SWAP4 PUSH1 0x5 SHL DUP4 ADD ADD SWAP2 CALLDATASIZE DUP4 GT PUSH2 0x5E0 JUMPI DUP4 DUP10 SWAP2 ADD SWAP2 JUMPDEST DUP4 DUP4 LT PUSH2 0x5EC JUMPI POP POP POP POP DUP1 CALLDATALOAD DUP6 DUP2 GT PUSH2 0x22E JUMPI PUSH2 0x2C0 SWAP1 CALLDATASIZE SWAP1 DUP10 ADD PUSH2 0x11ED JUMP JUMPDEST SWAP5 PUSH1 0x44 SWAP5 DUP6 CALLDATALOAD DUP3 DUP2 GT PUSH2 0x5E0 JUMPI PUSH2 0x2DA SWAP1 CALLDATASIZE SWAP1 DUP12 ADD PUSH2 0x11ED JUMP JUMPDEST POP PUSH1 0x64 CALLDATALOAD DUP3 DUP2 GT PUSH2 0x5E0 JUMPI PUSH2 0x2F2 SWAP1 CALLDATASIZE SWAP1 DUP12 ADD PUSH2 0x1266 JUMP JUMPDEST SWAP4 PUSH20 0xBA12222222228D8BA445958A75A0704D566BF2C8 SWAP5 PUSH2 0x314 DUP7 CALLER EQ PUSH2 0x1493 JUMP JUMPDEST DUP1 MLOAD DUP2 ADD DUP11 DUP2 ADD SWAP2 DUP12 DUP2 DUP4 SUB SLT PUSH2 0x5E8 JUMPI DUP12 DUP2 ADD MLOAD SWAP1 DUP7 DUP3 GT PUSH2 0x5E0 JUMPI ADD SWAP2 DUP3 SWAP2 PUSH2 0x140 SWAP3 DUP4 SWAP2 SUB SLT PUSH2 0x5E8 JUMPI DUP9 MLOAD SWAP6 PUSH2 0x34D DUP8 PUSH2 0x117E JUMP JUMPDEST PUSH2 0x358 DUP14 DUP6 ADD PUSH2 0x142C JUMP JUMPDEST DUP8 MSTORE PUSH2 0x365 DUP11 DUP6 ADD PUSH2 0x142C JUMP JUMPDEST DUP8 DUP15 ADD MSTORE PUSH1 0x60 DUP5 ADD MLOAD DUP11 DUP9 ADD MSTORE PUSH1 0x80 DUP5 ADD MLOAD DUP15 DUP2 LT ISZERO PUSH2 0x5E4 JUMPI PUSH1 0x60 DUP9 ADD MSTORE PUSH1 0xA0 DUP5 ADD MLOAD DUP15 DUP2 LT ISZERO PUSH2 0x5E4 JUMPI PUSH1 0x80 DUP9 ADD MSTORE PUSH1 0xC0 DUP5 ADD MLOAD DUP2 DUP2 GT PUSH2 0x5E4 JUMPI DUP3 DUP15 PUSH2 0x3B0 SWAP3 DUP8 ADD ADD PUSH2 0x163E JUMP JUMPDEST PUSH1 0xA0 DUP9 ADD MSTORE PUSH1 0xE0 DUP5 ADD MLOAD SWAP1 DUP2 GT PUSH2 0x5E0 JUMPI SWAP1 DUP13 PUSH2 0x3CF SWAP3 DUP6 ADD ADD PUSH2 0x163E JUMP JUMPDEST PUSH1 0xC0 DUP7 ADD MSTORE PUSH2 0x100 DUP3 DUP2 ADD MLOAD PUSH1 0xE0 DUP8 ADD MSTORE PUSH2 0x120 DUP1 DUP5 ADD MLOAD SWAP2 DUP8 ADD SWAP2 SWAP1 SWAP2 MSTORE SWAP2 ADD MLOAD SWAP1 DUP5 ADD MSTORE PUSH1 0x1 PUSH1 0x1 PUSH1 0xA0 SHL SUB SWAP3 PUSH2 0x41E SWAP1 DUP5 PUSH2 0x40C DUP6 PUSH2 0x1683 JUMP JUMPDEST MLOAD AND PUSH2 0x417 DUP12 PUSH2 0x1683 JUMP JUMPDEST MLOAD SWAP1 PUSH2 0x16DD JUMP JUMPDEST ISZERO PUSH2 0x59F JUMPI DUP3 PUSH2 0x42D DUP4 PUSH2 0x1683 JUMP JUMPDEST MLOAD AND DUP10 DUP12 DUP7 DUP10 MLOAD DUP1 SWAP5 DUP2 SWAP4 PUSH4 0x70A08231 PUSH1 0xE0 SHL DUP4 MSTORE ADDRESS SWAP1 DUP4 ADD MSTORE GAS STATICCALL DUP1 ISZERO PUSH2 0x595 JUMPI DUP3 SWAP1 PUSH2 0x561 JUMPI JUMPDEST PUSH2 0x480 SWAP2 POP PUSH2 0x470 PUSH2 0x467 DUP12 PUSH2 0x1683 JUMP JUMPDEST MLOAD DUP3 LT ISZERO PUSH2 0x14D0 JUMP JUMPDEST PUSH2 0x479 DUP11 PUSH2 0x1683 JUMP JUMPDEST MLOAD SWAP1 PUSH2 0x151C JUMP JUMPDEST SWAP10 PUSH2 0x48A DUP10 PUSH2 0x1683 JUMP JUMPDEST MLOAD SWAP1 PUSH1 0x64 DUP3 MUL SWAP2 DUP1 DUP4 DIV PUSH1 0x64 EQ SWAP1 ISZERO OR ISZERO PUSH2 0x54F JUMPI POP PUSH2 0x2710 PUSH2 0x4B0 SWAP2 DIV DUP12 LT ISZERO PUSH2 0x1529 JUMP JUMPDEST DUP1 JUMPDEST DUP3 MLOAD DUP2 LT ISZERO PUSH2 0x50F JUMPI DUP1 PUSH2 0x505 DUP12 DUP12 PUSH2 0x4DB DUP5 DUP10 PUSH2 0x4D3 PUSH2 0x50A SWAP9 DUP12 PUSH2 0x16A6 JUMP JUMPDEST MLOAD AND SWAP3 PUSH2 0x16A6 JUMP JUMPDEST MLOAD DUP12 MLOAD SWAP3 PUSH4 0xA9059CBB PUSH1 0xE0 SHL SWAP1 DUP5 ADD MSTORE DUP11 DUP11 DUP5 ADD MSTORE DUP13 DUP4 ADD MSTORE DUP12 DUP3 MSTORE PUSH2 0x500 DUP3 PUSH2 0x119A JUMP JUMPDEST PUSH2 0x15B3 JUMP JUMPDEST PUSH2 0x1484 JUMP JUMPDEST PUSH2 0x4B2 JUMP JUMPDEST POP DUP9 PUSH32 0x26F6BBBD455B9507BAC0682B6FF4A332A2834A438D602A13BDB22D491D440F3C DUP8 DUP13 DUP7 PUSH2 0x53E DUP8 PUSH2 0x1683 JUMP JUMPDEST MLOAD AND SWAP4 DUP3 MLOAD SWAP2 DUP3 MSTORE TIMESTAMP SWAP1 DUP3 ADD MSTORE LOG2 DUP1 RETURN JUMPDEST PUSH4 0x4E487B71 PUSH1 0xE0 SHL DUP4 MSTORE PUSH1 0x11 SWAP1 MSTORE DUP5 DUP3 REVERT JUMPDEST POP DUP10 DUP2 DUP2 RETURNDATASIZE DUP4 GT PUSH2 0x58E JUMPI JUMPDEST PUSH2 0x577 DUP2 DUP4 PUSH2 0x11B5 JUMP JUMPDEST DUP2 ADD SUB SLT PUSH2 0x589 JUMPI PUSH2 0x480 SWAP1 MLOAD PUSH2 0x456 JUMP JUMPDEST PUSH1 0x0 DUP1 REVERT JUMPDEST POP RETURNDATASIZE PUSH2 0x56D JUMP JUMPDEST DUP8 MLOAD RETURNDATASIZE DUP5 DUP3 RETURNDATACOPY RETURNDATASIZE SWAP1 REVERT JUMPDEST DUP6 MLOAD PUSH3 0x461BCD PUSH1 0xE5 SHL DUP2 MSTORE DUP1 DUP12 ADD DUP11 SWAP1 MSTORE PUSH1 0x1A DUP2 DUP7 ADD MSTORE PUSH32 0x41726269747261676520657865637574696F6E206661696C6564000000000000 DUP2 DUP10 ADD MSTORE PUSH1 0x64 SWAP1 REVERT JUMPDEST DUP5 DUP1 REVERT JUMPDEST DUP6 DUP1 REVERT JUMPDEST DUP4 DUP1 REVERT JUMPDEST DUP2 SWAP1 PUSH2 0x5F7 DUP5 PUSH2 0x10CE JUMP JUMPDEST DUP2 MSTORE ADD SWAP2 ADD SWAP1 DUP9 SWAP1 PUSH2 0x29F JUMP JUMPDEST DUP3 DUP5 CALLVALUE PUSH2 0x198 JUMPI DUP2 PUSH1 0x3 NOT CALLDATASIZE ADD SLT PUSH2 0x198 JUMPI PUSH1 0x20 SWAP1 MLOAD PUSH2 0x2710 DUP2 MSTORE RETURN JUMPDEST DUP3 DUP5 CALLVALUE PUSH2 0x198 JUMPI DUP2 PUSH1 0x3 NOT CALLDATASIZE ADD SLT PUSH2 0x198 JUMPI PUSH2 0x63B PUSH2 0x12AD JUMP JUMPDEST DUP2 DUP1 DUP1 DUP1 PUSH1 0x1 DUP1 PUSH1 0xA0 SHL SUB PUSH1 0x1 SLOAD AND SELFBALANCE SWAP1 DUP3 DUP3 ISZERO PUSH2 0x668 JUMPI JUMPDEST CALL ISZERO PUSH2 0x65E JUMPI POP DUP1 RETURN JUMPDEST MLOAD SWAP1 RETURNDATASIZE SWAP1 DUP3 RETURNDATACOPY RETURNDATASIZE SWAP1 REVERT JUMPDEST POP PUSH2 0x8FC PUSH2 0x654 JUMP JUMPDEST DUP3 DUP5 CALLVALUE PUSH2 0x198 JUMPI DUP2 PUSH1 0x3 NOT CALLDATASIZE ADD SLT PUSH2 0x198 JUMPI PUSH1 0x20 SWAP1 MLOAD PUSH20 0x4752BA5DBC23F44D87826276BF6FD6B1C372AD24 DUP2 MSTORE RETURN JUMPDEST POP CALLVALUE PUSH2 0x198 JUMPI PUSH1 0x3 NOT SWAP3 PUSH1 0x60 CALLDATASIZE DUP6 ADD SLT PUSH2 0x22E JUMPI PUSH1 0x1 PUSH1 0x1 PUSH1 0x40 SHL SUB SWAP4 DUP3 CALLDATALOAD DUP6 DUP2 GT PUSH2 0x5E0 JUMPI PUSH2 0x6D3 SWAP1 CALLDATASIZE SWAP1 DUP6 ADD PUSH2 0x1125 JUMP JUMPDEST SWAP6 SWAP1 SWAP2 PUSH1 0x24 CALLDATALOAD DUP3 DUP2 GT PUSH2 0x84F JUMPI PUSH2 0x6ED SWAP1 CALLDATASIZE SWAP1 DUP8 ADD PUSH2 0x1125 JUMP JUMPDEST SWAP1 SWAP3 PUSH1 0x44 CALLDATALOAD SWAP1 DUP2 GT PUSH2 0x84B JUMPI PUSH2 0x706 SWAP1 CALLDATASIZE SWAP1 DUP9 ADD PUSH2 0x10E2 JUMP JUMPDEST SWAP2 SWAP1 SWAP4 PUSH2 0x711 PUSH2 0x12AD JUMP JUMPDEST PUSH2 0x719 PUSH2 0x1461 JUMP JUMPDEST DUP9 JUMPDEST DUP3 DUP2 LT PUSH2 0x825 JUMPI POP PUSH20 0xBA12222222228D8BA445958A75A0704D566BF2C8 SWAP4 DUP5 EXTCODESIZE ISZERO PUSH2 0x821 JUMPI DUP11 DUP9 MLOAD SWAP10 PUSH4 0x2E1C224F PUSH1 0xE1 SHL DUP12 MSTORE PUSH1 0x84 DUP12 ADD SWAP1 ADDRESS SWAP1 DUP13 ADD MSTORE PUSH1 0x80 PUSH1 0x24 DUP13 ADD MSTORE MSTORE PUSH1 0xA4 DUP10 ADD SWAP7 DUP11 SWAP12 JUMPDEST DUP1 DUP14 LT PUSH2 0x7F8 JUMPI POP POP DUP9 DUP8 SUB ADD PUSH1 0x44 DUP10 ADD MSTORE DUP2 DUP7 MSTORE SWAP8 SWAP9 POP DUP9 SWAP8 PUSH1 0x1 PUSH1 0x1 PUSH1 0xFB SHL SUB DUP3 GT PUSH2 0x7F4 JUMPI PUSH2 0x7BB DUP9 SWAP6 DUP7 SWAP5 PUSH1 0x20 DUP7 SWAP5 DUP14 SWAP11 DUP12 SWAP8 PUSH1 0x5 SHL DUP1 SWAP3 DUP5 DUP4 ADD CALLDATACOPY ADD PUSH1 0x1C DUP7 DUP3 SUB ADD PUSH1 0x64 DUP8 ADD MSTORE ADD SWAP2 PUSH2 0x1440 JUMP JUMPDEST SUB SWAP3 GAS CALL SWAP1 DUP2 ISZERO PUSH2 0x7EB JUMPI POP PUSH2 0x7D4 JUMPI JUMPDEST POP PUSH1 0x1 SWAP1 SSTORE DUP1 RETURN JUMPDEST PUSH2 0x7DD SWAP1 PUSH2 0x1155 JUMP JUMPDEST PUSH2 0x7E8 JUMPI DUP1 CODESIZE PUSH2 0x7CC JUMP JUMPDEST DUP1 REVERT JUMPDEST MLOAD RETURNDATASIZE DUP5 DUP3 RETURNDATACOPY RETURNDATASIZE SWAP1 REVERT JUMPDEST DUP9 DUP1 REVERT JUMPDEST SWAP1 SWAP8 PUSH1 0x1 SWAP1 PUSH1 0x1 PUSH1 0x1 PUSH1 0xA0 SHL SUB PUSH2 0x80E DUP12 PUSH2 0x10CE JUMP JUMPDEST AND DUP2 MSTORE PUSH1 0x20 DUP1 SWAP2 ADD SWAP10 ADD SWAP13 ADD SWAP12 SWAP1 PUSH2 0x768 JUMP JUMPDEST DUP10 DUP1 REVERT JUMPDEST DUP1 PUSH2 0x505 PUSH11 0x84595161401484A000000 PUSH2 0x846 SWAP4 PUSH1 0x5 SHL DUP6 ADD CALLDATALOAD GT ISZERO PUSH2 0x12D9 JUMP JUMPDEST PUSH2 0x71B JUMP JUMPDEST DUP8 DUP1 REVERT JUMPDEST DUP7 DUP1 REVERT JUMPDEST DUP3 DUP5 CALLVALUE PUSH2 0x198 JUMPI DUP2 PUSH1 0x3 NOT CALLDATASIZE ADD SLT PUSH2 0x198 JUMPI PUSH1 0x20 SWAP1 MLOAD PUSH20 0xBA12222222228D8BA445958A75A0704D566BF2C8 DUP2 MSTORE RETURN JUMPDEST DUP3 DUP5 CALLVALUE PUSH2 0x198 JUMPI DUP2 PUSH1 0x3 NOT CALLDATASIZE ADD SLT PUSH2 0x198 JUMPI PUSH1 0x20 SWAP1 MLOAD PUSH20 0xF98B45FA17DE75FB1AD0E7AFD971B0CA00E379FC DUP2 MSTORE RETURN JUMPDEST POP SWAP1 CALLVALUE PUSH2 0x7E8 JUMPI PUSH2 0x8C1 CALLDATASIZE PUSH2 0x110F JUMP JUMPDEST SWAP1 PUSH4 0x3B9ACA00 SWAP2 DUP3 DUP2 MUL SWAP3 DUP2 DUP5 DIV EQ SWAP1 ISZERO OR ISZERO PUSH2 0x91E JUMPI SWAP1 PUSH2 0x8E2 SWAP2 PUSH2 0x1403 JUMP JUMPDEST SWAP2 PUSH2 0x7D0 SWAP3 DUP4 DUP2 MUL SWAP4 DUP2 DUP6 DIV EQ SWAP1 ISZERO OR ISZERO PUSH2 0x90B JUMPI PUSH1 0x20 DUP4 PUSH8 0xDE0B6B3A7640000 DUP7 MLOAD SWAP2 DIV DUP2 MSTORE RETURN JUMPDEST PUSH4 0x4E487B71 PUSH1 0xE0 SHL DUP3 MSTORE PUSH1 0x11 SWAP1 MSTORE PUSH1 0x24 SWAP1 REVERT JUMPDEST PUSH4 0x4E487B71 PUSH1 0xE0 SHL DUP4 MSTORE PUSH1 0x11 DUP5 MSTORE PUSH1 0x24 DUP4 REVERT JUMPDEST DUP3 DUP5 CALLVALUE PUSH2 0x198 JUMPI DUP2 PUSH1 0x3 NOT CALLDATASIZE ADD SLT PUSH2 0x198 JUMPI PUSH1 0x20 SWAP1 MLOAD PUSH1 0x14 DUP2 MSTORE RETURN JUMPDEST DUP3 DUP5 CALLVALUE PUSH2 0x198 JUMPI CALLDATASIZE PUSH1 0x3 NOT ADD SLT PUSH2 0x7E8 JUMPI PUSH2 0x98A PUSH2 0x969 PUSH2 0x10B8 JUMP JUMPDEST PUSH2 0x971 PUSH2 0x12AD JUMP JUMPDEST PUSH1 0x1 SLOAD PUSH1 0x24 CALLDATALOAD SWAP2 PUSH1 0x1 PUSH1 0x1 PUSH1 0xA0 SHL SUB SWAP2 DUP3 AND SWAP2 AND PUSH2 0x1575 JUMP JUMPDEST DUP1 RETURN JUMPDEST DUP3 DUP5 CALLVALUE PUSH2 0x198 JUMPI DUP2 PUSH1 0x3 NOT CALLDATASIZE ADD SLT PUSH2 0x198 JUMPI PUSH1 0x1 SLOAD SWAP1 MLOAD PUSH1 0x1 PUSH1 0x1 PUSH1 0xA0 SHL SUB SWAP1 SWAP2 AND DUP2 MSTORE PUSH1 0x20 SWAP1 RETURN JUMPDEST DUP3 DUP5 CALLVALUE PUSH2 0x198 JUMPI DUP2 PUSH1 0x3 NOT CALLDATASIZE ADD SLT PUSH2 0x198 JUMPI PUSH1 0x20 SWAP1 MLOAD PUSH1 0x64 DUP2 MSTORE RETURN JUMPDEST POP DUP3 CALLVALUE PUSH2 0x22E JUMPI PUSH1 0x60 CALLDATASIZE PUSH1 0x3 NOT ADD SLT PUSH2 0x22E JUMPI PUSH2 0x9ED PUSH2 0x10B8 JUMP JUMPDEST SWAP2 PUSH1 0x24 CALLDATALOAD SWAP3 PUSH1 0x44 CALLDATALOAD PUSH1 0x1 PUSH1 0x1 PUSH1 0x40 SHL SUB DUP2 GT PUSH2 0x5E4 JUMPI PUSH2 0xA10 SWAP1 CALLDATASIZE SWAP1 DUP5 ADD PUSH2 0x10E2 JUMP JUMPDEST SWAP2 SWAP1 PUSH2 0xA1A PUSH2 0x12AD JUMP JUMPDEST PUSH2 0xA22 PUSH2 0x1461 JUMP JUMPDEST PUSH2 0xA39 PUSH11 0x84595161401484A000000 DUP8 GT ISZERO PUSH2 0x12D9 JUMP JUMPDEST PUSH2 0xA45 DUP4 DUP3 ADD DUP3 PUSH2 0x1325 JUMP JUMPDEST PUSH2 0xA55 PUSH2 0x120 DUP3 ADD MLOAD GASPRICE SWAP1 PUSH2 0x1403 JUMP JUMPDEST PUSH2 0x7D0 SWAP1 DUP2 DUP2 MUL SWAP2 DUP2 DUP4 DIV EQ SWAP1 ISZERO OR ISZERO PUSH2 0xC0A JUMPI PUSH8 0xDE0B6B3A7640000 PUSH1 0x14 SWAP2 DIV GT PUSH2 0xBC7 JUMPI PUSH2 0x100 ADD MLOAD GASPRICE GT PUSH2 0xB84 JUMPI DUP5 MLOAD PUSH4 0x26B1D5F PUSH1 0xE0 SHL DUP2 MSTORE DUP8 SWAP5 SWAP1 SWAP4 SWAP3 SWAP2 SWAP1 PUSH1 0x20 DUP6 DUP3 DUP2 PUSH20 0xE20FCBDBFFC4DD138CE8B2E6FBB6CB49777AD64D GAS STATICCALL SWAP5 DUP6 ISZERO PUSH2 0xB7A JUMPI DUP7 SWAP6 PUSH2 0xB3F JUMPI JUMPDEST POP PUSH1 0x1 PUSH1 0x1 PUSH1 0xA0 SHL SUB SWAP5 DUP6 AND SWAP4 DUP5 EXTCODESIZE ISZERO PUSH2 0x84F JUMPI DUP7 SWAP3 PUSH2 0xB11 SWAP2 DUP10 MLOAD SWAP11 DUP12 SWAP9 DUP10 SWAP8 DUP9 SWAP7 PUSH4 0x10AC2DDF PUSH1 0xE2 SHL DUP9 MSTORE ADDRESS SWAP1 DUP9 ADD MSTORE AND PUSH1 0x24 DUP7 ADD MSTORE PUSH1 0x44 DUP6 ADD MSTORE PUSH1 0xA0 PUSH1 0x64 DUP6 ADD MSTORE PUSH1 0xA4 DUP5 ADD SWAP2 PUSH2 0x1440 JUMP JUMPDEST DUP3 PUSH1 0x84 DUP4 ADD MSTORE SUB SWAP3 GAS CALL SWAP1 DUP2 ISZERO PUSH2 0x7EB JUMPI POP PUSH2 0xB30 JUMPI JUMPDEST POP PUSH1 0x1 DUP2 SSTORE DUP1 RETURN JUMPDEST PUSH2 0xB39 SWAP1 PUSH2 0x1155 JUMP JUMPDEST DUP2 PUSH2 0xB28 JUMP JUMPDEST SWAP1 SWAP5 POP PUSH1 0x20 DUP2 RETURNDATASIZE DUP3 GT PUSH2 0xB72 JUMPI JUMPDEST DUP2 PUSH2 0xB5A PUSH1 0x20 SWAP4 DUP4 PUSH2 0x11B5 JUMP JUMPDEST DUP2 ADD SUB SLT PUSH2 0x5E4 JUMPI PUSH2 0xB6B SWAP1 PUSH2 0x142C JUMP JUMPDEST SWAP4 DUP10 PUSH2 0xAC3 JUMP JUMPDEST RETURNDATASIZE SWAP2 POP PUSH2 0xB4D JUMP JUMPDEST DUP8 MLOAD RETURNDATASIZE DUP9 DUP3 RETURNDATACOPY RETURNDATASIZE SWAP1 REVERT JUMPDEST DUP5 MLOAD PUSH3 0x461BCD PUSH1 0xE5 SHL DUP2 MSTORE PUSH1 0x20 DUP2 DUP7 ADD MSTORE PUSH1 0x1C PUSH1 0x24 DUP3 ADD MSTORE PUSH32 0x47617320707269636520657863656564732075736572206C696D697400000000 PUSH1 0x44 DUP3 ADD MSTORE PUSH1 0x64 SWAP1 REVERT JUMPDEST DUP6 MLOAD PUSH3 0x461BCD PUSH1 0xE5 SHL DUP2 MSTORE PUSH1 0x20 DUP2 DUP8 ADD MSTORE PUSH1 0x1C PUSH1 0x24 DUP3 ADD MSTORE PUSH32 0x47617320636F7374206578636565647320243230206D6178696D756D00000000 PUSH1 0x44 DUP3 ADD MSTORE PUSH1 0x64 SWAP1 REVERT JUMPDEST PUSH4 0x4E487B71 PUSH1 0xE0 SHL DUP10 MSTORE PUSH1 0x11 DUP7 MSTORE PUSH1 0x24 DUP10 REVERT JUMPDEST DUP3 DUP5 CALLVALUE PUSH2 0x198 JUMPI DUP2 PUSH1 0x3 NOT CALLDATASIZE ADD SLT PUSH2 0x198 JUMPI PUSH1 0x20 SWAP1 MLOAD PUSH11 0x84595161401484A000000 DUP2 MSTORE RETURN JUMPDEST DUP3 CALLVALUE PUSH2 0x7E8 JUMPI DUP1 PUSH1 0x3 NOT CALLDATASIZE ADD SLT PUSH2 0x7E8 JUMPI PUSH2 0xC5C PUSH2 0x12AD JUMP JUMPDEST PUSH1 0x1 DUP1 SLOAD PUSH1 0x1 PUSH1 0x1 PUSH1 0xA0 SHL SUB NOT DUP2 AND SWAP1 SWAP2 SSTORE DUP2 SWAP1 PUSH1 0x1 PUSH1 0x1 PUSH1 0xA0 SHL SUB AND PUSH32 0x8BE0079C531659141344CD1FD0A4F28419497F9722A3DAAFE3B4186F6B6457E0 DUP3 DUP1 LOG3 DUP1 RETURN JUMPDEST POP DUP3 CALLVALUE PUSH2 0x22E JUMPI PUSH1 0x20 CALLDATASIZE PUSH1 0x3 NOT ADD SLT PUSH2 0x22E JUMPI DUP3 PUSH2 0xCBC PUSH2 0x10B8 JUMP JUMPDEST SWAP3 PUSH2 0xCC5 PUSH2 0x12AD JUMP JUMPDEST PUSH1 0x1 PUSH1 0x1 PUSH1 0xA0 SHL SUB SWAP4 DUP5 AND DUP1 PUSH2 0xCF3 JUMPI POP POP DUP1 DUP1 DUP1 SWAP4 SWAP5 PUSH1 0x1 SLOAD AND SELFBALANCE SWAP1 DUP3 DUP3 ISZERO PUSH2 0x668 JUMPI CALL ISZERO PUSH2 0x65E JUMPI POP DUP1 RETURN JUMPDEST SWAP2 POP SWAP3 PUSH1 0x1 SLOAD AND SWAP1 DUP3 MLOAD SWAP4 PUSH4 0x70A08231 PUSH1 0xE0 SHL DUP6 MSTORE ADDRESS SWAP1 DUP6 ADD MSTORE PUSH1 0x20 DUP5 PUSH1 0x24 DUP2 DUP5 GAS STATICCALL SWAP3 DUP4 ISZERO PUSH2 0xD64 JUMPI POP DUP5 SWAP3 PUSH2 0xD2F JUMPI JUMPDEST PUSH2 0x98A SWAP4 POP PUSH2 0x1575 JUMP JUMPDEST SWAP2 POP PUSH1 0x20 DUP4 RETURNDATASIZE DUP3 GT PUSH2 0xD5C JUMPI JUMPDEST DUP2 PUSH2 0xD49 PUSH1 0x20 SWAP4 DUP4 PUSH2 0x11B5 JUMP JUMPDEST DUP2 ADD SUB SLT PUSH2 0x5E8 JUMPI PUSH2 0x98A SWAP3 MLOAD SWAP2 PUSH2 0xD25 JUMP JUMPDEST RETURNDATASIZE SWAP2 POP PUSH2 0xD3C JUMP JUMPDEST MLOAD RETURNDATASIZE DUP7 DUP3 RETURNDATACOPY RETURNDATASIZE SWAP1 REVERT JUMPDEST POP SWAP1 CALLVALUE PUSH2 0x7E8 JUMPI PUSH2 0xD7D CALLDATASIZE PUSH2 0x110F JUMP JUMPDEST SWAP1 PUSH4 0x3B9ACA00 SWAP2 DUP3 DUP2 MUL SWAP3 DUP2 DUP5 DIV EQ SWAP1 ISZERO OR ISZERO PUSH2 0x91E JUMPI SWAP1 PUSH2 0xD9E SWAP2 PUSH2 0x1403 JUMP JUMPDEST SWAP2 PUSH2 0x7D0 SWAP3 DUP4 DUP2 MUL SWAP4 DUP2 DUP6 DIV EQ SWAP1 ISZERO OR ISZERO PUSH2 0x90B JUMPI DUP4 PUSH8 0xDE0B6B3A7640000 DUP5 DIV DUP2 MLOAD SWAP1 PUSH1 0x14 DUP2 GT ISZERO DUP3 MSTORE PUSH1 0x20 DUP3 ADD MSTORE RETURN JUMPDEST DUP3 DUP5 CALLVALUE PUSH2 0x198 JUMPI DUP2 PUSH1 0x3 NOT CALLDATASIZE ADD SLT PUSH2 0x198 JUMPI PUSH1 0x20 SWAP1 MLOAD PUSH20 0x6BDED42C6DA8FBF0D2BA55B2FA120C5E0C8D7891 DUP2 MSTORE RETURN JUMPDEST POP DUP3 SWAP1 CALLVALUE PUSH2 0x22E JUMPI PUSH1 0xA0 CALLDATASIZE PUSH1 0x3 NOT ADD SLT PUSH2 0x22E JUMPI PUSH2 0xE1B PUSH2 0x10B8 JUMP JUMPDEST PUSH1 0x64 CALLDATALOAD PUSH1 0x1 PUSH1 0x1 PUSH1 0xA0 SHL SUB DUP2 DUP2 AND SWAP6 SWAP3 PUSH1 0x24 CALLDATALOAD SWAP3 PUSH1 0x44 CALLDATALOAD SWAP2 SWAP1 DUP9 SWAP1 SUB PUSH2 0x5E0 JUMPI PUSH1 0x84 CALLDATALOAD PUSH1 0x1 PUSH1 0x1 PUSH1 0x40 SHL SUB DUP2 GT PUSH2 0x5E4 JUMPI PUSH2 0xE59 SWAP1 CALLDATASIZE SWAP1 DUP9 ADD PUSH2 0x10E2 JUMP JUMPDEST DUP9 MLOAD PUSH4 0x26B1D5F PUSH1 0xE0 SHL DUP2 MSTORE PUSH1 0x20 SWAP11 SWAP1 DUP12 DUP2 DUP12 DUP2 PUSH20 0xE20FCBDBFFC4DD138CE8B2E6FBB6CB49777AD64D GAS STATICCALL DUP1 ISZERO PUSH2 0x1063 JUMPI DUP8 SWAP1 DUP11 SWAP1 PUSH2 0x102B JUMPI JUMPDEST PUSH2 0xEA0 SWAP3 POP AND CALLER EQ PUSH2 0x1493 JUMP JUMPDEST ADDRESS SUB PUSH2 0xFF4 JUMPI DUP2 PUSH2 0xEB6 SWAP2 PUSH2 0xEBD SWAP4 ADD SWAP1 PUSH2 0x1325 JUMP JUMPDEST DUP6 DUP4 PUSH2 0x16DD JUMP JUMPDEST SWAP3 DUP3 DUP6 ADD SWAP2 DUP3 DUP7 GT PUSH2 0xFE1 JUMPI AND SWAP6 DUP8 MLOAD PUSH4 0x70A08231 PUSH1 0xE0 SHL DUP2 MSTORE ADDRESS DUP3 DUP3 ADD MSTORE DUP10 DUP2 PUSH1 0x24 DUP2 DUP12 GAS STATICCALL DUP1 ISZERO PUSH2 0xFD7 JUMPI DUP4 SWAP1 DUP9 SWAP1 PUSH2 0xFA6 JUMPI JUMPDEST PUSH2 0xF09 SWAP3 POP PUSH2 0xF04 DUP3 DUP3 LT ISZERO PUSH2 0x14D0 JUMP JUMPDEST PUSH2 0x151C JUMP JUMPDEST SWAP6 PUSH1 0x64 DUP7 MUL SWAP2 DUP7 DUP4 DIV PUSH1 0x64 EQ DUP8 ISZERO OR ISZERO PUSH2 0x90B JUMPI POP POP DUP8 SWAP5 PUSH32 0x26F6BBBD455B9507BAC0682B6FF4A332A2834A438D602A13BDB22D491D440F3C SWAP7 SWAP5 DUP9 SWAP5 PUSH2 0xF84 PUSH32 0xE7055BB7F757AAE8CFBF6EA2247E26371914425F5500C1D720F0746AE1FF8803 SWAP6 PUSH2 0xF7D PUSH2 0x2710 PUSH1 0x60 SWAP8 DIV DUP11 LT ISZERO PUSH2 0x1529 JUMP JUMPDEST CALLER DUP9 PUSH2 0x1575 JUMP JUMPDEST DUP8 MLOAD SWAP3 DUP4 MSTORE DUP12 DUP4 ADD MSTORE ISZERO ISZERO DUP7 DUP3 ADD MSTORE LOG2 DUP2 MLOAD SWAP1 DUP2 MSTORE TIMESTAMP DUP7 DUP3 ADD MSTORE LOG2 MLOAD PUSH1 0x1 DUP2 MSTORE RETURN JUMPDEST POP POP DUP10 DUP2 DUP2 RETURNDATASIZE DUP4 GT PUSH2 0xFD0 JUMPI JUMPDEST PUSH2 0xFBD DUP2 DUP4 PUSH2 0x11B5 JUMP JUMPDEST DUP2 ADD SUB SLT PUSH2 0x84F JUMPI DUP3 PUSH2 0xF09 SWAP2 MLOAD PUSH2 0xEF3 JUMP JUMPDEST POP RETURNDATASIZE PUSH2 0xFB3 JUMP JUMPDEST DUP10 MLOAD RETURNDATASIZE DUP10 DUP3 RETURNDATACOPY RETURNDATASIZE SWAP1 REVERT JUMPDEST PUSH4 0x4E487B71 PUSH1 0xE0 SHL DUP8 MSTORE PUSH1 0x11 DUP9 MSTORE PUSH1 0x24 DUP8 REVERT JUMPDEST DUP9 MLOAD PUSH3 0x461BCD PUSH1 0xE5 SHL DUP2 MSTORE DUP1 DUP10 ADD DUP12 SWAP1 MSTORE PUSH1 0x11 PUSH1 0x24 DUP3 ADD MSTORE PUSH17 0x24B73B30B634B21034B734BA34B0BA37B9 PUSH1 0x79 SHL PUSH1 0x44 DUP3 ADD MSTORE PUSH1 0x64 SWAP1 REVERT JUMPDEST POP POP DUP12 DUP2 DUP2 RETURNDATASIZE DUP4 GT PUSH2 0x105C JUMPI JUMPDEST PUSH2 0x1042 DUP2 DUP4 PUSH2 0x11B5 JUMP JUMPDEST DUP2 ADD SUB SLT PUSH2 0x7F4 JUMPI DUP7 PUSH2 0x1057 PUSH2 0xEA0 SWAP3 PUSH2 0x142C JUMP JUMPDEST PUSH2 0xE93 JUMP JUMPDEST POP RETURNDATASIZE PUSH2 0x1038 JUMP JUMPDEST DUP12 MLOAD RETURNDATASIZE DUP12 DUP3 RETURNDATACOPY RETURNDATASIZE SWAP1 REVERT JUMPDEST DUP3 DUP5 CALLVALUE PUSH2 0x198 JUMPI DUP2 PUSH1 0x3 NOT CALLDATASIZE ADD SLT PUSH2 0x198 JUMPI PUSH1 0x20 SWAP1 MLOAD PUSH2 0x7D0 DUP2 MSTORE RETURN JUMPDEST DUP4 SWAP1 CALLVALUE PUSH2 0x198 JUMPI DUP2 PUSH1 0x3 NOT CALLDATASIZE ADD SLT PUSH2 0x198 JUMPI DUP1 PUSH20 0xE20FCBDBFFC4DD138CE8B2E6FBB6CB49777AD64D PUSH1 0x20 SWAP3 MSTORE RETURN JUMPDEST PUSH1 0x4 CALLDATALOAD SWAP1 PUSH1 0x1 PUSH1 0x1 PUSH1 0xA0 SHL SUB DUP3 AND DUP3 SUB PUSH2 0x589 JUMPI JUMP JUMPDEST CALLDATALOAD SWAP1 PUSH1 0x1 PUSH1 0x1 PUSH1 0xA0 SHL SUB DUP3 AND DUP3 SUB PUSH2 0x589 JUMPI JUMP JUMPDEST SWAP2 DUP2 PUSH1 0x1F DUP5 ADD SLT ISZERO PUSH2 0x589 JUMPI DUP3 CALLDATALOAD SWAP2 PUSH1 0x1 PUSH1 0x1 PUSH1 0x40 SHL SUB DUP4 GT PUSH2 0x589 JUMPI PUSH1 0x20 DUP4 DUP2 DUP7 ADD SWAP6 ADD ADD GT PUSH2 0x589 JUMPI JUMP JUMPDEST PUSH1 0x40 SWAP1 PUSH1 0x3 NOT ADD SLT PUSH2 0x589 JUMPI PUSH1 0x4 CALLDATALOAD SWAP1 PUSH1 0x24 CALLDATALOAD SWAP1 JUMP JUMPDEST SWAP2 DUP2 PUSH1 0x1F DUP5 ADD SLT ISZERO PUSH2 0x589 JUMPI DUP3 CALLDATALOAD SWAP2 PUSH1 0x1 PUSH1 0x1 PUSH1 0x40 SHL SUB DUP4 GT PUSH2 0x589 JUMPI PUSH1 0x20 DUP1 DUP6 ADD SWAP5 DUP5 PUSH1 0x5 SHL ADD ADD GT PUSH2 0x589 JUMPI JUMP JUMPDEST PUSH1 0x1 PUSH1 0x1 PUSH1 0x40 SHL SUB DUP2 GT PUSH2 0x1168 JUMPI PUSH1 0x40 MSTORE JUMP JUMPDEST PUSH4 0x4E487B71 PUSH1 0xE0 SHL PUSH1 0x0 MSTORE PUSH1 0x41 PUSH1 0x4 MSTORE PUSH1 0x24 PUSH1 0x0 REVERT JUMPDEST PUSH2 0x140 DUP2 ADD SWAP1 DUP2 LT PUSH1 0x1 PUSH1 0x1 PUSH1 0x40 SHL SUB DUP3 GT OR PUSH2 0x1168 JUMPI PUSH1 0x40 MSTORE JUMP JUMPDEST PUSH1 0x80 DUP2 ADD SWAP1 DUP2 LT PUSH1 0x1 PUSH1 0x1 PUSH1 0x40 SHL SUB DUP3 GT OR PUSH2 0x1168 JUMPI PUSH1 0x40 MSTORE JUMP JUMPDEST SWAP1 PUSH1 0x1F DUP1 NOT SWAP2 ADD AND DUP2 ADD SWAP1 DUP2 LT PUSH1 0x1 PUSH1 0x1 PUSH1 0x40 SHL SUB DUP3 GT OR PUSH2 0x1168 JUMPI PUSH1 0x40 MSTORE JUMP JUMPDEST PUSH1 0x1 PUSH1 0x1 PUSH1 0x40 SHL SUB DUP2 GT PUSH2 0x1168 JUMPI PUSH1 0x5 SHL PUSH1 0x20 ADD SWAP1 JUMP JUMPDEST DUP2 PUSH1 0x1F DUP3 ADD SLT ISZERO PUSH2 0x589 JUMPI DUP1 CALLDATALOAD SWAP2 PUSH2 0x1204 DUP4 PUSH2 0x11D6 JUMP JUMPDEST SWAP3 PUSH2 0x1212 PUSH1 0x40 MLOAD SWAP5 DUP6 PUSH2 0x11B5 JUMP JUMPDEST DUP1 DUP5 MSTORE PUSH1 0x20 SWAP3 DUP4 DUP1 DUP7 ADD SWAP3 PUSH1 0x5 SHL DUP3 ADD ADD SWAP3 DUP4 GT PUSH2 0x589 JUMPI DUP4 ADD SWAP1 JUMPDEST DUP3 DUP3 LT PUSH2 0x123C JUMPI POP POP POP POP SWAP1 JUMP JUMPDEST DUP2 CALLDATALOAD DUP2 MSTORE SWAP1 DUP4 ADD SWAP1 DUP4 ADD PUSH2 0x122E JUMP JUMPDEST PUSH1 0x1 PUSH1 0x1 PUSH1 0x40 SHL SUB DUP2 GT PUSH2 0x1168 JUMPI PUSH1 0x1F ADD PUSH1 0x1F NOT AND PUSH1 0x20 ADD SWAP1 JUMP JUMPDEST DUP2 PUSH1 0x1F DUP3 ADD SLT ISZERO PUSH2 0x589 JUMPI DUP1 CALLDATALOAD SWAP1 PUSH2 0x127D DUP3 PUSH2 0x124B JUMP JUMPDEST SWAP3 PUSH2 0x128B PUSH1 0x40 MLOAD SWAP5 DUP6 PUSH2 0x11B5 JUMP JUMPDEST DUP3 DUP5 MSTORE PUSH1 0x20 DUP4 DUP4 ADD ADD GT PUSH2 0x589 JUMPI DUP2 PUSH1 0x0 SWAP3 PUSH1 0x20 DUP1 SWAP4 ADD DUP4 DUP7 ADD CALLDATACOPY DUP4 ADD ADD MSTORE SWAP1 JUMP JUMPDEST PUSH1 0x1 SLOAD PUSH1 0x1 PUSH1 0x1 PUSH1 0xA0 SHL SUB AND CALLER SUB PUSH2 0x12C1 JUMPI JUMP JUMPDEST PUSH1 0x40 MLOAD PUSH4 0x118CDAA7 PUSH1 0xE0 SHL DUP2 MSTORE CALLER PUSH1 0x4 DUP3 ADD MSTORE PUSH1 0x24 SWAP1 REVERT JUMPDEST ISZERO PUSH2 0x12E0 JUMPI JUMP JUMPDEST PUSH1 0x40 MLOAD PUSH3 0x461BCD PUSH1 0xE5 SHL DUP2 MSTORE PUSH1 0x20 PUSH1 0x4 DUP3 ADD MSTORE PUSH1 0x19 PUSH1 0x24 DUP3 ADD MSTORE PUSH32 0x416D6F756E742065786365656473202431304D206C696D697400000000000000 PUSH1 0x44 DUP3 ADD MSTORE PUSH1 0x64 SWAP1 REVERT JUMPDEST PUSH1 0x20 DUP2 DUP4 SUB SLT PUSH2 0x589 JUMPI DUP1 CALLDATALOAD PUSH1 0x1 PUSH1 0x1 PUSH1 0x40 SHL SUB SWAP2 DUP3 DUP3 GT PUSH2 0x589 JUMPI ADD SWAP1 PUSH2 0x140 DUP3 DUP5 SUB SLT PUSH2 0x589 JUMPI PUSH1 0x40 MLOAD SWAP3 PUSH2 0x135B DUP5 PUSH2 0x117E JUMP JUMPDEST PUSH2 0x1364 DUP4 PUSH2 0x10CE JUMP JUMPDEST DUP5 MSTORE PUSH2 0x1372 PUSH1 0x20 DUP5 ADD PUSH2 0x10CE JUMP JUMPDEST PUSH1 0x20 DUP6 ADD MSTORE PUSH1 0x40 DUP4 ADD CALLDATALOAD PUSH1 0x40 DUP6 ADD MSTORE PUSH1 0x60 DUP4 ADD CALLDATALOAD PUSH1 0x4 DUP2 LT ISZERO PUSH2 0x589 JUMPI PUSH1 0x60 DUP6 ADD MSTORE PUSH1 0x80 DUP4 ADD CALLDATALOAD PUSH1 0x4 DUP2 LT ISZERO PUSH2 0x589 JUMPI PUSH1 0x80 DUP6 ADD MSTORE PUSH1 0xA0 DUP4 ADD CALLDATALOAD DUP3 DUP2 GT PUSH2 0x589 JUMPI DUP2 PUSH2 0x13BF SWAP2 DUP6 ADD PUSH2 0x1266 JUMP JUMPDEST PUSH1 0xA0 DUP6 ADD MSTORE PUSH1 0xC0 DUP4 ADD CALLDATALOAD SWAP2 DUP3 GT PUSH2 0x589 JUMPI PUSH2 0x13DB SWAP2 DUP4 ADD PUSH2 0x1266 JUMP JUMPDEST PUSH1 0xC0 DUP4 ADD MSTORE PUSH1 0xE0 DUP2 ADD CALLDATALOAD PUSH1 0xE0 DUP4 ADD MSTORE PUSH2 0x100 DUP1 DUP3 ADD CALLDATALOAD SWAP1 DUP4 ADD MSTORE PUSH2 0x120 DUP1 SWAP2 ADD CALLDATALOAD SWAP1 DUP3 ADD MSTORE SWAP1 JUMP JUMPDEST DUP2 DUP2 MUL SWAP3 SWAP2 DUP2 ISZERO SWAP2 DUP5 DIV EQ OR ISZERO PUSH2 0x1416 JUMPI JUMP JUMPDEST PUSH4 0x4E487B71 PUSH1 0xE0 SHL PUSH1 0x0 MSTORE PUSH1 0x11 PUSH1 0x4 MSTORE PUSH1 0x24 PUSH1 0x0 REVERT JUMPDEST MLOAD SWAP1 PUSH1 0x1 PUSH1 0x1 PUSH1 0xA0 SHL SUB DUP3 AND DUP3 SUB PUSH2 0x589 JUMPI JUMP JUMPDEST SWAP1 DUP1 PUSH1 0x20 SWAP4 SWAP3 DUP2 DUP5 MSTORE DUP5 DUP5 ADD CALLDATACOPY PUSH1 0x0 DUP3 DUP3 ADD DUP5 ADD MSTORE PUSH1 0x1F ADD PUSH1 0x1F NOT AND ADD ADD SWAP1 JUMP JUMPDEST PUSH1 0x2 PUSH1 0x0 SLOAD EQ PUSH2 0x1472 JUMPI PUSH1 0x2 PUSH1 0x0 SSTORE JUMP JUMPDEST PUSH1 0x40 MLOAD PUSH4 0x3EE5AEB5 PUSH1 0xE0 SHL DUP2 MSTORE PUSH1 0x4 SWAP1 REVERT JUMPDEST PUSH1 0x0 NOT DUP2 EQ PUSH2 0x1416 JUMPI PUSH1 0x1 ADD SWAP1 JUMP JUMPDEST ISZERO PUSH2 0x149A JUMPI JUMP JUMPDEST PUSH1 0x40 MLOAD PUSH3 0x461BCD PUSH1 0xE5 SHL DUP2 MSTORE PUSH1 0x20 PUSH1 0x4 DUP3 ADD MSTORE PUSH1 0xE PUSH1 0x24 DUP3 ADD MSTORE PUSH14 0x24B73B30B634B21031B0B63632B9 PUSH1 0x91 SHL PUSH1 0x44 DUP3 ADD MSTORE PUSH1 0x64 SWAP1 REVERT JUMPDEST ISZERO PUSH2 0x14D7 JUMPI JUMP JUMPDEST PUSH1 0x40 MLOAD PUSH3 0x461BCD PUSH1 0xE5 SHL DUP2 MSTORE PUSH1 0x20 PUSH1 0x4 DUP3 ADD MSTORE PUSH1 0x1D PUSH1 0x24 DUP3 ADD MSTORE PUSH32 0x496E73756666696369656E742062616C616E636520746F207265706179000000 PUSH1 0x44 DUP3 ADD MSTORE PUSH1 0x64 SWAP1 REVERT JUMPDEST SWAP2 SWAP1 DUP3 SUB SWAP2 DUP3 GT PUSH2 0x1416 JUMPI JUMP JUMPDEST ISZERO PUSH2 0x1530 JUMPI JUMP JUMPDEST PUSH1 0x40 MLOAD PUSH3 0x461BCD PUSH1 0xE5 SHL DUP2 MSTORE PUSH1 0x20 PUSH1 0x4 DUP3 ADD MSTORE PUSH1 0x19 PUSH1 0x24 DUP3 ADD MSTORE PUSH32 0x50726F6669742062656C6F77203125207468726573686F6C6400000000000000 PUSH1 0x44 DUP3 ADD MSTORE PUSH1 0x64 SWAP1 REVERT JUMPDEST PUSH1 0x40 MLOAD PUSH4 0xA9059CBB PUSH1 0xE0 SHL PUSH1 0x20 DUP3 ADD MSTORE PUSH1 0x1 PUSH1 0x1 PUSH1 0xA0 SHL SUB SWAP3 SWAP1 SWAP3 AND PUSH1 0x24 DUP4 ADD MSTORE PUSH1 0x44 DUP1 DUP4 ADD SWAP4 SWAP1 SWAP4 MSTORE SWAP2 DUP2 MSTORE PUSH2 0x15B1 SWAP2 PUSH2 0x500 PUSH1 0x64 DUP4 PUSH2 0x11B5 JUMP JUMPDEST JUMP JUMPDEST SWAP1 PUSH1 0x0 PUSH1 0x20 SWAP2 DUP3 DUP2 MLOAD SWAP2 ADD DUP3 DUP6 GAS CALL ISZERO PUSH2 0x160F JUMPI PUSH1 0x0 MLOAD RETURNDATASIZE PUSH2 0x1606 JUMPI POP PUSH1 0x1 PUSH1 0x1 PUSH1 0xA0 SHL SUB DUP2 AND EXTCODESIZE ISZERO JUMPDEST PUSH2 0x15E4 JUMPI POP JUMP JUMPDEST PUSH1 0x40 MLOAD PUSH4 0x5274AFE7 PUSH1 0xE0 SHL DUP2 MSTORE PUSH1 0x1 PUSH1 0x1 PUSH1 0xA0 SHL SUB SWAP1 SWAP2 AND PUSH1 0x4 DUP3 ADD MSTORE PUSH1 0x24 SWAP1 REVERT JUMPDEST PUSH1 0x1 EQ ISZERO PUSH2 0x15DD JUMP JUMPDEST PUSH1 0x40 MLOAD RETURNDATASIZE PUSH1 0x0 DUP3 RETURNDATACOPY RETURNDATASIZE SWAP1 REVERT JUMPDEST PUSH1 0x0 JUMPDEST DUP4 DUP2 LT PUSH2 0x162E JUMPI POP POP PUSH1 0x0 SWAP2 ADD MSTORE JUMP JUMPDEST DUP2 DUP2 ADD MLOAD DUP4 DUP3 ADD MSTORE PUSH1 0x20 ADD PUSH2 0x161E JUMP JUMPDEST DUP2 PUSH1 0x1F DUP3 ADD SLT ISZERO PUSH2 0x589 JUMPI DUP1 MLOAD PUSH2 0x1654 DUP2 PUSH2 0x124B JUMP JUMPDEST SWAP3 PUSH2 0x1662 PUSH1 0x40 MLOAD SWAP5 DUP6 PUSH2 0x11B5 JUMP JUMPDEST DUP2 DUP5 MSTORE PUSH1 0x20 DUP3 DUP5 ADD ADD GT PUSH2 0x589 JUMPI PUSH2 0x1680 SWAP2 PUSH1 0x20 DUP1 DUP6 ADD SWAP2 ADD PUSH2 0x161B JUMP JUMPDEST SWAP1 JUMP JUMPDEST DUP1 MLOAD ISZERO PUSH2 0x1690 JUMPI PUSH1 0x20 ADD SWAP1 JUMP JUMPDEST PUSH4 0x4E487B71 PUSH1 0xE0 SHL PUSH1 0x0 MSTORE PUSH1 0x32 PUSH1 0x4 MSTORE PUSH1 0x24 PUSH1 0x0 REVERT JUMPDEST DUP1 MLOAD DUP3 LT ISZERO PUSH2 0x1690 JUMPI PUSH1 0x20 SWAP2 PUSH1 0x5 SHL ADD ADD SWAP1 JUMP JUMPDEST SWAP1 PUSH1 0x4 DUP3 LT ISZERO PUSH2 0x16C7 JUMPI MSTORE JUMP JUMPDEST PUSH4 0x4E487B71 PUSH1 0xE0 SHL PUSH1 0x0 MSTORE PUSH1 0x21 PUSH1 0x4 MSTORE PUSH1 0x24 PUSH1 0x0 REVERT JUMPDEST PUSH1 0x60 DUP4 ADD SWAP2 DUP3 MLOAD SWAP2 PUSH1 0x4 SWAP3 DUP4 DUP2 LT ISZERO PUSH2 0x17E6 JUMPI SWAP1 PUSH2 0x1701 SWAP2 DUP4 PUSH1 0xA0 DUP9 ADD MLOAD SWAP3 PUSH2 0x1852 JUMP JUMPDEST PUSH1 0x20 DUP6 ADD DUP1 MLOAD PUSH1 0x80 DUP8 ADD DUP1 MLOAD SWAP3 SWAP6 SWAP4 SWAP1 SWAP3 PUSH1 0x1 PUSH1 0x1 PUSH1 0xA0 SHL SUB SWAP3 DUP4 AND SWAP2 DUP6 DUP3 LT ISZERO PUSH2 0x183D JUMPI SWAP1 PUSH2 0x1737 SWAP3 SWAP2 PUSH1 0xC0 DUP12 ADD MLOAD SWAP3 PUSH2 0x1852 JUMP JUMPDEST DUP5 PUSH1 0x0 SWAP2 DUP2 DUP2 GT PUSH1 0x0 EQ PUSH2 0x1835 JUMPI PUSH2 0x174F SWAP3 POP PUSH2 0x151C JUMP JUMPDEST SWAP7 JUMPDEST PUSH1 0xE0 DUP2 ADD MLOAD DUP9 LT PUSH2 0x17FB JUMPI DUP2 DUP1 SWAP2 MLOAD AND SWAP6 MLOAD AND SWAP6 MLOAD SWAP2 DUP4 DUP4 LT ISZERO PUSH2 0x17E6 JUMPI MLOAD SWAP3 DUP1 DUP5 LT ISZERO PUSH2 0x17D1 JUMPI POP PUSH1 0x80 SWAP3 PUSH2 0x17C1 PUSH32 0x99F5F2282EA6A09A6F4ECA16F69A79543BD628094C28102155974B489B01959A SWAP6 SWAP4 PUSH2 0x17CB SWAP4 PUSH1 0x1 SLOAD AND SWAP10 PUSH1 0x40 MLOAD SWAP6 DUP7 MSTORE PUSH1 0x20 DUP7 ADD MSTORE PUSH1 0x40 DUP6 ADD SWAP1 PUSH2 0x16BA JUMP JUMPDEST PUSH1 0x60 DUP4 ADD SWAP1 PUSH2 0x16BA JUMP JUMPDEST LOG4 PUSH1 0x1 SWAP1 JUMP JUMPDEST PUSH1 0x21 SWAP1 PUSH4 0x4E487B71 PUSH1 0xE0 SHL PUSH1 0x0 MSTORE MSTORE PUSH1 0x24 PUSH1 0x0 REVERT JUMPDEST PUSH1 0x21 DUP5 PUSH4 0x4E487B71 PUSH1 0xE0 SHL PUSH1 0x0 MSTORE MSTORE PUSH1 0x24 PUSH1 0x0 REVERT JUMPDEST PUSH1 0x40 MLOAD PUSH3 0x461BCD PUSH1 0xE5 SHL DUP2 MSTORE PUSH1 0x20 DUP2 DUP7 ADD MSTORE PUSH1 0x13 PUSH1 0x24 DUP3 ADD MSTORE PUSH19 0x125B9CDD59999A58DA595B9D081C1C9BD99A5D PUSH1 0x6A SHL PUSH1 0x44 DUP3 ADD MSTORE PUSH1 0x64 SWAP1 REVERT JUMPDEST POP POP SWAP7 PUSH2 0x1751 JUMP JUMPDEST PUSH1 0x21 DUP7 PUSH4 0x4E487B71 PUSH1 0xE0 SHL PUSH1 0x0 MSTORE MSTORE PUSH1 0x24 PUSH1 0x0 REVERT JUMPDEST SWAP1 SWAP4 SWAP3 SWAP2 PUSH1 0x4 DUP2 LT ISZERO PUSH2 0x16C7 JUMPI DUP1 PUSH2 0x1AD4 JUMPI POP DUP2 MLOAD DUP3 ADD SWAP2 PUSH1 0x20 SWAP1 DUP2 DUP2 DUP6 SUB SLT PUSH2 0x589 JUMPI DUP2 DUP2 ADD MLOAD SWAP1 PUSH1 0x1 PUSH1 0x1 PUSH1 0x40 SHL SUB SWAP5 DUP6 DUP4 GT PUSH2 0x589 JUMPI PUSH2 0x189B SWAP3 DUP5 DUP1 SWAP3 ADD SWAP3 ADD ADD PUSH2 0x2244 JUMP JUMPDEST PUSH1 0x40 MLOAD PUSH4 0x95EA7B3 PUSH1 0xE0 SHL DUP4 DUP3 ADD DUP2 DUP2 MSTORE PUSH20 0x4752BA5DBC23F44D87826276BF6FD6B1C372AD24 PUSH1 0x24 DUP5 ADD DUP2 SWAP1 MSTORE PUSH1 0x44 DUP1 DUP6 ADD DUP12 SWAP1 MSTORE DUP5 MSTORE SWAP1 SWAP9 PUSH1 0x1 PUSH1 0x1 PUSH1 0xA0 SHL SUB SWAP7 SWAP2 SWAP5 SWAP4 SWAP1 SWAP3 SWAP2 DUP8 AND PUSH2 0x18EE DUP3 PUSH2 0x119A JUMP JUMPDEST DUP7 PUSH1 0x0 DUP1 SWAP13 DUP5 MLOAD SWAP1 DUP3 DUP6 GAS CALL DUP12 MLOAD RETURNDATASIZE DUP3 PUSH2 0x1AB8 JUMPI JUMPDEST POP POP ISZERO PUSH2 0x1A82 JUMPI JUMPDEST POP POP POP PUSH2 0x12C TIMESTAMP ADD SWAP1 DUP2 TIMESTAMP GT PUSH2 0x1A6E JUMPI SWAP2 DUP9 SWAP4 SWAP2 PUSH1 0x40 MLOAD SWAP7 DUP8 SWAP5 PUSH4 0x38ED1739 PUSH1 0xE0 SHL DUP7 MSTORE PUSH1 0xA4 DUP7 ADD SWAP1 PUSH1 0x4 DUP8 ADD MSTORE DUP7 PUSH1 0x24 DUP8 ADD MSTORE PUSH1 0xA0 PUSH1 0x44 DUP8 ADD MSTORE DUP4 MLOAD DUP1 SWAP2 MSTORE DUP8 PUSH1 0xC4 DUP8 ADD SWAP5 ADD SWAP2 DUP8 SWAP1 JUMPDEST DUP10 DUP4 DUP4 LT PUSH2 0x1A4E JUMPI POP POP POP POP POP DUP4 DUP1 SWAP3 DUP7 SWAP3 ADDRESS PUSH1 0x64 DUP5 ADD MSTORE PUSH1 0x84 DUP4 ADD MSTORE SUB SWAP3 GAS CALL SWAP3 DUP4 ISZERO PUSH2 0x1A43 JUMPI DUP6 SWAP4 PUSH2 0x19BA JUMPI JUMPDEST POP POP DUP2 MLOAD PUSH1 0x0 NOT DUP2 ADD SWAP3 SWAP2 POP DUP3 GT PUSH2 0x19A6 JUMPI PUSH2 0x19A2 SWAP3 SWAP4 POP PUSH2 0x16A6 JUMP JUMPDEST MLOAD SWAP1 JUMP JUMPDEST PUSH4 0x4E487B71 PUSH1 0xE0 SHL DUP5 MSTORE PUSH1 0x11 PUSH1 0x4 MSTORE PUSH1 0x24 DUP5 REVERT JUMPDEST SWAP1 SWAP2 SWAP3 POP RETURNDATASIZE DUP1 DUP7 DUP6 RETURNDATACOPY PUSH2 0x19CD DUP2 DUP6 PUSH2 0x11B5 JUMP JUMPDEST DUP4 ADD SWAP3 DUP3 DUP2 DUP6 SUB SLT PUSH2 0x5E4 JUMPI DUP1 MLOAD SWAP2 DUP3 GT PUSH2 0x5E4 JUMPI ADD SWAP2 DUP1 PUSH1 0x1F DUP5 ADD SLT ISZERO PUSH2 0x5E0 JUMPI DUP3 MLOAD PUSH2 0x19FA DUP2 PUSH2 0x11D6 JUMP JUMPDEST SWAP4 PUSH2 0x1A08 PUSH1 0x40 MLOAD SWAP6 DUP7 PUSH2 0x11B5 JUMP JUMPDEST DUP2 DUP6 MSTORE DUP4 DUP1 DUP7 ADD SWAP3 PUSH1 0x5 SHL DUP3 ADD ADD SWAP3 DUP4 GT PUSH2 0x84F JUMPI DUP4 ADD SWAP1 JUMPDEST DUP3 DUP3 LT PUSH2 0x1A34 JUMPI POP POP POP POP CODESIZE DUP1 DUP1 PUSH2 0x1985 JUMP JUMPDEST DUP2 MLOAD DUP2 MSTORE SWAP1 DUP4 ADD SWAP1 DUP4 ADD PUSH2 0x1A21 JUMP JUMPDEST PUSH1 0x40 MLOAD RETURNDATASIZE DUP8 DUP3 RETURNDATACOPY RETURNDATASIZE SWAP1 REVERT JUMPDEST DUP5 MLOAD DUP3 AND DUP8 MSTORE DUP15 SWAP10 POP DUP12 SWAP9 POP SWAP6 DUP7 ADD SWAP6 SWAP4 SWAP1 SWAP4 ADD SWAP3 PUSH1 0x1 SWAP1 SWAP2 ADD SWAP1 PUSH2 0x1956 JUMP JUMPDEST PUSH4 0x4E487B71 PUSH1 0xE0 SHL DUP10 MSTORE PUSH1 0x11 PUSH1 0x4 MSTORE PUSH1 0x24 DUP10 REVERT JUMPDEST PUSH2 0x500 PUSH2 0x1AB0 SWAP4 PUSH1 0x40 MLOAD SWAP1 DUP10 DUP3 ADD MSTORE DUP8 PUSH1 0x24 DUP3 ADD MSTORE DUP13 PUSH1 0x44 DUP3 ADD MSTORE PUSH1 0x44 DUP2 MSTORE PUSH2 0x1AAA DUP2 PUSH2 0x119A JUMP JUMPDEST DUP3 PUSH2 0x15B3 JUMP JUMPDEST CODESIZE DUP1 DUP1 PUSH2 0x190B JUMP JUMPDEST SWAP1 SWAP2 POP PUSH2 0x1ACC JUMPI POP DUP1 EXTCODESIZE ISZERO ISZERO JUMPDEST CODESIZE DUP1 PUSH2 0x1903 JUMP JUMPDEST PUSH1 0x1 EQ PUSH2 0x1AC5 JUMP JUMPDEST PUSH1 0x1 DUP2 SUB PUSH2 0x1D0E JUMPI POP DUP2 MLOAD DUP3 ADD SWAP2 PUSH1 0x20 SWAP1 DUP2 DUP2 DUP6 SUB SLT PUSH2 0x589 JUMPI DUP2 DUP2 ADD MLOAD SWAP1 PUSH1 0x1 PUSH1 0x1 PUSH1 0x40 SHL SUB SWAP5 DUP6 DUP4 GT PUSH2 0x589 JUMPI PUSH2 0x1B13 SWAP3 DUP5 DUP1 SWAP3 ADD SWAP3 ADD ADD PUSH2 0x2244 JUMP JUMPDEST PUSH1 0x40 MLOAD PUSH4 0x95EA7B3 PUSH1 0xE0 SHL DUP4 DUP3 ADD DUP2 DUP2 MSTORE PUSH20 0x6BDED42C6DA8FBF0D2BA55B2FA120C5E0C8D7891 PUSH1 0x24 DUP5 ADD DUP2 SWAP1 MSTORE PUSH1 0x44 DUP1 DUP6 ADD DUP12 SWAP1 MSTORE DUP5 MSTORE SWAP1 SWAP9 PUSH1 0x1 PUSH1 0x1 PUSH1 0xA0 SHL SUB SWAP7 SWAP2 SWAP5 SWAP4 SWAP1 SWAP3 SWAP2 DUP8 AND PUSH2 0x1B66 DUP3 PUSH2 0x119A JUMP JUMPDEST DUP7 PUSH1 0x0 DUP1 SWAP13 DUP5 MLOAD SWAP1 DUP3 DUP6 GAS CALL DUP12 MLOAD RETURNDATASIZE DUP3 PUSH2 0x1CF2 JUMPI JUMPDEST POP POP ISZERO PUSH2 0x1CC2 JUMPI JUMPDEST POP POP POP PUSH2 0x12C TIMESTAMP ADD SWAP1 DUP2 TIMESTAMP GT PUSH2 0x1A6E JUMPI SWAP2 DUP9 SWAP4 SWAP2 PUSH1 0x40 MLOAD SWAP7 DUP8 SWAP5 PUSH4 0x38ED1739 PUSH1 0xE0 SHL DUP7 MSTORE PUSH1 0xA4 DUP7 ADD SWAP1 PUSH1 0x4 DUP8 ADD MSTORE DUP7 PUSH1 0x24 DUP8 ADD MSTORE PUSH1 0xA0 PUSH1 0x44 DUP8 ADD MSTORE DUP4 MLOAD DUP1 SWAP2 MSTORE DUP8 PUSH1 0xC4 DUP8 ADD SWAP5 ADD SWAP2 DUP8 SWAP1 JUMPDEST DUP10 DUP4 DUP4 LT PUSH2 0x1CA2 JUMPI POP POP POP POP POP DUP4 DUP1 SWAP3 DUP7 SWAP3 ADDRESS PUSH1 0x64 DUP5 ADD MSTORE PUSH1 0x84 DUP4 ADD MSTORE SUB SWAP3 GAS CALL SWAP3 DUP4 ISZERO PUSH2 0x1A43 JUMPI DUP6 SWAP4 PUSH2 0x1C19 JUMPI POP POP DUP2 MLOAD PUSH1 0x0 NOT DUP2 ADD SWAP3 SWAP2 POP DUP3 GT PUSH2 0x19A6 JUMPI PUSH2 0x19A2 SWAP3 SWAP4 POP PUSH2 0x16A6 JUMP JUMPDEST SWAP1 SWAP2 SWAP3 POP RETURNDATASIZE DUP1 DUP7 DUP6 RETURNDATACOPY PUSH2 0x1C2C DUP2 DUP6 PUSH2 0x11B5 JUMP JUMPDEST DUP4 ADD SWAP3 DUP3 DUP2 DUP6 SUB SLT PUSH2 0x5E4 JUMPI DUP1 MLOAD SWAP2 DUP3 GT PUSH2 0x5E4 JUMPI ADD SWAP2 DUP1 PUSH1 0x1F DUP5 ADD SLT ISZERO PUSH2 0x5E0 JUMPI DUP3 MLOAD PUSH2 0x1C59 DUP2 PUSH2 0x11D6 JUMP JUMPDEST SWAP4 PUSH2 0x1C67 PUSH1 0x40 MLOAD SWAP6 DUP7 PUSH2 0x11B5 JUMP JUMPDEST DUP2 DUP6 MSTORE DUP4 DUP1 DUP7 ADD SWAP3 PUSH1 0x5 SHL DUP3 ADD ADD SWAP3 DUP4 GT PUSH2 0x84F JUMPI DUP4 ADD SWAP1 JUMPDEST DUP3 DUP3 LT PUSH2 0x1C93 JUMPI POP POP POP POP CODESIZE DUP1 DUP1 PUSH2 0x1985 JUMP JUMPDEST DUP2 MLOAD DUP2 MSTORE SWAP1 DUP4 ADD SWAP1 DUP4 ADD PUSH2 0x1C80 JUMP JUMPDEST DUP5 MLOAD DUP3 AND DUP8 MSTORE DUP15 SWAP10 POP DUP12 SWAP9 POP SWAP6 DUP7 ADD SWAP6 SWAP4 SWAP1 SWAP4 ADD SWAP3 PUSH1 0x1 SWAP1 SWAP2 ADD SWAP1 PUSH2 0x1BCE JUMP JUMPDEST PUSH2 0x500 PUSH2 0x1CEA SWAP4 PUSH1 0x40 MLOAD SWAP1 DUP10 DUP3 ADD MSTORE DUP8 PUSH1 0x24 DUP3 ADD MSTORE DUP13 PUSH1 0x44 DUP3 ADD MSTORE PUSH1 0x44 DUP2 MSTORE PUSH2 0x1AAA DUP2 PUSH2 0x119A JUMP JUMPDEST CODESIZE DUP1 DUP1 PUSH2 0x1B83 JUMP JUMPDEST SWAP1 SWAP2 POP PUSH2 0x1D06 JUMPI POP DUP1 EXTCODESIZE ISZERO ISZERO JUMPDEST CODESIZE DUP1 PUSH2 0x1B7B JUMP JUMPDEST PUSH1 0x1 EQ PUSH2 0x1CFF JUMP JUMPDEST PUSH1 0x2 DUP2 SWAP6 SWAP3 SWAP4 SWAP5 SWAP6 EQ PUSH1 0x0 EQ PUSH2 0x205F JUMPI POP DUP3 MLOAD DUP4 ADD PUSH1 0x20 DUP5 DUP3 SUB SLT PUSH2 0x589 JUMPI PUSH1 0x20 DUP5 ADD MLOAD PUSH1 0x1 PUSH1 0x1 PUSH1 0x40 SHL SUB SWAP5 DUP6 DUP3 GT PUSH2 0x589 JUMPI ADD SWAP1 PUSH1 0x40 DUP3 DUP3 SUB SLT PUSH2 0x589 JUMPI PUSH1 0x40 MLOAD SWAP2 PUSH1 0x40 DUP4 ADD DUP4 DUP2 LT DUP8 DUP3 GT OR PUSH2 0x1168 JUMPI PUSH1 0x40 MSTORE PUSH1 0x20 DUP2 ADD MLOAD DUP4 MSTORE PUSH1 0x40 DUP2 ADD MLOAD SWAP2 DUP7 DUP4 GT PUSH2 0x589 JUMPI PUSH2 0x1D89 SWAP3 PUSH1 0x20 DUP1 SWAP3 ADD SWAP3 ADD ADD PUSH2 0x2244 JUMP JUMPDEST PUSH1 0x20 DUP3 DUP2 ADD SWAP2 DUP3 MSTORE PUSH1 0x40 MLOAD PUSH4 0x95EA7B3 PUSH1 0xE0 SHL DUP2 DUP4 ADD DUP2 DUP2 MSTORE PUSH20 0xBA12222222228D8BA445958A75A0704D566BF2C8 PUSH1 0x24 DUP5 ADD MSTORE PUSH1 0x44 DUP1 DUP5 ADD DUP9 SWAP1 MSTORE DUP4 MSTORE SWAP4 SWAP7 PUSH1 0x1 PUSH1 0x1 PUSH1 0xA0 SHL SUB AND SWAP5 SWAP4 SWAP1 SWAP3 SWAP1 PUSH1 0x0 SWAP1 PUSH2 0x1DE2 DUP5 PUSH2 0x119A JUMP JUMPDEST DUP4 MLOAD SWAP1 DUP3 DUP9 GAS CALL PUSH1 0x0 MLOAD RETURNDATASIZE DUP3 PUSH2 0x2043 JUMPI JUMPDEST POP POP ISZERO PUSH2 0x1FF2 JUMPI JUMPDEST POP POP MLOAD SWAP3 MLOAD DUP1 MLOAD PUSH1 0x0 NOT DUP2 ADD SWAP1 DUP2 GT PUSH2 0x1416 JUMPI PUSH1 0x1 PUSH1 0x1 PUSH1 0xA0 SHL SUB SWAP2 PUSH2 0x1E21 SWAP2 SWAP1 PUSH2 0x16A6 JUMP JUMPDEST MLOAD AND SWAP1 PUSH1 0x40 MLOAD SWAP4 PUSH1 0xC0 DUP6 ADD DUP6 DUP2 LT DUP8 DUP3 GT OR PUSH2 0x1168 JUMPI PUSH1 0x40 MSTORE DUP5 MSTORE PUSH1 0x0 PUSH1 0x20 DUP6 ADD MSTORE PUSH1 0x40 DUP5 ADD MSTORE PUSH1 0x60 DUP4 ADD MSTORE PUSH1 0x80 DUP3 ADD MSTORE PUSH1 0x40 MLOAD PUSH1 0x40 DUP2 ADD DUP2 DUP2 LT DUP5 DUP3 GT OR PUSH2 0x1168 JUMPI PUSH1 0x40 MSTORE PUSH1 0x2 DUP2 MSTORE PUSH2 0x60F PUSH1 0xF3 SHL PUSH1 0x20 DUP3 ADD MSTORE PUSH1 0xA0 DUP3 ADD MSTORE PUSH1 0x40 MLOAD SWAP2 PUSH1 0x80 DUP4 ADD SWAP1 DUP4 DUP3 LT SWAP1 DUP3 GT OR PUSH2 0x1168 JUMPI PUSH1 0x40 MSTORE ADDRESS DUP3 MSTORE PUSH1 0x0 PUSH1 0x20 DUP4 ADD MSTORE ADDRESS PUSH1 0x40 DUP4 ADD MSTORE PUSH1 0x0 PUSH1 0x60 DUP4 ADD MSTORE PUSH2 0x12C TIMESTAMP ADD TIMESTAMP GT PUSH2 0x1416 JUMPI PUSH1 0x40 MLOAD PUSH4 0x52BBBE29 PUSH1 0xE0 SHL DUP2 MSTORE PUSH1 0xE0 PUSH1 0x4 DUP3 ADD MSTORE DUP2 MLOAD PUSH1 0xE4 DUP3 ADD MSTORE PUSH1 0x20 DUP3 ADD MLOAD SWAP1 SWAP3 PUSH1 0x2 DUP3 LT ISZERO PUSH2 0x16C7 JUMPI DUP4 PUSH1 0xA0 PUSH1 0x20 SWAP5 DUP3 SWAP5 PUSH2 0x104 DUP5 ADD MSTORE PUSH1 0x1 DUP1 DUP4 SHL SUB PUSH1 0x40 DUP3 ADD MLOAD AND PUSH2 0x124 DUP5 ADD MSTORE PUSH1 0x1 DUP1 DUP4 SHL SUB PUSH1 0x60 DUP3 ADD MLOAD AND PUSH2 0x144 DUP5 ADD MSTORE PUSH1 0x80 DUP2 ADD MLOAD PUSH2 0x164 DUP5 ADD MSTORE ADD MLOAD SWAP2 PUSH1 0xC0 PUSH2 0x184 DUP4 ADD MSTORE PUSH1 0x60 DUP4 MLOAD SWAP2 DUP3 PUSH2 0x1A4 DUP6 ADD MSTORE PUSH2 0x1F46 DUP4 PUSH2 0x1C4 SWAP7 DUP10 DUP9 DUP9 ADD SWAP2 ADD PUSH2 0x161B JUMP JUMPDEST PUSH1 0x1 DUP1 PUSH1 0xA0 SHL SUB DUP2 MLOAD AND PUSH1 0x24 DUP6 ADD MSTORE DUP7 DUP2 ADD MLOAD ISZERO ISZERO PUSH1 0x44 DUP6 ADD MSTORE PUSH1 0x1 DUP1 PUSH1 0xA0 SHL SUB PUSH1 0x40 DUP3 ADD MLOAD AND PUSH1 0x64 DUP6 ADD MSTORE ADD MLOAD ISZERO ISZERO PUSH1 0x84 DUP4 ADD MSTORE PUSH1 0x0 PUSH1 0xA4 DUP4 ADD MSTORE PUSH2 0x12C TIMESTAMP ADD PUSH1 0xC4 DUP4 ADD MSTORE PUSH1 0x1F DUP1 NOT SWAP2 ADD AND DUP2 ADD SUB ADD DUP2 PUSH1 0x0 PUSH20 0xBA12222222228D8BA445958A75A0704D566BF2C8 GAS CALL SWAP1 DUP2 ISZERO PUSH2 0x160F JUMPI PUSH1 0x0 SWAP2 PUSH2 0x1FC3 JUMPI POP SWAP1 JUMP JUMPDEST SWAP1 POP PUSH1 0x20 DUP2 RETURNDATASIZE PUSH1 0x20 GT PUSH2 0x1FEA JUMPI JUMPDEST DUP2 PUSH2 0x1FDE PUSH1 0x20 SWAP4 DUP4 PUSH2 0x11B5 JUMP JUMPDEST DUP2 ADD SUB SLT PUSH2 0x589 JUMPI MLOAD SWAP1 JUMP JUMPDEST RETURNDATASIZE SWAP2 POP PUSH2 0x1FD1 JUMP JUMPDEST PUSH2 0x2036 PUSH2 0x203C SWAP3 PUSH1 0x40 MLOAD SWAP1 PUSH1 0x20 DUP3 ADD MSTORE PUSH20 0xBA12222222228D8BA445958A75A0704D566BF2C8 PUSH1 0x24 DUP3 ADD MSTORE PUSH1 0x0 PUSH1 0x44 DUP3 ADD MSTORE PUSH1 0x44 DUP2 MSTORE PUSH2 0x2030 DUP2 PUSH2 0x119A JUMP JUMPDEST DUP6 PUSH2 0x15B3 JUMP JUMPDEST DUP4 PUSH2 0x15B3 JUMP JUMPDEST CODESIZE DUP1 PUSH2 0x1DFB JUMP JUMPDEST SWAP1 SWAP2 POP PUSH2 0x2057 JUMPI POP DUP4 EXTCODESIZE ISZERO ISZERO JUMPDEST CODESIZE DUP1 PUSH2 0x1DF3 JUMP JUMPDEST PUSH1 0x1 EQ PUSH2 0x2050 JUMP JUMPDEST SWAP2 SWAP3 SWAP1 SWAP2 PUSH1 0x3 EQ PUSH2 0x20A1 JUMPI PUSH1 0x40 MLOAD PUSH3 0x461BCD PUSH1 0xE5 SHL DUP2 MSTORE PUSH1 0x20 PUSH1 0x4 DUP3 ADD MSTORE PUSH1 0xF PUSH1 0x24 DUP3 ADD MSTORE PUSH15 0xAADCE6EAE0E0DEE4E8CAC840888AB PUSH1 0x8B SHL PUSH1 0x44 DUP3 ADD MSTORE PUSH1 0x64 SWAP1 REVERT JUMPDEST PUSH1 0x60 DUP2 DUP1 MLOAD DUP2 ADD SUB SLT PUSH2 0x589 JUMPI PUSH1 0x40 SWAP3 DUP4 MLOAD SWAP1 PUSH1 0x60 DUP3 ADD SWAP3 DUP3 DUP5 LT PUSH1 0x1 PUSH1 0x1 PUSH1 0x40 SHL SUB DUP6 GT OR PUSH2 0x1168 JUMPI PUSH1 0x84 SWAP4 DUP7 MSTORE PUSH1 0x20 SWAP4 DUP5 SWAP4 DUP5 SWAP4 PUSH2 0x20E2 DUP6 DUP6 ADD PUSH2 0x142C JUMP JUMPDEST SWAP1 DUP2 DUP4 MSTORE PUSH2 0x2103 PUSH1 0x60 PUSH2 0x20F6 DUP13 DUP9 ADD PUSH2 0x22AA JUMP JUMPDEST SWAP7 DUP9 DUP7 ADD SWAP8 DUP9 MSTORE ADD PUSH2 0x22AA JUMP JUMPDEST DUP4 DUP12 ADD SWAP1 DUP2 MSTORE DUP11 MLOAD PUSH4 0x95EA7B3 PUSH1 0xE0 SHL DUP9 DUP3 ADD DUP2 DUP2 MSTORE PUSH1 0x1 PUSH1 0x1 PUSH1 0xA0 SHL SUB SWAP6 DUP7 AND PUSH1 0x24 DUP5 ADD DUP2 SWAP1 MSTORE PUSH1 0x44 DUP1 DUP6 ADD DUP16 SWAP1 MSTORE DUP5 MSTORE SWAP4 SWAP7 SWAP1 SWAP6 SWAP5 SWAP1 SWAP4 SWAP3 SWAP2 SWAP1 DUP6 AND SWAP1 DUP15 SWAP1 PUSH2 0x214F PUSH1 0x64 DUP6 PUSH2 0x11B5 JUMP JUMPDEST PUSH1 0x0 SWAP14 DUP15 DUP1 SWAP10 DUP7 MLOAD SWAP1 DUP3 DUP8 GAS CALL DUP9 MLOAD RETURNDATASIZE DUP3 PUSH2 0x2228 JUMPI JUMPDEST POP POP ISZERO PUSH2 0x21F8 JUMPI JUMPDEST POP POP POP POP POP MLOAD AND SWAP4 MLOAD SWAP2 MLOAD SWAP4 DUP10 MLOAD SWAP9 DUP10 SWAP6 DUP7 SWAP5 PUSH4 0xF7C0849 PUSH1 0xE2 SHL DUP7 MSTORE PUSH1 0xF SIGNEXTEND PUSH1 0x4 DUP7 ADD MSTORE PUSH1 0xF SIGNEXTEND PUSH1 0x24 DUP6 ADD MSTORE PUSH1 0x44 DUP5 ADD MSTORE DUP2 PUSH1 0x64 DUP5 ADD MSTORE GAS CALL SWAP4 DUP5 ISZERO PUSH2 0x21ED JUMPI POP DUP2 SWAP4 PUSH2 0x21BC JUMPI JUMPDEST POP POP POP SWAP1 JUMP JUMPDEST SWAP1 SWAP2 DUP1 SWAP4 POP DUP2 RETURNDATASIZE DUP4 GT PUSH2 0x21E6 JUMPI JUMPDEST PUSH2 0x21D4 DUP2 DUP4 PUSH2 0x11B5 JUMP JUMPDEST DUP2 ADD SUB SLT PUSH2 0x7E8 JUMPI POP MLOAD CODESIZE DUP1 DUP1 PUSH2 0x21B6 JUMP JUMPDEST POP RETURNDATASIZE PUSH2 0x21CA JUMP JUMPDEST MLOAD SWAP2 RETURNDATASIZE SWAP2 POP DUP3 RETURNDATACOPY RETURNDATASIZE SWAP1 REVERT JUMPDEST PUSH2 0x221E SWAP5 PUSH2 0x500 SWAP3 MLOAD SWAP2 DUP14 DUP4 ADD MSTORE PUSH1 0x24 DUP3 ADD MSTORE DUP8 PUSH1 0x44 DUP3 ADD MSTORE PUSH1 0x44 DUP2 MSTORE PUSH2 0x1AAA DUP2 PUSH2 0x119A JUMP JUMPDEST CODESIZE DUP1 DUP1 DUP14 DUP2 PUSH2 0x216D JUMP JUMPDEST SWAP1 SWAP2 POP PUSH2 0x223C JUMPI POP DUP3 EXTCODESIZE ISZERO ISZERO JUMPDEST CODESIZE DUP1 PUSH2 0x2165 JUMP JUMPDEST PUSH1 0x1 EQ PUSH2 0x2235 JUMP JUMPDEST DUP2 PUSH1 0x1F DUP3 ADD SLT ISZERO PUSH2 0x589 JUMPI DUP1 MLOAD SWAP2 PUSH2 0x225B DUP4 PUSH2 0x11D6 JUMP JUMPDEST SWAP3 PUSH2 0x2269 PUSH1 0x40 MLOAD SWAP5 DUP6 PUSH2 0x11B5 JUMP JUMPDEST DUP1 DUP5 MSTORE PUSH1 0x20 SWAP3 DUP4 DUP1 DUP7 ADD SWAP3 PUSH1 0x5 SHL DUP3 ADD ADD SWAP3 DUP4 GT PUSH2 0x589 JUMPI DUP4 ADD SWAP1 JUMPDEST DUP3 DUP3 LT PUSH2 0x2293 JUMPI POP POP POP POP SWAP1 JUMP JUMPDEST DUP4 DUP1 SWAP2 PUSH2 0x229F DUP5 PUSH2 0x142C JUMP JUMPDEST DUP2 MSTORE ADD SWAP2 ADD SWAP1 PUSH2 0x2285 JUMP JUMPDEST MLOAD SWAP1 DUP2 PUSH1 0xF SIGNEXTEND DUP3 SUB PUSH2 0x589 JUMPI JUMP INVALID LOG2 PUSH5 0x6970667358 0x22 SLT KECCAK256 DIV PUSH29 0x56F55483BCB92362DEC44B3B3D1CF4DF15976A3937FDE9772A05C3F3C2 SWAP16 PUSH5 0x736F6C6343 STOP ADDMOD EQ STOP CALLER "},"methodIdentifiers":{"ADDRESSES_PROVIDER()":"0542975c","BALANCER_VAULT()":"bc163846","BASIS_POINTS()":"e1f1c4a7","CURVE_REGISTRY()":"b942717b","ETH_PRICE_USD()":"06ec9b9e","MAX_FLASH_LOAN_AMOUNT()":"720387cb","MAX_GAS_COST_USD()":"a852b227","MIN_PROFIT_BASIS_POINTS()":"7e8db6b3","SUSHISWAP_ROUTER()":"277754ed","UNISWAP_ROUTER()":"d8264920","emergencyWithdraw(address)":"6ff1c9bc","estimateGasCostUSD(uint256,uint256)":"b7ec8f26","executeArbitrage(address,uint256,bytes)":"7c1d9539","executeBalancerFlashLoan(address[],uint256[],bytes)":"ce6a9f01","executeOperation(address,uint256,uint256,address,bytes)":"1b11d0ff","getMaxGasPriceForLimit(uint256)":"f9b2d6aa","isGasCostAcceptable(uint256,uint256)":"6e859620","owner()":"8da5cb5b","receiveFlashLoan(address[],uint256[],uint256[],bytes)":"f04f2707","renounceOwnership()":"715018a6","transferOwnership(address)":"f2fde38b","withdrawETH()":"e086e5ec","withdrawToken(address,uint256)":"9e281a98"}}}}}