{"contracts/AtomArbitrage.sol":{"AtomArbitrage":{"abi":[{"inputs":[],"stateMutability":"nonpayable","type":"constructor"},{"inputs":[{"internalType":"address","name":"owner","type":"address"}],"name":"OwnableInvalidOwner","type":"error"},{"inputs":[{"internalType":"address","name":"account","type":"address"}],"name":"OwnableUnauthorizedAccount","type":"error"},{"inputs":[],"name":"ReentrancyGuardReentrantCall","type":"error"},{"inputs":[{"internalType":"address","name":"token","type":"address"}],"name":"SafeERC20FailedOperation","type":"error"},{"anonymous":false,"inputs":[{"indexed":true,"internalType":"address","name":"tokenA","type":"address"},{"indexed":true,"internalType":"address","name":"tokenB","type":"address"},{"indexed":false,"internalType":"uint256","name":"amountIn","type":"uint256"},{"indexed":false,"internalType":"uint256","name":"profit","type":"uint256"},{"indexed":false,"internalType":"enum AtomArbitrage.DEX","name":"buyDex","type":"uint8"},{"indexed":false,"internalType":"enum AtomArbitrage.DEX","name":"sellDex","type":"uint8"},{"indexed":true,"internalType":"address","name":"executor","type":"address"}],"name":"ArbitrageExecuted","type":"event"},{"anonymous":false,"inputs":[{"indexed":true,"internalType":"address","name":"asset","type":"address"},{"indexed":false,"internalType":"uint256","name":"amount","type":"uint256"},{"indexed":false,"internalType":"uint256","name":"premium","type":"uint256"},{"indexed":false,"internalType":"bool","name":"success","type":"bool"}],"name":"FlashLoanExecuted","type":"event"},{"anonymous":false,"inputs":[{"indexed":true,"internalType":"address","name":"previousOwner","type":"address"},{"indexed":true,"internalType":"address","name":"newOwner","type":"address"}],"name":"OwnershipTransferred","type":"event"},{"anonymous":false,"inputs":[{"indexed":true,"internalType":"address","name":"token","type":"address"},{"indexed":false,"internalType":"uint256","name":"amount","type":"uint256"},{"indexed":false,"internalType":"uint256","name":"timestamp","type":"uint256"}],"name":"ProfitExtracted","type":"event"},{"inputs":[],"name":"ADDRESSES_PROVIDER","outputs":[{"internalType":"contract IPoolAddressesProvider","name":"","type":"address"}],"stateMutability":"view","type":"function"},{"inputs":[],"name":"BALANCER_VAULT","outputs":[{"internalType":"contract IVault","name":"","type":"address"}],"stateMutability":"view","type":"function"},{"inputs":[],"name":"BASIS_POINTS","outputs":[{"internalType":"uint256","name":"","type":"uint256"}],"stateMutability":"view","type":"function"},{"inputs":[],"name":"CURVE_REGISTRY","outputs":[{"internalType":"contract ICurveRegistry","name":"","type":"address"}],"stateMutability":"view","type":"function"},{"inputs":[],"name":"ETH_PRICE_USD","outputs":[{"internalType":"uint256","name":"","type":"uint256"}],"stateMutability":"view","type":"function"},{"inputs":[],"name":"MAX_FLASH_LOAN_AMOUNT","outputs":[{"internalType":"uint256","name":"","type":"uint256"}],"stateMutability":"view","type":"function"},{"inputs":[],"name":"MAX_GAS_COST_USD","outputs":[{"internalType":"uint256","name":"","type":"uint256"}],"stateMutability":"view","type":"function"},{"inputs":[],"name":"MIN_PROFIT_BASIS_POINTS","outputs":[{"internalType":"uint256","name":"","type":"uint256"}],"stateMutability":"view","type":"function"},{"inputs":[],"name":"SUSHISWAP_ROUTER","outputs":[{"internalType":"contract IUniswapV2Router","name":"","type":"address"}],"stateMutability":"view","type":"function"},{"inputs":[],"name":"UNISWAP_ROUTER","outputs":[{"internalType":"contract IUniswapV2Router","name":"","type":"address"}],"stateMutability":"view","type":"function"},{"inputs":[{"internalType":"address","name":"tokenA","type":"address"},{"internalType":"address","name":"tokenB","type":"address"},{"internalType":"uint256","name":"amountIn","type":"uint256"},{"internalType":"enum AtomArbitrage.DEX","name":"buyDex","type":"uint8"},{"internalType":"enum AtomArbitrage.DEX","name":"sellDex","type":"uint8"},{"internalType":"bytes","name":"buyData","type":"bytes"},{"internalType":"bytes","name":"sellData","type":"bytes"}],"name":"_simulateArbitrage","outputs":[{"internalType":"uint256","name":"finalAmount","type":"uint256"}],"stateMutability":"view","type":"function"},{"inputs":[{"internalType":"address","name":"tokenA","type":"address"},{"internalType":"address","name":"tokenB","type":"address"},{"internalType":"uint256","name":"amountIn","type":"uint256"},{"internalType":"enum AtomArbitrage.DEX","name":"buyDex","type":"uint8"},{"internalType":"enum AtomArbitrage.DEX","name":"sellDex","type":"uint8"},{"internalType":"bytes","name":"buyData","type":"bytes"},{"internalType":"bytes","name":"sellData","type":"bytes"}],"name":"calculateMultiDexProfit","outputs":[{"internalType":"uint256","name":"profit","type":"uint256"},{"internalType":"bool","name":"profitable","type":"bool"}],"stateMutability":"view","type":"function"},{"inputs":[{"internalType":"address","name":"token","type":"address"}],"name":"emergencyWithdraw","outputs":[],"stateMutability":"nonpayable","type":"function"},{"inputs":[{"internalType":"uint256","name":"estimatedGasUnits","type":"uint256"},{"internalType":"uint256","name":"gasPriceGwei","type":"uint256"}],"name":"estimateGasCostUSD","outputs":[{"internalType":"uint256","name":"gasCostUSD","type":"uint256"}],"stateMutability":"pure","type":"function"},{"inputs":[{"internalType":"address","name":"asset","type":"address"},{"internalType":"uint256","name":"amount","type":"uint256"},{"internalType":"bytes","name":"params","type":"bytes"}],"name":"executeArbitrage","outputs":[],"stateMutability":"nonpayable","type":"function"},{"inputs":[{"internalType":"address[]","name":"tokens","type":"address[]"},{"internalType":"uint256[]","name":"amounts","type":"uint256[]"},{"internalType":"bytes","name":"params","type":"bytes"}],"name":"executeBalancerFlashLoan","outputs":[],"stateMutability":"nonpayable","type":"function"},{"inputs":[{"internalType":"address","name":"asset","type":"address"},{"internalType":"uint256","name":"amount","type":"uint256"},{"internalType":"uint256","name":"premium","type":"uint256"},{"internalType":"address","name":"initiator","type":"address"},{"internalType":"bytes","name":"params","type":"bytes"}],"name":"executeOperation","outputs":[{"internalType":"bool","name":"","type":"bool"}],"stateMutability":"nonpayable","type":"function"},{"inputs":[{"internalType":"uint256","name":"estimatedGasUnits","type":"uint256"}],"name":"getMaxGasPriceForLimit","outputs":[{"internalType":"uint256","name":"maxGasPriceGwei","type":"uint256"}],"stateMutability":"pure","type":"function"},{"inputs":[{"internalType":"uint256","name":"estimatedGasUnits","type":"uint256"},{"internalType":"uint256","name":"gasPriceGwei","type":"uint256"}],"name":"isGasCostAcceptable","outputs":[{"internalType":"bool","name":"acceptable","type":"bool"},{"internalType":"uint256","name":"gasCostUSD","type":"uint256"}],"stateMutability":"pure","type":"function"},{"inputs":[],"name":"owner","outputs":[{"internalType":"address","name":"","type":"address"}],"stateMutability":"view","type":"function"},{"inputs":[{"internalType":"address[]","name":"tokens","type":"address[]"},{"internalType":"uint256[]","name":"amounts","type":"uint256[]"},{"internalType":"uint256[]","name":"","type":"uint256[]"},{"internalType":"bytes","name":"userData","type":"bytes"}],"name":"receiveFlashLoan","outputs":[],"stateMutability":"nonpayable","type":"function"},{"inputs":[],"name":"renounceOwnership","outputs":[],"stateMutability":"nonpayable","type":"function"},{"inputs":[{"internalType":"address","name":"newOwner","type":"address"}],"name":"transferOwnership","outputs":[],"stateMutability":"nonpayable","type":"function"},{"inputs":[],"name":"withdrawETH","outputs":[],"stateMutability":"nonpayable","type":"function"},{"inputs":[{"internalType":"address","name":"token","type":"address"},{"internalType":"uint256","name":"amount","type":"uint256"}],"name":"withdrawToken","outputs":[],"stateMutability":"nonpayable","type":"function"},{"stateMutability":"payable","type":"receive"}],"evm":{"bytecode":{"linkReferences":{},"object":"6080806040523461007f57600160005533156100695760018054336001600160a01b03198216811790925560405191906001600160a01b03167f8be0079c531659141344cd1fd0a4f28419497f9722a3daafe3b4186f6b6457e0600080a36125d890816100858239f35b631e4fbdf760e01b815260006004820152602490fd5b600080fdfe60806040818152600436101561001f575b5050361561001d57600080fd5b005b600091823560e01c9081630542975c1461115e5750806306ec9b9e146111425780631b11d0ff14610ed3578063277754ed14610ea55780634a9dd70b14610e725780636e85962014610e0f5780636ff1c9bc14610d46578063715018a614610ce9578063720387cb14610cc45780637c1d953914610a825780637e8db6b314610a675780638da5cb5b14610a3f5780639e281a9814610a00578063a852b227146109e5578063b7ec8f2614610977578063b942717b14610949578063bc1638461461091b578063bd81b470146107f3578063ce6a9f0114610648578063d82649201461061a578063e086e5ec146105cb578063e1f1c4a7146105af578063f04f270714610223578063f2fde38b146101945763f9b2d6aa036100105734610190576020366003190112610190576107d06004358181029391811591850414171561017c5750633b9aca0061017460209361160d565b049051908152f35b634e487b7160e01b81526011600452602490fd5b5080fd5b5034610190576020366003190112610190576101ae61118c565b6101b661148e565b6001600160a01b0390811691821561020c5750600154826bffffffffffffffffffffffff60a01b821617600155167f8be0079c531659141344cd1fd0a4f28419497f9722a3daafe3b4186f6b6457e0600080a380f35b51631e4fbdf760e01b815260048101849052602490fd5b5034610190576080366003190112610190576001600160401b03906004358281116105ab57610256903690600401611368565b9060249081358481116105a7576102719036906004016113ce565b9260449283358681116105a35761028c9036906004016113ce565b506064358681116105a3576102a5903690600401611447565b73ba12222222228d8ba445958a75a0704d566bf2c8926102c684331461169e565b8151820197602098898101938a8183031261059f578a810151908382116105975701918291610140928391031261059f57875194610303866112de565b61030e8c8501611637565b865261031b898501611637565b8c8701526060840151898701526080840151600481101561059b57606087015260a0840151600481101561059b57608087015260c084015182811161059b57818d61036892870101611849565b60a087015260e0840151918211610597578b61038692850101611849565b60c08501526101008281015160e08601526101208084015191860191909152910151908301526001600160a01b03916103d590836103c38461188e565b51166103ce8a61188e565b51906118e8565b15610555578288836103e68461188e565b51168751928380926370a0823160e01b82523060048301525afa801561054b578a90610517575b610437915061042761041e8a61188e565b518210156116db565b6104308961188e565b5190611727565b986104418861188e565b516064810290808204606414901517156105045761271061046591048b1015611734565b805b82518110156104c457806104ba8b8b61049084896104886104bf988b6118b1565b5116926118b1565b518b519263a9059cbb60e01b908401528a8a8401528c8301528b82526104b582611315565b6117be565b61168f565b610467565b50887f26f6bbbd455b9507bac0682b6ff4a332a2834a438d602a13bdb22d491d440f3c878c866104f38761188e565b51169382519182524290820152a280f35b634e487b7160e01b825260116004528482fd5b508881813d8311610544575b61052d8183611330565b8101031261053f57610437905161040d565b600080fd5b503d610523565b86513d8c823e3d90fd5b845162461bcd60e51b815260048101899052601a818501527f41726269747261676520657865637574696f6e206661696c656400000000000081880152606490fd5b8c80fd5b8d80fd5b8b80fd5b8780fd5b8580fd5b8380fd5b5034610190578160031936011261019057602090516127108152f35b50346101905781600319360112610190576105e461148e565b8180808060018060a01b03600154164790828215610611575bf115610607575080f35b51903d90823e3d90fd5b506108fc6105fd565b503461019057816003193601126101905760209051737a250d5630b4cf539739df2c5dacb4c659f2488d8152f35b50903461079057600319606036820112610190576001600160401b03926004358481116105ab5761067d903690600401611285565b946024358181116105a757610696903690600401611285565b916044359081116107ef576106af9036906004016111b6565b90926106b961148e565b6106c161166c565b875b8181106107c9575073ba12222222228d8ba445958a75a0704d566bf2c892833b1561079c57865197632e1c224f60e11b89528a60848a013060048c0152608060248c01525260a48901968a9b5b808d106107a057505088870301604489015281865297985088976001600160fb1b03821161079c5761076388958694602086948d9a8b9760051b80928483013701601c868203016064870152019161164b565b03925af1908115610793575061077c575b506001905580f35b610785906112b5565b610790578038610774565b80fd5b513d84823e3d90fd5b8880fd5b90976001906001600160a01b036107b68b6111a2565b168152602080910199019c019b90610710565b806104ba6a084595161401484a0000006107ea9360051b87013511156114ba565b6106c3565b8680fd5b5090346107905761087661085b60208461086561088886610813366111e3565b9b51634a9dd70b60e01b81526001600160a01b03988916600482015296909716602487015260448601859052939c949b8c9a8b9a9798509691949391929160648b01906118c5565b60848901906118c5565b60e060a488015260e487019161164b565b8481036003190160c48601529161164b565b0381305afa8391816108e8575b506108ac575050805b825191825215156020820152f35b818111156108e057816108be91611727565b9160648202918083046064149015171561017c5750612710900481101561089e565b50508061089e565b9091506020813d8211610913575b8161090360209383611330565b8101031261053f57519038610895565b3d91506108f6565b50346101905781600319360112610190576020905173ba12222222228d8ba445958a75a0704d566bf2c88152f35b5034610190578160031936011261019057602090517390e00ace148ca3b23ac1bc8c240c2a7dd9c2d7f58152f35b509034610790576109873661126f565b90633b9aca00918281029281840414901517156109d157906109a8916115e4565b906107d09182810292818404149015171561017c5750670de0b6b3a76400006020925191048152f35b634e487b7160e01b83526011600452602483fd5b50346101905781600319360112610190576020905160328152f35b50346101905736600319011261079057610a3c610a1b61118c565b610a2361148e565b600154602435916001600160a01b039182169116611780565b80f35b503461019057816003193601126101905760015490516001600160a01b039091168152602090f35b50346101905781600319360112610190576020905160648152f35b503461019057606036600319011261019057610a9c61118c565b906024356044356001600160401b038111610c1257610abf9036906004016111b6565b9390610ac961148e565b610ad161166c565b610ae86a084595161401484a0000008411156114ba565b610af485820182611506565b6101208101516107d090818102918183041490151715610cb057610b179061160d565b3a11610c6c5761010001513a11610c2857835163026b1d5f60e01b815286939291602082600481732f39d218133afab8f2b819b1066c7e434ad94e9e5afa918215610c1e578592610bdf575b506001600160a01b0391821692833b156105a757610bb186928851998a97889687956310ac2ddf60e21b8752306004880152166024860152604485015260a0606485015260a484019161164b565b82608483015203925af19081156107935750610bd0575b506001815580f35b610bd9906112b5565b38610bc8565b9091506020813d8211610c16575b81610bfa60209383611330565b81010312610c1257610c0b90611637565b9038610b63565b8480fd5b3d9150610bed565b86513d87823e3d90fd5b835162461bcd60e51b815260206004820152601c60248201527f47617320707269636520657863656564732075736572206c696d6974000000006044820152606490fd5b845162461bcd60e51b815260206004820152601b60248201527f476173207072696365206578636565647320243530206c696d697400000000006044820152606490fd5b634e487b7160e01b88526011600452602488fd5b5034610190578160031936011261019057602090516a084595161401484a0000008152f35b8234610790578060031936011261079057610d0261148e565b600180546001600160a01b0319811690915581906001600160a01b03167f8be0079c531659141344cd1fd0a4f28419497f9722a3daafe3b4186f6b6457e08280a380f35b50346101905760203660031901126101905781610d6161118c565b610d6961148e565b6001600160a01b0390811680610d9557508180809260015416479082821561061157f115610607575080f35b929150600154168151926370a0823160e01b8452306004850152602084602481845afa928315610e0657508492610dd1575b610a3c9350611780565b91506020833d8211610dfe575b81610deb60209383611330565b810103126105ab57610a3c925191610dc7565b3d9150610dde565b513d86823e3d90fd5b50903461079057610e1f3661126f565b90633b9aca00918281029281840414901517156109d15790610e40916115e4565b906107d09182810292818404149015171561017c5750670de0b6b3a76400009004815190603281111582526020820152f35b503461019057602090610e9e610e99610e8a366111e3565b98959194929396509650612332565b612332565b9051908152f35b50346101905781600319360112610190576020905173d9e1ce17f2641f24ae83637ab66a2cca9c378b9f8152f35b50346101905760a036600319011261019057610eed61118c565b6001600160a01b03606435818116949160243591604435908790036105ab576084356001600160401b038111610c1257610f2b9036906004016111b6565b875163026b1d5f60e01b8152602099908a81600481732f39d218133afab8f2b819b1066c7e434ad94e9e5afa80156111385786908990611100575b610f73925016331461169e565b30036110c85781610f8991610f90930190611506565b84876118e8565b91818401958685116110b457169486516370a0823160e01b815230600482015288816024818a5afa80156110aa5782908790611079575b610fdd9250610fd8828210156116db565b611727565b9460648502908582046064148615171561017c575087947f26f6bbbd455b9507bac0682b6ff4a332a2834a438d602a13bdb22d491d440f3c969488946110577fe7055bb7f757aae8cfbf6ea2247e26371914425f5500c1d720f0746ae1ff880395611050612710606097048a1015611734565b3388611780565b87519283528b830152151586820152a281519081524286820152a25160018152f35b50508881813d83116110a3575b6110908183611330565b810103126105a75781610fdd9151610fc7565b503d611086565b88513d88823e3d90fd5b634e487b7160e01b86526011600452602486fd5b875162461bcd60e51b8152600481018a9052601160248201527024b73b30b634b21034b734ba34b0ba37b960791b6044820152606490fd5b50508a81813d8311611131575b6111178183611330565b810103126105a3578561112c610f7392611637565b610f66565b503d61110d565b8a513d8a823e3d90fd5b5034610190578160031936011261019057602090516107d08152f35b83903461019057816003193601126101905780732f39d218133afab8f2b819b1066c7e434ad94e9e60209252f35b600435906001600160a01b038216820361053f57565b35906001600160a01b038216820361053f57565b9181601f8401121561053f578235916001600160401b03831161053f576020838186019501011161053f57565b9060e060031983011261053f576001600160a01b0391600435838116810361053f5792602435908116810361053f579160443591606435600481101561053f5791608435600481101561053f57916001600160401b039160a43583811161053f5782611251916004016111b6565b9390939260c43591821161053f5761126b916004016111b6565b9091565b604090600319011261053f576004359060243590565b9181601f8401121561053f578235916001600160401b03831161053f576020808501948460051b01011161053f57565b6001600160401b0381116112c857604052565b634e487b7160e01b600052604160045260246000fd5b61014081019081106001600160401b038211176112c857604052565b606081019081106001600160401b038211176112c857604052565b608081019081106001600160401b038211176112c857604052565b90601f801991011681019081106001600160401b038211176112c857604052565b6001600160401b0381116112c85760051b60200190565b81601f8201121561053f5780359161137f83611351565b9261138d6040519485611330565b808452602092838086019260051b82010192831161053f578301905b8282106113b7575050505090565b8380916113c3846111a2565b8152019101906113a9565b81601f8201121561053f578035916113e583611351565b926113f36040519485611330565b808452602092838086019260051b82010192831161053f578301905b82821061141d575050505090565b8135815290830190830161140f565b6001600160401b0381116112c857601f01601f191660200190565b81601f8201121561053f5780359061145e8261142c565b9261146c6040519485611330565b8284526020838301011161053f57816000926020809301838601378301015290565b6001546001600160a01b031633036114a257565b60405163118cdaa760e01b8152336004820152602490fd5b156114c157565b60405162461bcd60e51b815260206004820152601960248201527f416d6f756e742065786365656473202431304d206c696d6974000000000000006044820152606490fd5b60208183031261053f5780356001600160401b039182821161053f5701906101408284031261053f576040519261153c846112de565b611545836111a2565b8452611553602084016111a2565b6020850152604083013560408501526060830135600481101561053f5760608501526080830135600481101561053f57608085015260a083013582811161053f57816115a0918501611447565b60a085015260c083013591821161053f576115bc918301611447565b60c083015260e081013560e08301526101008082013590830152610120809101359082015290565b818102929181159184041417156115f757565b634e487b7160e01b600052601160045260246000fd5b8015611621576802b5e3af16b18800000490565b634e487b7160e01b600052601260045260246000fd5b51906001600160a01b038216820361053f57565b908060209392818452848401376000828201840152601f01601f1916010190565b60026000541461167d576002600055565b604051633ee5aeb560e01b8152600490fd5b60001981146115f75760010190565b156116a557565b60405162461bcd60e51b815260206004820152600e60248201526d24b73b30b634b21031b0b63632b960911b6044820152606490fd5b156116e257565b60405162461bcd60e51b815260206004820152601d60248201527f496e73756666696369656e742062616c616e636520746f2072657061790000006044820152606490fd5b919082039182116115f757565b1561173b57565b60405162461bcd60e51b815260206004820152601960248201527f50726f6669742062656c6f77203125207468726573686f6c64000000000000006044820152606490fd5b60405163a9059cbb60e01b60208201526001600160a01b039290921660248301526044808301939093529181526117bc916104b5606483611330565b565b906000602091828151910182855af11561181a576000513d61181157506001600160a01b0381163b155b6117ef5750565b604051635274afe760e01b81526001600160a01b039091166004820152602490fd5b600114156117e8565b6040513d6000823e3d90fd5b60005b8381106118395750506000910152565b8181015183820152602001611829565b81601f8201121561053f57805161185f8161142c565b9261186d6040519485611330565b8184526020828401011161053f5761188b9160208085019101611826565b90565b80511561189b5760200190565b634e487b7160e01b600052603260045260246000fd5b805182101561189b5760209160051b010190565b9060048210156118d25752565b634e487b7160e01b600052602160045260246000fd5b6060830191825191600492838110156119f1579061190c918360a088015192611a5d565b60208501805160808701805192959390926001600160a01b039283169185821015611a485790611942929160c08b015192611a5d565b84600091818111600014611a405761195a9250611727565b965b60e08101518810611a06578180915116955116955191838310156119f1575192808410156119dc57506080926119cc7f99f5f2282ea6a09a6f4eca16f69a79543bd628094c28102155974b489b01959a95936119d6936001541699604051958652602086015260408501906118c5565b60608301906118c5565ba4600190565b602190634e487b7160e01b6000525260246000fd5b602184634e487b7160e01b6000525260246000fd5b60405162461bcd60e51b81526020818601526013602482015272125b9cdd59999a58da595b9d081c1c9bd99a5d606a1b6044820152606490fd5b50509661195c565b602186634e487b7160e01b6000525260246000fd5b909193929360048110156118d25780611c28575083518401602094858183031261053f5785810151916001600160401b03831161053f57611aa492878092019201016121d5565b9060018060a01b031690604051948086019563095ea7b360e01b93848852737a250d5630b4cf539739df2c5dacb4c659f2488d9485602484015286604484015260448352611af183611315565b836000809a85519082865af189513d82611c0c575b505015611bd5575b5050505061012c4201928342116110b45791611b5791868094604051968795869485936338ed173960e01b8552600485015284602485015260a0604485015260a48401906122b4565b90306064840152608483015203925af1908115611bca578391611ba8575b508051600019810191908211611b9457611b909293506118b1565b5190565b634e487b7160e01b84526011600452602484fd5b611bc491503d8085833e611bbc8183611330565b81019061223b565b38611b75565b6040513d85823e3d90fd5b611c03936104b5916040519182015286602482015289604482015260448152611bfd81611315565b826117be565b38808080611b0e565b909150611c205750813b15155b3880611b06565b600114611c19565b60018103611cb1575083518401602094858183031261053f5785810151916001600160401b03831161053f57611c6492878092019201016121d5565b9060018060a01b031690604051948086019563095ea7b360e01b9384885273d9e1ce17f2641f24ae83637ab66a2cca9c378b9f9485602484015286604484015260448352611af183611315565b9293929091906002810361200057508251830160208482031261053f5760208401516001600160401b039485821161053f57019060408282031261053f576040519160408301838110878211176112c8576040526020810151835260408101519186831161053f57611d2a9260208092019201016121d5565b602082810191825260405163095ea7b360e01b81830181815273ba12222222228d8ba445958a75a0704d566bf2c860248401526044808401889052835293966001600160a01b03169493909290600090611d8384611315565b83519082885af16000513d82611fe4575b505015611f93575b5050519251805160001981019081116115f7576001600160a01b0391611dc291906118b1565b5116906040519360c08501858110878211176112c85760405284526000602085015260408401526060830152608082015260405160408101818110848211176112c8576040526002815261060f60f31b602082015260a0820152604051916080830190838210908211176112c857604052308252600060208301523060408301526000606083015261012c420142116115f7576040516352bbbe2960e01b815260e06004820152815160e48201526020820151909260028210156118d2578360a06020948294610104840152600180831b03604082015116610124840152600180831b03606082015116610144840152608081015161016484015201519160c06101848301526060835191826101a4850152611ee7836101c496898888019101611826565b60018060a01b038151166024850152868101511515604485015260018060a01b036040820151166064850152015115156084830152600060a483015261012c420160c4830152601f80199101168101030181600073ba12222222228d8ba445958a75a0704d566bf2c85af190811561181a57600091611f64575090565b90506020813d602011611f8b575b81611f7f60209383611330565b8101031261053f575190565b3d9150611f72565b611fd7611fdd9260405190602082015273ba12222222228d8ba445958a75a0704d566bf2c860248201526000604482015260448152611fd181611315565b856117be565b836117be565b3880611d9c565b909150611ff85750833b15155b3880611d94565b600114611ff1565b919290916003146120425760405162461bcd60e51b815260206004820152600f60248201526e0aadce6eae0e0dee4e8cac840888ab608b1b6044820152606490fd5b60608180518101031261053f57608490604093845191612061836112fa565b60209384938493612073858501611637565b9081835261209460606120878c88016122f1565b96888601978852016122f1565b838b019081528a5163095ea7b360e01b8882018181526001600160a01b039586166024840181905260448085018f90528452939690959490939291908516908e906120e0606485611330565b60009d8e809986519082875af188513d826121b9575b505015612189575b50505050505116935191519389519889958694630f7c084960e21b8652600f0b6004860152600f0b602485015260448401528160648401525af193841561217e5750819361214d575b50505090565b9091809350813d8311612177575b6121658183611330565b81010312610790575051388080612147565b503d61215b565b51913d9150823e3d90fd5b6121af946104b59251918d830152602482015287604482015260448152611bfd81611315565b3880808d816120fe565b9091506121cd5750823b15155b38806120f6565b6001146121c6565b81601f8201121561053f578051916121ec83611351565b926121fa6040519485611330565b808452602092838086019260051b82010192831161053f578301905b828210612224575050505090565b83809161223084611637565b815201910190612216565b602090818184031261053f578051906001600160401b03821161053f57019180601f8401121561053f57825161227081611351565b9361227e6040519586611330565b818552838086019260051b82010192831161053f578301905b8282106122a5575050505090565b81518152908301908301612297565b90815180825260208080930193019160005b8281106122d4575050505090565b83516001600160a01b0316855293810193928101926001016122c6565b519081600f0b820361053f57565b359081600f0b820361053f57565b9060208282031261053f5781356001600160401b03811161053f5761188b9201611368565b9190939260049485811015611a4857806123fd575081612358916123829493019061230d565b6040519163d06ca61f60e01b835285830152604060248301528180600094859360448301906122b4565b0381737a250d5630b4cf539739df2c5dacb4c659f2488d5afa9081156123f25782916123d8575b5080516000198101929083116123c55750611b909293506118b1565b634e487b7160e01b815260118552602490fd5b6123ec91503d8084833e611bbc8183611330565b386123a9565b6040513d84823e3d90fd5b60018103612459575081612358916124179493019061230d565b038173d9e1ce17f2641f24ae83637ab66a2cca9c378b9f5afa9081156123f25782916123d8575080516000198101929083116123c55750611b909293506118b1565b93949360028103612498575050509060638202918083046063149015171561248357506064900490565b601190634e487b7160e01b6000525260246000fd5b6003146124e35760405162461bcd60e51b8152602081860152601e60248201527f556e737570706f727465642044455820666f722073696d756c6174696f6e00006044820152606490fd5b816060918101031261053f576040926064845192612500846112fa565b612509816111a2565b808552602095869561252c896125208987016122ff565b95868a850152016122ff565b98899101526040519788958694635e0d443f60e01b8652600f0b90850152600f0b6024840152604483015260018060a01b03165afa90811561181a57600091612576575b50905090565b82813d831161259b575b61258a8183611330565b810103126107905750518038612570565b503d61258056fea26469706673582212207005d5a33858d8d96c40a01f964dac83396742f6d052c8c47017bc90d8778a9264736f6c63430008140033","opcodes":"PUSH1 0x80 DUP1 PUSH1 0x40 MSTORE CALLVALUE PUSH2 0x7F JUMPI PUSH1 0x1 PUSH1 0x0 SSTORE CALLER ISZERO PUSH2 0x69 JUMPI PUSH1 0x1 DUP1 SLOAD CALLER PUSH1 0x1 PUSH1 0x1 PUSH1 0xA0 SHL SUB NOT DUP3 AND DUP2 OR SWAP1 SWAP3 SSTORE PUSH1 0x40 MLOAD SWAP2 SWAP1 PUSH1 0x1 PUSH1 0x1 PUSH1 0xA0 SHL SUB AND PUSH32 0x8BE0079C531659141344CD1FD0A4F28419497F9722A3DAAFE3B4186F6B6457E0 PUSH1 0x0 DUP1 LOG3 PUSH2 0x25D8 SWAP1 DUP2 PUSH2 0x85 DUP3 CODECOPY RETURN JUMPDEST PUSH4 0x1E4FBDF7 PUSH1 0xE0 SHL DUP2 MSTORE PUSH1 0x0 PUSH1 0x4 DUP3 ADD MSTORE PUSH1 0x24 SWAP1 REVERT JUMPDEST PUSH1 0x0 DUP1 REVERT INVALID PUSH1 0x80 PUSH1 0x40 DUP2 DUP2 MSTORE PUSH1 0x4 CALLDATASIZE LT ISZERO PUSH2 0x1F JUMPI JUMPDEST POP POP CALLDATASIZE ISZERO PUSH2 0x1D JUMPI PUSH1 0x0 DUP1 REVERT JUMPDEST STOP JUMPDEST PUSH1 0x0 SWAP2 DUP3 CALLDATALOAD PUSH1 0xE0 SHR SWAP1 DUP2 PUSH4 0x542975C EQ PUSH2 0x115E JUMPI POP DUP1 PUSH4 0x6EC9B9E EQ PUSH2 0x1142 JUMPI DUP1 PUSH4 0x1B11D0FF EQ PUSH2 0xED3 JUMPI DUP1 PUSH4 0x277754ED EQ PUSH2 0xEA5 JUMPI DUP1 PUSH4 0x4A9DD70B EQ PUSH2 0xE72 JUMPI DUP1 PUSH4 0x6E859620 EQ PUSH2 0xE0F JUMPI DUP1 PUSH4 0x6FF1C9BC EQ PUSH2 0xD46 JUMPI DUP1 PUSH4 0x715018A6 EQ PUSH2 0xCE9 JUMPI DUP1 PUSH4 0x720387CB EQ PUSH2 0xCC4 JUMPI DUP1 PUSH4 0x7C1D9539 EQ PUSH2 0xA82 JUMPI DUP1 PUSH4 0x7E8DB6B3 EQ PUSH2 0xA67 JUMPI DUP1 PUSH4 0x8DA5CB5B EQ PUSH2 0xA3F JUMPI DUP1 PUSH4 0x9E281A98 EQ PUSH2 0xA00 JUMPI DUP1 PUSH4 0xA852B227 EQ PUSH2 0x9E5 JUMPI DUP1 PUSH4 0xB7EC8F26 EQ PUSH2 0x977 JUMPI DUP1 PUSH4 0xB942717B EQ PUSH2 0x949 JUMPI DUP1 PUSH4 0xBC163846 EQ PUSH2 0x91B JUMPI DUP1 PUSH4 0xBD81B470 EQ PUSH2 0x7F3 JUMPI DUP1 PUSH4 0xCE6A9F01 EQ PUSH2 0x648 JUMPI DUP1 PUSH4 0xD8264920 EQ PUSH2 0x61A JUMPI DUP1 PUSH4 0xE086E5EC EQ PUSH2 0x5CB JUMPI DUP1 PUSH4 0xE1F1C4A7 EQ PUSH2 0x5AF JUMPI DUP1 PUSH4 0xF04F2707 EQ PUSH2 0x223 JUMPI DUP1 PUSH4 0xF2FDE38B EQ PUSH2 0x194 JUMPI PUSH4 0xF9B2D6AA SUB PUSH2 0x10 JUMPI CALLVALUE PUSH2 0x190 JUMPI PUSH1 0x20 CALLDATASIZE PUSH1 0x3 NOT ADD SLT PUSH2 0x190 JUMPI PUSH2 0x7D0 PUSH1 0x4 CALLDATALOAD DUP2 DUP2 MUL SWAP4 SWAP2 DUP2 ISZERO SWAP2 DUP6 DIV EQ OR ISZERO PUSH2 0x17C JUMPI POP PUSH4 0x3B9ACA00 PUSH2 0x174 PUSH1 0x20 SWAP4 PUSH2 0x160D JUMP JUMPDEST DIV SWAP1 MLOAD SWAP1 DUP2 MSTORE RETURN JUMPDEST PUSH4 0x4E487B71 PUSH1 0xE0 SHL DUP2 MSTORE PUSH1 0x11 PUSH1 0x4 MSTORE PUSH1 0x24 SWAP1 REVERT JUMPDEST POP DUP1 REVERT JUMPDEST POP CALLVALUE PUSH2 0x190 JUMPI PUSH1 0x20 CALLDATASIZE PUSH1 0x3 NOT ADD SLT PUSH2 0x190 JUMPI PUSH2 0x1AE PUSH2 0x118C JUMP JUMPDEST PUSH2 0x1B6 PUSH2 0x148E JUMP JUMPDEST PUSH1 0x1 PUSH1 0x1 PUSH1 0xA0 SHL SUB SWAP1 DUP2 AND SWAP2 DUP3 ISZERO PUSH2 0x20C JUMPI POP PUSH1 0x1 SLOAD DUP3 PUSH12 0xFFFFFFFFFFFFFFFFFFFFFFFF PUSH1 0xA0 SHL DUP3 AND OR PUSH1 0x1 SSTORE AND PUSH32 0x8BE0079C531659141344CD1FD0A4F28419497F9722A3DAAFE3B4186F6B6457E0 PUSH1 0x0 DUP1 LOG3 DUP1 RETURN JUMPDEST MLOAD PUSH4 0x1E4FBDF7 PUSH1 0xE0 SHL DUP2 MSTORE PUSH1 0x4 DUP2 ADD DUP5 SWAP1 MSTORE PUSH1 0x24 SWAP1 REVERT JUMPDEST POP CALLVALUE PUSH2 0x190 JUMPI PUSH1 0x80 CALLDATASIZE PUSH1 0x3 NOT ADD SLT PUSH2 0x190 JUMPI PUSH1 0x1 PUSH1 0x1 PUSH1 0x40 SHL SUB SWAP1 PUSH1 0x4 CALLDATALOAD DUP3 DUP2 GT PUSH2 0x5AB JUMPI PUSH2 0x256 SWAP1 CALLDATASIZE SWAP1 PUSH1 0x4 ADD PUSH2 0x1368 JUMP JUMPDEST SWAP1 PUSH1 0x24 SWAP1 DUP2 CALLDATALOAD DUP5 DUP2 GT PUSH2 0x5A7 JUMPI PUSH2 0x271 SWAP1 CALLDATASIZE SWAP1 PUSH1 0x4 ADD PUSH2 0x13CE JUMP JUMPDEST SWAP3 PUSH1 0x44 SWAP3 DUP4 CALLDATALOAD DUP7 DUP2 GT PUSH2 0x5A3 JUMPI PUSH2 0x28C SWAP1 CALLDATASIZE SWAP1 PUSH1 0x4 ADD PUSH2 0x13CE JUMP JUMPDEST POP PUSH1 0x64 CALLDATALOAD DUP7 DUP2 GT PUSH2 0x5A3 JUMPI PUSH2 0x2A5 SWAP1 CALLDATASIZE SWAP1 PUSH1 0x4 ADD PUSH2 0x1447 JUMP JUMPDEST PUSH20 0xBA12222222228D8BA445958A75A0704D566BF2C8 SWAP3 PUSH2 0x2C6 DUP5 CALLER EQ PUSH2 0x169E JUMP JUMPDEST DUP2 MLOAD DUP3 ADD SWAP8 PUSH1 0x20 SWAP9 DUP10 DUP2 ADD SWAP4 DUP11 DUP2 DUP4 SUB SLT PUSH2 0x59F JUMPI DUP11 DUP2 ADD MLOAD SWAP1 DUP4 DUP3 GT PUSH2 0x597 JUMPI ADD SWAP2 DUP3 SWAP2 PUSH2 0x140 SWAP3 DUP4 SWAP2 SUB SLT PUSH2 0x59F JUMPI DUP8 MLOAD SWAP5 PUSH2 0x303 DUP7 PUSH2 0x12DE JUMP JUMPDEST PUSH2 0x30E DUP13 DUP6 ADD PUSH2 0x1637 JUMP JUMPDEST DUP7 MSTORE PUSH2 0x31B DUP10 DUP6 ADD PUSH2 0x1637 JUMP JUMPDEST DUP13 DUP8 ADD MSTORE PUSH1 0x60 DUP5 ADD MLOAD DUP10 DUP8 ADD MSTORE PUSH1 0x80 DUP5 ADD MLOAD PUSH1 0x4 DUP2 LT ISZERO PUSH2 0x59B JUMPI PUSH1 0x60 DUP8 ADD MSTORE PUSH1 0xA0 DUP5 ADD MLOAD PUSH1 0x4 DUP2 LT ISZERO PUSH2 0x59B JUMPI PUSH1 0x80 DUP8 ADD MSTORE PUSH1 0xC0 DUP5 ADD MLOAD DUP3 DUP2 GT PUSH2 0x59B JUMPI DUP2 DUP14 PUSH2 0x368 SWAP3 DUP8 ADD ADD PUSH2 0x1849 JUMP JUMPDEST PUSH1 0xA0 DUP8 ADD MSTORE PUSH1 0xE0 DUP5 ADD MLOAD SWAP2 DUP3 GT PUSH2 0x597 JUMPI DUP12 PUSH2 0x386 SWAP3 DUP6 ADD ADD PUSH2 0x1849 JUMP JUMPDEST PUSH1 0xC0 DUP6 ADD MSTORE PUSH2 0x100 DUP3 DUP2 ADD MLOAD PUSH1 0xE0 DUP7 ADD MSTORE PUSH2 0x120 DUP1 DUP5 ADD MLOAD SWAP2 DUP7 ADD SWAP2 SWAP1 SWAP2 MSTORE SWAP2 ADD MLOAD SWAP1 DUP4 ADD MSTORE PUSH1 0x1 PUSH1 0x1 PUSH1 0xA0 SHL SUB SWAP2 PUSH2 0x3D5 SWAP1 DUP4 PUSH2 0x3C3 DUP5 PUSH2 0x188E JUMP JUMPDEST MLOAD AND PUSH2 0x3CE DUP11 PUSH2 0x188E JUMP JUMPDEST MLOAD SWAP1 PUSH2 0x18E8 JUMP JUMPDEST ISZERO PUSH2 0x555 JUMPI DUP3 DUP9 DUP4 PUSH2 0x3E6 DUP5 PUSH2 0x188E JUMP JUMPDEST MLOAD AND DUP8 MLOAD SWAP3 DUP4 DUP1 SWAP3 PUSH4 0x70A08231 PUSH1 0xE0 SHL DUP3 MSTORE ADDRESS PUSH1 0x4 DUP4 ADD MSTORE GAS STATICCALL DUP1 ISZERO PUSH2 0x54B JUMPI DUP11 SWAP1 PUSH2 0x517 JUMPI JUMPDEST PUSH2 0x437 SWAP2 POP PUSH2 0x427 PUSH2 0x41E DUP11 PUSH2 0x188E JUMP JUMPDEST MLOAD DUP3 LT ISZERO PUSH2 0x16DB JUMP JUMPDEST PUSH2 0x430 DUP10 PUSH2 0x188E JUMP JUMPDEST MLOAD SWAP1 PUSH2 0x1727 JUMP JUMPDEST SWAP9 PUSH2 0x441 DUP9 PUSH2 0x188E JUMP JUMPDEST MLOAD PUSH1 0x64 DUP2 MUL SWAP1 DUP1 DUP3 DIV PUSH1 0x64 EQ SWAP1 ISZERO OR ISZERO PUSH2 0x504 JUMPI PUSH2 0x2710 PUSH2 0x465 SWAP2 DIV DUP12 LT ISZERO PUSH2 0x1734 JUMP JUMPDEST DUP1 JUMPDEST DUP3 MLOAD DUP2 LT ISZERO PUSH2 0x4C4 JUMPI DUP1 PUSH2 0x4BA DUP12 DUP12 PUSH2 0x490 DUP5 DUP10 PUSH2 0x488 PUSH2 0x4BF SWAP9 DUP12 PUSH2 0x18B1 JUMP JUMPDEST MLOAD AND SWAP3 PUSH2 0x18B1 JUMP JUMPDEST MLOAD DUP12 MLOAD SWAP3 PUSH4 0xA9059CBB PUSH1 0xE0 SHL SWAP1 DUP5 ADD MSTORE DUP11 DUP11 DUP5 ADD MSTORE DUP13 DUP4 ADD MSTORE DUP12 DUP3 MSTORE PUSH2 0x4B5 DUP3 PUSH2 0x1315 JUMP JUMPDEST PUSH2 0x17BE JUMP JUMPDEST PUSH2 0x168F JUMP JUMPDEST PUSH2 0x467 JUMP JUMPDEST POP DUP9 PUSH32 0x26F6BBBD455B9507BAC0682B6FF4A332A2834A438D602A13BDB22D491D440F3C DUP8 DUP13 DUP7 PUSH2 0x4F3 DUP8 PUSH2 0x188E JUMP JUMPDEST MLOAD AND SWAP4 DUP3 MLOAD SWAP2 DUP3 MSTORE TIMESTAMP SWAP1 DUP3 ADD MSTORE LOG2 DUP1 RETURN JUMPDEST PUSH4 0x4E487B71 PUSH1 0xE0 SHL DUP3 MSTORE PUSH1 0x11 PUSH1 0x4 MSTORE DUP5 DUP3 REVERT JUMPDEST POP DUP9 DUP2 DUP2 RETURNDATASIZE DUP4 GT PUSH2 0x544 JUMPI JUMPDEST PUSH2 0x52D DUP2 DUP4 PUSH2 0x1330 JUMP JUMPDEST DUP2 ADD SUB SLT PUSH2 0x53F JUMPI PUSH2 0x437 SWAP1 MLOAD PUSH2 0x40D JUMP JUMPDEST PUSH1 0x0 DUP1 REVERT JUMPDEST POP RETURNDATASIZE PUSH2 0x523 JUMP JUMPDEST DUP7 MLOAD RETURNDATASIZE DUP13 DUP3 RETURNDATACOPY RETURNDATASIZE SWAP1 REVERT JUMPDEST DUP5 MLOAD PUSH3 0x461BCD PUSH1 0xE5 SHL DUP2 MSTORE PUSH1 0x4 DUP2 ADD DUP10 SWAP1 MSTORE PUSH1 0x1A DUP2 DUP6 ADD MSTORE PUSH32 0x41726269747261676520657865637574696F6E206661696C6564000000000000 DUP2 DUP9 ADD MSTORE PUSH1 0x64 SWAP1 REVERT JUMPDEST DUP13 DUP1 REVERT JUMPDEST DUP14 DUP1 REVERT JUMPDEST DUP12 DUP1 REVERT JUMPDEST DUP8 DUP1 REVERT JUMPDEST DUP6 DUP1 REVERT JUMPDEST DUP4 DUP1 REVERT JUMPDEST POP CALLVALUE PUSH2 0x190 JUMPI DUP2 PUSH1 0x3 NOT CALLDATASIZE ADD SLT PUSH2 0x190 JUMPI PUSH1 0x20 SWAP1 MLOAD PUSH2 0x2710 DUP2 MSTORE RETURN JUMPDEST POP CALLVALUE PUSH2 0x190 JUMPI DUP2 PUSH1 0x3 NOT CALLDATASIZE ADD SLT PUSH2 0x190 JUMPI PUSH2 0x5E4 PUSH2 0x148E JUMP JUMPDEST DUP2 DUP1 DUP1 DUP1 PUSH1 0x1 DUP1 PUSH1 0xA0 SHL SUB PUSH1 0x1 SLOAD AND SELFBALANCE SWAP1 DUP3 DUP3 ISZERO PUSH2 0x611 JUMPI JUMPDEST CALL ISZERO PUSH2 0x607 JUMPI POP DUP1 RETURN JUMPDEST MLOAD SWAP1 RETURNDATASIZE SWAP1 DUP3 RETURNDATACOPY RETURNDATASIZE SWAP1 REVERT JUMPDEST POP PUSH2 0x8FC PUSH2 0x5FD JUMP JUMPDEST POP CALLVALUE PUSH2 0x190 JUMPI DUP2 PUSH1 0x3 NOT CALLDATASIZE ADD SLT PUSH2 0x190 JUMPI PUSH1 0x20 SWAP1 MLOAD PUSH20 0x7A250D5630B4CF539739DF2C5DACB4C659F2488D DUP2 MSTORE RETURN JUMPDEST POP SWAP1 CALLVALUE PUSH2 0x790 JUMPI PUSH1 0x3 NOT PUSH1 0x60 CALLDATASIZE DUP3 ADD SLT PUSH2 0x190 JUMPI PUSH1 0x1 PUSH1 0x1 PUSH1 0x40 SHL SUB SWAP3 PUSH1 0x4 CALLDATALOAD DUP5 DUP2 GT PUSH2 0x5AB JUMPI PUSH2 0x67D SWAP1 CALLDATASIZE SWAP1 PUSH1 0x4 ADD PUSH2 0x1285 JUMP JUMPDEST SWAP5 PUSH1 0x24 CALLDATALOAD DUP2 DUP2 GT PUSH2 0x5A7 JUMPI PUSH2 0x696 SWAP1 CALLDATASIZE SWAP1 PUSH1 0x4 ADD PUSH2 0x1285 JUMP JUMPDEST SWAP2 PUSH1 0x44 CALLDATALOAD SWAP1 DUP2 GT PUSH2 0x7EF JUMPI PUSH2 0x6AF SWAP1 CALLDATASIZE SWAP1 PUSH1 0x4 ADD PUSH2 0x11B6 JUMP JUMPDEST SWAP1 SWAP3 PUSH2 0x6B9 PUSH2 0x148E JUMP JUMPDEST PUSH2 0x6C1 PUSH2 0x166C JUMP JUMPDEST DUP8 JUMPDEST DUP2 DUP2 LT PUSH2 0x7C9 JUMPI POP PUSH20 0xBA12222222228D8BA445958A75A0704D566BF2C8 SWAP3 DUP4 EXTCODESIZE ISZERO PUSH2 0x79C JUMPI DUP7 MLOAD SWAP8 PUSH4 0x2E1C224F PUSH1 0xE1 SHL DUP10 MSTORE DUP11 PUSH1 0x84 DUP11 ADD ADDRESS PUSH1 0x4 DUP13 ADD MSTORE PUSH1 0x80 PUSH1 0x24 DUP13 ADD MSTORE MSTORE PUSH1 0xA4 DUP10 ADD SWAP7 DUP11 SWAP12 JUMPDEST DUP1 DUP14 LT PUSH2 0x7A0 JUMPI POP POP DUP9 DUP8 SUB ADD PUSH1 0x44 DUP10 ADD MSTORE DUP2 DUP7 MSTORE SWAP8 SWAP9 POP DUP9 SWAP8 PUSH1 0x1 PUSH1 0x1 PUSH1 0xFB SHL SUB DUP3 GT PUSH2 0x79C JUMPI PUSH2 0x763 DUP9 SWAP6 DUP7 SWAP5 PUSH1 0x20 DUP7 SWAP5 DUP14 SWAP11 DUP12 SWAP8 PUSH1 0x5 SHL DUP1 SWAP3 DUP5 DUP4 ADD CALLDATACOPY ADD PUSH1 0x1C DUP7 DUP3 SUB ADD PUSH1 0x64 DUP8 ADD MSTORE ADD SWAP2 PUSH2 0x164B JUMP JUMPDEST SUB SWAP3 GAS CALL SWAP1 DUP2 ISZERO PUSH2 0x793 JUMPI POP PUSH2 0x77C JUMPI JUMPDEST POP PUSH1 0x1 SWAP1 SSTORE DUP1 RETURN JUMPDEST PUSH2 0x785 SWAP1 PUSH2 0x12B5 JUMP JUMPDEST PUSH2 0x790 JUMPI DUP1 CODESIZE PUSH2 0x774 JUMP JUMPDEST DUP1 REVERT JUMPDEST MLOAD RETURNDATASIZE DUP5 DUP3 RETURNDATACOPY RETURNDATASIZE SWAP1 REVERT JUMPDEST DUP9 DUP1 REVERT JUMPDEST SWAP1 SWAP8 PUSH1 0x1 SWAP1 PUSH1 0x1 PUSH1 0x1 PUSH1 0xA0 SHL SUB PUSH2 0x7B6 DUP12 PUSH2 0x11A2 JUMP JUMPDEST AND DUP2 MSTORE PUSH1 0x20 DUP1 SWAP2 ADD SWAP10 ADD SWAP13 ADD SWAP12 SWAP1 PUSH2 0x710 JUMP JUMPDEST DUP1 PUSH2 0x4BA PUSH11 0x84595161401484A000000 PUSH2 0x7EA SWAP4 PUSH1 0x5 SHL DUP8 ADD CALLDATALOAD GT ISZERO PUSH2 0x14BA JUMP JUMPDEST PUSH2 0x6C3 JUMP JUMPDEST DUP7 DUP1 REVERT JUMPDEST POP SWAP1 CALLVALUE PUSH2 0x790 JUMPI PUSH2 0x876 PUSH2 0x85B PUSH1 0x20 DUP5 PUSH2 0x865 PUSH2 0x888 DUP7 PUSH2 0x813 CALLDATASIZE PUSH2 0x11E3 JUMP JUMPDEST SWAP12 MLOAD PUSH4 0x4A9DD70B PUSH1 0xE0 SHL DUP2 MSTORE PUSH1 0x1 PUSH1 0x1 PUSH1 0xA0 SHL SUB SWAP9 DUP10 AND PUSH1 0x4 DUP3 ADD MSTORE SWAP7 SWAP1 SWAP8 AND PUSH1 0x24 DUP8 ADD MSTORE PUSH1 0x44 DUP7 ADD DUP6 SWAP1 MSTORE SWAP4 SWAP13 SWAP5 SWAP12 DUP13 SWAP11 DUP12 SWAP11 SWAP8 SWAP9 POP SWAP7 SWAP2 SWAP5 SWAP4 SWAP2 SWAP3 SWAP2 PUSH1 0x64 DUP12 ADD SWAP1 PUSH2 0x18C5 JUMP JUMPDEST PUSH1 0x84 DUP10 ADD SWAP1 PUSH2 0x18C5 JUMP JUMPDEST PUSH1 0xE0 PUSH1 0xA4 DUP9 ADD MSTORE PUSH1 0xE4 DUP8 ADD SWAP2 PUSH2 0x164B JUMP JUMPDEST DUP5 DUP2 SUB PUSH1 0x3 NOT ADD PUSH1 0xC4 DUP7 ADD MSTORE SWAP2 PUSH2 0x164B JUMP JUMPDEST SUB DUP2 ADDRESS GAS STATICCALL DUP4 SWAP2 DUP2 PUSH2 0x8E8 JUMPI JUMPDEST POP PUSH2 0x8AC JUMPI POP POP DUP1 JUMPDEST DUP3 MLOAD SWAP2 DUP3 MSTORE ISZERO ISZERO PUSH1 0x20 DUP3 ADD MSTORE RETURN JUMPDEST DUP2 DUP2 GT ISZERO PUSH2 0x8E0 JUMPI DUP2 PUSH2 0x8BE SWAP2 PUSH2 0x1727 JUMP JUMPDEST SWAP2 PUSH1 0x64 DUP3 MUL SWAP2 DUP1 DUP4 DIV PUSH1 0x64 EQ SWAP1 ISZERO OR ISZERO PUSH2 0x17C JUMPI POP PUSH2 0x2710 SWAP1 DIV DUP2 LT ISZERO PUSH2 0x89E JUMP JUMPDEST POP POP DUP1 PUSH2 0x89E JUMP JUMPDEST SWAP1 SWAP2 POP PUSH1 0x20 DUP2 RETURNDATASIZE DUP3 GT PUSH2 0x913 JUMPI JUMPDEST DUP2 PUSH2 0x903 PUSH1 0x20 SWAP4 DUP4 PUSH2 0x1330 JUMP JUMPDEST DUP2 ADD SUB SLT PUSH2 0x53F JUMPI MLOAD SWAP1 CODESIZE PUSH2 0x895 JUMP JUMPDEST RETURNDATASIZE SWAP2 POP PUSH2 0x8F6 JUMP JUMPDEST POP CALLVALUE PUSH2 0x190 JUMPI DUP2 PUSH1 0x3 NOT CALLDATASIZE ADD SLT PUSH2 0x190 JUMPI PUSH1 0x20 SWAP1 MLOAD PUSH20 0xBA12222222228D8BA445958A75A0704D566BF2C8 DUP2 MSTORE RETURN JUMPDEST POP CALLVALUE PUSH2 0x190 JUMPI DUP2 PUSH1 0x3 NOT CALLDATASIZE ADD SLT PUSH2 0x190 JUMPI PUSH1 0x20 SWAP1 MLOAD PUSH20 0x90E00ACE148CA3B23AC1BC8C240C2A7DD9C2D7F5 DUP2 MSTORE RETURN JUMPDEST POP SWAP1 CALLVALUE PUSH2 0x790 JUMPI PUSH2 0x987 CALLDATASIZE PUSH2 0x126F JUMP JUMPDEST SWAP1 PUSH4 0x3B9ACA00 SWAP2 DUP3 DUP2 MUL SWAP3 DUP2 DUP5 DIV EQ SWAP1 ISZERO OR ISZERO PUSH2 0x9D1 JUMPI SWAP1 PUSH2 0x9A8 SWAP2 PUSH2 0x15E4 JUMP JUMPDEST SWAP1 PUSH2 0x7D0 SWAP2 DUP3 DUP2 MUL SWAP3 DUP2 DUP5 DIV EQ SWAP1 ISZERO OR ISZERO PUSH2 0x17C JUMPI POP PUSH8 0xDE0B6B3A7640000 PUSH1 0x20 SWAP3 MLOAD SWAP2 DIV DUP2 MSTORE RETURN JUMPDEST PUSH4 0x4E487B71 PUSH1 0xE0 SHL DUP4 MSTORE PUSH1 0x11 PUSH1 0x4 MSTORE PUSH1 0x24 DUP4 REVERT JUMPDEST POP CALLVALUE PUSH2 0x190 JUMPI DUP2 PUSH1 0x3 NOT CALLDATASIZE ADD SLT PUSH2 0x190 JUMPI PUSH1 0x20 SWAP1 MLOAD PUSH1 0x32 DUP2 MSTORE RETURN JUMPDEST POP CALLVALUE PUSH2 0x190 JUMPI CALLDATASIZE PUSH1 0x3 NOT ADD SLT PUSH2 0x790 JUMPI PUSH2 0xA3C PUSH2 0xA1B PUSH2 0x118C JUMP JUMPDEST PUSH2 0xA23 PUSH2 0x148E JUMP JUMPDEST PUSH1 0x1 SLOAD PUSH1 0x24 CALLDATALOAD SWAP2 PUSH1 0x1 PUSH1 0x1 PUSH1 0xA0 SHL SUB SWAP2 DUP3 AND SWAP2 AND PUSH2 0x1780 JUMP JUMPDEST DUP1 RETURN JUMPDEST POP CALLVALUE PUSH2 0x190 JUMPI DUP2 PUSH1 0x3 NOT CALLDATASIZE ADD SLT PUSH2 0x190 JUMPI PUSH1 0x1 SLOAD SWAP1 MLOAD PUSH1 0x1 PUSH1 0x1 PUSH1 0xA0 SHL SUB SWAP1 SWAP2 AND DUP2 MSTORE PUSH1 0x20 SWAP1 RETURN JUMPDEST POP CALLVALUE PUSH2 0x190 JUMPI DUP2 PUSH1 0x3 NOT CALLDATASIZE ADD SLT PUSH2 0x190 JUMPI PUSH1 0x20 SWAP1 MLOAD PUSH1 0x64 DUP2 MSTORE RETURN JUMPDEST POP CALLVALUE PUSH2 0x190 JUMPI PUSH1 0x60 CALLDATASIZE PUSH1 0x3 NOT ADD SLT PUSH2 0x190 JUMPI PUSH2 0xA9C PUSH2 0x118C JUMP JUMPDEST SWAP1 PUSH1 0x24 CALLDATALOAD PUSH1 0x44 CALLDATALOAD PUSH1 0x1 PUSH1 0x1 PUSH1 0x40 SHL SUB DUP2 GT PUSH2 0xC12 JUMPI PUSH2 0xABF SWAP1 CALLDATASIZE SWAP1 PUSH1 0x4 ADD PUSH2 0x11B6 JUMP JUMPDEST SWAP4 SWAP1 PUSH2 0xAC9 PUSH2 0x148E JUMP JUMPDEST PUSH2 0xAD1 PUSH2 0x166C JUMP JUMPDEST PUSH2 0xAE8 PUSH11 0x84595161401484A000000 DUP5 GT ISZERO PUSH2 0x14BA JUMP JUMPDEST PUSH2 0xAF4 DUP6 DUP3 ADD DUP3 PUSH2 0x1506 JUMP JUMPDEST PUSH2 0x120 DUP2 ADD MLOAD PUSH2 0x7D0 SWAP1 DUP2 DUP2 MUL SWAP2 DUP2 DUP4 DIV EQ SWAP1 ISZERO OR ISZERO PUSH2 0xCB0 JUMPI PUSH2 0xB17 SWAP1 PUSH2 0x160D JUMP JUMPDEST GASPRICE GT PUSH2 0xC6C JUMPI PUSH2 0x100 ADD MLOAD GASPRICE GT PUSH2 0xC28 JUMPI DUP4 MLOAD PUSH4 0x26B1D5F PUSH1 0xE0 SHL DUP2 MSTORE DUP7 SWAP4 SWAP3 SWAP2 PUSH1 0x20 DUP3 PUSH1 0x4 DUP2 PUSH20 0x2F39D218133AFAB8F2B819B1066C7E434AD94E9E GAS STATICCALL SWAP2 DUP3 ISZERO PUSH2 0xC1E JUMPI DUP6 SWAP3 PUSH2 0xBDF JUMPI JUMPDEST POP PUSH1 0x1 PUSH1 0x1 PUSH1 0xA0 SHL SUB SWAP2 DUP3 AND SWAP3 DUP4 EXTCODESIZE ISZERO PUSH2 0x5A7 JUMPI PUSH2 0xBB1 DUP7 SWAP3 DUP9 MLOAD SWAP10 DUP11 SWAP8 DUP9 SWAP7 DUP8 SWAP6 PUSH4 0x10AC2DDF PUSH1 0xE2 SHL DUP8 MSTORE ADDRESS PUSH1 0x4 DUP9 ADD MSTORE AND PUSH1 0x24 DUP7 ADD MSTORE PUSH1 0x44 DUP6 ADD MSTORE PUSH1 0xA0 PUSH1 0x64 DUP6 ADD MSTORE PUSH1 0xA4 DUP5 ADD SWAP2 PUSH2 0x164B JUMP JUMPDEST DUP3 PUSH1 0x84 DUP4 ADD MSTORE SUB SWAP3 GAS CALL SWAP1 DUP2 ISZERO PUSH2 0x793 JUMPI POP PUSH2 0xBD0 JUMPI JUMPDEST POP PUSH1 0x1 DUP2 SSTORE DUP1 RETURN JUMPDEST PUSH2 0xBD9 SWAP1 PUSH2 0x12B5 JUMP JUMPDEST CODESIZE PUSH2 0xBC8 JUMP JUMPDEST SWAP1 SWAP2 POP PUSH1 0x20 DUP2 RETURNDATASIZE DUP3 GT PUSH2 0xC16 JUMPI JUMPDEST DUP2 PUSH2 0xBFA PUSH1 0x20 SWAP4 DUP4 PUSH2 0x1330 JUMP JUMPDEST DUP2 ADD SUB SLT PUSH2 0xC12 JUMPI PUSH2 0xC0B SWAP1 PUSH2 0x1637 JUMP JUMPDEST SWAP1 CODESIZE PUSH2 0xB63 JUMP JUMPDEST DUP5 DUP1 REVERT JUMPDEST RETURNDATASIZE SWAP2 POP PUSH2 0xBED JUMP JUMPDEST DUP7 MLOAD RETURNDATASIZE DUP8 DUP3 RETURNDATACOPY RETURNDATASIZE SWAP1 REVERT JUMPDEST DUP4 MLOAD PUSH3 0x461BCD PUSH1 0xE5 SHL DUP2 MSTORE PUSH1 0x20 PUSH1 0x4 DUP3 ADD MSTORE PUSH1 0x1C PUSH1 0x24 DUP3 ADD MSTORE PUSH32 0x47617320707269636520657863656564732075736572206C696D697400000000 PUSH1 0x44 DUP3 ADD MSTORE PUSH1 0x64 SWAP1 REVERT JUMPDEST DUP5 MLOAD PUSH3 0x461BCD PUSH1 0xE5 SHL DUP2 MSTORE PUSH1 0x20 PUSH1 0x4 DUP3 ADD MSTORE PUSH1 0x1B PUSH1 0x24 DUP3 ADD MSTORE PUSH32 0x476173207072696365206578636565647320243530206C696D69740000000000 PUSH1 0x44 DUP3 ADD MSTORE PUSH1 0x64 SWAP1 REVERT JUMPDEST PUSH4 0x4E487B71 PUSH1 0xE0 SHL DUP9 MSTORE PUSH1 0x11 PUSH1 0x4 MSTORE PUSH1 0x24 DUP9 REVERT JUMPDEST POP CALLVALUE PUSH2 0x190 JUMPI DUP2 PUSH1 0x3 NOT CALLDATASIZE ADD SLT PUSH2 0x190 JUMPI PUSH1 0x20 SWAP1 MLOAD PUSH11 0x84595161401484A000000 DUP2 MSTORE RETURN JUMPDEST DUP3 CALLVALUE PUSH2 0x790 JUMPI DUP1 PUSH1 0x3 NOT CALLDATASIZE ADD SLT PUSH2 0x790 JUMPI PUSH2 0xD02 PUSH2 0x148E JUMP JUMPDEST PUSH1 0x1 DUP1 SLOAD PUSH1 0x1 PUSH1 0x1 PUSH1 0xA0 SHL SUB NOT DUP2 AND SWAP1 SWAP2 SSTORE DUP2 SWAP1 PUSH1 0x1 PUSH1 0x1 PUSH1 0xA0 SHL SUB AND PUSH32 0x8BE0079C531659141344CD1FD0A4F28419497F9722A3DAAFE3B4186F6B6457E0 DUP3 DUP1 LOG3 DUP1 RETURN JUMPDEST POP CALLVALUE PUSH2 0x190 JUMPI PUSH1 0x20 CALLDATASIZE PUSH1 0x3 NOT ADD SLT PUSH2 0x190 JUMPI DUP2 PUSH2 0xD61 PUSH2 0x118C JUMP JUMPDEST PUSH2 0xD69 PUSH2 0x148E JUMP JUMPDEST PUSH1 0x1 PUSH1 0x1 PUSH1 0xA0 SHL SUB SWAP1 DUP2 AND DUP1 PUSH2 0xD95 JUMPI POP DUP2 DUP1 DUP1 SWAP3 PUSH1 0x1 SLOAD AND SELFBALANCE SWAP1 DUP3 DUP3 ISZERO PUSH2 0x611 JUMPI CALL ISZERO PUSH2 0x607 JUMPI POP DUP1 RETURN JUMPDEST SWAP3 SWAP2 POP PUSH1 0x1 SLOAD AND DUP2 MLOAD SWAP3 PUSH4 0x70A08231 PUSH1 0xE0 SHL DUP5 MSTORE ADDRESS PUSH1 0x4 DUP6 ADD MSTORE PUSH1 0x20 DUP5 PUSH1 0x24 DUP2 DUP5 GAS STATICCALL SWAP3 DUP4 ISZERO PUSH2 0xE06 JUMPI POP DUP5 SWAP3 PUSH2 0xDD1 JUMPI JUMPDEST PUSH2 0xA3C SWAP4 POP PUSH2 0x1780 JUMP JUMPDEST SWAP2 POP PUSH1 0x20 DUP4 RETURNDATASIZE DUP3 GT PUSH2 0xDFE JUMPI JUMPDEST DUP2 PUSH2 0xDEB PUSH1 0x20 SWAP4 DUP4 PUSH2 0x1330 JUMP JUMPDEST DUP2 ADD SUB SLT PUSH2 0x5AB JUMPI PUSH2 0xA3C SWAP3 MLOAD SWAP2 PUSH2 0xDC7 JUMP JUMPDEST RETURNDATASIZE SWAP2 POP PUSH2 0xDDE JUMP JUMPDEST MLOAD RETURNDATASIZE DUP7 DUP3 RETURNDATACOPY RETURNDATASIZE SWAP1 REVERT JUMPDEST POP SWAP1 CALLVALUE PUSH2 0x790 JUMPI PUSH2 0xE1F CALLDATASIZE PUSH2 0x126F JUMP JUMPDEST SWAP1 PUSH4 0x3B9ACA00 SWAP2 DUP3 DUP2 MUL SWAP3 DUP2 DUP5 DIV EQ SWAP1 ISZERO OR ISZERO PUSH2 0x9D1 JUMPI SWAP1 PUSH2 0xE40 SWAP2 PUSH2 0x15E4 JUMP JUMPDEST SWAP1 PUSH2 0x7D0 SWAP2 DUP3 DUP2 MUL SWAP3 DUP2 DUP5 DIV EQ SWAP1 ISZERO OR ISZERO PUSH2 0x17C JUMPI POP PUSH8 0xDE0B6B3A7640000 SWAP1 DIV DUP2 MLOAD SWAP1 PUSH1 0x32 DUP2 GT ISZERO DUP3 MSTORE PUSH1 0x20 DUP3 ADD MSTORE RETURN JUMPDEST POP CALLVALUE PUSH2 0x190 JUMPI PUSH1 0x20 SWAP1 PUSH2 0xE9E PUSH2 0xE99 PUSH2 0xE8A CALLDATASIZE PUSH2 0x11E3 JUMP JUMPDEST SWAP9 SWAP6 SWAP2 SWAP5 SWAP3 SWAP4 SWAP7 POP SWAP7 POP PUSH2 0x2332 JUMP JUMPDEST PUSH2 0x2332 JUMP JUMPDEST SWAP1 MLOAD SWAP1 DUP2 MSTORE RETURN JUMPDEST POP CALLVALUE PUSH2 0x190 JUMPI DUP2 PUSH1 0x3 NOT CALLDATASIZE ADD SLT PUSH2 0x190 JUMPI PUSH1 0x20 SWAP1 MLOAD PUSH20 0xD9E1CE17F2641F24AE83637AB66A2CCA9C378B9F DUP2 MSTORE RETURN JUMPDEST POP CALLVALUE PUSH2 0x190 JUMPI PUSH1 0xA0 CALLDATASIZE PUSH1 0x3 NOT ADD SLT PUSH2 0x190 JUMPI PUSH2 0xEED PUSH2 0x118C JUMP JUMPDEST PUSH1 0x1 PUSH1 0x1 PUSH1 0xA0 SHL SUB PUSH1 0x64 CALLDATALOAD DUP2 DUP2 AND SWAP5 SWAP2 PUSH1 0x24 CALLDATALOAD SWAP2 PUSH1 0x44 CALLDATALOAD SWAP1 DUP8 SWAP1 SUB PUSH2 0x5AB JUMPI PUSH1 0x84 CALLDATALOAD PUSH1 0x1 PUSH1 0x1 PUSH1 0x40 SHL SUB DUP2 GT PUSH2 0xC12 JUMPI PUSH2 0xF2B SWAP1 CALLDATASIZE SWAP1 PUSH1 0x4 ADD PUSH2 0x11B6 JUMP JUMPDEST DUP8 MLOAD PUSH4 0x26B1D5F PUSH1 0xE0 SHL DUP2 MSTORE PUSH1 0x20 SWAP10 SWAP1 DUP11 DUP2 PUSH1 0x4 DUP2 PUSH20 0x2F39D218133AFAB8F2B819B1066C7E434AD94E9E GAS STATICCALL DUP1 ISZERO PUSH2 0x1138 JUMPI DUP7 SWAP1 DUP10 SWAP1 PUSH2 0x1100 JUMPI JUMPDEST PUSH2 0xF73 SWAP3 POP AND CALLER EQ PUSH2 0x169E JUMP JUMPDEST ADDRESS SUB PUSH2 0x10C8 JUMPI DUP2 PUSH2 0xF89 SWAP2 PUSH2 0xF90 SWAP4 ADD SWAP1 PUSH2 0x1506 JUMP JUMPDEST DUP5 DUP8 PUSH2 0x18E8 JUMP JUMPDEST SWAP2 DUP2 DUP5 ADD SWAP6 DUP7 DUP6 GT PUSH2 0x10B4 JUMPI AND SWAP5 DUP7 MLOAD PUSH4 0x70A08231 PUSH1 0xE0 SHL DUP2 MSTORE ADDRESS PUSH1 0x4 DUP3 ADD MSTORE DUP9 DUP2 PUSH1 0x24 DUP2 DUP11 GAS STATICCALL DUP1 ISZERO PUSH2 0x10AA JUMPI DUP3 SWAP1 DUP8 SWAP1 PUSH2 0x1079 JUMPI JUMPDEST PUSH2 0xFDD SWAP3 POP PUSH2 0xFD8 DUP3 DUP3 LT ISZERO PUSH2 0x16DB JUMP JUMPDEST PUSH2 0x1727 JUMP JUMPDEST SWAP5 PUSH1 0x64 DUP6 MUL SWAP1 DUP6 DUP3 DIV PUSH1 0x64 EQ DUP7 ISZERO OR ISZERO PUSH2 0x17C JUMPI POP DUP8 SWAP5 PUSH32 0x26F6BBBD455B9507BAC0682B6FF4A332A2834A438D602A13BDB22D491D440F3C SWAP7 SWAP5 DUP9 SWAP5 PUSH2 0x1057 PUSH32 0xE7055BB7F757AAE8CFBF6EA2247E26371914425F5500C1D720F0746AE1FF8803 SWAP6 PUSH2 0x1050 PUSH2 0x2710 PUSH1 0x60 SWAP8 DIV DUP11 LT ISZERO PUSH2 0x1734 JUMP JUMPDEST CALLER DUP9 PUSH2 0x1780 JUMP JUMPDEST DUP8 MLOAD SWAP3 DUP4 MSTORE DUP12 DUP4 ADD MSTORE ISZERO ISZERO DUP7 DUP3 ADD MSTORE LOG2 DUP2 MLOAD SWAP1 DUP2 MSTORE TIMESTAMP DUP7 DUP3 ADD MSTORE LOG2 MLOAD PUSH1 0x1 DUP2 MSTORE RETURN JUMPDEST POP POP DUP9 DUP2 DUP2 RETURNDATASIZE DUP4 GT PUSH2 0x10A3 JUMPI JUMPDEST PUSH2 0x1090 DUP2 DUP4 PUSH2 0x1330 JUMP JUMPDEST DUP2 ADD SUB SLT PUSH2 0x5A7 JUMPI DUP2 PUSH2 0xFDD SWAP2 MLOAD PUSH2 0xFC7 JUMP JUMPDEST POP RETURNDATASIZE PUSH2 0x1086 JUMP JUMPDEST DUP9 MLOAD RETURNDATASIZE DUP9 DUP3 RETURNDATACOPY RETURNDATASIZE SWAP1 REVERT JUMPDEST PUSH4 0x4E487B71 PUSH1 0xE0 SHL DUP7 MSTORE PUSH1 0x11 PUSH1 0x4 MSTORE PUSH1 0x24 DUP7 REVERT JUMPDEST DUP8 MLOAD PUSH3 0x461BCD PUSH1 0xE5 SHL DUP2 MSTORE PUSH1 0x4 DUP2 ADD DUP11 SWAP1 MSTORE PUSH1 0x11 PUSH1 0x24 DUP3 ADD MSTORE PUSH17 0x24B73B30B634B21034B734BA34B0BA37B9 PUSH1 0x79 SHL PUSH1 0x44 DUP3 ADD MSTORE PUSH1 0x64 SWAP1 REVERT JUMPDEST POP POP DUP11 DUP2 DUP2 RETURNDATASIZE DUP4 GT PUSH2 0x1131 JUMPI JUMPDEST PUSH2 0x1117 DUP2 DUP4 PUSH2 0x1330 JUMP JUMPDEST DUP2 ADD SUB SLT PUSH2 0x5A3 JUMPI DUP6 PUSH2 0x112C PUSH2 0xF73 SWAP3 PUSH2 0x1637 JUMP JUMPDEST PUSH2 0xF66 JUMP JUMPDEST POP RETURNDATASIZE PUSH2 0x110D JUMP JUMPDEST DUP11 MLOAD RETURNDATASIZE DUP11 DUP3 RETURNDATACOPY RETURNDATASIZE SWAP1 REVERT JUMPDEST POP CALLVALUE PUSH2 0x190 JUMPI DUP2 PUSH1 0x3 NOT CALLDATASIZE ADD SLT PUSH2 0x190 JUMPI PUSH1 0x20 SWAP1 MLOAD PUSH2 0x7D0 DUP2 MSTORE RETURN JUMPDEST DUP4 SWAP1 CALLVALUE PUSH2 0x190 JUMPI DUP2 PUSH1 0x3 NOT CALLDATASIZE ADD SLT PUSH2 0x190 JUMPI DUP1 PUSH20 0x2F39D218133AFAB8F2B819B1066C7E434AD94E9E PUSH1 0x20 SWAP3 MSTORE RETURN JUMPDEST PUSH1 0x4 CALLDATALOAD SWAP1 PUSH1 0x1 PUSH1 0x1 PUSH1 0xA0 SHL SUB DUP3 AND DUP3 SUB PUSH2 0x53F JUMPI JUMP JUMPDEST CALLDATALOAD SWAP1 PUSH1 0x1 PUSH1 0x1 PUSH1 0xA0 SHL SUB DUP3 AND DUP3 SUB PUSH2 0x53F JUMPI JUMP JUMPDEST SWAP2 DUP2 PUSH1 0x1F DUP5 ADD SLT ISZERO PUSH2 0x53F JUMPI DUP3 CALLDATALOAD SWAP2 PUSH1 0x1 PUSH1 0x1 PUSH1 0x40 SHL SUB DUP4 GT PUSH2 0x53F JUMPI PUSH1 0x20 DUP4 DUP2 DUP7 ADD SWAP6 ADD ADD GT PUSH2 0x53F JUMPI JUMP JUMPDEST SWAP1 PUSH1 0xE0 PUSH1 0x3 NOT DUP4 ADD SLT PUSH2 0x53F JUMPI PUSH1 0x1 PUSH1 0x1 PUSH1 0xA0 SHL SUB SWAP2 PUSH1 0x4 CALLDATALOAD DUP4 DUP2 AND DUP2 SUB PUSH2 0x53F JUMPI SWAP3 PUSH1 0x24 CALLDATALOAD SWAP1 DUP2 AND DUP2 SUB PUSH2 0x53F JUMPI SWAP2 PUSH1 0x44 CALLDATALOAD SWAP2 PUSH1 0x64 CALLDATALOAD PUSH1 0x4 DUP2 LT ISZERO PUSH2 0x53F JUMPI SWAP2 PUSH1 0x84 CALLDATALOAD PUSH1 0x4 DUP2 LT ISZERO PUSH2 0x53F JUMPI SWAP2 PUSH1 0x1 PUSH1 0x1 PUSH1 0x40 SHL SUB SWAP2 PUSH1 0xA4 CALLDATALOAD DUP4 DUP2 GT PUSH2 0x53F JUMPI DUP3 PUSH2 0x1251 SWAP2 PUSH1 0x4 ADD PUSH2 0x11B6 JUMP JUMPDEST SWAP4 SWAP1 SWAP4 SWAP3 PUSH1 0xC4 CALLDATALOAD SWAP2 DUP3 GT PUSH2 0x53F JUMPI PUSH2 0x126B SWAP2 PUSH1 0x4 ADD PUSH2 0x11B6 JUMP JUMPDEST SWAP1 SWAP2 JUMP JUMPDEST PUSH1 0x40 SWAP1 PUSH1 0x3 NOT ADD SLT PUSH2 0x53F JUMPI PUSH1 0x4 CALLDATALOAD SWAP1 PUSH1 0x24 CALLDATALOAD SWAP1 JUMP JUMPDEST SWAP2 DUP2 PUSH1 0x1F DUP5 ADD SLT ISZERO PUSH2 0x53F JUMPI DUP3 CALLDATALOAD SWAP2 PUSH1 0x1 PUSH1 0x1 PUSH1 0x40 SHL SUB DUP4 GT PUSH2 0x53F JUMPI PUSH1 0x20 DUP1 DUP6 ADD SWAP5 DUP5 PUSH1 0x5 SHL ADD ADD GT PUSH2 0x53F JUMPI JUMP JUMPDEST PUSH1 0x1 PUSH1 0x1 PUSH1 0x40 SHL SUB DUP2 GT PUSH2 0x12C8 JUMPI PUSH1 0x40 MSTORE JUMP JUMPDEST PUSH4 0x4E487B71 PUSH1 0xE0 SHL PUSH1 0x0 MSTORE PUSH1 0x41 PUSH1 0x4 MSTORE PUSH1 0x24 PUSH1 0x0 REVERT JUMPDEST PUSH2 0x140 DUP2 ADD SWAP1 DUP2 LT PUSH1 0x1 PUSH1 0x1 PUSH1 0x40 SHL SUB DUP3 GT OR PUSH2 0x12C8 JUMPI PUSH1 0x40 MSTORE JUMP JUMPDEST PUSH1 0x60 DUP2 ADD SWAP1 DUP2 LT PUSH1 0x1 PUSH1 0x1 PUSH1 0x40 SHL SUB DUP3 GT OR PUSH2 0x12C8 JUMPI PUSH1 0x40 MSTORE JUMP JUMPDEST PUSH1 0x80 DUP2 ADD SWAP1 DUP2 LT PUSH1 0x1 PUSH1 0x1 PUSH1 0x40 SHL SUB DUP3 GT OR PUSH2 0x12C8 JUMPI PUSH1 0x40 MSTORE JUMP JUMPDEST SWAP1 PUSH1 0x1F DUP1 NOT SWAP2 ADD AND DUP2 ADD SWAP1 DUP2 LT PUSH1 0x1 PUSH1 0x1 PUSH1 0x40 SHL SUB DUP3 GT OR PUSH2 0x12C8 JUMPI PUSH1 0x40 MSTORE JUMP JUMPDEST PUSH1 0x1 PUSH1 0x1 PUSH1 0x40 SHL SUB DUP2 GT PUSH2 0x12C8 JUMPI PUSH1 0x5 SHL PUSH1 0x20 ADD SWAP1 JUMP JUMPDEST DUP2 PUSH1 0x1F DUP3 ADD SLT ISZERO PUSH2 0x53F JUMPI DUP1 CALLDATALOAD SWAP2 PUSH2 0x137F DUP4 PUSH2 0x1351 JUMP JUMPDEST SWAP3 PUSH2 0x138D PUSH1 0x40 MLOAD SWAP5 DUP6 PUSH2 0x1330 JUMP JUMPDEST DUP1 DUP5 MSTORE PUSH1 0x20 SWAP3 DUP4 DUP1 DUP7 ADD SWAP3 PUSH1 0x5 SHL DUP3 ADD ADD SWAP3 DUP4 GT PUSH2 0x53F JUMPI DUP4 ADD SWAP1 JUMPDEST DUP3 DUP3 LT PUSH2 0x13B7 JUMPI POP POP POP POP SWAP1 JUMP JUMPDEST DUP4 DUP1 SWAP2 PUSH2 0x13C3 DUP5 PUSH2 0x11A2 JUMP JUMPDEST DUP2 MSTORE ADD SWAP2 ADD SWAP1 PUSH2 0x13A9 JUMP JUMPDEST DUP2 PUSH1 0x1F DUP3 ADD SLT ISZERO PUSH2 0x53F JUMPI DUP1 CALLDATALOAD SWAP2 PUSH2 0x13E5 DUP4 PUSH2 0x1351 JUMP JUMPDEST SWAP3 PUSH2 0x13F3 PUSH1 0x40 MLOAD SWAP5 DUP6 PUSH2 0x1330 JUMP JUMPDEST DUP1 DUP5 MSTORE PUSH1 0x20 SWAP3 DUP4 DUP1 DUP7 ADD SWAP3 PUSH1 0x5 SHL DUP3 ADD ADD SWAP3 DUP4 GT PUSH2 0x53F JUMPI DUP4 ADD SWAP1 JUMPDEST DUP3 DUP3 LT PUSH2 0x141D JUMPI POP POP POP POP SWAP1 JUMP JUMPDEST DUP2 CALLDATALOAD DUP2 MSTORE SWAP1 DUP4 ADD SWAP1 DUP4 ADD PUSH2 0x140F JUMP JUMPDEST PUSH1 0x1 PUSH1 0x1 PUSH1 0x40 SHL SUB DUP2 GT PUSH2 0x12C8 JUMPI PUSH1 0x1F ADD PUSH1 0x1F NOT AND PUSH1 0x20 ADD SWAP1 JUMP JUMPDEST DUP2 PUSH1 0x1F DUP3 ADD SLT ISZERO PUSH2 0x53F JUMPI DUP1 CALLDATALOAD SWAP1 PUSH2 0x145E DUP3 PUSH2 0x142C JUMP JUMPDEST SWAP3 PUSH2 0x146C PUSH1 0x40 MLOAD SWAP5 DUP6 PUSH2 0x1330 JUMP JUMPDEST DUP3 DUP5 MSTORE PUSH1 0x20 DUP4 DUP4 ADD ADD GT PUSH2 0x53F JUMPI DUP2 PUSH1 0x0 SWAP3 PUSH1 0x20 DUP1 SWAP4 ADD DUP4 DUP7 ADD CALLDATACOPY DUP4 ADD ADD MSTORE SWAP1 JUMP JUMPDEST PUSH1 0x1 SLOAD PUSH1 0x1 PUSH1 0x1 PUSH1 0xA0 SHL SUB AND CALLER SUB PUSH2 0x14A2 JUMPI JUMP JUMPDEST PUSH1 0x40 MLOAD PUSH4 0x118CDAA7 PUSH1 0xE0 SHL DUP2 MSTORE CALLER PUSH1 0x4 DUP3 ADD MSTORE PUSH1 0x24 SWAP1 REVERT JUMPDEST ISZERO PUSH2 0x14C1 JUMPI JUMP JUMPDEST PUSH1 0x40 MLOAD PUSH3 0x461BCD PUSH1 0xE5 SHL DUP2 MSTORE PUSH1 0x20 PUSH1 0x4 DUP3 ADD MSTORE PUSH1 0x19 PUSH1 0x24 DUP3 ADD MSTORE PUSH32 0x416D6F756E742065786365656473202431304D206C696D697400000000000000 PUSH1 0x44 DUP3 ADD MSTORE PUSH1 0x64 SWAP1 REVERT JUMPDEST PUSH1 0x20 DUP2 DUP4 SUB SLT PUSH2 0x53F JUMPI DUP1 CALLDATALOAD PUSH1 0x1 PUSH1 0x1 PUSH1 0x40 SHL SUB SWAP2 DUP3 DUP3 GT PUSH2 0x53F JUMPI ADD SWAP1 PUSH2 0x140 DUP3 DUP5 SUB SLT PUSH2 0x53F JUMPI PUSH1 0x40 MLOAD SWAP3 PUSH2 0x153C DUP5 PUSH2 0x12DE JUMP JUMPDEST PUSH2 0x1545 DUP4 PUSH2 0x11A2 JUMP JUMPDEST DUP5 MSTORE PUSH2 0x1553 PUSH1 0x20 DUP5 ADD PUSH2 0x11A2 JUMP JUMPDEST PUSH1 0x20 DUP6 ADD MSTORE PUSH1 0x40 DUP4 ADD CALLDATALOAD PUSH1 0x40 DUP6 ADD MSTORE PUSH1 0x60 DUP4 ADD CALLDATALOAD PUSH1 0x4 DUP2 LT ISZERO PUSH2 0x53F JUMPI PUSH1 0x60 DUP6 ADD MSTORE PUSH1 0x80 DUP4 ADD CALLDATALOAD PUSH1 0x4 DUP2 LT ISZERO PUSH2 0x53F JUMPI PUSH1 0x80 DUP6 ADD MSTORE PUSH1 0xA0 DUP4 ADD CALLDATALOAD DUP3 DUP2 GT PUSH2 0x53F JUMPI DUP2 PUSH2 0x15A0 SWAP2 DUP6 ADD PUSH2 0x1447 JUMP JUMPDEST PUSH1 0xA0 DUP6 ADD MSTORE PUSH1 0xC0 DUP4 ADD CALLDATALOAD SWAP2 DUP3 GT PUSH2 0x53F JUMPI PUSH2 0x15BC SWAP2 DUP4 ADD PUSH2 0x1447 JUMP JUMPDEST PUSH1 0xC0 DUP4 ADD MSTORE PUSH1 0xE0 DUP2 ADD CALLDATALOAD PUSH1 0xE0 DUP4 ADD MSTORE PUSH2 0x100 DUP1 DUP3 ADD CALLDATALOAD SWAP1 DUP4 ADD MSTORE PUSH2 0x120 DUP1 SWAP2 ADD CALLDATALOAD SWAP1 DUP3 ADD MSTORE SWAP1 JUMP JUMPDEST DUP2 DUP2 MUL SWAP3 SWAP2 DUP2 ISZERO SWAP2 DUP5 DIV EQ OR ISZERO PUSH2 0x15F7 JUMPI JUMP JUMPDEST PUSH4 0x4E487B71 PUSH1 0xE0 SHL PUSH1 0x0 MSTORE PUSH1 0x11 PUSH1 0x4 MSTORE PUSH1 0x24 PUSH1 0x0 REVERT JUMPDEST DUP1 ISZERO PUSH2 0x1621 JUMPI PUSH9 0x2B5E3AF16B1880000 DIV SWAP1 JUMP JUMPDEST PUSH4 0x4E487B71 PUSH1 0xE0 SHL PUSH1 0x0 MSTORE PUSH1 0x12 PUSH1 0x4 MSTORE PUSH1 0x24 PUSH1 0x0 REVERT JUMPDEST MLOAD SWAP1 PUSH1 0x1 PUSH1 0x1 PUSH1 0xA0 SHL SUB DUP3 AND DUP3 SUB PUSH2 0x53F JUMPI JUMP JUMPDEST SWAP1 DUP1 PUSH1 0x20 SWAP4 SWAP3 DUP2 DUP5 MSTORE DUP5 DUP5 ADD CALLDATACOPY PUSH1 0x0 DUP3 DUP3 ADD DUP5 ADD MSTORE PUSH1 0x1F ADD PUSH1 0x1F NOT AND ADD ADD SWAP1 JUMP JUMPDEST PUSH1 0x2 PUSH1 0x0 SLOAD EQ PUSH2 0x167D JUMPI PUSH1 0x2 PUSH1 0x0 SSTORE JUMP JUMPDEST PUSH1 0x40 MLOAD PUSH4 0x3EE5AEB5 PUSH1 0xE0 SHL DUP2 MSTORE PUSH1 0x4 SWAP1 REVERT JUMPDEST PUSH1 0x0 NOT DUP2 EQ PUSH2 0x15F7 JUMPI PUSH1 0x1 ADD SWAP1 JUMP JUMPDEST ISZERO PUSH2 0x16A5 JUMPI JUMP JUMPDEST PUSH1 0x40 MLOAD PUSH3 0x461BCD PUSH1 0xE5 SHL DUP2 MSTORE PUSH1 0x20 PUSH1 0x4 DUP3 ADD MSTORE PUSH1 0xE PUSH1 0x24 DUP3 ADD MSTORE PUSH14 0x24B73B30B634B21031B0B63632B9 PUSH1 0x91 SHL PUSH1 0x44 DUP3 ADD MSTORE PUSH1 0x64 SWAP1 REVERT JUMPDEST ISZERO PUSH2 0x16E2 JUMPI JUMP JUMPDEST PUSH1 0x40 MLOAD PUSH3 0x461BCD PUSH1 0xE5 SHL DUP2 MSTORE PUSH1 0x20 PUSH1 0x4 DUP3 ADD MSTORE PUSH1 0x1D PUSH1 0x24 DUP3 ADD MSTORE PUSH32 0x496E73756666696369656E742062616C616E636520746F207265706179000000 PUSH1 0x44 DUP3 ADD MSTORE PUSH1 0x64 SWAP1 REVERT JUMPDEST SWAP2 SWAP1 DUP3 SUB SWAP2 DUP3 GT PUSH2 0x15F7 JUMPI JUMP JUMPDEST ISZERO PUSH2 0x173B JUMPI JUMP JUMPDEST PUSH1 0x40 MLOAD PUSH3 0x461BCD PUSH1 0xE5 SHL DUP2 MSTORE PUSH1 0x20 PUSH1 0x4 DUP3 ADD MSTORE PUSH1 0x19 PUSH1 0x24 DUP3 ADD MSTORE PUSH32 0x50726F6669742062656C6F77203125207468726573686F6C6400000000000000 PUSH1 0x44 DUP3 ADD MSTORE PUSH1 0x64 SWAP1 REVERT JUMPDEST PUSH1 0x40 MLOAD PUSH4 0xA9059CBB PUSH1 0xE0 SHL PUSH1 0x20 DUP3 ADD MSTORE PUSH1 0x1 PUSH1 0x1 PUSH1 0xA0 SHL SUB SWAP3 SWAP1 SWAP3 AND PUSH1 0x24 DUP4 ADD MSTORE PUSH1 0x44 DUP1 DUP4 ADD SWAP4 SWAP1 SWAP4 MSTORE SWAP2 DUP2 MSTORE PUSH2 0x17BC SWAP2 PUSH2 0x4B5 PUSH1 0x64 DUP4 PUSH2 0x1330 JUMP JUMPDEST JUMP JUMPDEST SWAP1 PUSH1 0x0 PUSH1 0x20 SWAP2 DUP3 DUP2 MLOAD SWAP2 ADD DUP3 DUP6 GAS CALL ISZERO PUSH2 0x181A JUMPI PUSH1 0x0 MLOAD RETURNDATASIZE PUSH2 0x1811 JUMPI POP PUSH1 0x1 PUSH1 0x1 PUSH1 0xA0 SHL SUB DUP2 AND EXTCODESIZE ISZERO JUMPDEST PUSH2 0x17EF JUMPI POP JUMP JUMPDEST PUSH1 0x40 MLOAD PUSH4 0x5274AFE7 PUSH1 0xE0 SHL DUP2 MSTORE PUSH1 0x1 PUSH1 0x1 PUSH1 0xA0 SHL SUB SWAP1 SWAP2 AND PUSH1 0x4 DUP3 ADD MSTORE PUSH1 0x24 SWAP1 REVERT JUMPDEST PUSH1 0x1 EQ ISZERO PUSH2 0x17E8 JUMP JUMPDEST PUSH1 0x40 MLOAD RETURNDATASIZE PUSH1 0x0 DUP3 RETURNDATACOPY RETURNDATASIZE SWAP1 REVERT JUMPDEST PUSH1 0x0 JUMPDEST DUP4 DUP2 LT PUSH2 0x1839 JUMPI POP POP PUSH1 0x0 SWAP2 ADD MSTORE JUMP JUMPDEST DUP2 DUP2 ADD MLOAD DUP4 DUP3 ADD MSTORE PUSH1 0x20 ADD PUSH2 0x1829 JUMP JUMPDEST DUP2 PUSH1 0x1F DUP3 ADD SLT ISZERO PUSH2 0x53F JUMPI DUP1 MLOAD PUSH2 0x185F DUP2 PUSH2 0x142C JUMP JUMPDEST SWAP3 PUSH2 0x186D PUSH1 0x40 MLOAD SWAP5 DUP6 PUSH2 0x1330 JUMP JUMPDEST DUP2 DUP5 MSTORE PUSH1 0x20 DUP3 DUP5 ADD ADD GT PUSH2 0x53F JUMPI PUSH2 0x188B SWAP2 PUSH1 0x20 DUP1 DUP6 ADD SWAP2 ADD PUSH2 0x1826 JUMP JUMPDEST SWAP1 JUMP JUMPDEST DUP1 MLOAD ISZERO PUSH2 0x189B JUMPI PUSH1 0x20 ADD SWAP1 JUMP JUMPDEST PUSH4 0x4E487B71 PUSH1 0xE0 SHL PUSH1 0x0 MSTORE PUSH1 0x32 PUSH1 0x4 MSTORE PUSH1 0x24 PUSH1 0x0 REVERT JUMPDEST DUP1 MLOAD DUP3 LT ISZERO PUSH2 0x189B JUMPI PUSH1 0x20 SWAP2 PUSH1 0x5 SHL ADD ADD SWAP1 JUMP JUMPDEST SWAP1 PUSH1 0x4 DUP3 LT ISZERO PUSH2 0x18D2 JUMPI MSTORE JUMP JUMPDEST PUSH4 0x4E487B71 PUSH1 0xE0 SHL PUSH1 0x0 MSTORE PUSH1 0x21 PUSH1 0x4 MSTORE PUSH1 0x24 PUSH1 0x0 REVERT JUMPDEST PUSH1 0x60 DUP4 ADD SWAP2 DUP3 MLOAD SWAP2 PUSH1 0x4 SWAP3 DUP4 DUP2 LT ISZERO PUSH2 0x19F1 JUMPI SWAP1 PUSH2 0x190C SWAP2 DUP4 PUSH1 0xA0 DUP9 ADD MLOAD SWAP3 PUSH2 0x1A5D JUMP JUMPDEST PUSH1 0x20 DUP6 ADD DUP1 MLOAD PUSH1 0x80 DUP8 ADD DUP1 MLOAD SWAP3 SWAP6 SWAP4 SWAP1 SWAP3 PUSH1 0x1 PUSH1 0x1 PUSH1 0xA0 SHL SUB SWAP3 DUP4 AND SWAP2 DUP6 DUP3 LT ISZERO PUSH2 0x1A48 JUMPI SWAP1 PUSH2 0x1942 SWAP3 SWAP2 PUSH1 0xC0 DUP12 ADD MLOAD SWAP3 PUSH2 0x1A5D JUMP JUMPDEST DUP5 PUSH1 0x0 SWAP2 DUP2 DUP2 GT PUSH1 0x0 EQ PUSH2 0x1A40 JUMPI PUSH2 0x195A SWAP3 POP PUSH2 0x1727 JUMP JUMPDEST SWAP7 JUMPDEST PUSH1 0xE0 DUP2 ADD MLOAD DUP9 LT PUSH2 0x1A06 JUMPI DUP2 DUP1 SWAP2 MLOAD AND SWAP6 MLOAD AND SWAP6 MLOAD SWAP2 DUP4 DUP4 LT ISZERO PUSH2 0x19F1 JUMPI MLOAD SWAP3 DUP1 DUP5 LT ISZERO PUSH2 0x19DC JUMPI POP PUSH1 0x80 SWAP3 PUSH2 0x19CC PUSH32 0x99F5F2282EA6A09A6F4ECA16F69A79543BD628094C28102155974B489B01959A SWAP6 SWAP4 PUSH2 0x19D6 SWAP4 PUSH1 0x1 SLOAD AND SWAP10 PUSH1 0x40 MLOAD SWAP6 DUP7 MSTORE PUSH1 0x20 DUP7 ADD MSTORE PUSH1 0x40 DUP6 ADD SWAP1 PUSH2 0x18C5 JUMP JUMPDEST PUSH1 0x60 DUP4 ADD SWAP1 PUSH2 0x18C5 JUMP JUMPDEST LOG4 PUSH1 0x1 SWAP1 JUMP JUMPDEST PUSH1 0x21 SWAP1 PUSH4 0x4E487B71 PUSH1 0xE0 SHL PUSH1 0x0 MSTORE MSTORE PUSH1 0x24 PUSH1 0x0 REVERT JUMPDEST PUSH1 0x21 DUP5 PUSH4 0x4E487B71 PUSH1 0xE0 SHL PUSH1 0x0 MSTORE MSTORE PUSH1 0x24 PUSH1 0x0 REVERT JUMPDEST PUSH1 0x40 MLOAD PUSH3 0x461BCD PUSH1 0xE5 SHL DUP2 MSTORE PUSH1 0x20 DUP2 DUP7 ADD MSTORE PUSH1 0x13 PUSH1 0x24 DUP3 ADD MSTORE PUSH19 0x125B9CDD59999A58DA595B9D081C1C9BD99A5D PUSH1 0x6A SHL PUSH1 0x44 DUP3 ADD MSTORE PUSH1 0x64 SWAP1 REVERT JUMPDEST POP POP SWAP7 PUSH2 0x195C JUMP JUMPDEST PUSH1 0x21 DUP7 PUSH4 0x4E487B71 PUSH1 0xE0 SHL PUSH1 0x0 MSTORE MSTORE PUSH1 0x24 PUSH1 0x0 REVERT JUMPDEST SWAP1 SWAP2 SWAP4 SWAP3 SWAP4 PUSH1 0x4 DUP2 LT ISZERO PUSH2 0x18D2 JUMPI DUP1 PUSH2 0x1C28 JUMPI POP DUP4 MLOAD DUP5 ADD PUSH1 0x20 SWAP5 DUP6 DUP2 DUP4 SUB SLT PUSH2 0x53F JUMPI DUP6 DUP2 ADD MLOAD SWAP2 PUSH1 0x1 PUSH1 0x1 PUSH1 0x40 SHL SUB DUP4 GT PUSH2 0x53F JUMPI PUSH2 0x1AA4 SWAP3 DUP8 DUP1 SWAP3 ADD SWAP3 ADD ADD PUSH2 0x21D5 JUMP JUMPDEST SWAP1 PUSH1 0x1 DUP1 PUSH1 0xA0 SHL SUB AND SWAP1 PUSH1 0x40 MLOAD SWAP5 DUP1 DUP7 ADD SWAP6 PUSH4 0x95EA7B3 PUSH1 0xE0 SHL SWAP4 DUP5 DUP9 MSTORE PUSH20 0x7A250D5630B4CF539739DF2C5DACB4C659F2488D SWAP5 DUP6 PUSH1 0x24 DUP5 ADD MSTORE DUP7 PUSH1 0x44 DUP5 ADD MSTORE PUSH1 0x44 DUP4 MSTORE PUSH2 0x1AF1 DUP4 PUSH2 0x1315 JUMP JUMPDEST DUP4 PUSH1 0x0 DUP1 SWAP11 DUP6 MLOAD SWAP1 DUP3 DUP7 GAS CALL DUP10 MLOAD RETURNDATASIZE DUP3 PUSH2 0x1C0C JUMPI JUMPDEST POP POP ISZERO PUSH2 0x1BD5 JUMPI JUMPDEST POP POP POP POP PUSH2 0x12C TIMESTAMP ADD SWAP3 DUP4 TIMESTAMP GT PUSH2 0x10B4 JUMPI SWAP2 PUSH2 0x1B57 SWAP2 DUP7 DUP1 SWAP5 PUSH1 0x40 MLOAD SWAP7 DUP8 SWAP6 DUP7 SWAP5 DUP6 SWAP4 PUSH4 0x38ED1739 PUSH1 0xE0 SHL DUP6 MSTORE PUSH1 0x4 DUP6 ADD MSTORE DUP5 PUSH1 0x24 DUP6 ADD MSTORE PUSH1 0xA0 PUSH1 0x44 DUP6 ADD MSTORE PUSH1 0xA4 DUP5 ADD SWAP1 PUSH2 0x22B4 JUMP JUMPDEST SWAP1 ADDRESS PUSH1 0x64 DUP5 ADD MSTORE PUSH1 0x84 DUP4 ADD MSTORE SUB SWAP3 GAS CALL SWAP1 DUP2 ISZERO PUSH2 0x1BCA JUMPI DUP4 SWAP2 PUSH2 0x1BA8 JUMPI JUMPDEST POP DUP1 MLOAD PUSH1 0x0 NOT DUP2 ADD SWAP2 SWAP1 DUP3 GT PUSH2 0x1B94 JUMPI PUSH2 0x1B90 SWAP3 SWAP4 POP PUSH2 0x18B1 JUMP JUMPDEST MLOAD SWAP1 JUMP JUMPDEST PUSH4 0x4E487B71 PUSH1 0xE0 SHL DUP5 MSTORE PUSH1 0x11 PUSH1 0x4 MSTORE PUSH1 0x24 DUP5 REVERT JUMPDEST PUSH2 0x1BC4 SWAP2 POP RETURNDATASIZE DUP1 DUP6 DUP4 RETURNDATACOPY PUSH2 0x1BBC DUP2 DUP4 PUSH2 0x1330 JUMP JUMPDEST DUP2 ADD SWAP1 PUSH2 0x223B JUMP JUMPDEST CODESIZE PUSH2 0x1B75 JUMP JUMPDEST PUSH1 0x40 MLOAD RETURNDATASIZE DUP6 DUP3 RETURNDATACOPY RETURNDATASIZE SWAP1 REVERT JUMPDEST PUSH2 0x1C03 SWAP4 PUSH2 0x4B5 SWAP2 PUSH1 0x40 MLOAD SWAP2 DUP3 ADD MSTORE DUP7 PUSH1 0x24 DUP3 ADD MSTORE DUP10 PUSH1 0x44 DUP3 ADD MSTORE PUSH1 0x44 DUP2 MSTORE PUSH2 0x1BFD DUP2 PUSH2 0x1315 JUMP JUMPDEST DUP3 PUSH2 0x17BE JUMP JUMPDEST CODESIZE DUP1 DUP1 DUP1 PUSH2 0x1B0E JUMP JUMPDEST SWAP1 SWAP2 POP PUSH2 0x1C20 JUMPI POP DUP2 EXTCODESIZE ISZERO ISZERO JUMPDEST CODESIZE DUP1 PUSH2 0x1B06 JUMP JUMPDEST PUSH1 0x1 EQ PUSH2 0x1C19 JUMP JUMPDEST PUSH1 0x1 DUP2 SUB PUSH2 0x1CB1 JUMPI POP DUP4 MLOAD DUP5 ADD PUSH1 0x20 SWAP5 DUP6 DUP2 DUP4 SUB SLT PUSH2 0x53F JUMPI DUP6 DUP2 ADD MLOAD SWAP2 PUSH1 0x1 PUSH1 0x1 PUSH1 0x40 SHL SUB DUP4 GT PUSH2 0x53F JUMPI PUSH2 0x1C64 SWAP3 DUP8 DUP1 SWAP3 ADD SWAP3 ADD ADD PUSH2 0x21D5 JUMP JUMPDEST SWAP1 PUSH1 0x1 DUP1 PUSH1 0xA0 SHL SUB AND SWAP1 PUSH1 0x40 MLOAD SWAP5 DUP1 DUP7 ADD SWAP6 PUSH4 0x95EA7B3 PUSH1 0xE0 SHL SWAP4 DUP5 DUP9 MSTORE PUSH20 0xD9E1CE17F2641F24AE83637AB66A2CCA9C378B9F SWAP5 DUP6 PUSH1 0x24 DUP5 ADD MSTORE DUP7 PUSH1 0x44 DUP5 ADD MSTORE PUSH1 0x44 DUP4 MSTORE PUSH2 0x1AF1 DUP4 PUSH2 0x1315 JUMP JUMPDEST SWAP3 SWAP4 SWAP3 SWAP1 SWAP2 SWAP1 PUSH1 0x2 DUP2 SUB PUSH2 0x2000 JUMPI POP DUP3 MLOAD DUP4 ADD PUSH1 0x20 DUP5 DUP3 SUB SLT PUSH2 0x53F JUMPI PUSH1 0x20 DUP5 ADD MLOAD PUSH1 0x1 PUSH1 0x1 PUSH1 0x40 SHL SUB SWAP5 DUP6 DUP3 GT PUSH2 0x53F JUMPI ADD SWAP1 PUSH1 0x40 DUP3 DUP3 SUB SLT PUSH2 0x53F JUMPI PUSH1 0x40 MLOAD SWAP2 PUSH1 0x40 DUP4 ADD DUP4 DUP2 LT DUP8 DUP3 GT OR PUSH2 0x12C8 JUMPI PUSH1 0x40 MSTORE PUSH1 0x20 DUP2 ADD MLOAD DUP4 MSTORE PUSH1 0x40 DUP2 ADD MLOAD SWAP2 DUP7 DUP4 GT PUSH2 0x53F JUMPI PUSH2 0x1D2A SWAP3 PUSH1 0x20 DUP1 SWAP3 ADD SWAP3 ADD ADD PUSH2 0x21D5 JUMP JUMPDEST PUSH1 0x20 DUP3 DUP2 ADD SWAP2 DUP3 MSTORE PUSH1 0x40 MLOAD PUSH4 0x95EA7B3 PUSH1 0xE0 SHL DUP2 DUP4 ADD DUP2 DUP2 MSTORE PUSH20 0xBA12222222228D8BA445958A75A0704D566BF2C8 PUSH1 0x24 DUP5 ADD MSTORE PUSH1 0x44 DUP1 DUP5 ADD DUP9 SWAP1 MSTORE DUP4 MSTORE SWAP4 SWAP7 PUSH1 0x1 PUSH1 0x1 PUSH1 0xA0 SHL SUB AND SWAP5 SWAP4 SWAP1 SWAP3 SWAP1 PUSH1 0x0 SWAP1 PUSH2 0x1D83 DUP5 PUSH2 0x1315 JUMP JUMPDEST DUP4 MLOAD SWAP1 DUP3 DUP9 GAS CALL PUSH1 0x0 MLOAD RETURNDATASIZE DUP3 PUSH2 0x1FE4 JUMPI JUMPDEST POP POP ISZERO PUSH2 0x1F93 JUMPI JUMPDEST POP POP MLOAD SWAP3 MLOAD DUP1 MLOAD PUSH1 0x0 NOT DUP2 ADD SWAP1 DUP2 GT PUSH2 0x15F7 JUMPI PUSH1 0x1 PUSH1 0x1 PUSH1 0xA0 SHL SUB SWAP2 PUSH2 0x1DC2 SWAP2 SWAP1 PUSH2 0x18B1 JUMP JUMPDEST MLOAD AND SWAP1 PUSH1 0x40 MLOAD SWAP4 PUSH1 0xC0 DUP6 ADD DUP6 DUP2 LT DUP8 DUP3 GT OR PUSH2 0x12C8 JUMPI PUSH1 0x40 MSTORE DUP5 MSTORE PUSH1 0x0 PUSH1 0x20 DUP6 ADD MSTORE PUSH1 0x40 DUP5 ADD MSTORE PUSH1 0x60 DUP4 ADD MSTORE PUSH1 0x80 DUP3 ADD MSTORE PUSH1 0x40 MLOAD PUSH1 0x40 DUP2 ADD DUP2 DUP2 LT DUP5 DUP3 GT OR PUSH2 0x12C8 JUMPI PUSH1 0x40 MSTORE PUSH1 0x2 DUP2 MSTORE PUSH2 0x60F PUSH1 0xF3 SHL PUSH1 0x20 DUP3 ADD MSTORE PUSH1 0xA0 DUP3 ADD MSTORE PUSH1 0x40 MLOAD SWAP2 PUSH1 0x80 DUP4 ADD SWAP1 DUP4 DUP3 LT SWAP1 DUP3 GT OR PUSH2 0x12C8 JUMPI PUSH1 0x40 MSTORE ADDRESS DUP3 MSTORE PUSH1 0x0 PUSH1 0x20 DUP4 ADD MSTORE ADDRESS PUSH1 0x40 DUP4 ADD MSTORE PUSH1 0x0 PUSH1 0x60 DUP4 ADD MSTORE PUSH2 0x12C TIMESTAMP ADD TIMESTAMP GT PUSH2 0x15F7 JUMPI PUSH1 0x40 MLOAD PUSH4 0x52BBBE29 PUSH1 0xE0 SHL DUP2 MSTORE PUSH1 0xE0 PUSH1 0x4 DUP3 ADD MSTORE DUP2 MLOAD PUSH1 0xE4 DUP3 ADD MSTORE PUSH1 0x20 DUP3 ADD MLOAD SWAP1 SWAP3 PUSH1 0x2 DUP3 LT ISZERO PUSH2 0x18D2 JUMPI DUP4 PUSH1 0xA0 PUSH1 0x20 SWAP5 DUP3 SWAP5 PUSH2 0x104 DUP5 ADD MSTORE PUSH1 0x1 DUP1 DUP4 SHL SUB PUSH1 0x40 DUP3 ADD MLOAD AND PUSH2 0x124 DUP5 ADD MSTORE PUSH1 0x1 DUP1 DUP4 SHL SUB PUSH1 0x60 DUP3 ADD MLOAD AND PUSH2 0x144 DUP5 ADD MSTORE PUSH1 0x80 DUP2 ADD MLOAD PUSH2 0x164 DUP5 ADD MSTORE ADD MLOAD SWAP2 PUSH1 0xC0 PUSH2 0x184 DUP4 ADD MSTORE PUSH1 0x60 DUP4 MLOAD SWAP2 DUP3 PUSH2 0x1A4 DUP6 ADD MSTORE PUSH2 0x1EE7 DUP4 PUSH2 0x1C4 SWAP7 DUP10 DUP9 DUP9 ADD SWAP2 ADD PUSH2 0x1826 JUMP JUMPDEST PUSH1 0x1 DUP1 PUSH1 0xA0 SHL SUB DUP2 MLOAD AND PUSH1 0x24 DUP6 ADD MSTORE DUP7 DUP2 ADD MLOAD ISZERO ISZERO PUSH1 0x44 DUP6 ADD MSTORE PUSH1 0x1 DUP1 PUSH1 0xA0 SHL SUB PUSH1 0x40 DUP3 ADD MLOAD AND PUSH1 0x64 DUP6 ADD MSTORE ADD MLOAD ISZERO ISZERO PUSH1 0x84 DUP4 ADD MSTORE PUSH1 0x0 PUSH1 0xA4 DUP4 ADD MSTORE PUSH2 0x12C TIMESTAMP ADD PUSH1 0xC4 DUP4 ADD MSTORE PUSH1 0x1F DUP1 NOT SWAP2 ADD AND DUP2 ADD SUB ADD DUP2 PUSH1 0x0 PUSH20 0xBA12222222228D8BA445958A75A0704D566BF2C8 GAS CALL SWAP1 DUP2 ISZERO PUSH2 0x181A JUMPI PUSH1 0x0 SWAP2 PUSH2 0x1F64 JUMPI POP SWAP1 JUMP JUMPDEST SWAP1 POP PUSH1 0x20 DUP2 RETURNDATASIZE PUSH1 0x20 GT PUSH2 0x1F8B JUMPI JUMPDEST DUP2 PUSH2 0x1F7F PUSH1 0x20 SWAP4 DUP4 PUSH2 0x1330 JUMP JUMPDEST DUP2 ADD SUB SLT PUSH2 0x53F JUMPI MLOAD SWAP1 JUMP JUMPDEST RETURNDATASIZE SWAP2 POP PUSH2 0x1F72 JUMP JUMPDEST PUSH2 0x1FD7 PUSH2 0x1FDD SWAP3 PUSH1 0x40 MLOAD SWAP1 PUSH1 0x20 DUP3 ADD MSTORE PUSH20 0xBA12222222228D8BA445958A75A0704D566BF2C8 PUSH1 0x24 DUP3 ADD MSTORE PUSH1 0x0 PUSH1 0x44 DUP3 ADD MSTORE PUSH1 0x44 DUP2 MSTORE PUSH2 0x1FD1 DUP2 PUSH2 0x1315 JUMP JUMPDEST DUP6 PUSH2 0x17BE JUMP JUMPDEST DUP4 PUSH2 0x17BE JUMP JUMPDEST CODESIZE DUP1 PUSH2 0x1D9C JUMP JUMPDEST SWAP1 SWAP2 POP PUSH2 0x1FF8 JUMPI POP DUP4 EXTCODESIZE ISZERO ISZERO JUMPDEST CODESIZE DUP1 PUSH2 0x1D94 JUMP JUMPDEST PUSH1 0x1 EQ PUSH2 0x1FF1 JUMP JUMPDEST SWAP2 SWAP3 SWAP1 SWAP2 PUSH1 0x3 EQ PUSH2 0x2042 JUMPI PUSH1 0x40 MLOAD PUSH3 0x461BCD PUSH1 0xE5 SHL DUP2 MSTORE PUSH1 0x20 PUSH1 0x4 DUP3 ADD MSTORE PUSH1 0xF PUSH1 0x24 DUP3 ADD MSTORE PUSH15 0xAADCE6EAE0E0DEE4E8CAC840888AB PUSH1 0x8B SHL PUSH1 0x44 DUP3 ADD MSTORE PUSH1 0x64 SWAP1 REVERT JUMPDEST PUSH1 0x60 DUP2 DUP1 MLOAD DUP2 ADD SUB SLT PUSH2 0x53F JUMPI PUSH1 0x84 SWAP1 PUSH1 0x40 SWAP4 DUP5 MLOAD SWAP2 PUSH2 0x2061 DUP4 PUSH2 0x12FA JUMP JUMPDEST PUSH1 0x20 SWAP4 DUP5 SWAP4 DUP5 SWAP4 PUSH2 0x2073 DUP6 DUP6 ADD PUSH2 0x1637 JUMP JUMPDEST SWAP1 DUP2 DUP4 MSTORE PUSH2 0x2094 PUSH1 0x60 PUSH2 0x2087 DUP13 DUP9 ADD PUSH2 0x22F1 JUMP JUMPDEST SWAP7 DUP9 DUP7 ADD SWAP8 DUP9 MSTORE ADD PUSH2 0x22F1 JUMP JUMPDEST DUP4 DUP12 ADD SWAP1 DUP2 MSTORE DUP11 MLOAD PUSH4 0x95EA7B3 PUSH1 0xE0 SHL DUP9 DUP3 ADD DUP2 DUP2 MSTORE PUSH1 0x1 PUSH1 0x1 PUSH1 0xA0 SHL SUB SWAP6 DUP7 AND PUSH1 0x24 DUP5 ADD DUP2 SWAP1 MSTORE PUSH1 0x44 DUP1 DUP6 ADD DUP16 SWAP1 MSTORE DUP5 MSTORE SWAP4 SWAP7 SWAP1 SWAP6 SWAP5 SWAP1 SWAP4 SWAP3 SWAP2 SWAP1 DUP6 AND SWAP1 DUP15 SWAP1 PUSH2 0x20E0 PUSH1 0x64 DUP6 PUSH2 0x1330 JUMP JUMPDEST PUSH1 0x0 SWAP14 DUP15 DUP1 SWAP10 DUP7 MLOAD SWAP1 DUP3 DUP8 GAS CALL DUP9 MLOAD RETURNDATASIZE DUP3 PUSH2 0x21B9 JUMPI JUMPDEST POP POP ISZERO PUSH2 0x2189 JUMPI JUMPDEST POP POP POP POP POP MLOAD AND SWAP4 MLOAD SWAP2 MLOAD SWAP4 DUP10 MLOAD SWAP9 DUP10 SWAP6 DUP7 SWAP5 PUSH4 0xF7C0849 PUSH1 0xE2 SHL DUP7 MSTORE PUSH1 0xF SIGNEXTEND PUSH1 0x4 DUP7 ADD MSTORE PUSH1 0xF SIGNEXTEND PUSH1 0x24 DUP6 ADD MSTORE PUSH1 0x44 DUP5 ADD MSTORE DUP2 PUSH1 0x64 DUP5 ADD MSTORE GAS CALL SWAP4 DUP5 ISZERO PUSH2 0x217E JUMPI POP DUP2 SWAP4 PUSH2 0x214D JUMPI JUMPDEST POP POP POP SWAP1 JUMP JUMPDEST SWAP1 SWAP2 DUP1 SWAP4 POP DUP2 RETURNDATASIZE DUP4 GT PUSH2 0x2177 JUMPI JUMPDEST PUSH2 0x2165 DUP2 DUP4 PUSH2 0x1330 JUMP JUMPDEST DUP2 ADD SUB SLT PUSH2 0x790 JUMPI POP MLOAD CODESIZE DUP1 DUP1 PUSH2 0x2147 JUMP JUMPDEST POP RETURNDATASIZE PUSH2 0x215B JUMP JUMPDEST MLOAD SWAP2 RETURNDATASIZE SWAP2 POP DUP3 RETURNDATACOPY RETURNDATASIZE SWAP1 REVERT JUMPDEST PUSH2 0x21AF SWAP5 PUSH2 0x4B5 SWAP3 MLOAD SWAP2 DUP14 DUP4 ADD MSTORE PUSH1 0x24 DUP3 ADD MSTORE DUP8 PUSH1 0x44 DUP3 ADD MSTORE PUSH1 0x44 DUP2 MSTORE PUSH2 0x1BFD DUP2 PUSH2 0x1315 JUMP JUMPDEST CODESIZE DUP1 DUP1 DUP14 DUP2 PUSH2 0x20FE JUMP JUMPDEST SWAP1 SWAP2 POP PUSH2 0x21CD JUMPI POP DUP3 EXTCODESIZE ISZERO ISZERO JUMPDEST CODESIZE DUP1 PUSH2 0x20F6 JUMP JUMPDEST PUSH1 0x1 EQ PUSH2 0x21C6 JUMP JUMPDEST DUP2 PUSH1 0x1F DUP3 ADD SLT ISZERO PUSH2 0x53F JUMPI DUP1 MLOAD SWAP2 PUSH2 0x21EC DUP4 PUSH2 0x1351 JUMP JUMPDEST SWAP3 PUSH2 0x21FA PUSH1 0x40 MLOAD SWAP5 DUP6 PUSH2 0x1330 JUMP JUMPDEST DUP1 DUP5 MSTORE PUSH1 0x20 SWAP3 DUP4 DUP1 DUP7 ADD SWAP3 PUSH1 0x5 SHL DUP3 ADD ADD SWAP3 DUP4 GT PUSH2 0x53F JUMPI DUP4 ADD SWAP1 JUMPDEST DUP3 DUP3 LT PUSH2 0x2224 JUMPI POP POP POP POP SWAP1 JUMP JUMPDEST DUP4 DUP1 SWAP2 PUSH2 0x2230 DUP5 PUSH2 0x1637 JUMP JUMPDEST DUP2 MSTORE ADD SWAP2 ADD SWAP1 PUSH2 0x2216 JUMP JUMPDEST PUSH1 0x20 SWAP1 DUP2 DUP2 DUP5 SUB SLT PUSH2 0x53F JUMPI DUP1 MLOAD SWAP1 PUSH1 0x1 PUSH1 0x1 PUSH1 0x40 SHL SUB DUP3 GT PUSH2 0x53F JUMPI ADD SWAP2 DUP1 PUSH1 0x1F DUP5 ADD SLT ISZERO PUSH2 0x53F JUMPI DUP3 MLOAD PUSH2 0x2270 DUP2 PUSH2 0x1351 JUMP JUMPDEST SWAP4 PUSH2 0x227E PUSH1 0x40 MLOAD SWAP6 DUP7 PUSH2 0x1330 JUMP JUMPDEST DUP2 DUP6 MSTORE DUP4 DUP1 DUP7 ADD SWAP3 PUSH1 0x5 SHL DUP3 ADD ADD SWAP3 DUP4 GT PUSH2 0x53F JUMPI DUP4 ADD SWAP1 JUMPDEST DUP3 DUP3 LT PUSH2 0x22A5 JUMPI POP POP POP POP SWAP1 JUMP JUMPDEST DUP2 MLOAD DUP2 MSTORE SWAP1 DUP4 ADD SWAP1 DUP4 ADD PUSH2 0x2297 JUMP JUMPDEST SWAP1 DUP2 MLOAD DUP1 DUP3 MSTORE PUSH1 0x20 DUP1 DUP1 SWAP4 ADD SWAP4 ADD SWAP2 PUSH1 0x0 JUMPDEST DUP3 DUP2 LT PUSH2 0x22D4 JUMPI POP POP POP POP SWAP1 JUMP JUMPDEST DUP4 MLOAD PUSH1 0x1 PUSH1 0x1 PUSH1 0xA0 SHL SUB AND DUP6 MSTORE SWAP4 DUP2 ADD SWAP4 SWAP3 DUP2 ADD SWAP3 PUSH1 0x1 ADD PUSH2 0x22C6 JUMP JUMPDEST MLOAD SWAP1 DUP2 PUSH1 0xF SIGNEXTEND DUP3 SUB PUSH2 0x53F JUMPI JUMP JUMPDEST CALLDATALOAD SWAP1 DUP2 PUSH1 0xF SIGNEXTEND DUP3 SUB PUSH2 0x53F JUMPI JUMP JUMPDEST SWAP1 PUSH1 0x20 DUP3 DUP3 SUB SLT PUSH2 0x53F JUMPI DUP2 CALLDATALOAD PUSH1 0x1 PUSH1 0x1 PUSH1 0x40 SHL SUB DUP2 GT PUSH2 0x53F JUMPI PUSH2 0x188B SWAP3 ADD PUSH2 0x1368 JUMP JUMPDEST SWAP2 SWAP1 SWAP4 SWAP3 PUSH1 0x4 SWAP5 DUP6 DUP2 LT ISZERO PUSH2 0x1A48 JUMPI DUP1 PUSH2 0x23FD JUMPI POP DUP2 PUSH2 0x2358 SWAP2 PUSH2 0x2382 SWAP5 SWAP4 ADD SWAP1 PUSH2 0x230D JUMP JUMPDEST PUSH1 0x40 MLOAD SWAP2 PUSH4 0xD06CA61F PUSH1 0xE0 SHL DUP4 MSTORE DUP6 DUP4 ADD MSTORE PUSH1 0x40 PUSH1 0x24 DUP4 ADD MSTORE DUP2 DUP1 PUSH1 0x0 SWAP5 DUP6 SWAP4 PUSH1 0x44 DUP4 ADD SWAP1 PUSH2 0x22B4 JUMP JUMPDEST SUB DUP2 PUSH20 0x7A250D5630B4CF539739DF2C5DACB4C659F2488D GAS STATICCALL SWAP1 DUP2 ISZERO PUSH2 0x23F2 JUMPI DUP3 SWAP2 PUSH2 0x23D8 JUMPI JUMPDEST POP DUP1 MLOAD PUSH1 0x0 NOT DUP2 ADD SWAP3 SWAP1 DUP4 GT PUSH2 0x23C5 JUMPI POP PUSH2 0x1B90 SWAP3 SWAP4 POP PUSH2 0x18B1 JUMP JUMPDEST PUSH4 0x4E487B71 PUSH1 0xE0 SHL DUP2 MSTORE PUSH1 0x11 DUP6 MSTORE PUSH1 0x24 SWAP1 REVERT JUMPDEST PUSH2 0x23EC SWAP2 POP RETURNDATASIZE DUP1 DUP5 DUP4 RETURNDATACOPY PUSH2 0x1BBC DUP2 DUP4 PUSH2 0x1330 JUMP JUMPDEST CODESIZE PUSH2 0x23A9 JUMP JUMPDEST PUSH1 0x40 MLOAD RETURNDATASIZE DUP5 DUP3 RETURNDATACOPY RETURNDATASIZE SWAP1 REVERT JUMPDEST PUSH1 0x1 DUP2 SUB PUSH2 0x2459 JUMPI POP DUP2 PUSH2 0x2358 SWAP2 PUSH2 0x2417 SWAP5 SWAP4 ADD SWAP1 PUSH2 0x230D JUMP JUMPDEST SUB DUP2 PUSH20 0xD9E1CE17F2641F24AE83637AB66A2CCA9C378B9F GAS STATICCALL SWAP1 DUP2 ISZERO PUSH2 0x23F2 JUMPI DUP3 SWAP2 PUSH2 0x23D8 JUMPI POP DUP1 MLOAD PUSH1 0x0 NOT DUP2 ADD SWAP3 SWAP1 DUP4 GT PUSH2 0x23C5 JUMPI POP PUSH2 0x1B90 SWAP3 SWAP4 POP PUSH2 0x18B1 JUMP JUMPDEST SWAP4 SWAP5 SWAP4 PUSH1 0x2 DUP2 SUB PUSH2 0x2498 JUMPI POP POP POP SWAP1 PUSH1 0x63 DUP3 MUL SWAP2 DUP1 DUP4 DIV PUSH1 0x63 EQ SWAP1 ISZERO OR ISZERO PUSH2 0x2483 JUMPI POP PUSH1 0x64 SWAP1 DIV SWAP1 JUMP JUMPDEST PUSH1 0x11 SWAP1 PUSH4 0x4E487B71 PUSH1 0xE0 SHL PUSH1 0x0 MSTORE MSTORE PUSH1 0x24 PUSH1 0x0 REVERT JUMPDEST PUSH1 0x3 EQ PUSH2 0x24E3 JUMPI PUSH1 0x40 MLOAD PUSH3 0x461BCD PUSH1 0xE5 SHL DUP2 MSTORE PUSH1 0x20 DUP2 DUP7 ADD MSTORE PUSH1 0x1E PUSH1 0x24 DUP3 ADD MSTORE PUSH32 0x556E737570706F727465642044455820666F722073696D756C6174696F6E0000 PUSH1 0x44 DUP3 ADD MSTORE PUSH1 0x64 SWAP1 REVERT JUMPDEST DUP2 PUSH1 0x60 SWAP2 DUP2 ADD SUB SLT PUSH2 0x53F JUMPI PUSH1 0x40 SWAP3 PUSH1 0x64 DUP5 MLOAD SWAP3 PUSH2 0x2500 DUP5 PUSH2 0x12FA JUMP JUMPDEST PUSH2 0x2509 DUP2 PUSH2 0x11A2 JUMP JUMPDEST DUP1 DUP6 MSTORE PUSH1 0x20 SWAP6 DUP7 SWAP6 PUSH2 0x252C DUP10 PUSH2 0x2520 DUP10 DUP8 ADD PUSH2 0x22FF JUMP JUMPDEST SWAP6 DUP7 DUP11 DUP6 ADD MSTORE ADD PUSH2 0x22FF JUMP JUMPDEST SWAP9 DUP10 SWAP2 ADD MSTORE PUSH1 0x40 MLOAD SWAP8 DUP9 SWAP6 DUP7 SWAP5 PUSH4 0x5E0D443F PUSH1 0xE0 SHL DUP7 MSTORE PUSH1 0xF SIGNEXTEND SWAP1 DUP6 ADD MSTORE PUSH1 0xF SIGNEXTEND PUSH1 0x24 DUP5 ADD MSTORE PUSH1 0x44 DUP4 ADD MSTORE PUSH1 0x1 DUP1 PUSH1 0xA0 SHL SUB AND GAS STATICCALL SWAP1 DUP2 ISZERO PUSH2 0x181A JUMPI PUSH1 0x0 SWAP2 PUSH2 0x2576 JUMPI JUMPDEST POP SWAP1 POP SWAP1 JUMP JUMPDEST DUP3 DUP2 RETURNDATASIZE DUP4 GT PUSH2 0x259B JUMPI JUMPDEST PUSH2 0x258A DUP2 DUP4 PUSH2 0x1330 JUMP JUMPDEST DUP2 ADD SUB SLT PUSH2 0x790 JUMPI POP MLOAD DUP1 CODESIZE PUSH2 0x2570 JUMP JUMPDEST POP RETURNDATASIZE PUSH2 0x2580 JUMP INVALID LOG2 PUSH5 0x6970667358 0x22 SLT KECCAK256 PUSH17 0x5D5A33858D8D96C40A01F964DAC833967 TIMESTAMP 0xF6 0xD0 MSTORE 0xC8 0xC4 PUSH17 0x17BC90D8778A9264736F6C634300081400 CALLER "},"methodIdentifiers":{"ADDRESSES_PROVIDER()":"0542975c","BALANCER_VAULT()":"bc163846","BASIS_POINTS()":"e1f1c4a7","CURVE_REGISTRY()":"b942717b","ETH_PRICE_USD()":"06ec9b9e","MAX_FLASH_LOAN_AMOUNT()":"720387cb","MAX_GAS_COST_USD()":"a852b227","MIN_PROFIT_BASIS_POINTS()":"7e8db6b3","SUSHISWAP_ROUTER()":"277754ed","UNISWAP_ROUTER()":"d8264920","_simulateArbitrage(address,address,uint256,uint8,uint8,bytes,bytes)":"4a9dd70b","calculateMultiDexProfit(address,address,uint256,uint8,uint8,bytes,bytes)":"bd81b470","emergencyWithdraw(address)":"6ff1c9bc","estimateGasCostUSD(uint256,uint256)":"b7ec8f26","executeArbitrage(address,uint256,bytes)":"7c1d9539","executeBalancerFlashLoan(address[],uint256[],bytes)":"ce6a9f01","executeOperation(address,uint256,uint256,address,bytes)":"1b11d0ff","getMaxGasPriceForLimit(uint256)":"f9b2d6aa","isGasCostAcceptable(uint256,uint256)":"6e859620","owner()":"8da5cb5b","receiveFlashLoan(address[],uint256[],uint256[],bytes)":"f04f2707","renounceOwnership()":"715018a6","transferOwnership(address)":"f2fde38b","withdrawETH()":"e086e5ec","withdrawToken(address,uint256)":"9e281a98"}}}}}