{"contracts/HelloWorld.sol":{"HelloWorld":{"abi":[{"inputs":[],"stateMutability":"nonpayable","type":"constructor"},{"anonymous":false,"inputs":[{"indexed":false,"internalType":"string","name":"newGreeting","type":"string"},{"indexed":false,"internalType":"address","name":"changedBy","type":"address"}],"name":"GreetingChanged","type":"event"},{"inputs":[],"name":"getGreeting","outputs":[{"internalType":"string","name":"","type":"string"}],"stateMutability":"view","type":"function"},{"inputs":[],"name":"owner","outputs":[{"internalType":"address","name":"","type":"address"}],"stateMutability":"view","type":"function"},{"inputs":[{"internalType":"string","name":"_greeting","type":"string"}],"name":"setGreeting","outputs":[],"stateMutability":"nonpayable","type":"function"}],"evm":{"bytecode":{"linkReferences":{},"object":"608080604052346100bb5760008054906001918281811c911680156100b1575b602082101461009d57601f8111610071575b507f48656c6c6f20576f726c64210000000000000000000000000000000000000018905580546001600160a01b0319163317905561046590816100c18239f35b81805282601f60208420920160051c8201915b828110610092575050610031565b838155018390610084565b634e487b7160e01b82526022600452602482fd5b90607f169061001f565b600080fdfe60806040818152600436101561001457600080fd5b600091823560e01c9081638da5cb5b1461035857508063a41368621461012c5763fe50cc721461004357600080fd5b34610128578160031936011261012857805190828054610062816103f5565b8085529160019180831690811561010057506001146100a4575b50505061008e826100a094038361037d565b519182916020835260208301906103b5565b0390f35b80809650527f290decd9548b62a8d60345a988386fc84ba6bc95484008f6362f93160ef3e5635b8286106100e85750505061008e8260206100a0958201019461007c565b805460208787018101919091529095019481016100cb565b6100a097508693506020925061008e94915060ff191682840152151560051b8201019461007c565b5080fd5b5090346103555760209182600319360112610128576004359067ffffffffffffffff80831161035157366023840112156103515782600401359281841161033957825193601f1991610185601f8301841689018761037d565b818652366024838301011161034d5781879260248a930183890137860101528351918211610339576101b785546103f5565b601f81116102d8575b508590601f831160011461023a575090808596927f97f1752b66013c04a3cba7b99967e18ef918f6c3435eae8ba65850da8b3239e2969161022f575b508160011b916000199060031b1c19161785555b61022382519383859485528401906103b5565b9033908301520390a180f35b9050840151386101fc565b8216908580527f290decd9548b62a8d60345a988386fc84ba6bc95484008f6362f93160ef3e56391865b8181106102c157509183917f97f1752b66013c04a3cba7b99967e18ef918f6c3435eae8ba65850da8b3239e2979894600194106102a8575b5050811b018555610210565b86015160001960f88460031b161c19169055388061029c565b91928860018192868a015181550194019201610264565b8580527f290decd9548b62a8d60345a988386fc84ba6bc95484008f6362f93160ef3e563601f840160051c81019188851061032f575b601f0160051c01905b81811061032457506101c0565b868155600101610317565b909150819061030e565b634e487b7160e01b85526041600452602485fd5b8680fd5b8380fd5b80fd5b8390346101285781600319360112610128576001546001600160a01b03168152602090f35b90601f8019910116810190811067ffffffffffffffff82111761039f57604052565b634e487b7160e01b600052604160045260246000fd5b919082519283825260005b8481106103e1575050826000602080949584010152601f8019910116010190565b6020818301810151848301820152016103c0565b90600182811c92168015610425575b602083101461040f57565b634e487b7160e01b600052602260045260246000fd5b91607f169161040456fea264697066735822122009a687091e18887af2c4e761b9f8f8023ec59993914cb47d80dc70695fd4d80f64736f6c63430008140033","opcodes":"PUSH1 0x80 DUP1 PUSH1 0x40 MSTORE CALLVALUE PUSH2 0xBB JUMPI PUSH1 0x0 DUP1 SLOAD SWAP1 PUSH1 0x1 SWAP2 DUP3 DUP2 DUP2 SHR SWAP2 AND DUP1 ISZERO PUSH2 0xB1 JUMPI JUMPDEST PUSH1 0x20 DUP3 LT EQ PUSH2 0x9D JUMPI PUSH1 0x1F DUP2 GT PUSH2 0x71 JUMPI JUMPDEST POP PUSH32 0x48656C6C6F20576F726C64210000000000000000000000000000000000000018 SWAP1 SSTORE DUP1 SLOAD PUSH1 0x1 PUSH1 0x1 PUSH1 0xA0 SHL SUB NOT AND CALLER OR SWAP1 SSTORE PUSH2 0x465 SWAP1 DUP2 PUSH2 0xC1 DUP3 CODECOPY RETURN JUMPDEST DUP2 DUP1 MSTORE DUP3 PUSH1 0x1F PUSH1 0x20 DUP5 KECCAK256 SWAP3 ADD PUSH1 0x5 SHR DUP3 ADD SWAP2 JUMPDEST DUP3 DUP2 LT PUSH2 0x92 JUMPI POP POP PUSH2 0x31 JUMP JUMPDEST DUP4 DUP2 SSTORE ADD DUP4 SWAP1 PUSH2 0x84 JUMP JUMPDEST PUSH4 0x4E487B71 PUSH1 0xE0 SHL DUP3 MSTORE PUSH1 0x22 PUSH1 0x4 MSTORE PUSH1 0x24 DUP3 REVERT JUMPDEST SWAP1 PUSH1 0x7F AND SWAP1 PUSH2 0x1F JUMP JUMPDEST PUSH1 0x0 DUP1 REVERT INVALID PUSH1 0x80 PUSH1 0x40 DUP2 DUP2 MSTORE PUSH1 0x4 CALLDATASIZE LT ISZERO PUSH2 0x14 JUMPI PUSH1 0x0 DUP1 REVERT JUMPDEST PUSH1 0x0 SWAP2 DUP3 CALLDATALOAD PUSH1 0xE0 SHR SWAP1 DUP2 PUSH4 0x8DA5CB5B EQ PUSH2 0x358 JUMPI POP DUP1 PUSH4 0xA4136862 EQ PUSH2 0x12C JUMPI PUSH4 0xFE50CC72 EQ PUSH2 0x43 JUMPI PUSH1 0x0 DUP1 REVERT JUMPDEST CALLVALUE PUSH2 0x128 JUMPI DUP2 PUSH1 0x3 NOT CALLDATASIZE ADD SLT PUSH2 0x128 JUMPI DUP1 MLOAD SWAP1 DUP3 DUP1 SLOAD PUSH2 0x62 DUP2 PUSH2 0x3F5 JUMP JUMPDEST DUP1 DUP6 MSTORE SWAP2 PUSH1 0x1 SWAP2 DUP1 DUP4 AND SWAP1 DUP2 ISZERO PUSH2 0x100 JUMPI POP PUSH1 0x1 EQ PUSH2 0xA4 JUMPI JUMPDEST POP POP POP PUSH2 0x8E DUP3 PUSH2 0xA0 SWAP5 SUB DUP4 PUSH2 0x37D JUMP JUMPDEST MLOAD SWAP2 DUP3 SWAP2 PUSH1 0x20 DUP4 MSTORE PUSH1 0x20 DUP4 ADD SWAP1 PUSH2 0x3B5 JUMP JUMPDEST SUB SWAP1 RETURN JUMPDEST DUP1 DUP1 SWAP7 POP MSTORE PUSH32 0x290DECD9548B62A8D60345A988386FC84BA6BC95484008F6362F93160EF3E563 JUMPDEST DUP3 DUP7 LT PUSH2 0xE8 JUMPI POP POP POP PUSH2 0x8E DUP3 PUSH1 0x20 PUSH2 0xA0 SWAP6 DUP3 ADD ADD SWAP5 PUSH2 0x7C JUMP JUMPDEST DUP1 SLOAD PUSH1 0x20 DUP8 DUP8 ADD DUP2 ADD SWAP2 SWAP1 SWAP2 MSTORE SWAP1 SWAP6 ADD SWAP5 DUP2 ADD PUSH2 0xCB JUMP JUMPDEST PUSH2 0xA0 SWAP8 POP DUP7 SWAP4 POP PUSH1 0x20 SWAP3 POP PUSH2 0x8E SWAP5 SWAP2 POP PUSH1 0xFF NOT AND DUP3 DUP5 ADD MSTORE ISZERO ISZERO PUSH1 0x5 SHL DUP3 ADD ADD SWAP5 PUSH2 0x7C JUMP JUMPDEST POP DUP1 REVERT JUMPDEST POP SWAP1 CALLVALUE PUSH2 0x355 JUMPI PUSH1 0x20 SWAP2 DUP3 PUSH1 0x3 NOT CALLDATASIZE ADD SLT PUSH2 0x128 JUMPI PUSH1 0x4 CALLDATALOAD SWAP1 PUSH8 0xFFFFFFFFFFFFFFFF DUP1 DUP4 GT PUSH2 0x351 JUMPI CALLDATASIZE PUSH1 0x23 DUP5 ADD SLT ISZERO PUSH2 0x351 JUMPI DUP3 PUSH1 0x4 ADD CALLDATALOAD SWAP3 DUP2 DUP5 GT PUSH2 0x339 JUMPI DUP3 MLOAD SWAP4 PUSH1 0x1F NOT SWAP2 PUSH2 0x185 PUSH1 0x1F DUP4 ADD DUP5 AND DUP10 ADD DUP8 PUSH2 0x37D JUMP JUMPDEST DUP2 DUP7 MSTORE CALLDATASIZE PUSH1 0x24 DUP4 DUP4 ADD ADD GT PUSH2 0x34D JUMPI DUP2 DUP8 SWAP3 PUSH1 0x24 DUP11 SWAP4 ADD DUP4 DUP10 ADD CALLDATACOPY DUP7 ADD ADD MSTORE DUP4 MLOAD SWAP2 DUP3 GT PUSH2 0x339 JUMPI PUSH2 0x1B7 DUP6 SLOAD PUSH2 0x3F5 JUMP JUMPDEST PUSH1 0x1F DUP2 GT PUSH2 0x2D8 JUMPI JUMPDEST POP DUP6 SWAP1 PUSH1 0x1F DUP4 GT PUSH1 0x1 EQ PUSH2 0x23A JUMPI POP SWAP1 DUP1 DUP6 SWAP7 SWAP3 PUSH32 0x97F1752B66013C04A3CBA7B99967E18EF918F6C3435EAE8BA65850DA8B3239E2 SWAP7 SWAP2 PUSH2 0x22F JUMPI JUMPDEST POP DUP2 PUSH1 0x1 SHL SWAP2 PUSH1 0x0 NOT SWAP1 PUSH1 0x3 SHL SHR NOT AND OR DUP6 SSTORE JUMPDEST PUSH2 0x223 DUP3 MLOAD SWAP4 DUP4 DUP6 SWAP5 DUP6 MSTORE DUP5 ADD SWAP1 PUSH2 0x3B5 JUMP JUMPDEST SWAP1 CALLER SWAP1 DUP4 ADD MSTORE SUB SWAP1 LOG1 DUP1 RETURN JUMPDEST SWAP1 POP DUP5 ADD MLOAD CODESIZE PUSH2 0x1FC JUMP JUMPDEST DUP3 AND SWAP1 DUP6 DUP1 MSTORE PUSH32 0x290DECD9548B62A8D60345A988386FC84BA6BC95484008F6362F93160EF3E563 SWAP2 DUP7 JUMPDEST DUP2 DUP2 LT PUSH2 0x2C1 JUMPI POP SWAP2 DUP4 SWAP2 PUSH32 0x97F1752B66013C04A3CBA7B99967E18EF918F6C3435EAE8BA65850DA8B3239E2 SWAP8 SWAP9 SWAP5 PUSH1 0x1 SWAP5 LT PUSH2 0x2A8 JUMPI JUMPDEST POP POP DUP2 SHL ADD DUP6 SSTORE PUSH2 0x210 JUMP JUMPDEST DUP7 ADD MLOAD PUSH1 0x0 NOT PUSH1 0xF8 DUP5 PUSH1 0x3 SHL AND SHR NOT AND SWAP1 SSTORE CODESIZE DUP1 PUSH2 0x29C JUMP JUMPDEST SWAP2 SWAP3 DUP9 PUSH1 0x1 DUP2 SWAP3 DUP7 DUP11 ADD MLOAD DUP2 SSTORE ADD SWAP5 ADD SWAP3 ADD PUSH2 0x264 JUMP JUMPDEST DUP6 DUP1 MSTORE PUSH32 0x290DECD9548B62A8D60345A988386FC84BA6BC95484008F6362F93160EF3E563 PUSH1 0x1F DUP5 ADD PUSH1 0x5 SHR DUP2 ADD SWAP2 DUP9 DUP6 LT PUSH2 0x32F JUMPI JUMPDEST PUSH1 0x1F ADD PUSH1 0x5 SHR ADD SWAP1 JUMPDEST DUP2 DUP2 LT PUSH2 0x324 JUMPI POP PUSH2 0x1C0 JUMP JUMPDEST DUP7 DUP2 SSTORE PUSH1 0x1 ADD PUSH2 0x317 JUMP JUMPDEST SWAP1 SWAP2 POP DUP2 SWAP1 PUSH2 0x30E JUMP JUMPDEST PUSH4 0x4E487B71 PUSH1 0xE0 SHL DUP6 MSTORE PUSH1 0x41 PUSH1 0x4 MSTORE PUSH1 0x24 DUP6 REVERT JUMPDEST DUP7 DUP1 REVERT JUMPDEST DUP4 DUP1 REVERT JUMPDEST DUP1 REVERT JUMPDEST DUP4 SWAP1 CALLVALUE PUSH2 0x128 JUMPI DUP2 PUSH1 0x3 NOT CALLDATASIZE ADD SLT PUSH2 0x128 JUMPI PUSH1 0x1 SLOAD PUSH1 0x1 PUSH1 0x1 PUSH1 0xA0 SHL SUB AND DUP2 MSTORE PUSH1 0x20 SWAP1 RETURN JUMPDEST SWAP1 PUSH1 0x1F DUP1 NOT SWAP2 ADD AND DUP2 ADD SWAP1 DUP2 LT PUSH8 0xFFFFFFFFFFFFFFFF DUP3 GT OR PUSH2 0x39F JUMPI PUSH1 0x40 MSTORE JUMP JUMPDEST PUSH4 0x4E487B71 PUSH1 0xE0 SHL PUSH1 0x0 MSTORE PUSH1 0x41 PUSH1 0x4 MSTORE PUSH1 0x24 PUSH1 0x0 REVERT JUMPDEST SWAP2 SWAP1 DUP3 MLOAD SWAP3 DUP4 DUP3 MSTORE PUSH1 0x0 JUMPDEST DUP5 DUP2 LT PUSH2 0x3E1 JUMPI POP POP DUP3 PUSH1 0x0 PUSH1 0x20 DUP1 SWAP5 SWAP6 DUP5 ADD ADD MSTORE PUSH1 0x1F DUP1 NOT SWAP2 ADD AND ADD ADD SWAP1 JUMP JUMPDEST PUSH1 0x20 DUP2 DUP4 ADD DUP2 ADD MLOAD DUP5 DUP4 ADD DUP3 ADD MSTORE ADD PUSH2 0x3C0 JUMP JUMPDEST SWAP1 PUSH1 0x1 DUP3 DUP2 SHR SWAP3 AND DUP1 ISZERO PUSH2 0x425 JUMPI JUMPDEST PUSH1 0x20 DUP4 LT EQ PUSH2 0x40F JUMPI JUMP JUMPDEST PUSH4 0x4E487B71 PUSH1 0xE0 SHL PUSH1 0x0 MSTORE PUSH1 0x22 PUSH1 0x4 MSTORE PUSH1 0x24 PUSH1 0x0 REVERT JUMPDEST SWAP2 PUSH1 0x7F AND SWAP2 PUSH2 0x404 JUMP INVALID LOG2 PUSH5 0x6970667358 0x22 SLT KECCAK256 MULMOD 0xA6 DUP8 MULMOD 0x1E XOR DUP9 PUSH27 0xF2C4E761B9F8F8023EC59993914CB47D80DC70695FD4D80F64736F PUSH13 0x63430008140033000000000000 "},"methodIdentifiers":{"getGreeting()":"fe50cc72","owner()":"8da5cb5b","setGreeting(string)":"a4136862"}}}}}