{
  "_format": "hh-sol-artifact-1",
  "contractName": "BaseAtomArbitrage",
  "sourceName": "contracts/BaseAtomArbitrage.sol",
  "abi": [
    {
      "inputs": [],
      "stateMutability": "nonpayable",
      "type": "constructor"
    },
    {
      "inputs": [
        {
          "internalType": "address",
          "name": "owner",
          "type": "address"
        }
      ],
      "name": "OwnableInvalidOwner",
      "type": "error"
    },
    {
      "inputs": [
        {
          "internalType": "address",
          "name": "account",
          "type": "address"
        }
      ],
      "name": "OwnableUnauthorizedAccount",
      "type": "error"
    },
    {
      "inputs": [],
      "name": "ReentrancyGuardReentrantCall",
      "type": "error"
    },
    {
      "inputs": [
        {
          "internalType": "address",
          "name": "token",
          "type": "address"
        }
      ],
      "name": "SafeERC20FailedOperation",
      "type": "error"
    },
    {
      "anonymous": false,
      "inputs": [
        {
          "indexed": true,
          "internalType": "address",
          "name": "tokenA",
          "type": "address"
        },
        {
          "indexed": true,
          "internalType": "address",
          "name": "tokenB",
          "type": "address"
        },
        {
          "indexed": false,
          "internalType": "uint256",
          "name": "amountIn",
          "type": "uint256"
        },
        {
          "indexed": false,
          "internalType": "uint256",
          "name": "profit",
          "type": "uint256"
        },
        {
          "indexed": false,
          "internalType": "enum BaseAtomArbitrage.DEX",
          "name": "buyDex",
          "type": "uint8"
        },
        {
          "indexed": false,
          "internalType": "enum BaseAtomArbitrage.DEX",
          "name": "sellDex",
          "type": "uint8"
        },
        {
          "indexed": true,
          "internalType": "address",
          "name": "executor",
          "type": "address"
        }
      ],
      "name": "ArbitrageExecuted",
      "type": "event"
    },
    {
      "anonymous": false,
      "inputs": [
        {
          "indexed": true,
          "internalType": "address",
          "name": "asset",
          "type": "address"
        },
        {
          "indexed": false,
          "internalType": "uint256",
          "name": "amount",
          "type": "uint256"
        },
        {
          "indexed": false,
          "internalType": "uint256",
          "name": "premium",
          "type": "uint256"
        },
        {
          "indexed": false,
          "internalType": "bool",
          "name": "success",
          "type": "bool"
        }
      ],
      "name": "FlashLoanExecuted",
      "type": "event"
    },
    {
      "anonymous": false,
      "inputs": [
        {
          "indexed": true,
          "internalType": "address",
          "name": "previousOwner",
          "type": "address"
        },
        {
          "indexed": true,
          "internalType": "address",
          "name": "newOwner",
          "type": "address"
        }
      ],
      "name": "OwnershipTransferred",
      "type": "event"
    },
    {
      "anonymous": false,
      "inputs": [
        {
          "indexed": true,
          "internalType": "address",
          "name": "token",
          "type": "address"
        },
        {
          "indexed": false,
          "internalType": "uint256",
          "name": "amount",
          "type": "uint256"
        },
        {
          "indexed": false,
          "internalType": "uint256",
          "name": "timestamp",
          "type": "uint256"
        }
      ],
      "name": "ProfitExtracted",
      "type": "event"
    },
    {
      "inputs": [],
      "name": "ADDRESSES_PROVIDER",
      "outputs": [
        {
          "internalType": "contract IPoolAddressesProvider",
          "name": "",
          "type": "address"
        }
      ],
      "stateMutability": "view",
      "type": "function"
    },
    {
      "inputs": [],
      "name": "BALANCER_VAULT",
      "outputs": [
        {
          "internalType": "contract IVault",
          "name": "",
          "type": "address"
        }
      ],
      "stateMutability": "view",
      "type": "function"
    },
    {
      "inputs": [],
      "name": "BASIS_POINTS",
      "outputs": [
        {
          "internalType": "uint256",
          "name": "",
          "type": "uint256"
        }
      ],
      "stateMutability": "view",
      "type": "function"
    },
    {
      "inputs": [],
      "name": "CURVE_REGISTRY",
      "outputs": [
        {
          "internalType": "contract ICurveRegistry",
          "name": "",
          "type": "address"
        }
      ],
      "stateMutability": "view",
      "type": "function"
    },
    {
      "inputs": [],
      "name": "ETH_PRICE_USD",
      "outputs": [
        {
          "internalType": "uint256",
          "name": "",
          "type": "uint256"
        }
      ],
      "stateMutability": "view",
      "type": "function"
    },
    {
      "inputs": [],
      "name": "MAX_FLASH_LOAN_AMOUNT",
      "outputs": [
        {
          "internalType": "uint256",
          "name": "",
          "type": "uint256"
        }
      ],
      "stateMutability": "view",
      "type": "function"
    },
    {
      "inputs": [],
      "name": "MAX_GAS_COST_USD",
      "outputs": [
        {
          "internalType": "uint256",
          "name": "",
          "type": "uint256"
        }
      ],
      "stateMutability": "view",
      "type": "function"
    },
    {
      "inputs": [],
      "name": "MIN_PROFIT_BASIS_POINTS",
      "outputs": [
        {
          "internalType": "uint256",
          "name": "",
          "type": "uint256"
        }
      ],
      "stateMutability": "view",
      "type": "function"
    },
    {
      "inputs": [],
      "name": "SUSHISWAP_ROUTER",
      "outputs": [
        {
          "internalType": "contract IUniswapV2Router",
          "name": "",
          "type": "address"
        }
      ],
      "stateMutability": "view",
      "type": "function"
    },
    {
      "inputs": [],
      "name": "UNISWAP_ROUTER",
      "outputs": [
        {
          "internalType": "contract IUniswapV2Router",
          "name": "",
          "type": "address"
        }
      ],
      "stateMutability": "view",
      "type": "function"
    },
    {
      "inputs": [
        {
          "internalType": "address",
          "name": "token",
          "type": "address"
        }
      ],
      "name": "emergencyWithdraw",
      "outputs": [],
      "stateMutability": "nonpayable",
      "type": "function"
    },
    {
      "inputs": [
        {
          "internalType": "uint256",
          "name": "estimatedGasUnits",
          "type": "uint256"
        },
        {
          "internalType": "uint256",
          "name": "gasPriceGwei",
          "type": "uint256"
        }
      ],
      "name": "estimateGasCostUSD",
      "outputs": [
        {
          "internalType": "uint256",
          "name": "gasCostUSD",
          "type": "uint256"
        }
      ],
      "stateMutability": "pure",
      "type": "function"
    },
    {
      "inputs": [
        {
          "internalType": "address",
          "name": "asset",
          "type": "address"
        },
        {
          "internalType": "uint256",
          "name": "amount",
          "type": "uint256"
        },
        {
          "internalType": "bytes",
          "name": "params",
          "type": "bytes"
        }
      ],
      "name": "executeArbitrage",
      "outputs": [],
      "stateMutability": "nonpayable",
      "type": "function"
    },
    {
      "inputs": [
        {
          "internalType": "address[]",
          "name": "tokens",
          "type": "address[]"
        },
        {
          "internalType": "uint256[]",
          "name": "amounts",
          "type": "uint256[]"
        },
        {
          "internalType": "bytes",
          "name": "params",
          "type": "bytes"
        }
      ],
      "name": "executeBalancerFlashLoan",
      "outputs": [],
      "stateMutability": "nonpayable",
      "type": "function"
    },
    {
      "inputs": [
        {
          "internalType": "address",
          "name": "asset",
          "type": "address"
        },
        {
          "internalType": "uint256",
          "name": "amount",
          "type": "uint256"
        },
        {
          "internalType": "uint256",
          "name": "premium",
          "type": "uint256"
        },
        {
          "internalType": "address",
          "name": "initiator",
          "type": "address"
        },
        {
          "internalType": "bytes",
          "name": "params",
          "type": "bytes"
        }
      ],
      "name": "executeOperation",
      "outputs": [
        {
          "internalType": "bool",
          "name": "",
          "type": "bool"
        }
      ],
      "stateMutability": "nonpayable",
      "type": "function"
    },
    {
      "inputs": [
        {
          "internalType": "uint256",
          "name": "estimatedGasUnits",
          "type": "uint256"
        }
      ],
      "name": "getMaxGasPriceForLimit",
      "outputs": [
        {
          "internalType": "uint256",
          "name": "maxGasPriceGwei",
          "type": "uint256"
        }
      ],
      "stateMutability": "pure",
      "type": "function"
    },
    {
      "inputs": [
        {
          "internalType": "uint256",
          "name": "estimatedGasUnits",
          "type": "uint256"
        },
        {
          "internalType": "uint256",
          "name": "gasPriceGwei",
          "type": "uint256"
        }
      ],
      "name": "isGasCostAcceptable",
      "outputs": [
        {
          "internalType": "bool",
          "name": "acceptable",
          "type": "bool"
        },
        {
          "internalType": "uint256",
          "name": "gasCostUSD",
          "type": "uint256"
        }
      ],
      "stateMutability": "pure",
      "type": "function"
    },
    {
      "inputs": [],
      "name": "owner",
      "outputs": [
        {
          "internalType": "address",
          "name": "",
          "type": "address"
        }
      ],
      "stateMutability": "view",
      "type": "function"
    },
    {
      "inputs": [
        {
          "internalType": "address[]",
          "name": "tokens",
          "type": "address[]"
        },
        {
          "internalType": "uint256[]",
          "name": "amounts",
          "type": "uint256[]"
        },
        {
          "internalType": "uint256[]",
          "name": "",
          "type": "uint256[]"
        },
        {
          "internalType": "bytes",
          "name": "userData",
          "type": "bytes"
        }
      ],
      "name": "receiveFlashLoan",
      "outputs": [],
      "stateMutability": "nonpayable",
      "type": "function"
    },
    {
      "inputs": [],
      "name": "renounceOwnership",
      "outputs": [],
      "stateMutability": "nonpayable",
      "type": "function"
    },
    {
      "inputs": [
        {
          "internalType": "address",
          "name": "newOwner",
          "type": "address"
        }
      ],
      "name": "transferOwnership",
      "outputs": [],
      "stateMutability": "nonpayable",
      "type": "function"
    },
    {
      "inputs": [],
      "name": "withdrawETH",
      "outputs": [],
      "stateMutability": "nonpayable",
      "type": "function"
    },
    {
      "inputs": [
        {
          "internalType": "address",
          "name": "token",
          "type": "address"
        },
        {
          "internalType": "uint256",
          "name": "amount",
          "type": "uint256"
        }
      ],
      "name": "withdrawToken",
      "outputs": [],
      "stateMutability": "nonpayable",
      "type": "function"
    },
    {
      "stateMutability": "payable",
      "type": "receive"
    }
  ],
  "bytecode": "0x6080806040523461007f57600160005533156100695760018054336001600160a01b03198216811790925560405191906001600160a01b03167f8be0079c531659141344cd1fd0a4f28419497f9722a3daafe3b4186f6b6457e0600080a36122ee90816100858239f35b631e4fbdf760e01b815260006004820152602490fd5b600080fdfe6080604090808252600480361015610022575b505050361561002057600080fd5b005b600091823560e01c9081630542975c1461108a5750806306ec9b9e1461106d5780631b11d0ff14610dff578063277754ed14610dd05780636e85962014610d6d5780636ff1c9bc14610ca0578063715018a614610c43578063720387cb14610c1d5780637c1d9539146109d25780637e8db6b3146109b65780638da5cb5b1461098d5780639e281a981461094d578063a852b22714610931578063b7ec8f26146108b1578063b942717b14610882578063bc16384614610853578063ce6a9f01146106a0578063d826492014610671578063e086e5ec14610621578063e1f1c4a714610604578063f04f270714610232578063f2fde38b1461019c5763f9b2d6aa036100125734610198576020366003190112610198576107d0813581810293918115918504141715610186575081156101715750633b9aca0060209251916801158e460913d0000004048152f35b601290634e487b7160e01b6000525260246000fd5b6011602492634e487b7160e01b835252fd5b5080fd5b5082903461022e57602036600319011261022e576101b86110b8565b906101c16112ad565b6001600160a01b03918216928315610218575050600154826bffffffffffffffffffffffff60a01b821617600155167f8be0079c531659141344cd1fd0a4f28419497f9722a3daafe3b4186f6b6457e0600080a380f35b51631e4fbdf760e01b8152908101849052602490fd5b8280fd5b509134610198576080366003190112610198578235916001600160401b03918284116101985736602385011215610198578385013591610271836111d6565b9261027e835194856111b5565b8084526020958685016024809360051b830101913683116105e05783899101915b8383106105ec5750505050803585811161022e576102c090369089016111ed565b9460449485358281116105e0576102da9036908b016111ed565b506064358281116105e0576102f29036908b01611266565b9373ba12222222228d8ba445958a75a0704d566bf2c894610314863314611493565b805181018a8101918b818303126105e8578b810151908682116105e0570191829161014092839103126105e85788519561034d8761117e565b6103588d850161142c565b87526103658a850161142c565b878e015260608401518a88015260808401518e8110156105e457606088015260a08401518e8110156105e457608088015260c08401518181116105e457828e6103b09287010161163e565b60a088015260e08401519081116105e057908c6103cf9285010161163e565b60c08601526101008281015160e08701526101208084015191870191909152910151908401526001600160a01b039261041e908461040c85611683565b51166104178b611683565b51906116dd565b1561059f578261042d83611683565b5116898b868951809481936370a0823160e01b835230908301525afa8015610595578290610561575b61048091506104706104678b611683565b518210156114d0565b6104798a611683565b519061151c565b9961048a89611683565b519060648202918083046064149015171561054f57506127106104b091048b1015611529565b805b825181101561050f57806105058b8b6104db84896104d361050a988b6116a6565b5116926116a6565b518b519263a9059cbb60e01b908401528a8a8401528c8301528b82526105008261119a565b6115b3565b611484565b6104b2565b50887f26f6bbbd455b9507bac0682b6ff4a332a2834a438d602a13bdb22d491d440f3c878c8661053e87611683565b51169382519182524290820152a280f35b634e487b7160e01b8352601190528482fd5b508981813d831161058e575b61057781836111b5565b81010312610589576104809051610456565b600080fd5b503d61056d565b87513d84823e3d90fd5b855162461bcd60e51b8152808b018a9052601a818601527f41726269747261676520657865637574696f6e206661696c656400000000000081890152606490fd5b8480fd5b8580fd5b8380fd5b81906105f7846110ce565b815201910190889061029f565b828434610198578160031936011261019857602090516127108152f35b82843461019857816003193601126101985761063b6112ad565b8180808060018060a01b03600154164790828215610668575bf11561065e575080f35b51903d90823e3d90fd5b506108fc610654565b82843461019857816003193601126101985760209051734752ba5dbc23f44d87826276bf6fd6b1c372ad248152f35b5034610198576003199260603685011261022e576001600160401b039382358581116105e0576106d39036908501611125565b95909160243582811161084f576106ed9036908701611125565b909260443590811161084b5761070690369088016110e2565b9190936107116112ad565b610719611461565b885b828110610825575073ba12222222228d8ba445958a75a0704d566bf2c893843b15610821578a885199632e1c224f60e11b8b5260848b019030908c0152608060248c01525260a48901968a9b5b808d106107f857505088870301604489015281865297985088976001600160fb1b0382116107f4576107bb88958694602086948d9a8b9760051b80928483013701601c8682030160648701520191611440565b03925af19081156107eb57506107d4575b506001905580f35b6107dd90611155565b6107e85780386107cc565b80fd5b513d84823e3d90fd5b8880fd5b90976001906001600160a01b0361080e8b6110ce565b168152602080910199019c019b90610768565b8980fd5b806105056a084595161401484a0000006108469360051b85013511156112d9565b61071b565b8780fd5b8680fd5b8284346101985781600319360112610198576020905173ba12222222228d8ba445958a75a0704d566bf2c88152f35b8284346101985781600319360112610198576020905173f98b45fa17de75fb1ad0e7afd971b0ca00e379fc8152f35b5090346107e8576108c13661110f565b90633b9aca009182810292818404149015171561091e57906108e291611403565b916107d09283810293818504149015171561090b57602083670de0b6b3a7640000865191048152f35b634e487b7160e01b825260119052602490fd5b634e487b7160e01b835260118452602483fd5b8284346101985781600319360112610198576020905160148152f35b828434610198573660031901126107e85761098a6109696110b8565b6109716112ad565b600154602435916001600160a01b039182169116611575565b80f35b82843461019857816003193601126101985760015490516001600160a01b039091168152602090f35b8284346101985781600319360112610198576020905160648152f35b50823461022e57606036600319011261022e576109ed6110b8565b91602435926044356001600160401b0381116105e457610a1090369084016110e2565b9190610a1a6112ad565b610a22611461565b610a396a084595161401484a0000008711156112d9565b610a4583820182611325565b610a556101208201513a90611403565b6107d090818102918183041490151715610c0a57670de0b6b3a76400006014910411610bc75761010001513a11610b8457845163026b1d5f60e01b815287949093929190602085828173e20fcbdbffc4dd138ce8b2e6fbb6cb49777ad64d5afa948515610b7a578695610b3f575b506001600160a01b0394851693843b1561084f578692610b119189519a8b98899788966310ac2ddf60e21b88523090880152166024860152604485015260a0606485015260a4840191611440565b82608483015203925af19081156107eb5750610b30575b506001815580f35b610b3990611155565b81610b28565b9094506020813d8211610b72575b81610b5a602093836111b5565b810103126105e457610b6b9061142c565b9389610ac3565b3d9150610b4d565b87513d88823e3d90fd5b845162461bcd60e51b8152602081860152601c60248201527f47617320707269636520657863656564732075736572206c696d6974000000006044820152606490fd5b855162461bcd60e51b8152602081870152601c60248201527f47617320636f7374206578636565647320243230206d6178696d756d000000006044820152606490fd5b634e487b7160e01b895260118652602489fd5b828434610198578160031936011261019857602090516a084595161401484a0000008152f35b82346107e857806003193601126107e857610c5c6112ad565b600180546001600160a01b0319811690915581906001600160a01b03167f8be0079c531659141344cd1fd0a4f28419497f9722a3daafe3b4186f6b6457e08280a380f35b50823461022e57602036600319011261022e5782610cbc6110b8565b92610cc56112ad565b6001600160a01b0393841680610cf3575050808080939460015416479082821561066857f11561065e575080f35b91509260015416908251936370a0823160e01b85523090850152602084602481845afa928315610d6457508492610d2f575b61098a9350611575565b91506020833d8211610d5c575b81610d49602093836111b5565b810103126105e85761098a925191610d25565b3d9150610d3c565b513d86823e3d90fd5b5090346107e857610d7d3661110f565b90633b9aca009182810292818404149015171561091e5790610d9e91611403565b916107d09283810293818504149015171561090b5783670de0b6b3a76400008404815190601481111582526020820152f35b82843461019857816003193601126101985760209051736bded42c6da8fbf0d2ba55b2fa120c5e0c8d78918152f35b5082903461022e5760a036600319011261022e57610e1b6110b8565b6064356001600160a01b0381811695926024359260443591908890036105e0576084356001600160401b0381116105e457610e5990369088016110e2565b885163026b1d5f60e01b815260209a908b818b8173e20fcbdbffc4dd138ce8b2e6fbb6cb49777ad64d5afa80156110635787908a9061102b575b610ea09250163314611493565b3003610ff45781610eb691610ebd930190611325565b85836116dd565b9282850191828611610fe157169587516370a0823160e01b8152308282015289816024818b5afa8015610fd75783908890610fa6575b610f099250610f04828210156114d0565b61151c565b9560648602918683046064148715171561090b57505087947f26f6bbbd455b9507bac0682b6ff4a332a2834a438d602a13bdb22d491d440f3c96948894610f847fe7055bb7f757aae8cfbf6ea2247e26371914425f5500c1d720f0746ae1ff880395610f7d612710606097048a1015611529565b3388611575565b87519283528b830152151586820152a281519081524286820152a25160018152f35b50508981813d8311610fd0575b610fbd81836111b5565b8101031261084f5782610f099151610ef3565b503d610fb3565b89513d89823e3d90fd5b634e487b7160e01b875260118852602487fd5b885162461bcd60e51b81528089018b9052601160248201527024b73b30b634b21034b734ba34b0ba37b960791b6044820152606490fd5b50508b81813d831161105c575b61104281836111b5565b810103126107f45786611057610ea09261142c565b610e93565b503d611038565b8b513d8b823e3d90fd5b828434610198578160031936011261019857602090516107d08152f35b8390346101985781600319360112610198578073e20fcbdbffc4dd138ce8b2e6fbb6cb49777ad64d60209252f35b600435906001600160a01b038216820361058957565b35906001600160a01b038216820361058957565b9181601f84011215610589578235916001600160401b038311610589576020838186019501011161058957565b6040906003190112610589576004359060243590565b9181601f84011215610589578235916001600160401b038311610589576020808501948460051b01011161058957565b6001600160401b03811161116857604052565b634e487b7160e01b600052604160045260246000fd5b61014081019081106001600160401b0382111761116857604052565b608081019081106001600160401b0382111761116857604052565b90601f801991011681019081106001600160401b0382111761116857604052565b6001600160401b0381116111685760051b60200190565b81601f8201121561058957803591611204836111d6565b9261121260405194856111b5565b808452602092838086019260051b820101928311610589578301905b82821061123c575050505090565b8135815290830190830161122e565b6001600160401b03811161116857601f01601f191660200190565b81601f820112156105895780359061127d8261124b565b9261128b60405194856111b5565b8284526020838301011161058957816000926020809301838601378301015290565b6001546001600160a01b031633036112c157565b60405163118cdaa760e01b8152336004820152602490fd5b156112e057565b60405162461bcd60e51b815260206004820152601960248201527f416d6f756e742065786365656473202431304d206c696d6974000000000000006044820152606490fd5b6020818303126105895780356001600160401b039182821161058957019061014082840312610589576040519261135b8461117e565b611364836110ce565b8452611372602084016110ce565b602085015260408301356040850152606083013560048110156105895760608501526080830135600481101561058957608085015260a083013582811161058957816113bf918501611266565b60a085015260c0830135918211610589576113db918301611266565b60c083015260e081013560e08301526101008082013590830152610120809101359082015290565b8181029291811591840414171561141657565b634e487b7160e01b600052601160045260246000fd5b51906001600160a01b038216820361058957565b908060209392818452848401376000828201840152601f01601f1916010190565b600260005414611472576002600055565b604051633ee5aeb560e01b8152600490fd5b60001981146114165760010190565b1561149a57565b60405162461bcd60e51b815260206004820152600e60248201526d24b73b30b634b21031b0b63632b960911b6044820152606490fd5b156114d757565b60405162461bcd60e51b815260206004820152601d60248201527f496e73756666696369656e742062616c616e636520746f2072657061790000006044820152606490fd5b9190820391821161141657565b1561153057565b60405162461bcd60e51b815260206004820152601960248201527f50726f6669742062656c6f77203125207468726573686f6c64000000000000006044820152606490fd5b60405163a9059cbb60e01b60208201526001600160a01b039290921660248301526044808301939093529181526115b1916105006064836111b5565b565b906000602091828151910182855af11561160f576000513d61160657506001600160a01b0381163b155b6115e45750565b604051635274afe760e01b81526001600160a01b039091166004820152602490fd5b600114156115dd565b6040513d6000823e3d90fd5b60005b83811061162e5750506000910152565b818101518382015260200161161e565b81601f820112156105895780516116548161124b565b9261166260405194856111b5565b8184526020828401011161058957611680916020808501910161161b565b90565b8051156116905760200190565b634e487b7160e01b600052603260045260246000fd5b80518210156116905760209160051b010190565b9060048210156116c75752565b634e487b7160e01b600052602160045260246000fd5b6060830191825191600492838110156117e65790611701918360a088015192611852565b60208501805160808701805192959390926001600160a01b03928316918582101561183d5790611737929160c08b015192611852565b846000918181116000146118355761174f925061151c565b965b60e081015188106117fb578180915116955116955191838310156117e6575192808410156117d157506080926117c17f99f5f2282ea6a09a6f4eca16f69a79543bd628094c28102155974b489b01959a95936117cb936001541699604051958652602086015260408501906116ba565b60608301906116ba565ba4600190565b602190634e487b7160e01b6000525260246000fd5b602184634e487b7160e01b6000525260246000fd5b60405162461bcd60e51b81526020818601526013602482015272125b9cdd59999a58da595b9d081c1c9bd99a5d606a1b6044820152606490fd5b505096611751565b602186634e487b7160e01b6000525260246000fd5b9093929160048110156116c75780611ad45750815182019160209081818503126105895781810151906001600160401b03948583116105895761189b9284809201920101612244565b60405163095ea7b360e01b838201818152734752ba5dbc23f44d87826276bf6fd6b1c372ad246024840181905260448085018b9052845290986001600160a01b039691949390929187166118ee8261119a565b866000809c84519082855af18b513d82611ab8575b505015611a82575b50505061012c420190814211611a6e57918893916040519687946338ed173960e01b865260a4860190600487015286602487015260a0604487015283518091528760c4870194019187905b89838310611a4e5750505050508380928692306064840152608483015203925af1928315611a435785936119ba575b50508151600019810192915082116119a6576119a29293506116a6565b5190565b634e487b7160e01b84526011600452602484fd5b909192503d8086853e6119cd81856111b5565b83019282818503126105e45780519182116105e457019180601f840112156105e05782516119fa816111d6565b93611a0860405195866111b5565b818552838086019260051b82010192831161084f578301905b828210611a345750505050388080611985565b81518152908301908301611a21565b6040513d87823e3d90fd5b8451821687528e99508b9850958601959390930192600190910190611956565b634e487b7160e01b89526011600452602489fd5b610500611ab09360405190898201528760248201528c604482015260448152611aaa8161119a565b826115b3565b38808061190b565b909150611acc5750803b15155b3880611903565b600114611ac5565b60018103611d0e5750815182019160209081818503126105895781810151906001600160401b039485831161058957611b139284809201920101612244565b60405163095ea7b360e01b838201818152736bded42c6da8fbf0d2ba55b2fa120c5e0c8d78916024840181905260448085018b9052845290986001600160a01b03969194939092918716611b668261119a565b866000809c84519082855af18b513d82611cf2575b505015611cc2575b50505061012c420190814211611a6e57918893916040519687946338ed173960e01b865260a4860190600487015286602487015260a0604487015283518091528760c4870194019187905b89838310611ca25750505050508380928692306064840152608483015203925af1928315611a43578593611c195750508151600019810192915082116119a6576119a29293506116a6565b909192503d8086853e611c2c81856111b5565b83019282818503126105e45780519182116105e457019180601f840112156105e0578251611c59816111d6565b93611c6760405195866111b5565b818552838086019260051b82010192831161084f578301905b828210611c935750505050388080611985565b81518152908301908301611c80565b8451821687528e99508b9850958601959390930192600190910190611bce565b610500611cea9360405190898201528760248201528c604482015260448152611aaa8161119a565b388080611b83565b909150611d065750803b15155b3880611b7b565b600114611cff565b60028195929394951460001461205f5750825183016020848203126105895760208401516001600160401b039485821161058957019060408282031261058957604051916040830183811087821117611168576040526020810151835260408101519186831161058957611d89926020809201920101612244565b602082810191825260405163095ea7b360e01b81830181815273ba12222222228d8ba445958a75a0704d566bf2c860248401526044808401889052835293966001600160a01b03169493909290600090611de28461119a565b83519082885af16000513d82612043575b505015611ff2575b505051925180516000198101908111611416576001600160a01b0391611e2191906116a6565b5116906040519360c0850185811087821117611168576040528452600060208501526040840152606083015260808201526040516040810181811084821117611168576040526002815261060f60f31b602082015260a08201526040519160808301908382109082111761116857604052308252600060208301523060408301526000606083015261012c42014211611416576040516352bbbe2960e01b815260e06004820152815160e48201526020820151909260028210156116c7578360a06020948294610104840152600180831b03604082015116610124840152600180831b03606082015116610144840152608081015161016484015201519160c06101848301526060835191826101a4850152611f46836101c49689888801910161161b565b60018060a01b038151166024850152868101511515604485015260018060a01b036040820151166064850152015115156084830152600060a483015261012c420160c4830152601f80199101168101030181600073ba12222222228d8ba445958a75a0704d566bf2c85af190811561160f57600091611fc3575090565b90506020813d602011611fea575b81611fde602093836111b5565b81010312610589575190565b3d9150611fd1565b61203661203c9260405190602082015273ba12222222228d8ba445958a75a0704d566bf2c8602482015260006044820152604481526120308161119a565b856115b3565b836115b3565b3880611dfb565b9091506120575750833b15155b3880611df3565b600114612050565b919290916003146120a15760405162461bcd60e51b815260206004820152600f60248201526e0aadce6eae0e0dee4e8cac840888ab608b1b6044820152606490fd5b6060818051810103126105895760409283519060608201928284106001600160401b03851117611168576084938652602093849384936120e285850161142c565b9081835261210360606120f68c88016122aa565b96888601978852016122aa565b838b019081528a5163095ea7b360e01b8882018181526001600160a01b039586166024840181905260448085018f90528452939690959490939291908516908e9061214f6064856111b5565b60009d8e809986519082875af188513d82612228575b5050156121f8575b50505050505116935191519389519889958694630f7c084960e21b8652600f0b6004860152600f0b602485015260448401528160648401525af19384156121ed575081936121bc575b50505090565b9091809350813d83116121e6575b6121d481836111b5565b810103126107e85750513880806121b6565b503d6121ca565b51913d9150823e3d90fd5b61221e946105009251918d830152602482015287604482015260448152611aaa8161119a565b3880808d8161216d565b90915061223c5750823b15155b3880612165565b600114612235565b81601f820112156105895780519161225b836111d6565b9261226960405194856111b5565b808452602092838086019260051b820101928311610589578301905b828210612293575050505090565b83809161229f8461142c565b815201910190612285565b519081600f0b82036105895756fea2646970667358221220047c56f55483bcb92362dec44b3b3d1cf4df15976a3937fde9772a05c3f3c29f64736f6c63430008140033",
  "linkReferences": {},
  "deployedLinkReferences": {}
}