{
  "_format": "hh-sol-artifact-1",
  "contractName": "AtomArbitrage",
  "sourceName": "contracts/AtomArbitrage.sol",
  "abi": [
    {
      "inputs": [],
      "stateMutability": "nonpayable",
      "type": "constructor"
    },
    {
      "inputs": [],
      "name": "EnforcedPause",
      "type": "error"
    },
    {
      "inputs": [],
      "name": "ExpectedPause",
      "type": "error"
    },
    {
      "inputs": [
        {
          "internalType": "address",
          "name": "owner",
          "type": "address"
        }
      ],
      "name": "OwnableInvalidOwner",
      "type": "error"
    },
    {
      "inputs": [
        {
          "internalType": "address",
          "name": "account",
          "type": "address"
        }
      ],
      "name": "OwnableUnauthorizedAccount",
      "type": "error"
    },
    {
      "inputs": [],
      "name": "ReentrancyGuardReentrantCall",
      "type": "error"
    },
    {
      "inputs": [
        {
          "internalType": "address",
          "name": "token",
          "type": "address"
        }
      ],
      "name": "SafeERC20FailedOperation",
      "type": "error"
    },
    {
      "anonymous": false,
      "inputs": [
        {
          "indexed": true,
          "internalType": "address",
          "name": "tokenA",
          "type": "address"
        },
        {
          "indexed": true,
          "internalType": "address",
          "name": "tokenB",
          "type": "address"
        },
        {
          "indexed": false,
          "internalType": "uint256",
          "name": "amountIn",
          "type": "uint256"
        },
        {
          "indexed": false,
          "internalType": "uint256",
          "name": "profit",
          "type": "uint256"
        },
        {
          "indexed": false,
          "internalType": "enum AtomArbitrage.DEX",
          "name": "buyDex",
          "type": "uint8"
        },
        {
          "indexed": false,
          "internalType": "enum AtomArbitrage.DEX",
          "name": "sellDex",
          "type": "uint8"
        },
        {
          "indexed": true,
          "internalType": "address",
          "name": "executor",
          "type": "address"
        }
      ],
      "name": "ArbitrageExecuted",
      "type": "event"
    },
    {
      "anonymous": false,
      "inputs": [
        {
          "indexed": true,
          "internalType": "address",
          "name": "caller",
          "type": "address"
        },
        {
          "indexed": false,
          "internalType": "uint256",
          "name": "timestamp",
          "type": "uint256"
        }
      ],
      "name": "EmergencyPause",
      "type": "event"
    },
    {
      "anonymous": false,
      "inputs": [
        {
          "indexed": true,
          "internalType": "address",
          "name": "caller",
          "type": "address"
        },
        {
          "indexed": false,
          "internalType": "uint256",
          "name": "timestamp",
          "type": "uint256"
        }
      ],
      "name": "EmergencyUnpause",
      "type": "event"
    },
    {
      "anonymous": false,
      "inputs": [
        {
          "indexed": true,
          "internalType": "address",
          "name": "caller",
          "type": "address"
        },
        {
          "indexed": false,
          "internalType": "address[]",
          "name": "tokens",
          "type": "address[]"
        },
        {
          "indexed": false,
          "internalType": "uint256",
          "name": "timestamp",
          "type": "uint256"
        }
      ],
      "name": "EmergencyWithdrawal",
      "type": "event"
    },
    {
      "anonymous": false,
      "inputs": [
        {
          "indexed": true,
          "internalType": "address",
          "name": "asset",
          "type": "address"
        },
        {
          "indexed": false,
          "internalType": "uint256",
          "name": "amount",
          "type": "uint256"
        },
        {
          "indexed": false,
          "internalType": "uint256",
          "name": "premium",
          "type": "uint256"
        },
        {
          "indexed": false,
          "internalType": "bool",
          "name": "success",
          "type": "bool"
        }
      ],
      "name": "FlashLoanExecuted",
      "type": "event"
    },
    {
      "anonymous": false,
      "inputs": [
        {
          "indexed": true,
          "internalType": "address",
          "name": "previousOwner",
          "type": "address"
        },
        {
          "indexed": true,
          "internalType": "address",
          "name": "newOwner",
          "type": "address"
        }
      ],
      "name": "OwnershipTransferred",
      "type": "event"
    },
    {
      "anonymous": false,
      "inputs": [
        {
          "indexed": false,
          "internalType": "address",
          "name": "account",
          "type": "address"
        }
      ],
      "name": "Paused",
      "type": "event"
    },
    {
      "anonymous": false,
      "inputs": [
        {
          "indexed": true,
          "internalType": "address",
          "name": "token",
          "type": "address"
        },
        {
          "indexed": false,
          "internalType": "uint256",
          "name": "amount",
          "type": "uint256"
        },
        {
          "indexed": false,
          "internalType": "uint256",
          "name": "timestamp",
          "type": "uint256"
        }
      ],
      "name": "ProfitExtracted",
      "type": "event"
    },
    {
      "anonymous": false,
      "inputs": [
        {
          "indexed": false,
          "internalType": "address",
          "name": "account",
          "type": "address"
        }
      ],
      "name": "Unpaused",
      "type": "event"
    },
    {
      "inputs": [],
      "name": "ADDRESSES_PROVIDER",
      "outputs": [
        {
          "internalType": "contract IPoolAddressesProvider",
          "name": "",
          "type": "address"
        }
      ],
      "stateMutability": "view",
      "type": "function"
    },
    {
      "inputs": [],
      "name": "BALANCER_VAULT",
      "outputs": [
        {
          "internalType": "contract IVault",
          "name": "",
          "type": "address"
        }
      ],
      "stateMutability": "view",
      "type": "function"
    },
    {
      "inputs": [],
      "name": "BASIS_POINTS",
      "outputs": [
        {
          "internalType": "uint256",
          "name": "",
          "type": "uint256"
        }
      ],
      "stateMutability": "view",
      "type": "function"
    },
    {
      "inputs": [],
      "name": "CURVE_REGISTRY",
      "outputs": [
        {
          "internalType": "contract ICurveRegistry",
          "name": "",
          "type": "address"
        }
      ],
      "stateMutability": "view",
      "type": "function"
    },
    {
      "inputs": [],
      "name": "ETH_PRICE_USD",
      "outputs": [
        {
          "internalType": "uint256",
          "name": "",
          "type": "uint256"
        }
      ],
      "stateMutability": "view",
      "type": "function"
    },
    {
      "inputs": [],
      "name": "MAX_FLASH_LOAN_AMOUNT",
      "outputs": [
        {
          "internalType": "uint256",
          "name": "",
          "type": "uint256"
        }
      ],
      "stateMutability": "view",
      "type": "function"
    },
    {
      "inputs": [],
      "name": "MAX_GAS_COST_USD",
      "outputs": [
        {
          "internalType": "uint256",
          "name": "",
          "type": "uint256"
        }
      ],
      "stateMutability": "view",
      "type": "function"
    },
    {
      "inputs": [],
      "name": "MIN_PROFIT_BASIS_POINTS",
      "outputs": [
        {
          "internalType": "uint256",
          "name": "",
          "type": "uint256"
        }
      ],
      "stateMutability": "view",
      "type": "function"
    },
    {
      "inputs": [],
      "name": "SUSHISWAP_ROUTER",
      "outputs": [
        {
          "internalType": "contract IUniswapV2Router",
          "name": "",
          "type": "address"
        }
      ],
      "stateMutability": "view",
      "type": "function"
    },
    {
      "inputs": [],
      "name": "UNISWAP_ROUTER",
      "outputs": [
        {
          "internalType": "contract IUniswapV2Router",
          "name": "",
          "type": "address"
        }
      ],
      "stateMutability": "view",
      "type": "function"
    },
    {
      "inputs": [
        {
          "internalType": "address",
          "name": "tokenA",
          "type": "address"
        },
        {
          "internalType": "address",
          "name": "tokenB",
          "type": "address"
        },
        {
          "internalType": "uint256",
          "name": "amountIn",
          "type": "uint256"
        },
        {
          "internalType": "enum AtomArbitrage.DEX",
          "name": "buyDex",
          "type": "uint8"
        },
        {
          "internalType": "enum AtomArbitrage.DEX",
          "name": "sellDex",
          "type": "uint8"
        },
        {
          "internalType": "bytes",
          "name": "buyData",
          "type": "bytes"
        },
        {
          "internalType": "bytes",
          "name": "sellData",
          "type": "bytes"
        }
      ],
      "name": "_simulateArbitrage",
      "outputs": [
        {
          "internalType": "uint256",
          "name": "finalAmount",
          "type": "uint256"
        }
      ],
      "stateMutability": "view",
      "type": "function"
    },
    {
      "inputs": [
        {
          "internalType": "address",
          "name": "tokenA",
          "type": "address"
        },
        {
          "internalType": "address",
          "name": "tokenB",
          "type": "address"
        },
        {
          "internalType": "uint256",
          "name": "amountIn",
          "type": "uint256"
        },
        {
          "internalType": "enum AtomArbitrage.DEX",
          "name": "buyDex",
          "type": "uint8"
        },
        {
          "internalType": "enum AtomArbitrage.DEX",
          "name": "sellDex",
          "type": "uint8"
        },
        {
          "internalType": "bytes",
          "name": "buyData",
          "type": "bytes"
        },
        {
          "internalType": "bytes",
          "name": "sellData",
          "type": "bytes"
        }
      ],
      "name": "calculateMultiDexProfit",
      "outputs": [
        {
          "internalType": "uint256",
          "name": "profit",
          "type": "uint256"
        },
        {
          "internalType": "bool",
          "name": "profitable",
          "type": "bool"
        }
      ],
      "stateMutability": "view",
      "type": "function"
    },
    {
      "inputs": [],
      "name": "emergencyPause",
      "outputs": [],
      "stateMutability": "nonpayable",
      "type": "function"
    },
    {
      "inputs": [],
      "name": "emergencyUnpause",
      "outputs": [],
      "stateMutability": "nonpayable",
      "type": "function"
    },
    {
      "inputs": [
        {
          "internalType": "address",
          "name": "token",
          "type": "address"
        }
      ],
      "name": "emergencyWithdraw",
      "outputs": [],
      "stateMutability": "nonpayable",
      "type": "function"
    },
    {
      "inputs": [
        {
          "internalType": "address[]",
          "name": "tokens",
          "type": "address[]"
        }
      ],
      "name": "emergencyWithdrawAll",
      "outputs": [],
      "stateMutability": "nonpayable",
      "type": "function"
    },
    {
      "inputs": [
        {
          "internalType": "uint256",
          "name": "estimatedGasUnits",
          "type": "uint256"
        },
        {
          "internalType": "uint256",
          "name": "gasPriceGwei",
          "type": "uint256"
        }
      ],
      "name": "estimateGasCostUSD",
      "outputs": [
        {
          "internalType": "uint256",
          "name": "gasCostUSD",
          "type": "uint256"
        }
      ],
      "stateMutability": "pure",
      "type": "function"
    },
    {
      "inputs": [
        {
          "internalType": "address",
          "name": "asset",
          "type": "address"
        },
        {
          "internalType": "uint256",
          "name": "amount",
          "type": "uint256"
        },
        {
          "internalType": "bytes",
          "name": "params",
          "type": "bytes"
        }
      ],
      "name": "executeArbitrage",
      "outputs": [],
      "stateMutability": "nonpayable",
      "type": "function"
    },
    {
      "inputs": [
        {
          "internalType": "address[]",
          "name": "tokens",
          "type": "address[]"
        },
        {
          "internalType": "uint256[]",
          "name": "amounts",
          "type": "uint256[]"
        },
        {
          "internalType": "bytes",
          "name": "params",
          "type": "bytes"
        }
      ],
      "name": "executeBalancerFlashLoan",
      "outputs": [],
      "stateMutability": "nonpayable",
      "type": "function"
    },
    {
      "inputs": [
        {
          "internalType": "address",
          "name": "asset",
          "type": "address"
        },
        {
          "internalType": "uint256",
          "name": "amount",
          "type": "uint256"
        },
        {
          "internalType": "uint256",
          "name": "premium",
          "type": "uint256"
        },
        {
          "internalType": "address",
          "name": "initiator",
          "type": "address"
        },
        {
          "internalType": "bytes",
          "name": "params",
          "type": "bytes"
        }
      ],
      "name": "executeOperation",
      "outputs": [
        {
          "internalType": "bool",
          "name": "",
          "type": "bool"
        }
      ],
      "stateMutability": "nonpayable",
      "type": "function"
    },
    {
      "inputs": [
        {
          "internalType": "uint256",
          "name": "estimatedGasUnits",
          "type": "uint256"
        }
      ],
      "name": "getMaxGasPriceForLimit",
      "outputs": [
        {
          "internalType": "uint256",
          "name": "maxGasPriceGwei",
          "type": "uint256"
        }
      ],
      "stateMutability": "pure",
      "type": "function"
    },
    {
      "inputs": [
        {
          "internalType": "uint256",
          "name": "estimatedGasUnits",
          "type": "uint256"
        },
        {
          "internalType": "uint256",
          "name": "gasPriceGwei",
          "type": "uint256"
        }
      ],
      "name": "isGasCostAcceptable",
      "outputs": [
        {
          "internalType": "bool",
          "name": "acceptable",
          "type": "bool"
        },
        {
          "internalType": "uint256",
          "name": "gasCostUSD",
          "type": "uint256"
        }
      ],
      "stateMutability": "pure",
      "type": "function"
    },
    {
      "inputs": [],
      "name": "isPaused",
      "outputs": [
        {
          "internalType": "bool",
          "name": "",
          "type": "bool"
        }
      ],
      "stateMutability": "view",
      "type": "function"
    },
    {
      "inputs": [],
      "name": "owner",
      "outputs": [
        {
          "internalType": "address",
          "name": "",
          "type": "address"
        }
      ],
      "stateMutability": "view",
      "type": "function"
    },
    {
      "inputs": [],
      "name": "paused",
      "outputs": [
        {
          "internalType": "bool",
          "name": "",
          "type": "bool"
        }
      ],
      "stateMutability": "view",
      "type": "function"
    },
    {
      "inputs": [
        {
          "internalType": "address[]",
          "name": "tokens",
          "type": "address[]"
        },
        {
          "internalType": "uint256[]",
          "name": "amounts",
          "type": "uint256[]"
        },
        {
          "internalType": "uint256[]",
          "name": "",
          "type": "uint256[]"
        },
        {
          "internalType": "bytes",
          "name": "userData",
          "type": "bytes"
        }
      ],
      "name": "receiveFlashLoan",
      "outputs": [],
      "stateMutability": "nonpayable",
      "type": "function"
    },
    {
      "inputs": [],
      "name": "renounceOwnership",
      "outputs": [],
      "stateMutability": "nonpayable",
      "type": "function"
    },
    {
      "inputs": [
        {
          "internalType": "address",
          "name": "newOwner",
          "type": "address"
        }
      ],
      "name": "transferOwnership",
      "outputs": [],
      "stateMutability": "nonpayable",
      "type": "function"
    },
    {
      "inputs": [],
      "name": "withdrawETH",
      "outputs": [],
      "stateMutability": "nonpayable",
      "type": "function"
    },
    {
      "inputs": [
        {
          "internalType": "address",
          "name": "token",
          "type": "address"
        },
        {
          "internalType": "uint256",
          "name": "amount",
          "type": "uint256"
        }
      ],
      "name": "withdrawToken",
      "outputs": [],
      "stateMutability": "nonpayable",
      "type": "function"
    },
    {
      "stateMutability": "payable",
      "type": "receive"
    }
  ],
  "bytecode": "0x6080806040523461007f57600160005533156100695760018054336001600160a01b03198216811790925560405191906001600160a01b03167f8be0079c531659141344cd1fd0a4f28419497f9722a3daafe3b4186f6b6457e0600080a361294d90816100858239f35b631e4fbdf760e01b815260006004820152602490fd5b600080fdfe60806040818152600436101561001f575b5050361561001d57600080fd5b005b600091823560e01c9081630542975c1461144a5750806306ec9b9e1461142e57806308e44852146112a85780631b11d0ff14611039578063277754ed1461100b5780634a4e3bd514610f705780634a9dd70b14610f3d57806351858e2714610eb15780635c975abb146109f65780636e85962014610e4e5780636ff1c9bc14610d85578063715018a614610d28578063720387cb14610d035780637c1d953914610ab95780637e8db6b314610a9e5780638da5cb5b14610a765780639e281a9814610a37578063a852b22714610a1c578063b187bd26146109f6578063b7ec8f2614610988578063b942717b1461095a578063bc1638461461092c578063bd81b47014610804578063ce6a9f011461067f578063d826492014610651578063e086e5ec14610602578063e1f1c4a7146105e6578063f04f27071461025a578063f2fde38b146101cb5763f9b2d6aa0361001057346101c75760203660031901126101c7576107d0600435818102939181159185041417156101b35750633b9aca006101ab6020936118f9565b049051908152f35b634e487b7160e01b81526011600452602490fd5b5080fd5b50346101c75760203660031901126101c7576101e56114a8565b6101ed61177a565b6001600160a01b039081169182156102435750600154826bffffffffffffffffffffffff60a01b821617600155167f8be0079c531659141344cd1fd0a4f28419497f9722a3daafe3b4186f6b6457e0600080a380f35b51631e4fbdf760e01b815260048101849052602490fd5b50346101c75760803660031901126101c7576001600160401b03906004358281116105e25761028d903690600401611654565b9060249081358481116105de576102a89036906004016116ba565b9260449283358681116105da576102c39036906004016116ba565b506064358681116105da576102dc903690600401611733565b73ba12222222228d8ba445958a75a0704d566bf2c8926102fd843314611a15565b8151820197602098898101938a818303126105d6578a810151908382116105ce570191829161014092839103126105d65787519461033a866115ca565b6103458c8501611923565b8652610352898501611923565b8c870152606084015189870152608084015160048110156105d257606087015260a084015160048110156105d257608087015260c08401518281116105d257818d61039f92870101611bc0565b60a087015260e08401519182116105ce578b6103bd92850101611bc0565b60c08501526101008281015160e08601526101208084015191860191909152910151908301526001600160a01b039161040c90836103fa84611c05565b51166104058a611c05565b5190611c49565b1561058c5782888361041d84611c05565b51168751928380926370a0823160e01b82523060048301525afa8015610582578a9061054e575b61046e915061045e6104558a611c05565b51821015611a52565b61046789611c05565b5190611a9e565b9861047888611c05565b5160648102908082046064149015171561053b5761271061049c91048b1015611aab565b805b82518110156104fb57806104f18b8b6104c784896104bf6104f6988b611c12565b511692611c12565b518b519263a9059cbb60e01b908401528a8a8401528c8301528b82526104ec82611601565b611b35565b61199c565b61049e565b50887f26f6bbbd455b9507bac0682b6ff4a332a2834a438d602a13bdb22d491d440f3c878c8661052a87611c05565b51169382519182524290820152a280f35b634e487b7160e01b825260116004528482fd5b508881813d831161057b575b610564818361161c565b810103126105765761046e9051610444565b600080fd5b503d61055a565b86513d8c823e3d90fd5b845162461bcd60e51b815260048101899052601a818501527f41726269747261676520657865637574696f6e206661696c656400000000000081880152606490fd5b8c80fd5b8d80fd5b8b80fd5b8780fd5b8580fd5b8380fd5b50346101c757816003193601126101c757602090516127108152f35b50346101c757816003193601126101c75761061b61177a565b8180808060018060a01b03600154164790828215610648575bf11561063e575080f35b51903d90823e3d90fd5b506108fc610634565b50346101c757816003193601126101c75760209051737a250d5630b4cf539739df2c5dacb4c659f2488d8152f35b5090346107c1576003196060368201126101c7576001600160401b03926004358481116105e2576106b4903690600401611478565b92906024358681116105de576106ce903690600401611478565b919096604435908111610800576106e99036906004016114d2565b90926106f361177a565b6106fb611979565b875b8181106107d55750879873ba12222222228d8ba445958a75a0704d566bf2c893843b156107d1578751632e1c224f60e11b8152306004820152608060248201529861074d9160848b0191906119d1565b88810390960160448901528186526001600160fb1b0382116107cd5761079488958694602086948d9a8b9760051b80928483013701601c8682030160648701520191611937565b03925af19081156107c457506107ad575b506001905580f35b6107b6906115a1565b6107c15780386107a5565b80fd5b513d84823e3d90fd5b8880fd5b8980fd5b806104f16a084595161401484a0000006107f36107fb94868f6119ab565b3511156117a6565b6106fd565b8680fd5b5090346107c15761088761086c60208461087661089986610824366114ff565b9b51634a9dd70b60e01b81526001600160a01b03988916600482015296909716602487015260448601859052939c949b8c9a8b9a9798509691949391929160648b0190611c26565b6084890190611c26565b60e060a488015260e4870191611937565b8481036003190160c486015291611937565b0381305afa8391816108f9575b506108bd575050805b825191825215156020820152f35b818111156108f157816108cf91611a9e565b916064820291808304606414901517156101b3575061271090048110156108af565b5050806108af565b9091506020813d8211610924575b816109146020938361161c565b81010312610576575190386108a6565b3d9150610907565b50346101c757816003193601126101c7576020905173ba12222222228d8ba445958a75a0704d566bf2c88152f35b50346101c757816003193601126101c757602090517390e00ace148ca3b23ac1bc8c240c2a7dd9c2d7f58152f35b5090346107c1576109983661158b565b90633b9aca00918281029281840414901517156109e257906109b9916118d0565b906107d0918281029281840414901517156101b35750670de0b6b3a76400006020925191048152f35b634e487b7160e01b83526011600452602483fd5b50346101c757816003193601126101c75760209060ff60015460a01c1690519015158152f35b50346101c757816003193601126101c7576020905160328152f35b50346101c7573660031901126107c157610a73610a526114a8565b610a5a61177a565b600154602435916001600160a01b039182169116611af7565b80f35b50346101c757816003193601126101c75760015490516001600160a01b039091168152602090f35b50346101c757816003193601126101c7576020905160648152f35b50346101c75760603660031901126101c757610ad36114a8565b906024356044356001600160401b038111610c5157610af69036906004016114d2565b9390610b0061177a565b610b08611979565b610b10611958565b610b276a084595161401484a0000008411156117a6565b610b33858201826117f2565b6101208101516107d090818102918183041490151715610cef57610b56906118f9565b3a11610cab5761010001513a11610c6757835163026b1d5f60e01b815286939291602082600481732f39d218133afab8f2b819b1066c7e434ad94e9e5afa918215610c5d578592610c1e575b506001600160a01b0391821692833b156105de57610bf086928851998a97889687956310ac2ddf60e21b8752306004880152166024860152604485015260a0606485015260a4840191611937565b82608483015203925af19081156107c45750610c0f575b506001815580f35b610c18906115a1565b38610c07565b9091506020813d8211610c55575b81610c396020938361161c565b81010312610c5157610c4a90611923565b9038610ba2565b8480fd5b3d9150610c2c565b86513d87823e3d90fd5b835162461bcd60e51b815260206004820152601c60248201527f47617320707269636520657863656564732075736572206c696d6974000000006044820152606490fd5b845162461bcd60e51b815260206004820152601b60248201527f476173207072696365206578636565647320243530206c696d697400000000006044820152606490fd5b634e487b7160e01b88526011600452602488fd5b50346101c757816003193601126101c757602090516a084595161401484a0000008152f35b82346107c157806003193601126107c157610d4161177a565b600180546001600160a01b0319811690915581906001600160a01b03167f8be0079c531659141344cd1fd0a4f28419497f9722a3daafe3b4186f6b6457e08280a380f35b50346101c75760203660031901126101c75781610da06114a8565b610da861177a565b6001600160a01b0390811680610dd457508180809260015416479082821561064857f11561063e575080f35b929150600154168151926370a0823160e01b8452306004850152602084602481845afa928315610e4557508492610e10575b610a739350611af7565b91506020833d8211610e3d575b81610e2a6020938361161c565b810103126105e257610a73925191610e06565b3d9150610e1d565b513d86823e3d90fd5b5090346107c157610e5e3661158b565b90633b9aca00918281029281840414901517156109e25790610e7f916118d0565b906107d0918281029281840414901517156101b35750670de0b6b3a76400009004815190603281111582526020820152f35b50346101c757816003193601126101c757610eca61177a565b610ed2611958565b6001805460ff60a01b1916600160a01b17905580513381527f62e78cea01bee320cd4e420270b5ea74000d11b0c9f74754ebdbfc544b05a25890602090a1514281527f6eae7d8f48015fddc9502717696ac737bec3d20c703c3958a689f8f48574718360203392a280f35b50346101c757602090610f69610f64610f55366114ff565b98959194929396509650612693565b612693565b9051908152f35b50346101c757816003193601126101c757610f8961177a565b60015460ff8160a01c1615610ffa5760ff60a01b191660015580513381527f5db9ee0a495bf2e6ff9c91a7834c1ba4fdd244a5e8aa4e537bd38aeae4b073aa90602090a1514281527f3fc6beefa3f4115babe1a3d46940222e37b39b9ef03dc7b79f832dbcc3da6abf60203392a280f35b8151638dfc202b60e01b8152600490fd5b50346101c757816003193601126101c7576020905173d9e1ce17f2641f24ae83637ab66a2cca9c378b9f8152f35b50346101c75760a03660031901126101c7576110536114a8565b6001600160a01b03606435818116949160243591604435908790036105e2576084356001600160401b038111610c51576110919036906004016114d2565b875163026b1d5f60e01b8152602099908a81600481732f39d218133afab8f2b819b1066c7e434ad94e9e5afa801561129e5786908990611266575b6110d99250163314611a15565b300361122e57816110ef916110f69301906117f2565b8487611c49565b918184019586851161121a57169486516370a0823160e01b815230600482015288816024818a5afa801561121057829087906111df575b611143925061113e82821015611a52565b611a9e565b946064850290858204606414861517156101b3575087947f26f6bbbd455b9507bac0682b6ff4a332a2834a438d602a13bdb22d491d440f3c969488946111bd7fe7055bb7f757aae8cfbf6ea2247e26371914425f5500c1d720f0746ae1ff8803956111b6612710606097048a1015611aab565b3388611af7565b87519283528b830152151586820152a281519081524286820152a25160018152f35b50508881813d8311611209575b6111f6818361161c565b810103126105de5781611143915161112d565b503d6111ec565b88513d88823e3d90fd5b634e487b7160e01b86526011600452602486fd5b875162461bcd60e51b8152600481018a9052601160248201527024b73b30b634b21034b734ba34b0ba37b960791b6044820152606490fd5b50508a81813d8311611297575b61127d818361161c565b810103126105da57856112926110d992611923565b6110cc565b503d611273565b8a513d8a823e3d90fd5b5090346107c1576020806003193601126101c7576004356001600160401b03811161142a576112db903690600401611478565b93906112e561177a565b476113f9575b835b85811061133957509061132a7fea2bcd87c5043ce3e7a1e667e111b822df66a3967a487953c5df28043bef0d8f92868351938085528401916119d1565b9242908201528033930390a280f35b6024906001600160a01b038581611359611354858c896119ab565b612903565b168651948580926370a0823160e01b82523060048301525afa80156113ef5787906113bc575b611391935080611396575b505061199c565b6112ed565b816113b5926113a9611354868d8a6119ab565b16906001541690611af7565b388061138a565b5090918581813d83116113e8575b6113d4818361161c565b81010312610800579061139192915161137f565b503d6113ca565b85513d89823e3d90fd5b8380808060018060a01b03600154164790828215611421575bf16112eb5781513d85823e3d90fd5b506108fc611412565b8280fd5b50346101c757816003193601126101c757602090516107d08152f35b8390346101c757816003193601126101c75780732f39d218133afab8f2b819b1066c7e434ad94e9e60209252f35b9181601f84011215610576578235916001600160401b038311610576576020808501948460051b01011161057657565b600435906001600160a01b038216820361057657565b35906001600160a01b038216820361057657565b9181601f84011215610576578235916001600160401b038311610576576020838186019501011161057657565b9060e0600319830112610576576001600160a01b039160043583811681036105765792602435908116810361057657916044359160643560048110156105765791608435600481101561057657916001600160401b039160a435838111610576578261156d916004016114d2565b9390939260c43591821161057657611587916004016114d2565b9091565b6040906003190112610576576004359060243590565b6001600160401b0381116115b457604052565b634e487b7160e01b600052604160045260246000fd5b61014081019081106001600160401b038211176115b457604052565b606081019081106001600160401b038211176115b457604052565b608081019081106001600160401b038211176115b457604052565b90601f801991011681019081106001600160401b038211176115b457604052565b6001600160401b0381116115b45760051b60200190565b81601f820112156105765780359161166b8361163d565b92611679604051948561161c565b808452602092838086019260051b820101928311610576578301905b8282106116a3575050505090565b8380916116af846114be565b815201910190611695565b81601f82011215610576578035916116d18361163d565b926116df604051948561161c565b808452602092838086019260051b820101928311610576578301905b828210611709575050505090565b813581529083019083016116fb565b6001600160401b0381116115b457601f01601f191660200190565b81601f820112156105765780359061174a82611718565b92611758604051948561161c565b8284526020838301011161057657816000926020809301838601378301015290565b6001546001600160a01b0316330361178e57565b60405163118cdaa760e01b8152336004820152602490fd5b156117ad57565b60405162461bcd60e51b815260206004820152601960248201527f416d6f756e742065786365656473202431304d206c696d6974000000000000006044820152606490fd5b6020818303126105765780356001600160401b0391828211610576570190610140828403126105765760405192611828846115ca565b611831836114be565b845261183f602084016114be565b602085015260408301356040850152606083013560048110156105765760608501526080830135600481101561057657608085015260a0830135828111610576578161188c918501611733565b60a085015260c0830135918211610576576118a8918301611733565b60c083015260e081013560e08301526101008082013590830152610120809101359082015290565b818102929181159184041417156118e357565b634e487b7160e01b600052601160045260246000fd5b801561190d576802b5e3af16b18800000490565b634e487b7160e01b600052601260045260246000fd5b51906001600160a01b038216820361057657565b908060209392818452848401376000828201840152601f01601f1916010190565b60ff60015460a01c1661196757565b60405163d93c066560e01b8152600490fd5b60026000541461198a576002600055565b604051633ee5aeb560e01b8152600490fd5b60001981146118e35760010190565b91908110156119bb5760051b0190565b634e487b7160e01b600052603260045260246000fd5b91908082526020809201929160005b8281106119ee575050505090565b909192938280600192838060a01b03611a06896114be565b168152019501939291016119e0565b15611a1c57565b60405162461bcd60e51b815260206004820152600e60248201526d24b73b30b634b21031b0b63632b960911b6044820152606490fd5b15611a5957565b60405162461bcd60e51b815260206004820152601d60248201527f496e73756666696369656e742062616c616e636520746f2072657061790000006044820152606490fd5b919082039182116118e357565b15611ab257565b60405162461bcd60e51b815260206004820152601960248201527f50726f6669742062656c6f77203125207468726573686f6c64000000000000006044820152606490fd5b60405163a9059cbb60e01b60208201526001600160a01b03929092166024830152604480830193909352918152611b33916104ec60648361161c565b565b906000602091828151910182855af115611b91576000513d611b8857506001600160a01b0381163b155b611b665750565b604051635274afe760e01b81526001600160a01b039091166004820152602490fd5b60011415611b5f565b6040513d6000823e3d90fd5b60005b838110611bb05750506000910152565b8181015183820152602001611ba0565b81601f82011215610576578051611bd681611718565b92611be4604051948561161c565b8184526020828401011161057657611c029160208085019101611b9d565b90565b8051156119bb5760200190565b80518210156119bb5760209160051b010190565b906004821015611c335752565b634e487b7160e01b600052602160045260246000fd5b606083019182519160049283811015611d525790611c6d918360a088015192611dbe565b60208501805160808701805192959390926001600160a01b039283169185821015611da95790611ca3929160c08b015192611dbe565b84600091818111600014611da157611cbb9250611a9e565b965b60e08101518810611d6757818091511695511695519183831015611d5257519280841015611d3d5750608092611d2d7f99f5f2282ea6a09a6f4eca16f69a79543bd628094c28102155974b489b01959a9593611d3793600154169960405195865260208601526040850190611c26565b6060830190611c26565ba4600190565b602190634e487b7160e01b6000525260246000fd5b602184634e487b7160e01b6000525260246000fd5b60405162461bcd60e51b81526020818601526013602482015272125b9cdd59999a58da595b9d081c1c9bd99a5d606a1b6044820152606490fd5b505096611cbd565b602186634e487b7160e01b6000525260246000fd5b90919392936004811015611c335780611f8957508351840160209485818303126105765785810151916001600160401b03831161057657611e059287809201920101612536565b9060018060a01b031690604051948086019563095ea7b360e01b93848852737a250d5630b4cf539739df2c5dacb4c659f2488d9485602484015286604484015260448352611e5283611601565b836000809a85519082865af189513d82611f6d575b505015611f36575b5050505061012c42019283421161121a5791611eb891868094604051968795869485936338ed173960e01b8552600485015284602485015260a0604485015260a4840190612615565b90306064840152608483015203925af1908115611f2b578391611f09575b508051600019810191908211611ef557611ef1929350611c12565b5190565b634e487b7160e01b84526011600452602484fd5b611f2591503d8085833e611f1d818361161c565b81019061259c565b38611ed6565b6040513d85823e3d90fd5b611f64936104ec916040519182015286602482015289604482015260448152611f5e81611601565b82611b35565b38808080611e6f565b909150611f815750813b15155b3880611e67565b600114611f7a565b6001810361201257508351840160209485818303126105765785810151916001600160401b03831161057657611fc59287809201920101612536565b9060018060a01b031690604051948086019563095ea7b360e01b9384885273d9e1ce17f2641f24ae83637ab66a2cca9c378b9f9485602484015286604484015260448352611e5283611601565b929392909190600281036123615750825183016020848203126105765760208401516001600160401b0394858211610576570190604082820312610576576040519160408301838110878211176115b457604052602081015183526040810151918683116105765761208b926020809201920101612536565b602082810191825260405163095ea7b360e01b81830181815273ba12222222228d8ba445958a75a0704d566bf2c860248401526044808401889052835293966001600160a01b031694939092906000906120e484611601565b83519082885af16000513d82612345575b5050156122f4575b5050519251805160001981019081116118e3576001600160a01b03916121239190611c12565b5116906040519360c08501858110878211176115b45760405284526000602085015260408401526060830152608082015260405160408101818110848211176115b4576040526002815261060f60f31b602082015260a0820152604051916080830190838210908211176115b457604052308252600060208301523060408301526000606083015261012c420142116118e3576040516352bbbe2960e01b815260e06004820152815160e4820152602082015190926002821015611c33578360a06020948294610104840152600180831b03604082015116610124840152600180831b03606082015116610144840152608081015161016484015201519160c06101848301526060835191826101a4850152612248836101c496898888019101611b9d565b60018060a01b038151166024850152868101511515604485015260018060a01b036040820151166064850152015115156084830152600060a483015261012c420160c4830152601f80199101168101030181600073ba12222222228d8ba445958a75a0704d566bf2c85af1908115611b91576000916122c5575090565b90506020813d6020116122ec575b816122e06020938361161c565b81010312610576575190565b3d91506122d3565b61233861233e9260405190602082015273ba12222222228d8ba445958a75a0704d566bf2c86024820152600060448201526044815261233281611601565b85611b35565b83611b35565b38806120fd565b9091506123595750833b15155b38806120f5565b600114612352565b919290916003146123a35760405162461bcd60e51b815260206004820152600f60248201526e0aadce6eae0e0dee4e8cac840888ab608b1b6044820152606490fd5b606081805181010312610576576084906040938451916123c2836115e6565b602093849384936123d4858501611923565b908183526123f560606123e88c8801612652565b9688860197885201612652565b838b019081528a5163095ea7b360e01b8882018181526001600160a01b039586166024840181905260448085018f90528452939690959490939291908516908e9061244160648561161c565b60009d8e809986519082875af188513d8261251a575b5050156124ea575b50505050505116935191519389519889958694630f7c084960e21b8652600f0b6004860152600f0b602485015260448401528160648401525af19384156124df575081936124ae575b50505090565b9091809350813d83116124d8575b6124c6818361161c565b810103126107c15750513880806124a8565b503d6124bc565b51913d9150823e3d90fd5b612510946104ec9251918d830152602482015287604482015260448152611f5e81611601565b3880808d8161245f565b90915061252e5750823b15155b3880612457565b600114612527565b81601f820112156105765780519161254d8361163d565b9261255b604051948561161c565b808452602092838086019260051b820101928311610576578301905b828210612585575050505090565b83809161259184611923565b815201910190612577565b6020908181840312610576578051906001600160401b03821161057657019180601f840112156105765782516125d18161163d565b936125df604051958661161c565b818552838086019260051b820101928311610576578301905b828210612606575050505090565b815181529083019083016125f8565b90815180825260208080930193019160005b828110612635575050505090565b83516001600160a01b031685529381019392810192600101612627565b519081600f0b820361057657565b359081600f0b820361057657565b906020828203126105765781356001600160401b03811161057657611c029201611654565b9190939260049485811015611da9578061275e5750816126b9916126e39493019061266e565b6040519163d06ca61f60e01b83528583015260406024830152818060009485936044830190612615565b0381737a250d5630b4cf539739df2c5dacb4c659f2488d5afa908115612753578291612739575b5080516000198101929083116127265750611ef1929350611c12565b634e487b7160e01b815260118552602490fd5b61274d91503d8084833e611f1d818361161c565b3861270a565b6040513d84823e3d90fd5b600181036127ba5750816126b9916127789493019061266e565b038173d9e1ce17f2641f24ae83637ab66a2cca9c378b9f5afa908115612753578291612739575080516000198101929083116127265750611ef1929350611c12565b939493600281036127f957505050906063820291808304606314901517156127e457506064900490565b601190634e487b7160e01b6000525260246000fd5b6003146128445760405162461bcd60e51b8152602081860152601e60248201527f556e737570706f727465642044455820666f722073696d756c6174696f6e00006044820152606490fd5b8160609181010312610576576040926064845192612861846115e6565b61286a816114be565b808552602095869561288d89612881898701612660565b95868a85015201612660565b98899101526040519788958694635e0d443f60e01b8652600f0b90850152600f0b6024840152604483015260018060a01b03165afa908115611b91576000916128d7575b50905090565b82813d83116128fc575b6128eb818361161c565b810103126107c157505180386128d1565b503d6128e1565b356001600160a01b0381168103610576579056fea2646970667358221220d4e466bbf43b46513df884bb85cf03c93fcde49e18029fec516881b3fea077ad64736f6c63430008140033",
  "linkReferences": {},
  "deployedLinkReferences": {}
}