{
  "_format": "hh-sol-artifact-1",
  "contractName": "AtomArbitrage",
  "sourceName": "contracts/AtomArbitrage.sol",
  "abi": [
    {
      "inputs": [],
      "stateMutability": "nonpayable",
      "type": "constructor"
    },
    {
      "inputs": [
        {
          "internalType": "address",
          "name": "owner",
          "type": "address"
        }
      ],
      "name": "OwnableInvalidOwner",
      "type": "error"
    },
    {
      "inputs": [
        {
          "internalType": "address",
          "name": "account",
          "type": "address"
        }
      ],
      "name": "OwnableUnauthorizedAccount",
      "type": "error"
    },
    {
      "inputs": [],
      "name": "ReentrancyGuardReentrantCall",
      "type": "error"
    },
    {
      "inputs": [
        {
          "internalType": "address",
          "name": "token",
          "type": "address"
        }
      ],
      "name": "SafeERC20FailedOperation",
      "type": "error"
    },
    {
      "anonymous": false,
      "inputs": [
        {
          "indexed": true,
          "internalType": "address",
          "name": "tokenA",
          "type": "address"
        },
        {
          "indexed": true,
          "internalType": "address",
          "name": "tokenB",
          "type": "address"
        },
        {
          "indexed": false,
          "internalType": "uint256",
          "name": "amountIn",
          "type": "uint256"
        },
        {
          "indexed": false,
          "internalType": "uint256",
          "name": "profit",
          "type": "uint256"
        },
        {
          "indexed": false,
          "internalType": "enum AtomArbitrage.DEX",
          "name": "buyDex",
          "type": "uint8"
        },
        {
          "indexed": false,
          "internalType": "enum AtomArbitrage.DEX",
          "name": "sellDex",
          "type": "uint8"
        },
        {
          "indexed": true,
          "internalType": "address",
          "name": "executor",
          "type": "address"
        }
      ],
      "name": "ArbitrageExecuted",
      "type": "event"
    },
    {
      "anonymous": false,
      "inputs": [
        {
          "indexed": true,
          "internalType": "address",
          "name": "asset",
          "type": "address"
        },
        {
          "indexed": false,
          "internalType": "uint256",
          "name": "amount",
          "type": "uint256"
        },
        {
          "indexed": false,
          "internalType": "uint256",
          "name": "premium",
          "type": "uint256"
        },
        {
          "indexed": false,
          "internalType": "bool",
          "name": "success",
          "type": "bool"
        }
      ],
      "name": "FlashLoanExecuted",
      "type": "event"
    },
    {
      "anonymous": false,
      "inputs": [
        {
          "indexed": true,
          "internalType": "address",
          "name": "previousOwner",
          "type": "address"
        },
        {
          "indexed": true,
          "internalType": "address",
          "name": "newOwner",
          "type": "address"
        }
      ],
      "name": "OwnershipTransferred",
      "type": "event"
    },
    {
      "anonymous": false,
      "inputs": [
        {
          "indexed": true,
          "internalType": "address",
          "name": "token",
          "type": "address"
        },
        {
          "indexed": false,
          "internalType": "uint256",
          "name": "amount",
          "type": "uint256"
        },
        {
          "indexed": false,
          "internalType": "uint256",
          "name": "timestamp",
          "type": "uint256"
        }
      ],
      "name": "ProfitExtracted",
      "type": "event"
    },
    {
      "inputs": [],
      "name": "ADDRESSES_PROVIDER",
      "outputs": [
        {
          "internalType": "contract IPoolAddressesProvider",
          "name": "",
          "type": "address"
        }
      ],
      "stateMutability": "view",
      "type": "function"
    },
    {
      "inputs": [],
      "name": "BALANCER_VAULT",
      "outputs": [
        {
          "internalType": "contract IVault",
          "name": "",
          "type": "address"
        }
      ],
      "stateMutability": "view",
      "type": "function"
    },
    {
      "inputs": [],
      "name": "BASIS_POINTS",
      "outputs": [
        {
          "internalType": "uint256",
          "name": "",
          "type": "uint256"
        }
      ],
      "stateMutability": "view",
      "type": "function"
    },
    {
      "inputs": [],
      "name": "CURVE_REGISTRY",
      "outputs": [
        {
          "internalType": "contract ICurveRegistry",
          "name": "",
          "type": "address"
        }
      ],
      "stateMutability": "view",
      "type": "function"
    },
    {
      "inputs": [],
      "name": "ETH_PRICE_USD",
      "outputs": [
        {
          "internalType": "uint256",
          "name": "",
          "type": "uint256"
        }
      ],
      "stateMutability": "view",
      "type": "function"
    },
    {
      "inputs": [],
      "name": "MAX_FLASH_LOAN_AMOUNT",
      "outputs": [
        {
          "internalType": "uint256",
          "name": "",
          "type": "uint256"
        }
      ],
      "stateMutability": "view",
      "type": "function"
    },
    {
      "inputs": [],
      "name": "MAX_GAS_COST_USD",
      "outputs": [
        {
          "internalType": "uint256",
          "name": "",
          "type": "uint256"
        }
      ],
      "stateMutability": "view",
      "type": "function"
    },
    {
      "inputs": [],
      "name": "MIN_PROFIT_BASIS_POINTS",
      "outputs": [
        {
          "internalType": "uint256",
          "name": "",
          "type": "uint256"
        }
      ],
      "stateMutability": "view",
      "type": "function"
    },
    {
      "inputs": [],
      "name": "SUSHISWAP_ROUTER",
      "outputs": [
        {
          "internalType": "contract IUniswapV2Router",
          "name": "",
          "type": "address"
        }
      ],
      "stateMutability": "view",
      "type": "function"
    },
    {
      "inputs": [],
      "name": "UNISWAP_ROUTER",
      "outputs": [
        {
          "internalType": "contract IUniswapV2Router",
          "name": "",
          "type": "address"
        }
      ],
      "stateMutability": "view",
      "type": "function"
    },
    {
      "inputs": [
        {
          "internalType": "address",
          "name": "tokenA",
          "type": "address"
        },
        {
          "internalType": "address",
          "name": "tokenB",
          "type": "address"
        },
        {
          "internalType": "uint256",
          "name": "amountIn",
          "type": "uint256"
        },
        {
          "internalType": "enum AtomArbitrage.DEX",
          "name": "buyDex",
          "type": "uint8"
        },
        {
          "internalType": "enum AtomArbitrage.DEX",
          "name": "sellDex",
          "type": "uint8"
        },
        {
          "internalType": "bytes",
          "name": "buyData",
          "type": "bytes"
        },
        {
          "internalType": "bytes",
          "name": "sellData",
          "type": "bytes"
        }
      ],
      "name": "_simulateArbitrage",
      "outputs": [
        {
          "internalType": "uint256",
          "name": "finalAmount",
          "type": "uint256"
        }
      ],
      "stateMutability": "view",
      "type": "function"
    },
    {
      "inputs": [
        {
          "internalType": "address",
          "name": "tokenA",
          "type": "address"
        },
        {
          "internalType": "address",
          "name": "tokenB",
          "type": "address"
        },
        {
          "internalType": "uint256",
          "name": "amountIn",
          "type": "uint256"
        },
        {
          "internalType": "enum AtomArbitrage.DEX",
          "name": "buyDex",
          "type": "uint8"
        },
        {
          "internalType": "enum AtomArbitrage.DEX",
          "name": "sellDex",
          "type": "uint8"
        },
        {
          "internalType": "bytes",
          "name": "buyData",
          "type": "bytes"
        },
        {
          "internalType": "bytes",
          "name": "sellData",
          "type": "bytes"
        }
      ],
      "name": "calculateMultiDexProfit",
      "outputs": [
        {
          "internalType": "uint256",
          "name": "profit",
          "type": "uint256"
        },
        {
          "internalType": "bool",
          "name": "profitable",
          "type": "bool"
        }
      ],
      "stateMutability": "view",
      "type": "function"
    },
    {
      "inputs": [
        {
          "internalType": "address",
          "name": "token",
          "type": "address"
        }
      ],
      "name": "emergencyWithdraw",
      "outputs": [],
      "stateMutability": "nonpayable",
      "type": "function"
    },
    {
      "inputs": [
        {
          "internalType": "uint256",
          "name": "estimatedGasUnits",
          "type": "uint256"
        },
        {
          "internalType": "uint256",
          "name": "gasPriceGwei",
          "type": "uint256"
        }
      ],
      "name": "estimateGasCostUSD",
      "outputs": [
        {
          "internalType": "uint256",
          "name": "gasCostUSD",
          "type": "uint256"
        }
      ],
      "stateMutability": "pure",
      "type": "function"
    },
    {
      "inputs": [
        {
          "internalType": "address",
          "name": "asset",
          "type": "address"
        },
        {
          "internalType": "uint256",
          "name": "amount",
          "type": "uint256"
        },
        {
          "internalType": "bytes",
          "name": "params",
          "type": "bytes"
        }
      ],
      "name": "executeArbitrage",
      "outputs": [],
      "stateMutability": "nonpayable",
      "type": "function"
    },
    {
      "inputs": [
        {
          "internalType": "address[]",
          "name": "tokens",
          "type": "address[]"
        },
        {
          "internalType": "uint256[]",
          "name": "amounts",
          "type": "uint256[]"
        },
        {
          "internalType": "bytes",
          "name": "params",
          "type": "bytes"
        }
      ],
      "name": "executeBalancerFlashLoan",
      "outputs": [],
      "stateMutability": "nonpayable",
      "type": "function"
    },
    {
      "inputs": [
        {
          "internalType": "address",
          "name": "asset",
          "type": "address"
        },
        {
          "internalType": "uint256",
          "name": "amount",
          "type": "uint256"
        },
        {
          "internalType": "uint256",
          "name": "premium",
          "type": "uint256"
        },
        {
          "internalType": "address",
          "name": "initiator",
          "type": "address"
        },
        {
          "internalType": "bytes",
          "name": "params",
          "type": "bytes"
        }
      ],
      "name": "executeOperation",
      "outputs": [
        {
          "internalType": "bool",
          "name": "",
          "type": "bool"
        }
      ],
      "stateMutability": "nonpayable",
      "type": "function"
    },
    {
      "inputs": [
        {
          "internalType": "uint256",
          "name": "estimatedGasUnits",
          "type": "uint256"
        }
      ],
      "name": "getMaxGasPriceForLimit",
      "outputs": [
        {
          "internalType": "uint256",
          "name": "maxGasPriceGwei",
          "type": "uint256"
        }
      ],
      "stateMutability": "pure",
      "type": "function"
    },
    {
      "inputs": [
        {
          "internalType": "uint256",
          "name": "estimatedGasUnits",
          "type": "uint256"
        },
        {
          "internalType": "uint256",
          "name": "gasPriceGwei",
          "type": "uint256"
        }
      ],
      "name": "isGasCostAcceptable",
      "outputs": [
        {
          "internalType": "bool",
          "name": "acceptable",
          "type": "bool"
        },
        {
          "internalType": "uint256",
          "name": "gasCostUSD",
          "type": "uint256"
        }
      ],
      "stateMutability": "pure",
      "type": "function"
    },
    {
      "inputs": [],
      "name": "owner",
      "outputs": [
        {
          "internalType": "address",
          "name": "",
          "type": "address"
        }
      ],
      "stateMutability": "view",
      "type": "function"
    },
    {
      "inputs": [
        {
          "internalType": "address[]",
          "name": "tokens",
          "type": "address[]"
        },
        {
          "internalType": "uint256[]",
          "name": "amounts",
          "type": "uint256[]"
        },
        {
          "internalType": "uint256[]",
          "name": "",
          "type": "uint256[]"
        },
        {
          "internalType": "bytes",
          "name": "userData",
          "type": "bytes"
        }
      ],
      "name": "receiveFlashLoan",
      "outputs": [],
      "stateMutability": "nonpayable",
      "type": "function"
    },
    {
      "inputs": [],
      "name": "renounceOwnership",
      "outputs": [],
      "stateMutability": "nonpayable",
      "type": "function"
    },
    {
      "inputs": [
        {
          "internalType": "address",
          "name": "newOwner",
          "type": "address"
        }
      ],
      "name": "transferOwnership",
      "outputs": [],
      "stateMutability": "nonpayable",
      "type": "function"
    },
    {
      "inputs": [],
      "name": "withdrawETH",
      "outputs": [],
      "stateMutability": "nonpayable",
      "type": "function"
    },
    {
      "inputs": [
        {
          "internalType": "address",
          "name": "token",
          "type": "address"
        },
        {
          "internalType": "uint256",
          "name": "amount",
          "type": "uint256"
        }
      ],
      "name": "withdrawToken",
      "outputs": [],
      "stateMutability": "nonpayable",
      "type": "function"
    },
    {
      "stateMutability": "payable",
      "type": "receive"
    }
  ],
  "bytecode": "0x6080806040523461007f57600160005533156100695760018054336001600160a01b03198216811790925560405191906001600160a01b03167f8be0079c531659141344cd1fd0a4f28419497f9722a3daafe3b4186f6b6457e0600080a36125d890816100858239f35b631e4fbdf760e01b815260006004820152602490fd5b600080fdfe60806040818152600436101561001f575b5050361561001d57600080fd5b005b600091823560e01c9081630542975c1461115e5750806306ec9b9e146111425780631b11d0ff14610ed3578063277754ed14610ea55780634a9dd70b14610e725780636e85962014610e0f5780636ff1c9bc14610d46578063715018a614610ce9578063720387cb14610cc45780637c1d953914610a825780637e8db6b314610a675780638da5cb5b14610a3f5780639e281a9814610a00578063a852b227146109e5578063b7ec8f2614610977578063b942717b14610949578063bc1638461461091b578063bd81b470146107f3578063ce6a9f0114610648578063d82649201461061a578063e086e5ec146105cb578063e1f1c4a7146105af578063f04f270714610223578063f2fde38b146101945763f9b2d6aa036100105734610190576020366003190112610190576107d06004358181029391811591850414171561017c5750633b9aca0061017460209361160d565b049051908152f35b634e487b7160e01b81526011600452602490fd5b5080fd5b5034610190576020366003190112610190576101ae61118c565b6101b661148e565b6001600160a01b0390811691821561020c5750600154826bffffffffffffffffffffffff60a01b821617600155167f8be0079c531659141344cd1fd0a4f28419497f9722a3daafe3b4186f6b6457e0600080a380f35b51631e4fbdf760e01b815260048101849052602490fd5b5034610190576080366003190112610190576001600160401b03906004358281116105ab57610256903690600401611368565b9060249081358481116105a7576102719036906004016113ce565b9260449283358681116105a35761028c9036906004016113ce565b506064358681116105a3576102a5903690600401611447565b73ba12222222228d8ba445958a75a0704d566bf2c8926102c684331461169e565b8151820197602098898101938a8183031261059f578a810151908382116105975701918291610140928391031261059f57875194610303866112de565b61030e8c8501611637565b865261031b898501611637565b8c8701526060840151898701526080840151600481101561059b57606087015260a0840151600481101561059b57608087015260c084015182811161059b57818d61036892870101611849565b60a087015260e0840151918211610597578b61038692850101611849565b60c08501526101008281015160e08601526101208084015191860191909152910151908301526001600160a01b03916103d590836103c38461188e565b51166103ce8a61188e565b51906118e8565b15610555578288836103e68461188e565b51168751928380926370a0823160e01b82523060048301525afa801561054b578a90610517575b610437915061042761041e8a61188e565b518210156116db565b6104308961188e565b5190611727565b986104418861188e565b516064810290808204606414901517156105045761271061046591048b1015611734565b805b82518110156104c457806104ba8b8b61049084896104886104bf988b6118b1565b5116926118b1565b518b519263a9059cbb60e01b908401528a8a8401528c8301528b82526104b582611315565b6117be565b61168f565b610467565b50887f26f6bbbd455b9507bac0682b6ff4a332a2834a438d602a13bdb22d491d440f3c878c866104f38761188e565b51169382519182524290820152a280f35b634e487b7160e01b825260116004528482fd5b508881813d8311610544575b61052d8183611330565b8101031261053f57610437905161040d565b600080fd5b503d610523565b86513d8c823e3d90fd5b845162461bcd60e51b815260048101899052601a818501527f41726269747261676520657865637574696f6e206661696c656400000000000081880152606490fd5b8c80fd5b8d80fd5b8b80fd5b8780fd5b8580fd5b8380fd5b5034610190578160031936011261019057602090516127108152f35b50346101905781600319360112610190576105e461148e565b8180808060018060a01b03600154164790828215610611575bf115610607575080f35b51903d90823e3d90fd5b506108fc6105fd565b503461019057816003193601126101905760209051737a250d5630b4cf539739df2c5dacb4c659f2488d8152f35b50903461079057600319606036820112610190576001600160401b03926004358481116105ab5761067d903690600401611285565b946024358181116105a757610696903690600401611285565b916044359081116107ef576106af9036906004016111b6565b90926106b961148e565b6106c161166c565b875b8181106107c9575073ba12222222228d8ba445958a75a0704d566bf2c892833b1561079c57865197632e1c224f60e11b89528a60848a013060048c0152608060248c01525260a48901968a9b5b808d106107a057505088870301604489015281865297985088976001600160fb1b03821161079c5761076388958694602086948d9a8b9760051b80928483013701601c868203016064870152019161164b565b03925af1908115610793575061077c575b506001905580f35b610785906112b5565b610790578038610774565b80fd5b513d84823e3d90fd5b8880fd5b90976001906001600160a01b036107b68b6111a2565b168152602080910199019c019b90610710565b806104ba6a084595161401484a0000006107ea9360051b87013511156114ba565b6106c3565b8680fd5b5090346107905761087661085b60208461086561088886610813366111e3565b9b51634a9dd70b60e01b81526001600160a01b03988916600482015296909716602487015260448601859052939c949b8c9a8b9a9798509691949391929160648b01906118c5565b60848901906118c5565b60e060a488015260e487019161164b565b8481036003190160c48601529161164b565b0381305afa8391816108e8575b506108ac575050805b825191825215156020820152f35b818111156108e057816108be91611727565b9160648202918083046064149015171561017c5750612710900481101561089e565b50508061089e565b9091506020813d8211610913575b8161090360209383611330565b8101031261053f57519038610895565b3d91506108f6565b50346101905781600319360112610190576020905173ba12222222228d8ba445958a75a0704d566bf2c88152f35b5034610190578160031936011261019057602090517390e00ace148ca3b23ac1bc8c240c2a7dd9c2d7f58152f35b509034610790576109873661126f565b90633b9aca00918281029281840414901517156109d157906109a8916115e4565b906107d09182810292818404149015171561017c5750670de0b6b3a76400006020925191048152f35b634e487b7160e01b83526011600452602483fd5b50346101905781600319360112610190576020905160328152f35b50346101905736600319011261079057610a3c610a1b61118c565b610a2361148e565b600154602435916001600160a01b039182169116611780565b80f35b503461019057816003193601126101905760015490516001600160a01b039091168152602090f35b50346101905781600319360112610190576020905160648152f35b503461019057606036600319011261019057610a9c61118c565b906024356044356001600160401b038111610c1257610abf9036906004016111b6565b9390610ac961148e565b610ad161166c565b610ae86a084595161401484a0000008411156114ba565b610af485820182611506565b6101208101516107d090818102918183041490151715610cb057610b179061160d565b3a11610c6c5761010001513a11610c2857835163026b1d5f60e01b815286939291602082600481732f39d218133afab8f2b819b1066c7e434ad94e9e5afa918215610c1e578592610bdf575b506001600160a01b0391821692833b156105a757610bb186928851998a97889687956310ac2ddf60e21b8752306004880152166024860152604485015260a0606485015260a484019161164b565b82608483015203925af19081156107935750610bd0575b506001815580f35b610bd9906112b5565b38610bc8565b9091506020813d8211610c16575b81610bfa60209383611330565b81010312610c1257610c0b90611637565b9038610b63565b8480fd5b3d9150610bed565b86513d87823e3d90fd5b835162461bcd60e51b815260206004820152601c60248201527f47617320707269636520657863656564732075736572206c696d6974000000006044820152606490fd5b845162461bcd60e51b815260206004820152601b60248201527f476173207072696365206578636565647320243530206c696d697400000000006044820152606490fd5b634e487b7160e01b88526011600452602488fd5b5034610190578160031936011261019057602090516a084595161401484a0000008152f35b8234610790578060031936011261079057610d0261148e565b600180546001600160a01b0319811690915581906001600160a01b03167f8be0079c531659141344cd1fd0a4f28419497f9722a3daafe3b4186f6b6457e08280a380f35b50346101905760203660031901126101905781610d6161118c565b610d6961148e565b6001600160a01b0390811680610d9557508180809260015416479082821561061157f115610607575080f35b929150600154168151926370a0823160e01b8452306004850152602084602481845afa928315610e0657508492610dd1575b610a3c9350611780565b91506020833d8211610dfe575b81610deb60209383611330565b810103126105ab57610a3c925191610dc7565b3d9150610dde565b513d86823e3d90fd5b50903461079057610e1f3661126f565b90633b9aca00918281029281840414901517156109d15790610e40916115e4565b906107d09182810292818404149015171561017c5750670de0b6b3a76400009004815190603281111582526020820152f35b503461019057602090610e9e610e99610e8a366111e3565b98959194929396509650612332565b612332565b9051908152f35b50346101905781600319360112610190576020905173d9e1ce17f2641f24ae83637ab66a2cca9c378b9f8152f35b50346101905760a036600319011261019057610eed61118c565b6001600160a01b03606435818116949160243591604435908790036105ab576084356001600160401b038111610c1257610f2b9036906004016111b6565b875163026b1d5f60e01b8152602099908a81600481732f39d218133afab8f2b819b1066c7e434ad94e9e5afa80156111385786908990611100575b610f73925016331461169e565b30036110c85781610f8991610f90930190611506565b84876118e8565b91818401958685116110b457169486516370a0823160e01b815230600482015288816024818a5afa80156110aa5782908790611079575b610fdd9250610fd8828210156116db565b611727565b9460648502908582046064148615171561017c575087947f26f6bbbd455b9507bac0682b6ff4a332a2834a438d602a13bdb22d491d440f3c969488946110577fe7055bb7f757aae8cfbf6ea2247e26371914425f5500c1d720f0746ae1ff880395611050612710606097048a1015611734565b3388611780565b87519283528b830152151586820152a281519081524286820152a25160018152f35b50508881813d83116110a3575b6110908183611330565b810103126105a75781610fdd9151610fc7565b503d611086565b88513d88823e3d90fd5b634e487b7160e01b86526011600452602486fd5b875162461bcd60e51b8152600481018a9052601160248201527024b73b30b634b21034b734ba34b0ba37b960791b6044820152606490fd5b50508a81813d8311611131575b6111178183611330565b810103126105a3578561112c610f7392611637565b610f66565b503d61110d565b8a513d8a823e3d90fd5b5034610190578160031936011261019057602090516107d08152f35b83903461019057816003193601126101905780732f39d218133afab8f2b819b1066c7e434ad94e9e60209252f35b600435906001600160a01b038216820361053f57565b35906001600160a01b038216820361053f57565b9181601f8401121561053f578235916001600160401b03831161053f576020838186019501011161053f57565b9060e060031983011261053f576001600160a01b0391600435838116810361053f5792602435908116810361053f579160443591606435600481101561053f5791608435600481101561053f57916001600160401b039160a43583811161053f5782611251916004016111b6565b9390939260c43591821161053f5761126b916004016111b6565b9091565b604090600319011261053f576004359060243590565b9181601f8401121561053f578235916001600160401b03831161053f576020808501948460051b01011161053f57565b6001600160401b0381116112c857604052565b634e487b7160e01b600052604160045260246000fd5b61014081019081106001600160401b038211176112c857604052565b606081019081106001600160401b038211176112c857604052565b608081019081106001600160401b038211176112c857604052565b90601f801991011681019081106001600160401b038211176112c857604052565b6001600160401b0381116112c85760051b60200190565b81601f8201121561053f5780359161137f83611351565b9261138d6040519485611330565b808452602092838086019260051b82010192831161053f578301905b8282106113b7575050505090565b8380916113c3846111a2565b8152019101906113a9565b81601f8201121561053f578035916113e583611351565b926113f36040519485611330565b808452602092838086019260051b82010192831161053f578301905b82821061141d575050505090565b8135815290830190830161140f565b6001600160401b0381116112c857601f01601f191660200190565b81601f8201121561053f5780359061145e8261142c565b9261146c6040519485611330565b8284526020838301011161053f57816000926020809301838601378301015290565b6001546001600160a01b031633036114a257565b60405163118cdaa760e01b8152336004820152602490fd5b156114c157565b60405162461bcd60e51b815260206004820152601960248201527f416d6f756e742065786365656473202431304d206c696d6974000000000000006044820152606490fd5b60208183031261053f5780356001600160401b039182821161053f5701906101408284031261053f576040519261153c846112de565b611545836111a2565b8452611553602084016111a2565b6020850152604083013560408501526060830135600481101561053f5760608501526080830135600481101561053f57608085015260a083013582811161053f57816115a0918501611447565b60a085015260c083013591821161053f576115bc918301611447565b60c083015260e081013560e08301526101008082013590830152610120809101359082015290565b818102929181159184041417156115f757565b634e487b7160e01b600052601160045260246000fd5b8015611621576802b5e3af16b18800000490565b634e487b7160e01b600052601260045260246000fd5b51906001600160a01b038216820361053f57565b908060209392818452848401376000828201840152601f01601f1916010190565b60026000541461167d576002600055565b604051633ee5aeb560e01b8152600490fd5b60001981146115f75760010190565b156116a557565b60405162461bcd60e51b815260206004820152600e60248201526d24b73b30b634b21031b0b63632b960911b6044820152606490fd5b156116e257565b60405162461bcd60e51b815260206004820152601d60248201527f496e73756666696369656e742062616c616e636520746f2072657061790000006044820152606490fd5b919082039182116115f757565b1561173b57565b60405162461bcd60e51b815260206004820152601960248201527f50726f6669742062656c6f77203125207468726573686f6c64000000000000006044820152606490fd5b60405163a9059cbb60e01b60208201526001600160a01b039290921660248301526044808301939093529181526117bc916104b5606483611330565b565b906000602091828151910182855af11561181a576000513d61181157506001600160a01b0381163b155b6117ef5750565b604051635274afe760e01b81526001600160a01b039091166004820152602490fd5b600114156117e8565b6040513d6000823e3d90fd5b60005b8381106118395750506000910152565b8181015183820152602001611829565b81601f8201121561053f57805161185f8161142c565b9261186d6040519485611330565b8184526020828401011161053f5761188b9160208085019101611826565b90565b80511561189b5760200190565b634e487b7160e01b600052603260045260246000fd5b805182101561189b5760209160051b010190565b9060048210156118d25752565b634e487b7160e01b600052602160045260246000fd5b6060830191825191600492838110156119f1579061190c918360a088015192611a5d565b60208501805160808701805192959390926001600160a01b039283169185821015611a485790611942929160c08b015192611a5d565b84600091818111600014611a405761195a9250611727565b965b60e08101518810611a06578180915116955116955191838310156119f1575192808410156119dc57506080926119cc7f99f5f2282ea6a09a6f4eca16f69a79543bd628094c28102155974b489b01959a95936119d6936001541699604051958652602086015260408501906118c5565b60608301906118c5565ba4600190565b602190634e487b7160e01b6000525260246000fd5b602184634e487b7160e01b6000525260246000fd5b60405162461bcd60e51b81526020818601526013602482015272125b9cdd59999a58da595b9d081c1c9bd99a5d606a1b6044820152606490fd5b50509661195c565b602186634e487b7160e01b6000525260246000fd5b909193929360048110156118d25780611c28575083518401602094858183031261053f5785810151916001600160401b03831161053f57611aa492878092019201016121d5565b9060018060a01b031690604051948086019563095ea7b360e01b93848852737a250d5630b4cf539739df2c5dacb4c659f2488d9485602484015286604484015260448352611af183611315565b836000809a85519082865af189513d82611c0c575b505015611bd5575b5050505061012c4201928342116110b45791611b5791868094604051968795869485936338ed173960e01b8552600485015284602485015260a0604485015260a48401906122b4565b90306064840152608483015203925af1908115611bca578391611ba8575b508051600019810191908211611b9457611b909293506118b1565b5190565b634e487b7160e01b84526011600452602484fd5b611bc491503d8085833e611bbc8183611330565b81019061223b565b38611b75565b6040513d85823e3d90fd5b611c03936104b5916040519182015286602482015289604482015260448152611bfd81611315565b826117be565b38808080611b0e565b909150611c205750813b15155b3880611b06565b600114611c19565b60018103611cb1575083518401602094858183031261053f5785810151916001600160401b03831161053f57611c6492878092019201016121d5565b9060018060a01b031690604051948086019563095ea7b360e01b9384885273d9e1ce17f2641f24ae83637ab66a2cca9c378b9f9485602484015286604484015260448352611af183611315565b9293929091906002810361200057508251830160208482031261053f5760208401516001600160401b039485821161053f57019060408282031261053f576040519160408301838110878211176112c8576040526020810151835260408101519186831161053f57611d2a9260208092019201016121d5565b602082810191825260405163095ea7b360e01b81830181815273ba12222222228d8ba445958a75a0704d566bf2c860248401526044808401889052835293966001600160a01b03169493909290600090611d8384611315565b83519082885af16000513d82611fe4575b505015611f93575b5050519251805160001981019081116115f7576001600160a01b0391611dc291906118b1565b5116906040519360c08501858110878211176112c85760405284526000602085015260408401526060830152608082015260405160408101818110848211176112c8576040526002815261060f60f31b602082015260a0820152604051916080830190838210908211176112c857604052308252600060208301523060408301526000606083015261012c420142116115f7576040516352bbbe2960e01b815260e06004820152815160e48201526020820151909260028210156118d2578360a06020948294610104840152600180831b03604082015116610124840152600180831b03606082015116610144840152608081015161016484015201519160c06101848301526060835191826101a4850152611ee7836101c496898888019101611826565b60018060a01b038151166024850152868101511515604485015260018060a01b036040820151166064850152015115156084830152600060a483015261012c420160c4830152601f80199101168101030181600073ba12222222228d8ba445958a75a0704d566bf2c85af190811561181a57600091611f64575090565b90506020813d602011611f8b575b81611f7f60209383611330565b8101031261053f575190565b3d9150611f72565b611fd7611fdd9260405190602082015273ba12222222228d8ba445958a75a0704d566bf2c860248201526000604482015260448152611fd181611315565b856117be565b836117be565b3880611d9c565b909150611ff85750833b15155b3880611d94565b600114611ff1565b919290916003146120425760405162461bcd60e51b815260206004820152600f60248201526e0aadce6eae0e0dee4e8cac840888ab608b1b6044820152606490fd5b60608180518101031261053f57608490604093845191612061836112fa565b60209384938493612073858501611637565b9081835261209460606120878c88016122f1565b96888601978852016122f1565b838b019081528a5163095ea7b360e01b8882018181526001600160a01b039586166024840181905260448085018f90528452939690959490939291908516908e906120e0606485611330565b60009d8e809986519082875af188513d826121b9575b505015612189575b50505050505116935191519389519889958694630f7c084960e21b8652600f0b6004860152600f0b602485015260448401528160648401525af193841561217e5750819361214d575b50505090565b9091809350813d8311612177575b6121658183611330565b81010312610790575051388080612147565b503d61215b565b51913d9150823e3d90fd5b6121af946104b59251918d830152602482015287604482015260448152611bfd81611315565b3880808d816120fe565b9091506121cd5750823b15155b38806120f6565b6001146121c6565b81601f8201121561053f578051916121ec83611351565b926121fa6040519485611330565b808452602092838086019260051b82010192831161053f578301905b828210612224575050505090565b83809161223084611637565b815201910190612216565b602090818184031261053f578051906001600160401b03821161053f57019180601f8401121561053f57825161227081611351565b9361227e6040519586611330565b818552838086019260051b82010192831161053f578301905b8282106122a5575050505090565b81518152908301908301612297565b90815180825260208080930193019160005b8281106122d4575050505090565b83516001600160a01b0316855293810193928101926001016122c6565b519081600f0b820361053f57565b359081600f0b820361053f57565b9060208282031261053f5781356001600160401b03811161053f5761188b9201611368565b9190939260049485811015611a4857806123fd575081612358916123829493019061230d565b6040519163d06ca61f60e01b835285830152604060248301528180600094859360448301906122b4565b0381737a250d5630b4cf539739df2c5dacb4c659f2488d5afa9081156123f25782916123d8575b5080516000198101929083116123c55750611b909293506118b1565b634e487b7160e01b815260118552602490fd5b6123ec91503d8084833e611bbc8183611330565b386123a9565b6040513d84823e3d90fd5b60018103612459575081612358916124179493019061230d565b038173d9e1ce17f2641f24ae83637ab66a2cca9c378b9f5afa9081156123f25782916123d8575080516000198101929083116123c55750611b909293506118b1565b93949360028103612498575050509060638202918083046063149015171561248357506064900490565b601190634e487b7160e01b6000525260246000fd5b6003146124e35760405162461bcd60e51b8152602081860152601e60248201527f556e737570706f727465642044455820666f722073696d756c6174696f6e00006044820152606490fd5b816060918101031261053f576040926064845192612500846112fa565b612509816111a2565b808552602095869561252c896125208987016122ff565b95868a850152016122ff565b98899101526040519788958694635e0d443f60e01b8652600f0b90850152600f0b6024840152604483015260018060a01b03165afa90811561181a57600091612576575b50905090565b82813d831161259b575b61258a8183611330565b810103126107905750518038612570565b503d61258056fea26469706673582212207005d5a33858d8d96c40a01f964dac83396742f6d052c8c47017bc90d8778a9264736f6c63430008140033",
  "linkReferences": {},
  "deployedLinkReferences": {}
}