{
  "_format": "hh-sol-artifact-1",
  "contractName": "AtomArbitrage",
  "sourceName": "contracts/AtomArbitrage.sol",
  "abi": [
    {
      "inputs": [],
      "stateMutability": "nonpayable",
      "type": "constructor"
    },
    {
      "inputs": [
        {
          "internalType": "address",
          "name": "owner",
          "type": "address"
        }
      ],
      "name": "OwnableInvalidOwner",
      "type": "error"
    },
    {
      "inputs": [
        {
          "internalType": "address",
          "name": "account",
          "type": "address"
        }
      ],
      "name": "OwnableUnauthorizedAccount",
      "type": "error"
    },
    {
      "inputs": [],
      "name": "ReentrancyGuardReentrantCall",
      "type": "error"
    },
    {
      "inputs": [
        {
          "internalType": "address",
          "name": "token",
          "type": "address"
        }
      ],
      "name": "SafeERC20FailedOperation",
      "type": "error"
    },
    {
      "anonymous": false,
      "inputs": [
        {
          "indexed": true,
          "internalType": "address",
          "name": "tokenA",
          "type": "address"
        },
        {
          "indexed": true,
          "internalType": "address",
          "name": "tokenB",
          "type": "address"
        },
        {
          "indexed": false,
          "internalType": "uint256",
          "name": "amountIn",
          "type": "uint256"
        },
        {
          "indexed": false,
          "internalType": "uint256",
          "name": "profit",
          "type": "uint256"
        },
        {
          "indexed": true,
          "internalType": "address",
          "name": "executor",
          "type": "address"
        }
      ],
      "name": "ArbitrageExecuted",
      "type": "event"
    },
    {
      "anonymous": false,
      "inputs": [
        {
          "indexed": true,
          "internalType": "address",
          "name": "asset",
          "type": "address"
        },
        {
          "indexed": false,
          "internalType": "uint256",
          "name": "amount",
          "type": "uint256"
        },
        {
          "indexed": false,
          "internalType": "uint256",
          "name": "premium",
          "type": "uint256"
        },
        {
          "indexed": false,
          "internalType": "bool",
          "name": "success",
          "type": "bool"
        }
      ],
      "name": "FlashLoanExecuted",
      "type": "event"
    },
    {
      "anonymous": false,
      "inputs": [
        {
          "indexed": true,
          "internalType": "address",
          "name": "previousOwner",
          "type": "address"
        },
        {
          "indexed": true,
          "internalType": "address",
          "name": "newOwner",
          "type": "address"
        }
      ],
      "name": "OwnershipTransferred",
      "type": "event"
    },
    {
      "inputs": [],
      "name": "ADDRESSES_PROVIDER",
      "outputs": [
        {
          "internalType": "contract IPoolAddressesProvider",
          "name": "",
          "type": "address"
        }
      ],
      "stateMutability": "view",
      "type": "function"
    },
    {
      "inputs": [],
      "name": "SUSHISWAP_ROUTER",
      "outputs": [
        {
          "internalType": "contract IUniswapV2Router",
          "name": "",
          "type": "address"
        }
      ],
      "stateMutability": "view",
      "type": "function"
    },
    {
      "inputs": [],
      "name": "UNISWAP_ROUTER",
      "outputs": [
        {
          "internalType": "contract IUniswapV2Router",
          "name": "",
          "type": "address"
        }
      ],
      "stateMutability": "view",
      "type": "function"
    },
    {
      "inputs": [
        {
          "internalType": "address",
          "name": "",
          "type": "address"
        },
        {
          "internalType": "address",
          "name": "",
          "type": "address"
        },
        {
          "internalType": "uint256",
          "name": "amountIn",
          "type": "uint256"
        },
        {
          "internalType": "address[]",
          "name": "pathBuy",
          "type": "address[]"
        },
        {
          "internalType": "address[]",
          "name": "pathSell",
          "type": "address[]"
        },
        {
          "internalType": "address",
          "name": "routerBuy",
          "type": "address"
        },
        {
          "internalType": "address",
          "name": "routerSell",
          "type": "address"
        }
      ],
      "name": "calculateProfit",
      "outputs": [
        {
          "internalType": "uint256",
          "name": "profit",
          "type": "uint256"
        },
        {
          "internalType": "bool",
          "name": "profitable",
          "type": "bool"
        }
      ],
      "stateMutability": "view",
      "type": "function"
    },
    {
      "inputs": [
        {
          "internalType": "address",
          "name": "token",
          "type": "address"
        }
      ],
      "name": "emergencyWithdraw",
      "outputs": [],
      "stateMutability": "nonpayable",
      "type": "function"
    },
    {
      "inputs": [
        {
          "internalType": "address",
          "name": "asset",
          "type": "address"
        },
        {
          "internalType": "uint256",
          "name": "amount",
          "type": "uint256"
        },
        {
          "internalType": "bytes",
          "name": "params",
          "type": "bytes"
        }
      ],
      "name": "executeArbitrage",
      "outputs": [],
      "stateMutability": "nonpayable",
      "type": "function"
    },
    {
      "inputs": [
        {
          "internalType": "address",
          "name": "asset",
          "type": "address"
        },
        {
          "internalType": "uint256",
          "name": "amount",
          "type": "uint256"
        },
        {
          "internalType": "uint256",
          "name": "premium",
          "type": "uint256"
        },
        {
          "internalType": "address",
          "name": "initiator",
          "type": "address"
        },
        {
          "internalType": "bytes",
          "name": "params",
          "type": "bytes"
        }
      ],
      "name": "executeOperation",
      "outputs": [
        {
          "internalType": "bool",
          "name": "",
          "type": "bool"
        }
      ],
      "stateMutability": "nonpayable",
      "type": "function"
    },
    {
      "inputs": [],
      "name": "owner",
      "outputs": [
        {
          "internalType": "address",
          "name": "",
          "type": "address"
        }
      ],
      "stateMutability": "view",
      "type": "function"
    },
    {
      "inputs": [],
      "name": "renounceOwnership",
      "outputs": [],
      "stateMutability": "nonpayable",
      "type": "function"
    },
    {
      "inputs": [
        {
          "internalType": "address",
          "name": "newOwner",
          "type": "address"
        }
      ],
      "name": "transferOwnership",
      "outputs": [],
      "stateMutability": "nonpayable",
      "type": "function"
    },
    {
      "inputs": [],
      "name": "withdrawETH",
      "outputs": [],
      "stateMutability": "nonpayable",
      "type": "function"
    },
    {
      "inputs": [
        {
          "internalType": "address",
          "name": "token",
          "type": "address"
        },
        {
          "internalType": "uint256",
          "name": "amount",
          "type": "uint256"
        }
      ],
      "name": "withdrawToken",
      "outputs": [],
      "stateMutability": "nonpayable",
      "type": "function"
    },
    {
      "stateMutability": "payable",
      "type": "receive"
    }
  ],
  "bytecode": "0x608060405234801561001057600080fd5b506001600055338061003c57604051631e4fbdf760e01b81526000600482015260240160405180910390fd5b6100458161004b565b5061009d565b600180546001600160a01b038381166001600160a01b0319831681179093556040519116919082907f8be0079c531659141344cd1fd0a4f28419497f9722a3daafe3b4186f6b6457e090600090a35050565b6114b7806100ac6000396000f3fe6080604052600436106100ab5760003560e01c80638da5cb5b116100645780638da5cb5b146101ab5780639e281a98146101c9578063d8264920146101e9578063e086e5ec14610211578063f2fde38b14610226578063ff294db91461024657600080fd5b80630542975c146100b75780631b11d0ff146100fc578063277754ed1461012c5780636ff1c9bc14610154578063715018a6146101765780637c1d95391461018b57600080fd5b366100b257005b600080fd5b3480156100c357600080fd5b506100df732f39d218133afab8f2b819b1066c7e434ad94e9e81565b6040516001600160a01b0390911681526020015b60405180910390f35b34801561010857600080fd5b5061011c610117366004610e19565b61027b565b60405190151581526020016100f3565b34801561013857600080fd5b506100df73d9e1ce17f2641f24ae83637ab66a2cca9c378b9f81565b34801561016057600080fd5b5061017461016f366004610e95565b610433565b005b34801561018257600080fd5b50610174610517565b34801561019757600080fd5b506101746101a6366004610eb9565b61052b565b3480156101b757600080fd5b506001546001600160a01b03166100df565b3480156101d557600080fd5b506101746101e4366004610f15565b610630565b3480156101f557600080fd5b506100df737a250d5630b4cf539739df2c5dacb4c659f2488d81565b34801561021d57600080fd5b5061017461065e565b34801561023257600080fd5b50610174610241366004610e95565b61069f565b34801561025257600080fd5b50610266610261366004610f86565b6106da565b604080519283529015156020830152016100f3565b6000732f39d218133afab8f2b819b1066c7e434ad94e9e6001600160a01b031663026b1d5f6040518163ffffffff1660e01b8152600401602060405180830381865afa1580156102cf573d6000803e3d6000fd5b505050506040513d601f19601f820116820180604052508101906102f3919061104a565b6001600160a01b0316336001600160a01b0316146103495760405162461bcd60e51b815260206004820152600e60248201526d24b73b30b634b21031b0b63632b960911b60448201526064015b60405180910390fd5b6001600160a01b03841630146103955760405162461bcd60e51b815260206004820152601160248201527024b73b30b634b21034b734ba34b0ba37b960791b6044820152606401610340565b60006103a383850185611170565b905060006103b2898984610869565b905060006103c0888a611273565b90506103d66001600160a01b038b163383610b50565b604080518a8152602081018a90528315158183015290516001600160a01b038c16917fe7055bb7f757aae8cfbf6ea2247e26371914425f5500c1d720f0746ae1ff8803919081900360600190a25060019998505050505050505050565b61043b610bb4565b6001600160a01b038116610486576001546040516001600160a01b03909116904780156108fc02916000818181858888f19350505050158015610482573d6000803e3d6000fd5b5050565b61051461049b6001546001600160a01b031690565b6040516370a0823160e01b81523060048201526001600160a01b038416906370a0823190602401602060405180830381865afa1580156104df573d6000803e3d6000fd5b505050506040513d601f19601f820116820180604052508101906105039190611286565b6001600160a01b0384169190610b50565b50565b61051f610bb4565b6105296000610be1565b565b610533610bb4565b61053b610c33565b6000732f39d218133afab8f2b819b1066c7e434ad94e9e6001600160a01b031663026b1d5f6040518163ffffffff1660e01b8152600401602060405180830381865afa15801561058f573d6000803e3d6000fd5b505050506040513d601f19601f820116820180604052508101906105b3919061104a565b6040516310ac2ddf60e21b81529091506001600160a01b038216906342b0b77c906105ed903090899089908990899060009060040161129f565b600060405180830381600087803b15801561060757600080fd5b505af115801561061b573d6000803e3d6000fd5b505050505061062a6001600055565b50505050565b610638610bb4565b61048261064d6001546001600160a01b031690565b6001600160a01b0384169083610b50565b610666610bb4565b6001546040516001600160a01b03909116904780156108fc02916000818181858888f19350505050158015610514573d6000803e3d6000fd5b6106a7610bb4565b6001600160a01b0381166106d157604051631e4fbdf760e01b815260006004820152602401610340565b61051481610be1565b600080836001600160a01b031663d06ca61f8a8a8a6040518463ffffffff1660e01b815260040161070d939291906112fe565b600060405180830381865afa92505050801561074b57506040513d6000823e601f3d908101601f191682016040526107489190810190611356565b60015b61075a5750600090508061085b565b6000816001835161076b91906113e7565b8151811061077b5761077b6113fa565b60200260200101519050846001600160a01b031663d06ca61f828a8a6040518463ffffffff1660e01b81526004016107b5939291906112fe565b600060405180830381865afa9250505080156107f357506040513d6000823e601f3d908101601f191682016040526107f09190810190611356565b60015b610804576000935060009250610858565b6000816001835161081591906113e7565b81518110610825576108256113fa565b602002602001015190508c81111561084c576108418d826113e7565b955060019450610855565b60009550600094505b50505b50505b995099975050505050505050565b60a0810151600090610886906001600160a01b0386169085610c5d565b60008260a0015190506000816001600160a01b03166338ed17398660008760600151304261012c6108b79190611273565b6040518663ffffffff1660e01b81526004016108d7959493929190611410565b6000604051808303816000875af11580156108f6573d6000803e3d6000fd5b505050506040513d6000823e601f3d908101601f1916820160405261091e9190810190611356565b90506000816001835161093191906113e7565b81518110610941576109416113fa565b6020026020010151905060008560600151600187606001515161096491906113e7565b81518110610974576109746113fa565b602002602001015190506109a08660c0015183836001600160a01b0316610c5d9092919063ffffffff16565b60008660c0015190506000816001600160a01b03166338ed17398560008b60800151304261012c6109d19190611273565b6040518663ffffffff1660e01b81526004016109f1959493929190611410565b6000604051808303816000875af1158015610a10573d6000803e3d6000fd5b505050506040513d6000823e601f3d908101601f19168201604052610a389190810190611356565b905060008160018351610a4b91906113e7565b81518110610a5b57610a5b6113fa565b6020026020010151905060008a8211610a75576000610a7f565b610a7f8b836113e7565b90508960e00151811015610acb5760405162461bcd60e51b8152602060048201526013602482015272125b9cdd59999a58da595b9d081c1c9bd99a5d606a1b6044820152606401610340565b6001546001600160a01b03166001600160a01b03168a602001516001600160a01b03168b600001516001600160a01b03167f3eebd3bcce2cb11e52a53c25c83796b82fc25c077d0324a87d7f897b82f46a238e85604051610b36929190918252602082015260400190565b60405180910390a45060019b9a5050505050505050505050565b6040516001600160a01b03838116602483015260448201839052610baf91859182169063a9059cbb906064015b604051602081830303815290604052915060e01b6020820180516001600160e01b038381831617835250505050610ce9565b505050565b6001546001600160a01b031633146105295760405163118cdaa760e01b8152336004820152602401610340565b600180546001600160a01b038381166001600160a01b0319831681179093556040519116919082907f8be0079c531659141344cd1fd0a4f28419497f9722a3daafe3b4186f6b6457e090600090a35050565b600260005403610c5657604051633ee5aeb560e01b815260040160405180910390fd5b6002600055565b604080516001600160a01b038416602482015260448082018490528251808303909101815260649091019091526020810180516001600160e01b031663095ea7b360e01b179052610cae8482610d5a565b61062a576040516001600160a01b03848116602483015260006044830152610ce391869182169063095ea7b390606401610b7d565b61062a84825b600080602060008451602086016000885af180610d0c576040513d6000823e3d81fd5b50506000513d91508115610d24578060011415610d31565b6001600160a01b0384163b155b1561062a57604051635274afe760e01b81526001600160a01b0385166004820152602401610340565b6000806000806020600086516020880160008a5af192503d91506000519050828015610d9f57508115610d905780600114610d9f565b6000866001600160a01b03163b115b93505050505b92915050565b6001600160a01b038116811461051457600080fd5b8035610dcb81610dab565b919050565b60008083601f840112610de257600080fd5b50813567ffffffffffffffff811115610dfa57600080fd5b602083019150836020828501011115610e1257600080fd5b9250929050565b60008060008060008060a08789031215610e3257600080fd5b8635610e3d81610dab565b955060208701359450604087013593506060870135610e5b81610dab565b9250608087013567ffffffffffffffff811115610e7757600080fd5b610e8389828a01610dd0565b979a9699509497509295939492505050565b600060208284031215610ea757600080fd5b8135610eb281610dab565b9392505050565b60008060008060608587031215610ecf57600080fd5b8435610eda81610dab565b935060208501359250604085013567ffffffffffffffff811115610efd57600080fd5b610f0987828801610dd0565b95989497509550505050565b60008060408385031215610f2857600080fd5b8235610f3381610dab565b946020939093013593505050565b60008083601f840112610f5357600080fd5b50813567ffffffffffffffff811115610f6b57600080fd5b6020830191508360208260051b8501011115610e1257600080fd5b600080600080600080600080600060e08a8c031215610fa457600080fd5b8935610faf81610dab565b985060208a0135610fbf81610dab565b975060408a0135965060608a013567ffffffffffffffff80821115610fe357600080fd5b610fef8d838e01610f41565b909850965060808c013591508082111561100857600080fd5b506110158c828d01610f41565b90955093505060a08a013561102981610dab565b915060c08a013561103981610dab565b809150509295985092959850929598565b60006020828403121561105c57600080fd5b8151610eb281610dab565b634e487b7160e01b600052604160045260246000fd5b604051610100810167ffffffffffffffff811182821017156110a1576110a1611067565b60405290565b604051601f8201601f1916810167ffffffffffffffff811182821017156110d0576110d0611067565b604052919050565b600067ffffffffffffffff8211156110f2576110f2611067565b5060051b60200190565b600082601f83011261110d57600080fd5b8135602061112261111d836110d8565b6110a7565b82815260059290921b8401810191818101908684111561114157600080fd5b8286015b8481101561116557803561115881610dab565b8352918301918301611145565b509695505050505050565b60006020828403121561118257600080fd5b813567ffffffffffffffff8082111561119a57600080fd5b9083019061010082860312156111af57600080fd5b6111b761107d565b6111c083610dc0565b81526111ce60208401610dc0565b6020820152604083013560408201526060830135828111156111ef57600080fd5b6111fb878286016110fc565b60608301525060808301358281111561121357600080fd5b61121f878286016110fc565b60808301525061123160a08401610dc0565b60a082015261124260c08401610dc0565b60c082015260e083013560e082015280935050505092915050565b634e487b7160e01b600052601160045260246000fd5b80820180821115610da557610da561125d565b60006020828403121561129857600080fd5b5051919050565b6001600160a01b038781168252861660208201526040810185905260a06060820181905281018390526000838560c0840137600060c0858401015260c0601f19601f860116830101905061ffff83166080830152979650505050505050565b83815260406020808301829052908201839052600090849060608401835b8681101561134a57833561132f81610dab565b6001600160a01b03168252928201929082019060010161131c565b50979650505050505050565b6000602080838503121561136957600080fd5b825167ffffffffffffffff81111561138057600080fd5b8301601f8101851361139157600080fd5b805161139f61111d826110d8565b81815260059190911b820183019083810190878311156113be57600080fd5b928401925b828410156113dc578351825292840192908401906113c3565b979650505050505050565b81810381811115610da557610da561125d565b634e487b7160e01b600052603260045260246000fd5b600060a082018783526020878185015260a0604085015281875180845260c086019150828901935060005b818110156114605784516001600160a01b03168352938301939183019160010161143b565b50506001600160a01b0396909616606085015250505060800152939250505056fea26469706673582212203f90a4e1e748885c65c23057a52f1d2425e0100673dbda4e8be817a2c9f38a0664736f6c63430008140033",
  "linkReferences": {},
  "deployedLinkReferences": {}
}