{
  "_format": "hh-sol-artifact-1",
  "contractName": "HelloWorld",
  "sourceName": "contracts/HelloWorld.sol",
  "abi": [
    {
      "inputs": [],
      "stateMutability": "nonpayable",
      "type": "constructor"
    },
    {
      "anonymous": false,
      "inputs": [
        {
          "indexed": false,
          "internalType": "string",
          "name": "newGreeting",
          "type": "string"
        },
        {
          "indexed": false,
          "internalType": "address",
          "name": "changedBy",
          "type": "address"
        }
      ],
      "name": "GreetingChanged",
      "type": "event"
    },
    {
      "inputs": [],
      "name": "getGreeting",
      "outputs": [
        {
          "internalType": "string",
          "name": "",
          "type": "string"
        }
      ],
      "stateMutability": "view",
      "type": "function"
    },
    {
      "inputs": [],
      "name": "owner",
      "outputs": [
        {
          "internalType": "address",
          "name": "",
          "type": "address"
        }
      ],
      "stateMutability": "view",
      "type": "function"
    },
    {
      "inputs": [
        {
          "internalType": "string",
          "name": "_greeting",
          "type": "string"
        }
      ],
      "name": "setGreeting",
      "outputs": [],
      "stateMutability": "nonpayable",
      "type": "function"
    }
  ],
  "bytecode": "0x608060405234801561001057600080fd5b5060408051808201909152600c81526b48656c6c6f20576f726c642160a01b602082015260009061004190826100f8565b50600180546001600160a01b031916331790556101b7565b634e487b7160e01b600052604160045260246000fd5b600181811c9082168061008357607f821691505b6020821081036100a357634e487b7160e01b600052602260045260246000fd5b50919050565b601f8211156100f357600081815260208120601f850160051c810160208610156100d05750805b601f850160051c820191505b818110156100ef578281556001016100dc565b5050505b505050565b81516001600160401b0381111561011157610111610059565b6101258161011f845461006f565b846100a9565b602080601f83116001811461015a57600084156101425750858301515b600019600386901b1c1916600185901b1785556100ef565b600085815260208120601f198616915b828110156101895788860151825594840194600190910190840161016a565b50858210156101a75787850151600019600388901b60f8161c191681555b5050505050600190811b01905550565b61044b806101c66000396000f3fe608060405234801561001057600080fd5b50600436106100415760003560e01c80638da5cb5b14610046578063a413686214610076578063fe50cc721461008b575b600080fd5b600154610059906001600160a01b031681565b6040516001600160a01b0390911681526020015b60405180910390f35b610089610084366004610191565b6100a0565b005b6100936100e9565b60405161006d9190610288565b60006100ac828261032b565b507f97f1752b66013c04a3cba7b99967e18ef918f6c3435eae8ba65850da8b3239e281336040516100de9291906103eb565b60405180910390a150565b6060600080546100f8906102a2565b80601f0160208091040260200160405190810160405280929190818152602001828054610124906102a2565b80156101715780601f1061014657610100808354040283529160200191610171565b820191906000526020600020905b81548152906001019060200180831161015457829003601f168201915b5050505050905090565b634e487b7160e01b600052604160045260246000fd5b6000602082840312156101a357600080fd5b813567ffffffffffffffff808211156101bb57600080fd5b818401915084601f8301126101cf57600080fd5b8135818111156101e1576101e161017b565b604051601f8201601f19908116603f011681019083821181831017156102095761020961017b565b8160405282815287602084870101111561022257600080fd5b826020860160208301376000928101602001929092525095945050505050565b6000815180845260005b818110156102685760208185018101518683018201520161024c565b506000602082860101526020601f19601f83011685010191505092915050565b60208152600061029b6020830184610242565b9392505050565b600181811c908216806102b657607f821691505b6020821081036102d657634e487b7160e01b600052602260045260246000fd5b50919050565b601f82111561032657600081815260208120601f850160051c810160208610156103035750805b601f850160051c820191505b818110156103225782815560010161030f565b5050505b505050565b815167ffffffffffffffff8111156103455761034561017b565b6103598161035384546102a2565b846102dc565b602080601f83116001811461038e57600084156103765750858301515b600019600386901b1c1916600185901b178555610322565b600085815260208120601f198616915b828110156103bd5788860151825594840194600190910190840161039e565b50858210156103db5787850151600019600388901b60f8161c191681555b5050505050600190811b01905550565b6040815260006103fe6040830185610242565b905060018060a01b0383166020830152939250505056fea26469706673582212209ba8a3a55bd9841b7d71d7d3bcf46f5bb1550344af70acb0d6c7504ad687c24c64736f6c63430008140033",
  "linkReferences": {},
  "deployedLinkReferences": {}
}