{
  "_format": "hh-sol-artifact-1",
  "contractName": "HelloWorld",
  "sourceName": "contracts/HelloWorld.sol",
  "abi": [
    {
      "inputs": [],
      "stateMutability": "nonpayable",
      "type": "constructor"
    },
    {
      "anonymous": false,
      "inputs": [
        {
          "indexed": false,
          "internalType": "string",
          "name": "newGreeting",
          "type": "string"
        },
        {
          "indexed": false,
          "internalType": "address",
          "name": "changedBy",
          "type": "address"
        }
      ],
      "name": "GreetingChanged",
      "type": "event"
    },
    {
      "inputs": [],
      "name": "getGreeting",
      "outputs": [
        {
          "internalType": "string",
          "name": "",
          "type": "string"
        }
      ],
      "stateMutability": "view",
      "type": "function"
    },
    {
      "inputs": [],
      "name": "owner",
      "outputs": [
        {
          "internalType": "address",
          "name": "",
          "type": "address"
        }
      ],
      "stateMutability": "view",
      "type": "function"
    },
    {
      "inputs": [
        {
          "internalType": "string",
          "name": "_greeting",
          "type": "string"
        }
      ],
      "name": "setGreeting",
      "outputs": [],
      "stateMutability": "nonpayable",
      "type": "function"
    }
  ],
  "bytecode": "0x608080604052346100bb5760008054906001918281811c911680156100b1575b602082101461009d57601f8111610071575b507f48656c6c6f20576f726c64210000000000000000000000000000000000000018905580546001600160a01b0319163317905561046590816100c18239f35b81805282601f60208420920160051c8201915b828110610092575050610031565b838155018390610084565b634e487b7160e01b82526022600452602482fd5b90607f169061001f565b600080fdfe60806040818152600436101561001457600080fd5b600091823560e01c9081638da5cb5b1461035857508063a41368621461012c5763fe50cc721461004357600080fd5b34610128578160031936011261012857805190828054610062816103f5565b8085529160019180831690811561010057506001146100a4575b50505061008e826100a094038361037d565b519182916020835260208301906103b5565b0390f35b80809650527f290decd9548b62a8d60345a988386fc84ba6bc95484008f6362f93160ef3e5635b8286106100e85750505061008e8260206100a0958201019461007c565b805460208787018101919091529095019481016100cb565b6100a097508693506020925061008e94915060ff191682840152151560051b8201019461007c565b5080fd5b5090346103555760209182600319360112610128576004359067ffffffffffffffff80831161035157366023840112156103515782600401359281841161033957825193601f1991610185601f8301841689018761037d565b818652366024838301011161034d5781879260248a930183890137860101528351918211610339576101b785546103f5565b601f81116102d8575b508590601f831160011461023a575090808596927f97f1752b66013c04a3cba7b99967e18ef918f6c3435eae8ba65850da8b3239e2969161022f575b508160011b916000199060031b1c19161785555b61022382519383859485528401906103b5565b9033908301520390a180f35b9050840151386101fc565b8216908580527f290decd9548b62a8d60345a988386fc84ba6bc95484008f6362f93160ef3e56391865b8181106102c157509183917f97f1752b66013c04a3cba7b99967e18ef918f6c3435eae8ba65850da8b3239e2979894600194106102a8575b5050811b018555610210565b86015160001960f88460031b161c19169055388061029c565b91928860018192868a015181550194019201610264565b8580527f290decd9548b62a8d60345a988386fc84ba6bc95484008f6362f93160ef3e563601f840160051c81019188851061032f575b601f0160051c01905b81811061032457506101c0565b868155600101610317565b909150819061030e565b634e487b7160e01b85526041600452602485fd5b8680fd5b8380fd5b80fd5b8390346101285781600319360112610128576001546001600160a01b03168152602090f35b90601f8019910116810190811067ffffffffffffffff82111761039f57604052565b634e487b7160e01b600052604160045260246000fd5b919082519283825260005b8481106103e1575050826000602080949584010152601f8019910116010190565b6020818301810151848301820152016103c0565b90600182811c92168015610425575b602083101461040f57565b634e487b7160e01b600052602260045260246000fd5b91607f169161040456fea264697066735822122009a687091e18887af2c4e761b9f8f8023ec59993914cb47d80dc70695fd4d80f64736f6c63430008140033",
  "linkReferences": {},
  "deployedLinkReferences": {}
}