{
  "_format": "hh-sol-artifact-1",
  "contractName": "AtomArbitrage",
  "sourceName": "contracts/ArbitrageBot.sol",
  "abi": [
    {
      "inputs": [
        {
          "internalType": "address",
          "name": "_addressProvider",
          "type": "address"
        }
      ],
      "stateMutability": "nonpayable",
      "type": "constructor"
    },
    {
      "inputs": [],
      "name": "EnforcedPause",
      "type": "error"
    },
    {
      "inputs": [],
      "name": "ExpectedPause",
      "type": "error"
    },
    {
      "inputs": [
        {
          "internalType": "address",
          "name": "owner",
          "type": "address"
        }
      ],
      "name": "OwnableInvalidOwner",
      "type": "error"
    },
    {
      "inputs": [
        {
          "internalType": "address",
          "name": "account",
          "type": "address"
        }
      ],
      "name": "OwnableUnauthorizedAccount",
      "type": "error"
    },
    {
      "inputs": [],
      "name": "ReentrancyGuardReentrantCall",
      "type": "error"
    },
    {
      "inputs": [
        {
          "internalType": "address",
          "name": "token",
          "type": "address"
        }
      ],
      "name": "SafeERC20FailedOperation",
      "type": "error"
    },
    {
      "anonymous": false,
      "inputs": [
        {
          "indexed": true,
          "internalType": "address",
          "name": "tokenIn",
          "type": "address"
        },
        {
          "indexed": true,
          "internalType": "address",
          "name": "tokenOut",
          "type": "address"
        },
        {
          "indexed": false,
          "internalType": "uint256",
          "name": "amountIn",
          "type": "uint256"
        },
        {
          "indexed": false,
          "internalType": "uint256",
          "name": "profit",
          "type": "uint256"
        },
        {
          "indexed": false,
          "internalType": "uint256",
          "name": "gasUsed",
          "type": "uint256"
        },
        {
          "indexed": false,
          "internalType": "string",
          "name": "dexPath",
          "type": "string"
        },
        {
          "indexed": false,
          "internalType": "uint256",
          "name": "timestamp",
          "type": "uint256"
        }
      ],
      "name": "ArbitrageExecuted",
      "type": "event"
    },
    {
      "anonymous": false,
      "inputs": [
        {
          "indexed": false,
          "internalType": "uint256",
          "name": "minProfitBasisPoints",
          "type": "uint256"
        },
        {
          "indexed": false,
          "internalType": "uint256",
          "name": "maxSlippageBasisPoints",
          "type": "uint256"
        },
        {
          "indexed": false,
          "internalType": "uint256",
          "name": "maxGasPrice",
          "type": "uint256"
        }
      ],
      "name": "ConfigUpdated",
      "type": "event"
    },
    {
      "anonymous": false,
      "inputs": [
        {
          "indexed": true,
          "internalType": "address",
          "name": "asset",
          "type": "address"
        },
        {
          "indexed": false,
          "internalType": "uint256",
          "name": "amount",
          "type": "uint256"
        },
        {
          "indexed": false,
          "internalType": "uint256",
          "name": "premium",
          "type": "uint256"
        },
        {
          "indexed": false,
          "internalType": "bool",
          "name": "success",
          "type": "bool"
        }
      ],
      "name": "FlashLoanExecuted",
      "type": "event"
    },
    {
      "anonymous": false,
      "inputs": [
        {
          "indexed": false,
          "internalType": "address",
          "name": "tokenA",
          "type": "address"
        },
        {
          "indexed": false,
          "internalType": "address",
          "name": "tokenB",
          "type": "address"
        },
        {
          "indexed": false,
          "internalType": "uint256",
          "name": "profitEstimate",
          "type": "uint256"
        },
        {
          "indexed": false,
          "internalType": "string",
          "name": "dexPair",
          "type": "string"
        },
        {
          "indexed": false,
          "internalType": "uint256",
          "name": "timestamp",
          "type": "uint256"
        }
      ],
      "name": "OpportunityDetected",
      "type": "event"
    },
    {
      "anonymous": false,
      "inputs": [
        {
          "indexed": true,
          "internalType": "address",
          "name": "previousOwner",
          "type": "address"
        },
        {
          "indexed": true,
          "internalType": "address",
          "name": "newOwner",
          "type": "address"
        }
      ],
      "name": "OwnershipTransferred",
      "type": "event"
    },
    {
      "anonymous": false,
      "inputs": [
        {
          "indexed": false,
          "internalType": "address",
          "name": "account",
          "type": "address"
        }
      ],
      "name": "Paused",
      "type": "event"
    },
    {
      "anonymous": false,
      "inputs": [
        {
          "indexed": true,
          "internalType": "address",
          "name": "owner",
          "type": "address"
        },
        {
          "indexed": true,
          "internalType": "address",
          "name": "token",
          "type": "address"
        },
        {
          "indexed": false,
          "internalType": "uint256",
          "name": "amount",
          "type": "uint256"
        },
        {
          "indexed": false,
          "internalType": "uint256",
          "name": "timestamp",
          "type": "uint256"
        }
      ],
      "name": "ProfitWithdrawn",
      "type": "event"
    },
    {
      "anonymous": false,
      "inputs": [
        {
          "indexed": false,
          "internalType": "address",
          "name": "account",
          "type": "address"
        }
      ],
      "name": "Unpaused",
      "type": "event"
    },
    {
      "stateMutability": "payable",
      "type": "fallback"
    },
    {
      "inputs": [],
      "name": "ADDRESSES_PROVIDER",
      "outputs": [
        {
          "internalType": "contract IPoolAddressesProvider",
          "name": "",
          "type": "address"
        }
      ],
      "stateMutability": "view",
      "type": "function"
    },
    {
      "inputs": [],
      "name": "BALANCER_VAULT",
      "outputs": [
        {
          "internalType": "contract IBalancerVault",
          "name": "",
          "type": "address"
        }
      ],
      "stateMutability": "view",
      "type": "function"
    },
    {
      "inputs": [],
      "name": "POOL",
      "outputs": [
        {
          "internalType": "contract IPool",
          "name": "",
          "type": "address"
        }
      ],
      "stateMutability": "view",
      "type": "function"
    },
    {
      "inputs": [],
      "name": "UNISWAP_V2_ROUTER",
      "outputs": [
        {
          "internalType": "contract IUniswapV2Router",
          "name": "",
          "type": "address"
        }
      ],
      "stateMutability": "view",
      "type": "function"
    },
    {
      "inputs": [],
      "name": "UNISWAP_V3_ROUTER",
      "outputs": [
        {
          "internalType": "contract IUniswapV3Router",
          "name": "",
          "type": "address"
        }
      ],
      "stateMutability": "view",
      "type": "function"
    },
    {
      "inputs": [
        {
          "components": [
            {
              "internalType": "address",
              "name": "tokenIn",
              "type": "address"
            },
            {
              "internalType": "address",
              "name": "tokenOut",
              "type": "address"
            },
            {
              "internalType": "uint256",
              "name": "amountIn",
              "type": "uint256"
            },
            {
              "internalType": "address[]",
              "name": "dexRouters",
              "type": "address[]"
            },
            {
              "internalType": "bytes[]",
              "name": "swapData",
              "type": "bytes[]"
            },
            {
              "internalType": "uint256",
              "name": "minProfit",
              "type": "uint256"
            }
          ],
          "internalType": "struct AtomArbitrage.ArbitrageParams",
          "name": "params",
          "type": "tuple"
        }
      ],
      "name": "_executeArbitrageLogic",
      "outputs": [
        {
          "internalType": "uint256",
          "name": "profit",
          "type": "uint256"
        },
        {
          "internalType": "string",
          "name": "dexPath",
          "type": "string"
        }
      ],
      "stateMutability": "nonpayable",
      "type": "function"
    },
    {
      "inputs": [
        {
          "internalType": "address",
          "name": "",
          "type": "address"
        },
        {
          "internalType": "address",
          "name": "",
          "type": "address"
        },
        {
          "internalType": "uint256",
          "name": "amountIn",
          "type": "uint256"
        },
        {
          "internalType": "address[]",
          "name": "",
          "type": "address[]"
        },
        {
          "internalType": "bytes[]",
          "name": "",
          "type": "bytes[]"
        }
      ],
      "name": "checkProfitability",
      "outputs": [
        {
          "internalType": "bool",
          "name": "profitable",
          "type": "bool"
        },
        {
          "internalType": "uint256",
          "name": "estimatedProfit",
          "type": "uint256"
        }
      ],
      "stateMutability": "pure",
      "type": "function"
    },
    {
      "inputs": [
        {
          "internalType": "string",
          "name": "",
          "type": "string"
        }
      ],
      "name": "dexPairProfits",
      "outputs": [
        {
          "internalType": "uint256",
          "name": "",
          "type": "uint256"
        }
      ],
      "stateMutability": "view",
      "type": "function"
    },
    {
      "inputs": [],
      "name": "emergencyETHRecovery",
      "outputs": [],
      "stateMutability": "nonpayable",
      "type": "function"
    },
    {
      "inputs": [
        {
          "internalType": "address",
          "name": "token",
          "type": "address"
        }
      ],
      "name": "emergencyTokenRecovery",
      "outputs": [],
      "stateMutability": "nonpayable",
      "type": "function"
    },
    {
      "inputs": [
        {
          "internalType": "address",
          "name": "asset",
          "type": "address"
        },
        {
          "internalType": "uint256",
          "name": "amount",
          "type": "uint256"
        },
        {
          "internalType": "bytes",
          "name": "params",
          "type": "bytes"
        }
      ],
      "name": "executeArbitrage",
      "outputs": [],
      "stateMutability": "nonpayable",
      "type": "function"
    },
    {
      "inputs": [
        {
          "internalType": "address",
          "name": "asset",
          "type": "address"
        },
        {
          "internalType": "uint256",
          "name": "amount",
          "type": "uint256"
        },
        {
          "internalType": "uint256",
          "name": "premium",
          "type": "uint256"
        },
        {
          "internalType": "address",
          "name": "initiator",
          "type": "address"
        },
        {
          "internalType": "bytes",
          "name": "params",
          "type": "bytes"
        }
      ],
      "name": "executeOperation",
      "outputs": [
        {
          "internalType": "bool",
          "name": "",
          "type": "bool"
        }
      ],
      "stateMutability": "nonpayable",
      "type": "function"
    },
    {
      "inputs": [],
      "name": "getAverageGasUsed",
      "outputs": [
        {
          "internalType": "uint256",
          "name": "",
          "type": "uint256"
        }
      ],
      "stateMutability": "view",
      "type": "function"
    },
    {
      "inputs": [],
      "name": "getConfig",
      "outputs": [
        {
          "internalType": "uint256",
          "name": "_minProfitBasisPoints",
          "type": "uint256"
        },
        {
          "internalType": "uint256",
          "name": "_maxSlippageBasisPoints",
          "type": "uint256"
        },
        {
          "internalType": "uint256",
          "name": "_maxGasPrice",
          "type": "uint256"
        },
        {
          "internalType": "uint256",
          "name": "_totalTrades",
          "type": "uint256"
        },
        {
          "internalType": "uint256",
          "name": "_successfulTrades",
          "type": "uint256"
        },
        {
          "internalType": "uint256",
          "name": "_totalProfit",
          "type": "uint256"
        },
        {
          "internalType": "uint256",
          "name": "_totalGasUsed",
          "type": "uint256"
        }
      ],
      "stateMutability": "view",
      "type": "function"
    },
    {
      "inputs": [
        {
          "internalType": "uint256",
          "name": "count",
          "type": "uint256"
        }
      ],
      "name": "getRecentTrades",
      "outputs": [
        {
          "components": [
            {
              "internalType": "address",
              "name": "tokenIn",
              "type": "address"
            },
            {
              "internalType": "address",
              "name": "tokenOut",
              "type": "address"
            },
            {
              "internalType": "uint256",
              "name": "amountIn",
              "type": "uint256"
            },
            {
              "internalType": "uint256",
              "name": "profit",
              "type": "uint256"
            },
            {
              "internalType": "uint256",
              "name": "gasUsed",
              "type": "uint256"
            },
            {
              "internalType": "string",
              "name": "dexPath",
              "type": "string"
            },
            {
              "internalType": "uint256",
              "name": "timestamp",
              "type": "uint256"
            },
            {
              "internalType": "bool",
              "name": "successful",
              "type": "bool"
            },
            {
              "internalType": "bytes32",
              "name": "txHash",
              "type": "bytes32"
            }
          ],
          "internalType": "struct AtomArbitrage.Trade[]",
          "name": "",
          "type": "tuple[]"
        }
      ],
      "stateMutability": "view",
      "type": "function"
    },
    {
      "inputs": [],
      "name": "getSuccessRate",
      "outputs": [
        {
          "internalType": "uint256",
          "name": "",
          "type": "uint256"
        }
      ],
      "stateMutability": "view",
      "type": "function"
    },
    {
      "inputs": [],
      "name": "getTotalProfit",
      "outputs": [
        {
          "internalType": "uint256",
          "name": "",
          "type": "uint256"
        }
      ],
      "stateMutability": "view",
      "type": "function"
    },
    {
      "inputs": [],
      "name": "getTradeHistoryCount",
      "outputs": [
        {
          "internalType": "uint256",
          "name": "",
          "type": "uint256"
        }
      ],
      "stateMutability": "view",
      "type": "function"
    },
    {
      "inputs": [],
      "name": "maxGasPrice",
      "outputs": [
        {
          "internalType": "uint256",
          "name": "",
          "type": "uint256"
        }
      ],
      "stateMutability": "view",
      "type": "function"
    },
    {
      "inputs": [],
      "name": "maxSlippageBasisPoints",
      "outputs": [
        {
          "internalType": "uint256",
          "name": "",
          "type": "uint256"
        }
      ],
      "stateMutability": "view",
      "type": "function"
    },
    {
      "inputs": [],
      "name": "minProfitBasisPoints",
      "outputs": [
        {
          "internalType": "uint256",
          "name": "",
          "type": "uint256"
        }
      ],
      "stateMutability": "view",
      "type": "function"
    },
    {
      "inputs": [],
      "name": "owner",
      "outputs": [
        {
          "internalType": "address",
          "name": "",
          "type": "address"
        }
      ],
      "stateMutability": "view",
      "type": "function"
    },
    {
      "inputs": [],
      "name": "pause",
      "outputs": [],
      "stateMutability": "nonpayable",
      "type": "function"
    },
    {
      "inputs": [],
      "name": "paused",
      "outputs": [
        {
          "internalType": "bool",
          "name": "",
          "type": "bool"
        }
      ],
      "stateMutability": "view",
      "type": "function"
    },
    {
      "inputs": [],
      "name": "renounceOwnership",
      "outputs": [],
      "stateMutability": "nonpayable",
      "type": "function"
    },
    {
      "inputs": [],
      "name": "successfulTrades",
      "outputs": [
        {
          "internalType": "uint256",
          "name": "",
          "type": "uint256"
        }
      ],
      "stateMutability": "view",
      "type": "function"
    },
    {
      "inputs": [
        {
          "internalType": "address",
          "name": "",
          "type": "address"
        }
      ],
      "name": "tokenProfits",
      "outputs": [
        {
          "internalType": "uint256",
          "name": "",
          "type": "uint256"
        }
      ],
      "stateMutability": "view",
      "type": "function"
    },
    {
      "inputs": [
        {
          "internalType": "address",
          "name": "",
          "type": "address"
        }
      ],
      "name": "tokenVolume",
      "outputs": [
        {
          "internalType": "uint256",
          "name": "",
          "type": "uint256"
        }
      ],
      "stateMutability": "view",
      "type": "function"
    },
    {
      "inputs": [],
      "name": "totalGasUsed",
      "outputs": [
        {
          "internalType": "uint256",
          "name": "",
          "type": "uint256"
        }
      ],
      "stateMutability": "view",
      "type": "function"
    },
    {
      "inputs": [],
      "name": "totalProfit",
      "outputs": [
        {
          "internalType": "uint256",
          "name": "",
          "type": "uint256"
        }
      ],
      "stateMutability": "view",
      "type": "function"
    },
    {
      "inputs": [],
      "name": "totalTrades",
      "outputs": [
        {
          "internalType": "uint256",
          "name": "",
          "type": "uint256"
        }
      ],
      "stateMutability": "view",
      "type": "function"
    },
    {
      "inputs": [
        {
          "internalType": "uint256",
          "name": "",
          "type": "uint256"
        }
      ],
      "name": "tradeHistory",
      "outputs": [
        {
          "internalType": "address",
          "name": "tokenIn",
          "type": "address"
        },
        {
          "internalType": "address",
          "name": "tokenOut",
          "type": "address"
        },
        {
          "internalType": "uint256",
          "name": "amountIn",
          "type": "uint256"
        },
        {
          "internalType": "uint256",
          "name": "profit",
          "type": "uint256"
        },
        {
          "internalType": "uint256",
          "name": "gasUsed",
          "type": "uint256"
        },
        {
          "internalType": "string",
          "name": "dexPath",
          "type": "string"
        },
        {
          "internalType": "uint256",
          "name": "timestamp",
          "type": "uint256"
        },
        {
          "internalType": "bool",
          "name": "successful",
          "type": "bool"
        },
        {
          "internalType": "bytes32",
          "name": "txHash",
          "type": "bytes32"
        }
      ],
      "stateMutability": "view",
      "type": "function"
    },
    {
      "inputs": [
        {
          "internalType": "address",
          "name": "newOwner",
          "type": "address"
        }
      ],
      "name": "transferOwnership",
      "outputs": [],
      "stateMutability": "nonpayable",
      "type": "function"
    },
    {
      "inputs": [],
      "name": "unpause",
      "outputs": [],
      "stateMutability": "nonpayable",
      "type": "function"
    },
    {
      "inputs": [
        {
          "internalType": "uint256",
          "name": "_minProfitBasisPoints",
          "type": "uint256"
        },
        {
          "internalType": "uint256",
          "name": "_maxSlippageBasisPoints",
          "type": "uint256"
        },
        {
          "internalType": "uint256",
          "name": "_maxGasPrice",
          "type": "uint256"
        }
      ],
      "name": "updateConfig",
      "outputs": [],
      "stateMutability": "nonpayable",
      "type": "function"
    },
    {
      "inputs": [
        {
          "internalType": "uint256",
          "name": "amount",
          "type": "uint256"
        }
      ],
      "name": "withdrawETH",
      "outputs": [],
      "stateMutability": "nonpayable",
      "type": "function"
    },
    {
      "inputs": [
        {
          "internalType": "address",
          "name": "token",
          "type": "address"
        },
        {
          "internalType": "uint256",
          "name": "amount",
          "type": "uint256"
        }
      ],
      "name": "withdrawToken",
      "outputs": [],
      "stateMutability": "nonpayable",
      "type": "function"
    },
    {
      "stateMutability": "payable",
      "type": "receive"
    }
  ],
  "bytecode": "0x60c0806040523462000170576004602062002ef4803803809162000024828762000175565b85396001600160a01b03938491620000409190810190620001af565b16806080526040519283809263026b1d5f60e01b82525afa8015620001645782916000916200012f575b501660a05260016000553315620001165760018054336001600160a01b03198216811790925560405192167f8be0079c531659141344cd1fd0a4f28419497f9722a3daafe3b4186f6b6457e0600080a3603260025561012c600355640ba43b74006004556000600555600060065560006007556000600855612d239081620001d1823960805181611f99015260a051818181610e8701528181610fa3015281816114ea0152611a6c0152f35b604051631e4fbdf760e01b815260006004820152602490fd5b62000155915060203d81116200015c575b6200014c818362000175565b810190620001af565b386200006a565b503d62000140565b6040513d6000823e3d90fd5b600080fd5b601f909101601f19168101906001600160401b038211908210176200019957604052565b634e487b7160e01b600052604160045260246000fd5b908160209103126200017057516001600160a01b038116810362000170579056fe608080604052600436101561001a575b50361561001857005b005b600090813560e01c9081630542975c14611f855750806305785ad414611f6a578063075f631d14611efd5780631b11d0ff14611497578063331f566e146114795780633667fc16146113f75780633de39c11146113d95780633f4ba83a1461136657806341c64a2f1461133757806349acbc4d146113195780634c2458a8146112f65780634eaa6001146112975780635b0c5dbd146111e35780635c975abb146111bd578063697659f214611184578063715018a61461112757806373ad494614610fd25780637535d24614610f8d5780637c1d953914610e1e5780638456cb5914610dbb5780638600151914610b1b5780638da5cb5b14610d925780639e281a9814610c465780639fbefb2614610c28578063a0b2eefe14610b68578063a82ed9ec14610b39578063a9a4cbcc14610b1b578063ae58c206146106ab578063bc1638461461067c578063c3f909d41461062b578063c63877eb146103ce578063d6b735b5146103b0578063e275c99714610392578063e922c75c14610359578063f14210a61461026a578063f2fde38b146101da5763fc2139960361000f57346101d757806003193601126101d7576020600754604051908152f35b80fd5b50346101d75760203660031901126101d7576101f46120e1565b6101fc6122d5565b6001600160a01b0390811690811561025157600154826bffffffffffffffffffffffff60a01b821617600155167f8be0079c531659141344cd1fd0a4f28419497f9722a3daafe3b4186f6b6457e0600080a380f35b604051631e4fbdf760e01b815260048101849052602490fd5b50346101d75760203660031901126101d7576004356102876122d5565b61028f612322565b47811161031457808291156102a48115612c65565b828080808560018060a01b0395866001541690839061030b575bf1156103005760407fc47d27fd39a471117fc0e9b9713ab14c3b4cafb5eeb0aae4177d2817244d5d259160015416928151908152426020820152a36001815580f35b6040513d84823e3d90fd5b506108fc6102be565b60405162461bcd60e51b815260206004820152601860248201527f496e73756666696369656e74204554482062616c616e636500000000000000006044820152606490fd5b50346101d75760203660031901126101d7576020906040906001600160a01b036103816120e1565b168152600a83522054604051908152f35b50346101d757806003193601126101d7576020600654604051908152f35b50346101d757806003193601126101d7576020600254604051908152f35b50346101d75760208060031936011261062757600c546004358082111561061d579291925b6103fc816122be565b9161040a604051938461204b565b818352601f19610419836122be565b01845b8181106105cb5750506000198101908111845b8381106104fd575050505060405191838301848452825180915260408401948060408360051b870101940192955b82871061046a5785850386f35b909192938280600192603f19898203018552875190848060a01b038083511682528383015116838201526040820151604082015260608083015190820152608080830151908201526104cc60a080840151906101208091850152830190612299565b9160c0808201519083015260e0810151151560e083015261010080910151910152960192019601959291909261045d565b819695966105b7578061051b6105166105af9386612382565b612168565b5060086040519161052b83611fc8565b80546001600160a01b0390811684526001820154168a84015260028101546040840152600381015460608401526004810154608084015261056e600582016121f3565b60a0840152600681015460c084015260ff600782015416151560e0840152015461010082015261059e828861252e565b526105a9818761252e565b50612bcb565b95949561042f565b634e487b7160e01b87526011600452602487fd5b958095966040516105db81611fc8565b88815288838201528860408201526060898183015289608083015260a08201528860c08201528860e0820152886101008201528282880101520195949561041c565b50809291926103f3565b5080fd5b50346101d757806003193601126101d75760e0600254600354600454600654600754906005549260085494604051968752602087015260408601526060850152608084015260a083015260c0820152f35b50346101d757806003193601126101d757602060405173ba12222222228d8ba445958a75a0704d566bf2c88152f35b50346101d757600319602036820112610afe576001600160401b0360043511610afe5760c09060043536030112610afe57604051906106e982611ffa565b6106f76004356004016120f7565b82526107076024600435016120f7565b9060208301918252604460043501356040840152606460043501356001600160401b038111610afe576004350136602382011215610afe5760048101359061074e826122be565b9161075c604051938461204b565b8083526024602084019160051b83010191368311610afe57602401905b828210610b0357505050606084015260846004350135906001600160401b038211610afe573660238360043501011215610afe576004828135010135916107bf836122be565b926107cd604051948561204b565b80845260208401913660248360051b8360043501010111610afe576024816004350101925b60248360051b836004350101018410610ab657505050506080840191825260a084019260a460043501358452303303610a7d5760018060a01b039261085f848751168584511660408901518761084b60608c0151612511565b5116916108588651612511565b5193612562565b908115610a44578461088c93511691858851166108588761088360608c015161251e565b5116935161251e565b6040850151811115610a075760408501516108a691612382565b925183106109c257612710908184029184830414841517156109ae575060408401516108d191612542565b60025411610971576024610906826108f760606108fe610951966108f7838b0151612511565b5116612adf565b97015161251e565b9360405194816109208793518092602080870191016120be565b820163010169f160e51b602082015261094282518093602087850191016120be565b0103600481018552018361204b565b61096d6040519283928352604060208401526040830190612299565b0390f35b60405162461bcd60e51b815260206004820152601560248201527450726f666974206d617267696e20746f6f206c6f7760581b6044820152606490fd5b634e487b7160e01b81526011600452602490fd5b60405162461bcd60e51b815260206004820152601e60248201527f50726f6669742062656c6f77206d696e696d756d207468726573686f6c6400006044820152606490fd5b60405162461bcd60e51b81526020600482015260156024820152744e6f2070726f666974206f70706f7274756e69747960581b6044820152606490fd5b60405162461bcd60e51b8152602060048201526011602482015270119a5c9cdd081cddd85c0819985a5b1959607a1b6044820152606490fd5b60405162461bcd60e51b815260206004820152601160248201527024b73a32b93730b610333ab731ba34b7b760791b6044820152606490fd5b83356001600160401b038111610afe578260043501019036604383011215610afe5760208091610af160249436906044878201359101612087565b81520194019390506107f2565b600080fd5b60208091610b10846120f7565b815201910190610779565b50346101d757806003193601126101d7576020600554604051908152f35b50346101d757806003193601126101d7576020604051734752ba5dbc23f44d87826276bf6fd6b1c372ad248152f35b50346101d75760203660031901126101d757610b826120e1565b610b8a6122d5565b6001600160a01b03908116610ba0811515612c21565b6040516370a0823160e01b815230600482015290602082602481845afa918215610c1d578492610bea575b5081610bd5578380f35b610be3926001541690612cb1565b3880808380f35b9091506020813d8211610c15575b81610c056020938361204b565b81010312610afe57519038610bcb565b3d9150610bf8565b6040513d86823e3d90fd5b50346101d757806003193601126101d7576020600854604051908152f35b50346101d75760403660031901126101d757610c606120e1565b60243590610c6c6122d5565b610c74612322565b6001600160a01b0390811691610c8b831515612c21565b610c96811515612c65565b6040516370a0823160e01b8152306004820152602092908381602481885afa908115610d87578691610d5a575b508211610d15578181610cfe7fc47d27fd39a471117fc0e9b9713ab14c3b4cafb5eeb0aae4177d2817244d5d25946040946001541688612cb1565b600154169382519182524290820152a36001815580f35b60405162461bcd60e51b815260048101849052601a60248201527f496e73756666696369656e7420746f6b656e2062616c616e63650000000000006044820152606490fd5b90508381813d8311610d80575b610d71818361204b565b81010312610afe575138610cc3565b503d610d67565b6040513d88823e3d90fd5b50346101d757806003193601126101d7576001546040516001600160a01b039091168152602090f35b50346101d757806003193601126101d757610dd46122d5565b610ddc612301565b6001805460ff60a01b1916600160a01b1790556040513381527f62e78cea01bee320cd4e420270b5ea74000d11b0c9f74754ebdbfc544b05a25890602090a180f35b50346101d75760603660031901126101d757610e386120e1565b6001600160401b03604435818111610f8957610e5890369060040161210b565b9290610e626122d5565b610e6a612322565b610e72612301565b6004543a11610f4f5784916001600160a01b037f0000000000000000000000000000000000000000000000000000000000000000811691823b15610f4b5760c4859188604051998a97889687946310ac2ddf60e21b8652306004870152166024850152602435604485015260a060648501528160a48501528484013783838284010152836084830152601f801991011681010301925af18015610f4057610f1c575b826001815580f35b8111610f2c576040523880610f14565b634e487b7160e01b82526041600452602482fd5b6040513d85823e3d90fd5b8480fd5b60405162461bcd60e51b815260206004820152601260248201527108ec2e640e0e4d2c6ca40e8dede40d0d2ced60731b6044820152606490fd5b8380fd5b50346101d757806003193601126101d7576040517f00000000000000000000000000000000000000000000000000000000000000006001600160a01b03168152602090f35b50346101d75760603660031901126101d757604435602435600435610ff56122d5565b8015158061111b575b156110e157811515806110d5575b1561109957821561105c577f6d05db271e19f930af71c4765de54ef86294762644c20f4d6fd2609d057d3c7b9260609282600255806003558160045560405192835260208301526040820152a180f35b60405162461bcd60e51b8152602060048201526015602482015274496e76616c6964206d61782067617320707269636560581b6044820152606490fd5b60405162461bcd60e51b8152602060048201526014602482015273496e76616c6964206d617820736c69707061676560601b6044820152606490fd5b506103e882111561100c565b60405162461bcd60e51b8152602060048201526012602482015271125b9d985b1a59081b5a5b881c1c9bd99a5d60721b6044820152606490fd5b506103e8811115610ffe565b50346101d757806003193601126101d7576111406122d5565b600180546001600160a01b0319811690915581906001600160a01b03167f8be0079c531659141344cd1fd0a4f28419497f9722a3daafe3b4186f6b6457e08280a380f35b50346101d75760203660031901126101d7576020906040906001600160a01b036111ac6120e1565b168152600983522054604051908152f35b50346101d757806003193601126101d757602060ff60015460a01c166040519015158152f35b50346101d75760203660031901126101d757600435600c548110156106275761120b90612168565b5060018060a01b038082541690600183015416916002810154600382015491611280600482015461123e600584016121f3565b90600684015495600860ff60078701541695015495604051998a998a5260208a01526040890152606088015260808701526101208060a0880152860190612299565b9260c0850152151560e08401526101008301520390f35b50346101d757806003193601126101d7576112b06122d5565b804780159081156112bf575050f35b82809291819260018060a01b03600154169083906112ed575bf1156112e15780f35b604051903d90823e3d90fd5b506108fc6112d8565b50346101d757806003193601126101d7576020611311612c0c565b604051908152f35b50346101d757806003193601126101d7576020600c54604051908152f35b50346101d757806003193601126101d7576020604051732626664c2603336e57b271c5c0b26f421741e4818152f35b50346101d757806003193601126101d75761137f6122d5565b60015460ff8160a01c16156113c75760ff60a01b19166001556040513381527f5db9ee0a495bf2e6ff9c91a7834c1ba4fdd244a5e8aa4e537bd38aeae4b073aa90602090a180f35b604051638dfc202b60e01b8152600490fd5b50346101d757806003193601126101d7576020600454604051908152f35b50346101d75760a03660031901126101d7576114116120e1565b506024356001600160a01b038116036101d7576001600160401b0360643581811161147557611444903690600401612138565b50506084359081116106275761145e903690600401612138565b505060408051600181526064604435046020820152f35b8280fd5b50346101d757806003193601126101d7576020600354604051908152f35b50346101d75760a03660031901126101d7576114b16120e1565b6064356001600160a01b0381169190829003611475576084356001600160401b038111610f89576114e690369060040161210b565b90927f00000000000000000000000000000000000000000000000000000000000000006001600160a01b03163303611eb8573003611e73575a926020818381010312610f4b578035906001600160401b038211611e6f5760c08282018483010312611e6f576040519261155884611ffa565b6115638383016120f7565b84526115736020848401016120f7565b602085015281830160408181013590860152606001356001600160401b038111611e6b57818301601f8286860101011215611e6b578084840101356115b7816122be565b916115c5604051938461204b565b818352602083019084860160208460051b838a8a0101010111611db457906020828888010101915b60208460051b828a8a010101018310611e50575050505060608501526001600160401b036080848401013511611e4c57818101838301608081013501601f011215611e4c578183016080810135013590611646826122be565b91611654604051938461204b565b808352602083019180850160208360051b6080898901013589890101010111611e4857848601608081013501602001925b858701608081013501600584901b016020018410611ded57505050509060a09291608085015201013560a082015283906040516116c181612015565b8581526040805163572c610360e11b815260206004820181905284516001600160a01b03908116602484015290850151166044820152908301516064820152606083015160c06084830152919391879082906117219060e4830190612345565b6080860151906023198382030160a4840152815180825260208201916020808360051b83010194019286915b838310611dbc575050505050819060a087015160c4830152038183305af1908188918993611d23575b50611d1457505061178a86955b5a90612382565b82519360406020850151940151916040514260208201526bffffffffffffffffffffffff19808860601b1660408301528660601b1660548201528360688201523360601b6088820152607c81528060a08101106001600160401b0360a083011117611d005760a081016040528051602082012061180960a08301611fc8565b6001600160a01b0388811660a0840152871660c083015260e08201859052610100820186905261012082018390526101408201849052426101608301528915156101808301526101a0820152600c5468010000000000000000811015611cec578060016118799201600c55612168565b919091611cd85760a081015182546001600160a01b039182166001600160a01b031991821617845560c083015160018501805491909316911617905560e08101516002830155610100810151600383015561012081015160048301556101408101518051906001600160401b038211611cc4576118f960058501546121b9565b8d601f8211611c7d575b9050506020908d601f8411600114611be15793837fed7eba35acf844a173245a4fd7397564c70edbcd3764df0a10e30712c021e59f9a999896946008946101a0946119d59a9892611bd6575b50508160011b916000199060031b1c19161760058501555b610160810151600685015560078401610180820151151560ff80198354169116179055015191015561199a600654612bcb565b600655896119aa826008546123a5565b600855611b40575b60405194859485526020850152604084015260a0606084015260a0830190612299565b4260808301526001600160a01b0394851695909416930390a36044359160243590611a0084836123a5565b6040516370a0823160e01b81523060048201526001600160a01b039094169590936020816024818a5afa9182156112e15790818693611b08575b505010611ab8577fe7055bb7f757aae8cfbf6ea2247e26371914425f5500c1d720f0746ae1ff880393606093611a9a907f00000000000000000000000000000000000000000000000000000000000000006001600160a01b0316886123b2565b604051928352602083015215156040820152a2602060405160018152f35b60405162461bcd60e51b815260206004820152602260248201527f496e73756666696369656e742062616c616e636520746f207265706179206c6f60448201526130b760f11b6064820152608490fd5b915091506020823d602011611b38575b81611b256020938361204b565b810103126101d757508390513880611a3a565b3d9150611b18565b611b4b600754612bcb565b600755611b5a856005546123a5565b6005556001600160a01b0388168b52600960205260408b208054611b7f9087906123a5565b90556001600160a01b0388168b52600a60205260408b208054611ba39086906123a5565b90556040516020818451611bba81838589016120be565b8101600b815203019020611bcf8682546123a5565b90556119b2565b01519050388061194f565b919060058601835260208320925b601f1985168110611c655750936001846008946101a0946119d59a987fed7eba35acf844a173245a4fd7397564c70edbcd3764df0a10e30712c021e59f9e9d9c9a98601f19811610611c4c575b505050811b016005850155611967565b015160001960f88460031b161c19169055388080611c3c565b91926020600181928685015181550194019201611bef565b60209060058701815220601f840160051c810160208510611cbd575b8f5b601f840160051c83018210611cb257915050611903565b81556001018f611c9b565b5080611c99565b634e487b7160e01b8d52604160045260248dfd5b634e487b7160e01b8b5260048b905260248bfd5b634e487b7160e01b8b52604160045260248bfd5b634e487b7160e01b8a52604160045260248afd5b9150925061178a600195611783565b915091503d908189823e611d37828261204b565b6040818381010312611db8578051906020810151906001600160401b038211611db457838101601f838301011215611db4578181015190611d778261206c565b94611d85604051968761204b565b8286528101602083858401010111611db0576020611da8938187019201016120be565b909138611776565b8b80fd5b8a80fd5b8880fd5b92955092955092602080611ddc600193601f198682030187528951612299565b9701930193018c959387959261174d565b8335906001600160401b038211611db0578683018888016080810135018301603f011215611db05760209182918291611e3b908a8701908b8d01608081013501018085013590604001612087565b8152019401939050611685565b8980fd5b8680fd5b6020808093611e5e866120f7565b81520193019291506115ed565b8780fd5b8580fd5b60405162461bcd60e51b815260206004820152601f60248201527f496e69746961746f72206d757374206265207468697320636f6e7472616374006044820152606490fd5b60405162461bcd60e51b815260206004820152601860248201527f43616c6c6572206d757374206265204141564520706f6f6c00000000000000006044820152606490fd5b50346101d75760203660031901126101d757600435906001600160401b0382116101d757366023830112156101d7576020611f5781611f4436600487013560248801612087565b81604051938285809451938492016120be565b8101600b81520301902054604051908152f35b50346101d757806003193601126101d7576020611311612bda565b9050346106275781600319360112610627577f00000000000000000000000000000000000000000000000000000000000000006001600160a01b03168152602090f35b61012081019081106001600160401b03821117611fe457604052565b634e487b7160e01b600052604160045260246000fd5b60c081019081106001600160401b03821117611fe457604052565b602081019081106001600160401b03821117611fe457604052565b604081019081106001600160401b03821117611fe457604052565b90601f801991011681019081106001600160401b03821117611fe457604052565b6001600160401b038111611fe457601f01601f191660200190565b9291926120938261206c565b916120a1604051938461204b565b829481845281830111610afe578281602093846000960137010152565b60005b8381106120d15750506000910152565b81810151838201526020016120c1565b600435906001600160a01b0382168203610afe57565b35906001600160a01b0382168203610afe57565b9181601f84011215610afe578235916001600160401b038311610afe5760208381860195010111610afe57565b9181601f84011215610afe578235916001600160401b038311610afe576020808501948460051b010111610afe57565b600c548110156121a357600990600c600052027fdf6966c971051c3d54ec59162606531493a51404a002842f56009d7e5cf4a8c70190600090565b634e487b7160e01b600052603260045260246000fd5b90600182811c921680156121e9575b60208310146121d357565b634e487b7160e01b600052602260045260246000fd5b91607f16916121c8565b9060405191826000825492612207846121b9565b9081845260019485811690816000146122765750600114612233575b50506122319250038361204b565b565b9093915060005260209081600020936000915b81831061225e57505061223193508201013880612223565b85548884018501529485019487945091830191612246565b91505061223194506020925060ff191682840152151560051b8201013880612223565b906020916122b2815180928185528580860191016120be565b601f01601f1916010190565b6001600160401b038111611fe45760051b60200190565b6001546001600160a01b031633036122e957565b60405163118cdaa760e01b8152336004820152602490fd5b60ff60015460a01c1661231057565b60405163d93c066560e01b8152600490fd5b600260005414612333576002600055565b604051633ee5aeb560e01b8152600490fd5b90815180825260208080930193019160005b828110612365575050505090565b83516001600160a01b031685529381019392810192600101612357565b9190820391821161238f57565b634e487b7160e01b600052601160045260246000fd5b9190820180921161238f57565b60405163095ea7b360e01b602082018181526001600160a01b0385166024840152604480840196909652948252949390926123ee60648561204b565b60206000809386519082875af182513d82612484575b505015612414575b505050509050565b60405160208101969096526001600160a01b031660248601526044808601829052855260808501906001600160401b038211868310176124705750612466939461246191604052826124a9565b6124a9565b803880808061240c565b634e487b7160e01b81526041600452602490fd5b9091506124a157506001600160a01b0383163b15155b3880612404565b60011461249a565b906000602091828151910182855af115612505576000513d6124fc57506001600160a01b0381163b155b6124da5750565b604051635274afe760e01b81526001600160a01b039091166004820152602490fd5b600114156124d3565b6040513d6000823e3d90fd5b8051156121a35760200190565b8051600110156121a35760400190565b80518210156121a35760209160051b010190565b811561254c570490565b634e487b7160e01b600052601260045260246000fd5b9194939290916001600160a01b03169061257d8682846123b2565b734752ba5dbc23f44d87826276bf6fd6b1c372ad24926001600160a01b0391909116919083830361276b57505050815182016020908184818301920312610afe57818401516001600160401b0394858211610afe57019281603f85011215610afe5782840151916125ed836122be565b926040956125fd8751958661204b565b818552868686019260051b820101928311610afe578601905b82821061274c5750505061012c42019687421161238f57612665918551809481936338ed173960e01b835260048301528160009b8c96879384602485015260a0604485015260a4840190612345565b90306064840152608483015203925af19384156127425786946126b9575b5050505080519060001982019182116126a5576126a192935061252e565b5190565b634e487b7160e01b84526011600452602484fd5b90919293503d8087843e6126cd818461204b565b8201918381840312611e4c578051918211611e4c570181601f82011215611e6f578051906127066126fd836122be565b9551958661204b565b818552838086019260051b820101928311611e4c578301905b828210612733575050505038808080612683565b8151815290830190830161271f565b83513d88823e3d90fd5b81516001600160a01b0381168103610afe578152908501908501612616565b90919394959250732626664c2603336e57b271c5c0b26f421741e481938481146000146128d157506020948581805181010312610afe578501519362ffffff8516809503610afe5761012c420180421161238f57604051906101008201928284106001600160401b03851117611fe45760409384529482526001600160a01b0393841682890190815282840197885230606084019081526080840192835260a08401978852600060c0850181815260e08601828152965163414bf38960e01b8152955188166004870152925187166024860152985162ffffff166044850152518516606484015290516084830152945160a4820152935160c4850152511660e48301529091908390839061010490829085905af19283156128c4578193612893575b50505090565b9091809350813d83116128bd575b6128ab818361204b565b810103126101d757505138808061288d565b503d6128a1565b50604051903d90823e3d90fd5b91949093509073ba12222222228d8ba445958a75a0704d566bf2c803612aa857602081805181010312610afe57602001519160409384519361291285611ffa565b845260006020850152848401526001600160a01b031660608301526080820152815161293d81612015565b6000815260a0820152815190608082018281106001600160401b03821117611fe45783523082526000602083015230838301526000606083015261012c4201421161238f5760a06020916129fb936060865195869485946352bbbe2960e01b865260e06004870152805160e487015260ff8882015116610104870152600180831b038a82015116610124870152600180831b0384820151166101448701526080810151610164870152015160c06101848601526101a4850190612299565b82516001600160a01b03908116602486015286840151151560448601528884015116606485015291015115156084830152600060a483018190524261012c0160c484015291900390829073ba12222222228d8ba445958a75a0704d566bf2c85af1918215612a9e5750600091612a6f575090565b90506020813d602011612a96575b81612a8a6020938361204b565b81010312610afe575190565b3d9150612a7d565b513d6000823e3d90fd5b60405162461bcd60e51b815260206004820152600f60248201526e0aadce6eae0e0dee4e8cac840888ab608b1b6044820152606490fd5b6001600160a01b0316734752ba5dbc23f44d87826276bf6fd6b1c372ad248114612ba557732626664c2603336e57b271c5c0b26f421741e4818114612b7f5773ba12222222228d8ba445958a75a0704d566bf2c814612b5b57604051612b4481612030565b60078152662ab735b737bbb760c91b602082015290565b604051612b6781612030565b60088152672130b630b731b2b960c11b602082015290565b50604051612b8c81612030565b6009815268556e6973776170563360b81b602082015290565b50604051612bb281612030565b60098152682ab734b9bbb0b82b1960b91b602082015290565b600019811461238f5760010190565b6006548015612c06576007549060648202918083046064149015171561238f57612c0391612542565b90565b50600090565b6006548015612c0657612c0390600854612542565b15612c2857565b60405162461bcd60e51b8152602060048201526015602482015274496e76616c696420746f6b656e206164647265737360581b6044820152606490fd5b15612c6c57565b60405162461bcd60e51b815260206004820152601760248201527f416d6f756e74206d75737420626520706f7369746976650000000000000000006044820152606490fd5b60405163a9059cbb60e01b60208201526001600160a01b039290921660248301526044808301939093529181526122319161246160648361204b56fea2646970667358221220a908f470c88b29ded7a05cad8302fa61c802c0e2f1f1f9f9982c1eacbfeb552e64736f6c63430008140033",
  "linkReferences": {},
  "deployedLinkReferences": {}
}