{
  "_format": "hh-sol-artifact-1",
  "contractName": "AtomArbitrage",
  "sourceName": "contracts/ArbitrageBot.sol",
  "abi": [
    {
      "inputs": [
        {
          "internalType": "address",
          "name": "_addressProvider",
          "type": "address"
        }
      ],
      "stateMutability": "nonpayable",
      "type": "constructor"
    },
    {
      "inputs": [],
      "name": "EnforcedPause",
      "type": "error"
    },
    {
      "inputs": [],
      "name": "ExpectedPause",
      "type": "error"
    },
    {
      "inputs": [
        {
          "internalType": "address",
          "name": "owner",
          "type": "address"
        }
      ],
      "name": "OwnableInvalidOwner",
      "type": "error"
    },
    {
      "inputs": [
        {
          "internalType": "address",
          "name": "account",
          "type": "address"
        }
      ],
      "name": "OwnableUnauthorizedAccount",
      "type": "error"
    },
    {
      "inputs": [],
      "name": "ReentrancyGuardReentrantCall",
      "type": "error"
    },
    {
      "inputs": [
        {
          "internalType": "address",
          "name": "token",
          "type": "address"
        }
      ],
      "name": "SafeERC20FailedOperation",
      "type": "error"
    },
    {
      "anonymous": false,
      "inputs": [
        {
          "indexed": true,
          "internalType": "address",
          "name": "tokenIn",
          "type": "address"
        },
        {
          "indexed": true,
          "internalType": "address",
          "name": "tokenOut",
          "type": "address"
        },
        {
          "indexed": false,
          "internalType": "uint256",
          "name": "amountIn",
          "type": "uint256"
        },
        {
          "indexed": false,
          "internalType": "uint256",
          "name": "profit",
          "type": "uint256"
        },
        {
          "indexed": false,
          "internalType": "uint256",
          "name": "gasUsed",
          "type": "uint256"
        },
        {
          "indexed": false,
          "internalType": "string",
          "name": "dexPath",
          "type": "string"
        },
        {
          "indexed": false,
          "internalType": "uint256",
          "name": "timestamp",
          "type": "uint256"
        }
      ],
      "name": "ArbitrageExecuted",
      "type": "event"
    },
    {
      "anonymous": false,
      "inputs": [
        {
          "indexed": false,
          "internalType": "uint256",
          "name": "minProfitBasisPoints",
          "type": "uint256"
        },
        {
          "indexed": false,
          "internalType": "uint256",
          "name": "maxSlippageBasisPoints",
          "type": "uint256"
        },
        {
          "indexed": false,
          "internalType": "uint256",
          "name": "maxGasPrice",
          "type": "uint256"
        }
      ],
      "name": "ConfigUpdated",
      "type": "event"
    },
    {
      "anonymous": false,
      "inputs": [
        {
          "indexed": true,
          "internalType": "address",
          "name": "asset",
          "type": "address"
        },
        {
          "indexed": false,
          "internalType": "uint256",
          "name": "amount",
          "type": "uint256"
        },
        {
          "indexed": false,
          "internalType": "uint256",
          "name": "premium",
          "type": "uint256"
        },
        {
          "indexed": false,
          "internalType": "bool",
          "name": "success",
          "type": "bool"
        }
      ],
      "name": "FlashLoanExecuted",
      "type": "event"
    },
    {
      "anonymous": false,
      "inputs": [
        {
          "indexed": false,
          "internalType": "address",
          "name": "tokenA",
          "type": "address"
        },
        {
          "indexed": false,
          "internalType": "address",
          "name": "tokenB",
          "type": "address"
        },
        {
          "indexed": false,
          "internalType": "uint256",
          "name": "profitEstimate",
          "type": "uint256"
        },
        {
          "indexed": false,
          "internalType": "string",
          "name": "dexPair",
          "type": "string"
        },
        {
          "indexed": false,
          "internalType": "uint256",
          "name": "timestamp",
          "type": "uint256"
        }
      ],
      "name": "OpportunityDetected",
      "type": "event"
    },
    {
      "anonymous": false,
      "inputs": [
        {
          "indexed": true,
          "internalType": "address",
          "name": "previousOwner",
          "type": "address"
        },
        {
          "indexed": true,
          "internalType": "address",
          "name": "newOwner",
          "type": "address"
        }
      ],
      "name": "OwnershipTransferred",
      "type": "event"
    },
    {
      "anonymous": false,
      "inputs": [
        {
          "indexed": false,
          "internalType": "address",
          "name": "account",
          "type": "address"
        }
      ],
      "name": "Paused",
      "type": "event"
    },
    {
      "anonymous": false,
      "inputs": [
        {
          "indexed": true,
          "internalType": "address",
          "name": "owner",
          "type": "address"
        },
        {
          "indexed": true,
          "internalType": "address",
          "name": "token",
          "type": "address"
        },
        {
          "indexed": false,
          "internalType": "uint256",
          "name": "amount",
          "type": "uint256"
        },
        {
          "indexed": false,
          "internalType": "uint256",
          "name": "timestamp",
          "type": "uint256"
        }
      ],
      "name": "ProfitWithdrawn",
      "type": "event"
    },
    {
      "anonymous": false,
      "inputs": [
        {
          "indexed": false,
          "internalType": "address",
          "name": "account",
          "type": "address"
        }
      ],
      "name": "Unpaused",
      "type": "event"
    },
    {
      "stateMutability": "payable",
      "type": "fallback"
    },
    {
      "inputs": [],
      "name": "ADDRESSES_PROVIDER",
      "outputs": [
        {
          "internalType": "contract IPoolAddressesProvider",
          "name": "",
          "type": "address"
        }
      ],
      "stateMutability": "view",
      "type": "function"
    },
    {
      "inputs": [],
      "name": "BALANCER_VAULT",
      "outputs": [
        {
          "internalType": "contract IBalancerVault",
          "name": "",
          "type": "address"
        }
      ],
      "stateMutability": "view",
      "type": "function"
    },
    {
      "inputs": [],
      "name": "POOL",
      "outputs": [
        {
          "internalType": "contract IPool",
          "name": "",
          "type": "address"
        }
      ],
      "stateMutability": "view",
      "type": "function"
    },
    {
      "inputs": [],
      "name": "UNISWAP_V2_ROUTER",
      "outputs": [
        {
          "internalType": "contract IUniswapV2Router",
          "name": "",
          "type": "address"
        }
      ],
      "stateMutability": "view",
      "type": "function"
    },
    {
      "inputs": [],
      "name": "UNISWAP_V3_ROUTER",
      "outputs": [
        {
          "internalType": "contract IUniswapV3Router",
          "name": "",
          "type": "address"
        }
      ],
      "stateMutability": "view",
      "type": "function"
    },
    {
      "inputs": [
        {
          "components": [
            {
              "internalType": "address",
              "name": "tokenIn",
              "type": "address"
            },
            {
              "internalType": "address",
              "name": "tokenOut",
              "type": "address"
            },
            {
              "internalType": "uint256",
              "name": "amountIn",
              "type": "uint256"
            },
            {
              "internalType": "address[]",
              "name": "dexRouters",
              "type": "address[]"
            },
            {
              "internalType": "bytes[]",
              "name": "swapData",
              "type": "bytes[]"
            },
            {
              "internalType": "uint256",
              "name": "minProfit",
              "type": "uint256"
            }
          ],
          "internalType": "struct AtomArbitrage.ArbitrageParams",
          "name": "params",
          "type": "tuple"
        }
      ],
      "name": "_executeArbitrageLogic",
      "outputs": [
        {
          "internalType": "uint256",
          "name": "profit",
          "type": "uint256"
        },
        {
          "internalType": "string",
          "name": "dexPath",
          "type": "string"
        }
      ],
      "stateMutability": "nonpayable",
      "type": "function"
    },
    {
      "inputs": [
        {
          "internalType": "address",
          "name": "tokenIn",
          "type": "address"
        },
        {
          "internalType": "address",
          "name": "tokenOut",
          "type": "address"
        },
        {
          "internalType": "uint256",
          "name": "amountIn",
          "type": "uint256"
        },
        {
          "internalType": "address[]",
          "name": "dexRouters",
          "type": "address[]"
        },
        {
          "internalType": "bytes[]",
          "name": "swapData",
          "type": "bytes[]"
        }
      ],
      "name": "checkProfitability",
      "outputs": [
        {
          "internalType": "bool",
          "name": "profitable",
          "type": "bool"
        },
        {
          "internalType": "uint256",
          "name": "estimatedProfit",
          "type": "uint256"
        }
      ],
      "stateMutability": "view",
      "type": "function"
    },
    {
      "inputs": [
        {
          "internalType": "string",
          "name": "",
          "type": "string"
        }
      ],
      "name": "dexPairProfits",
      "outputs": [
        {
          "internalType": "uint256",
          "name": "",
          "type": "uint256"
        }
      ],
      "stateMutability": "view",
      "type": "function"
    },
    {
      "inputs": [],
      "name": "emergencyETHRecovery",
      "outputs": [],
      "stateMutability": "nonpayable",
      "type": "function"
    },
    {
      "inputs": [
        {
          "internalType": "address",
          "name": "token",
          "type": "address"
        }
      ],
      "name": "emergencyTokenRecovery",
      "outputs": [],
      "stateMutability": "nonpayable",
      "type": "function"
    },
    {
      "inputs": [
        {
          "internalType": "address",
          "name": "asset",
          "type": "address"
        },
        {
          "internalType": "uint256",
          "name": "amount",
          "type": "uint256"
        },
        {
          "internalType": "bytes",
          "name": "params",
          "type": "bytes"
        }
      ],
      "name": "executeArbitrage",
      "outputs": [],
      "stateMutability": "nonpayable",
      "type": "function"
    },
    {
      "inputs": [
        {
          "internalType": "address",
          "name": "asset",
          "type": "address"
        },
        {
          "internalType": "uint256",
          "name": "amount",
          "type": "uint256"
        },
        {
          "internalType": "uint256",
          "name": "premium",
          "type": "uint256"
        },
        {
          "internalType": "address",
          "name": "initiator",
          "type": "address"
        },
        {
          "internalType": "bytes",
          "name": "params",
          "type": "bytes"
        }
      ],
      "name": "executeOperation",
      "outputs": [
        {
          "internalType": "bool",
          "name": "",
          "type": "bool"
        }
      ],
      "stateMutability": "nonpayable",
      "type": "function"
    },
    {
      "inputs": [],
      "name": "getAverageGasUsed",
      "outputs": [
        {
          "internalType": "uint256",
          "name": "",
          "type": "uint256"
        }
      ],
      "stateMutability": "view",
      "type": "function"
    },
    {
      "inputs": [],
      "name": "getConfig",
      "outputs": [
        {
          "internalType": "uint256",
          "name": "_minProfitBasisPoints",
          "type": "uint256"
        },
        {
          "internalType": "uint256",
          "name": "_maxSlippageBasisPoints",
          "type": "uint256"
        },
        {
          "internalType": "uint256",
          "name": "_maxGasPrice",
          "type": "uint256"
        },
        {
          "internalType": "uint256",
          "name": "_totalTrades",
          "type": "uint256"
        },
        {
          "internalType": "uint256",
          "name": "_successfulTrades",
          "type": "uint256"
        },
        {
          "internalType": "uint256",
          "name": "_totalProfit",
          "type": "uint256"
        },
        {
          "internalType": "uint256",
          "name": "_totalGasUsed",
          "type": "uint256"
        }
      ],
      "stateMutability": "view",
      "type": "function"
    },
    {
      "inputs": [
        {
          "internalType": "uint256",
          "name": "count",
          "type": "uint256"
        }
      ],
      "name": "getRecentTrades",
      "outputs": [
        {
          "components": [
            {
              "internalType": "address",
              "name": "tokenIn",
              "type": "address"
            },
            {
              "internalType": "address",
              "name": "tokenOut",
              "type": "address"
            },
            {
              "internalType": "uint256",
              "name": "amountIn",
              "type": "uint256"
            },
            {
              "internalType": "uint256",
              "name": "profit",
              "type": "uint256"
            },
            {
              "internalType": "uint256",
              "name": "gasUsed",
              "type": "uint256"
            },
            {
              "internalType": "string",
              "name": "dexPath",
              "type": "string"
            },
            {
              "internalType": "uint256",
              "name": "timestamp",
              "type": "uint256"
            },
            {
              "internalType": "bool",
              "name": "successful",
              "type": "bool"
            },
            {
              "internalType": "bytes32",
              "name": "txHash",
              "type": "bytes32"
            }
          ],
          "internalType": "struct AtomArbitrage.Trade[]",
          "name": "",
          "type": "tuple[]"
        }
      ],
      "stateMutability": "view",
      "type": "function"
    },
    {
      "inputs": [],
      "name": "getSuccessRate",
      "outputs": [
        {
          "internalType": "uint256",
          "name": "",
          "type": "uint256"
        }
      ],
      "stateMutability": "view",
      "type": "function"
    },
    {
      "inputs": [],
      "name": "getTotalProfit",
      "outputs": [
        {
          "internalType": "uint256",
          "name": "",
          "type": "uint256"
        }
      ],
      "stateMutability": "view",
      "type": "function"
    },
    {
      "inputs": [],
      "name": "getTradeHistoryCount",
      "outputs": [
        {
          "internalType": "uint256",
          "name": "",
          "type": "uint256"
        }
      ],
      "stateMutability": "view",
      "type": "function"
    },
    {
      "inputs": [],
      "name": "maxGasPrice",
      "outputs": [
        {
          "internalType": "uint256",
          "name": "",
          "type": "uint256"
        }
      ],
      "stateMutability": "view",
      "type": "function"
    },
    {
      "inputs": [],
      "name": "maxSlippageBasisPoints",
      "outputs": [
        {
          "internalType": "uint256",
          "name": "",
          "type": "uint256"
        }
      ],
      "stateMutability": "view",
      "type": "function"
    },
    {
      "inputs": [],
      "name": "minProfitBasisPoints",
      "outputs": [
        {
          "internalType": "uint256",
          "name": "",
          "type": "uint256"
        }
      ],
      "stateMutability": "view",
      "type": "function"
    },
    {
      "inputs": [],
      "name": "owner",
      "outputs": [
        {
          "internalType": "address",
          "name": "",
          "type": "address"
        }
      ],
      "stateMutability": "view",
      "type": "function"
    },
    {
      "inputs": [],
      "name": "pause",
      "outputs": [],
      "stateMutability": "nonpayable",
      "type": "function"
    },
    {
      "inputs": [],
      "name": "paused",
      "outputs": [
        {
          "internalType": "bool",
          "name": "",
          "type": "bool"
        }
      ],
      "stateMutability": "view",
      "type": "function"
    },
    {
      "inputs": [],
      "name": "renounceOwnership",
      "outputs": [],
      "stateMutability": "nonpayable",
      "type": "function"
    },
    {
      "inputs": [],
      "name": "successfulTrades",
      "outputs": [
        {
          "internalType": "uint256",
          "name": "",
          "type": "uint256"
        }
      ],
      "stateMutability": "view",
      "type": "function"
    },
    {
      "inputs": [
        {
          "internalType": "address",
          "name": "",
          "type": "address"
        }
      ],
      "name": "tokenProfits",
      "outputs": [
        {
          "internalType": "uint256",
          "name": "",
          "type": "uint256"
        }
      ],
      "stateMutability": "view",
      "type": "function"
    },
    {
      "inputs": [
        {
          "internalType": "address",
          "name": "",
          "type": "address"
        }
      ],
      "name": "tokenVolume",
      "outputs": [
        {
          "internalType": "uint256",
          "name": "",
          "type": "uint256"
        }
      ],
      "stateMutability": "view",
      "type": "function"
    },
    {
      "inputs": [],
      "name": "totalGasUsed",
      "outputs": [
        {
          "internalType": "uint256",
          "name": "",
          "type": "uint256"
        }
      ],
      "stateMutability": "view",
      "type": "function"
    },
    {
      "inputs": [],
      "name": "totalProfit",
      "outputs": [
        {
          "internalType": "uint256",
          "name": "",
          "type": "uint256"
        }
      ],
      "stateMutability": "view",
      "type": "function"
    },
    {
      "inputs": [],
      "name": "totalTrades",
      "outputs": [
        {
          "internalType": "uint256",
          "name": "",
          "type": "uint256"
        }
      ],
      "stateMutability": "view",
      "type": "function"
    },
    {
      "inputs": [
        {
          "internalType": "uint256",
          "name": "",
          "type": "uint256"
        }
      ],
      "name": "tradeHistory",
      "outputs": [
        {
          "internalType": "address",
          "name": "tokenIn",
          "type": "address"
        },
        {
          "internalType": "address",
          "name": "tokenOut",
          "type": "address"
        },
        {
          "internalType": "uint256",
          "name": "amountIn",
          "type": "uint256"
        },
        {
          "internalType": "uint256",
          "name": "profit",
          "type": "uint256"
        },
        {
          "internalType": "uint256",
          "name": "gasUsed",
          "type": "uint256"
        },
        {
          "internalType": "string",
          "name": "dexPath",
          "type": "string"
        },
        {
          "internalType": "uint256",
          "name": "timestamp",
          "type": "uint256"
        },
        {
          "internalType": "bool",
          "name": "successful",
          "type": "bool"
        },
        {
          "internalType": "bytes32",
          "name": "txHash",
          "type": "bytes32"
        }
      ],
      "stateMutability": "view",
      "type": "function"
    },
    {
      "inputs": [
        {
          "internalType": "address",
          "name": "newOwner",
          "type": "address"
        }
      ],
      "name": "transferOwnership",
      "outputs": [],
      "stateMutability": "nonpayable",
      "type": "function"
    },
    {
      "inputs": [],
      "name": "unpause",
      "outputs": [],
      "stateMutability": "nonpayable",
      "type": "function"
    },
    {
      "inputs": [
        {
          "internalType": "uint256",
          "name": "_minProfitBasisPoints",
          "type": "uint256"
        },
        {
          "internalType": "uint256",
          "name": "_maxSlippageBasisPoints",
          "type": "uint256"
        },
        {
          "internalType": "uint256",
          "name": "_maxGasPrice",
          "type": "uint256"
        }
      ],
      "name": "updateConfig",
      "outputs": [],
      "stateMutability": "nonpayable",
      "type": "function"
    },
    {
      "inputs": [
        {
          "internalType": "uint256",
          "name": "amount",
          "type": "uint256"
        }
      ],
      "name": "withdrawETH",
      "outputs": [],
      "stateMutability": "nonpayable",
      "type": "function"
    },
    {
      "inputs": [
        {
          "internalType": "address",
          "name": "token",
          "type": "address"
        },
        {
          "internalType": "uint256",
          "name": "amount",
          "type": "uint256"
        }
      ],
      "name": "withdrawToken",
      "outputs": [],
      "stateMutability": "nonpayable",
      "type": "function"
    },
    {
      "stateMutability": "payable",
      "type": "receive"
    }
  ],
  "bytecode": "0x60c0806040523462000170576004602062002f50803803809162000024828762000175565b85396001600160a01b03938491620000409190810190620001af565b16806080526040519283809263026b1d5f60e01b82525afa8015620001645782916000916200012f575b501660a05260016000553315620001165760018054336001600160a01b03198216811790925560405192167f8be0079c531659141344cd1fd0a4f28419497f9722a3daafe3b4186f6b6457e0600080a3603260025561012c600355640ba43b74006004556000600555600060065560006007556000600855612d7f9081620001d1823960805181611ff5015260a051818181610ee301528181610fff015281816115460152611ac80152f35b604051631e4fbdf760e01b815260006004820152602490fd5b62000155915060203d81116200015c575b6200014c818362000175565b810190620001af565b386200006a565b503d62000140565b6040513d6000823e3d90fd5b600080fd5b601f909101601f19168101906001600160401b038211908210176200019957604052565b634e487b7160e01b600052604160045260246000fd5b908160209103126200017057516001600160a01b038116810362000170579056fe608080604052600436101561001a575b50361561001857005b005b600090813560e01c9081630542975c14611fe15750806305785ad414611fc6578063075f631d14611f595780631b11d0ff146114f3578063331f566e146114d55780633667fc16146114535780633de39c11146114355780633f4ba83a146113c257806341c64a2f1461139357806349acbc4d146113755780634c2458a8146113525780634eaa6001146112f35780635b0c5dbd1461123f5780635c975abb14611219578063697659f2146111e0578063715018a61461118357806373ad49461461102e5780637535d24614610fe95780637c1d953914610e7a5780638456cb5914610e175780638600151914610b825780638da5cb5b14610dee5780639e281a9814610ca25780639fbefb2614610c84578063a0b2eefe14610bcf578063a82ed9ec14610ba0578063a9a4cbcc14610b82578063ae58c206146106ab578063bc1638461461067c578063c3f909d41461062b578063c63877eb146103ce578063d6b735b5146103b0578063e275c99714610392578063e922c75c14610359578063f14210a61461026a578063f2fde38b146101da5763fc2139960361000f57346101d757806003193601126101d7576020600754604051908152f35b80fd5b50346101d75760203660031901126101d7576101f461213d565b6101fc612331565b6001600160a01b0390811690811561025157600154826bffffffffffffffffffffffff60a01b821617600155167f8be0079c531659141344cd1fd0a4f28419497f9722a3daafe3b4186f6b6457e0600080a380f35b604051631e4fbdf760e01b815260048101849052602490fd5b50346101d75760203660031901126101d757600435610287612331565b61028f61237e565b47811161031457808291156102a48115612cc1565b828080808560018060a01b0395866001541690839061030b575bf1156103005760407fc47d27fd39a471117fc0e9b9713ab14c3b4cafb5eeb0aae4177d2817244d5d259160015416928151908152426020820152a36001815580f35b6040513d84823e3d90fd5b506108fc6102be565b60405162461bcd60e51b815260206004820152601860248201527f496e73756666696369656e74204554482062616c616e636500000000000000006044820152606490fd5b50346101d75760203660031901126101d7576020906040906001600160a01b0361038161213d565b168152600a83522054604051908152f35b50346101d757806003193601126101d7576020600654604051908152f35b50346101d757806003193601126101d7576020600254604051908152f35b50346101d75760208060031936011261062757600c546004358082111561061d579291925b6103fc8161231a565b9161040a60405193846120a7565b818352601f196104198361231a565b01845b8181106105cb5750506000198101908111845b8381106104fd575050505060405191838301848452825180915260408401948060408360051b870101940192955b82871061046a5785850386f35b909192938280600192603f19898203018552875190848060a01b038083511682528383015116838201526040820151604082015260608083015190820152608080830151908201526104cc60a0808401519061012080918501528301906122f5565b9160c0808201519083015260e0810151151560e083015261010080910151910152960192019601959291909261045d565b819695966105b7578061051b6105166105af93866123de565b6121c4565b5060086040519161052b83612024565b80546001600160a01b0390811684526001820154168a84015260028101546040840152600381015460608401526004810154608084015261056e6005820161224f565b60a0840152600681015460c084015260ff600782015416151560e0840152015461010082015261059e828861258a565b526105a9818761258a565b50612c27565b95949561042f565b634e487b7160e01b87526011600452602487fd5b958095966040516105db81612024565b88815288838201528860408201526060898183015289608083015260a08201528860c08201528860e0820152886101008201528282880101520195949561041c565b50809291926103f3565b5080fd5b50346101d757806003193601126101d75760e0600254600354600454600654600754906005549260085494604051968752602087015260408601526060850152608084015260a083015260c0820152f35b50346101d757806003193601126101d757602060405173ba12222222228d8ba445958a75a0704d566bf2c88152f35b50346101d757600319602036820112610ad2576001600160401b0360043511610ad25760c09060043536030112610ad257604051906106e982612056565b6106f7600435600401612153565b8252610707602460043501612153565b9060208301918252604460043501356040840152606460043501356001600160401b038111610ad2576004350136602382011215610ad25760048101359061074e8261231a565b9161075c60405193846120a7565b8083526024602084019160051b83010191368311610ad257602401905b828210610b6a57505050606084015260846004350135906001600160401b038211610ad2573660238360043501011215610ad2576004828135010135916107bf8361231a565b926107cd60405194856120a7565b80845260208401913660248360051b8360043501010111610ad2576024816004350101925b60248360051b836004350101018410610b2257505050506080840191825260a084019260a460043501358452303303610ae95780516040516370a0823160e01b81523060048201526001600160a01b0394916020908290602490829089165afa8015610ade57610aae575b50610890848751168584511660408901518761087c60608c015161256d565b511691610889865161256d565b51936125be565b908115610a7557846108bd9351169185885116610889876108b460608c015161257a565b5116935161257a565b6040850151811115610a385760408501516108d7916123de565b925183106109f357612710908184029184830414841517156109df575060408401516109029161259e565b600254116109a257602461093782610928606061092f61098296610928838b015161256d565b5116612b3b565b97015161257a565b93604051948161095187935180926020808701910161211a565b820163010169f160e51b6020820152610973825180936020878501910161211a565b010360048101855201836120a7565b61099e60405192839283526040602084015260408301906122f5565b0390f35b60405162461bcd60e51b815260206004820152601560248201527450726f666974206d617267696e20746f6f206c6f7760581b6044820152606490fd5b634e487b7160e01b81526011600452602490fd5b60405162461bcd60e51b815260206004820152601e60248201527f50726f6669742062656c6f77206d696e696d756d207468726573686f6c6400006044820152606490fd5b60405162461bcd60e51b81526020600482015260156024820152744e6f2070726f666974206f70706f7274756e69747960581b6044820152606490fd5b60405162461bcd60e51b8152602060048201526011602482015270119a5c9cdd081cddd85c0819985a5b1959607a1b6044820152606490fd5b602090813d8311610ad7575b610ac481836120a7565b81010312610ad2573861085d565b600080fd5b503d610aba565b6040513d86823e3d90fd5b60405162461bcd60e51b815260206004820152601160248201527024b73a32b93730b610333ab731ba34b7b760791b6044820152606490fd5b83356001600160401b038111610ad2578260043501019036604383011215610ad25760208091610b5d602494369060448782013591016120e3565b81520194019390506107f2565b60208091610b7784612153565b815201910190610779565b50346101d757806003193601126101d7576020600554604051908152f35b50346101d757806003193601126101d7576020604051734752ba5dbc23f44d87826276bf6fd6b1c372ad248152f35b50346101d75760203660031901126101d757610be961213d565b610bf1612331565b6001600160a01b03908116610c07811515612c7d565b6040516370a0823160e01b815230600482015290602082602481845afa918215610ade578492610c51575b5081610c3c578380f35b610c4a926001541690612d0d565b3880808380f35b9091506020813d8211610c7c575b81610c6c602093836120a7565b81010312610ad257519038610c32565b3d9150610c5f565b50346101d757806003193601126101d7576020600854604051908152f35b50346101d75760403660031901126101d757610cbc61213d565b60243590610cc8612331565b610cd061237e565b6001600160a01b0390811691610ce7831515612c7d565b610cf2811515612cc1565b6040516370a0823160e01b8152306004820152602092908381602481885afa908115610de3578691610db6575b508211610d71578181610d5a7fc47d27fd39a471117fc0e9b9713ab14c3b4cafb5eeb0aae4177d2817244d5d25946040946001541688612d0d565b600154169382519182524290820152a36001815580f35b60405162461bcd60e51b815260048101849052601a60248201527f496e73756666696369656e7420746f6b656e2062616c616e63650000000000006044820152606490fd5b90508381813d8311610ddc575b610dcd81836120a7565b81010312610ad2575138610d1f565b503d610dc3565b6040513d88823e3d90fd5b50346101d757806003193601126101d7576001546040516001600160a01b039091168152602090f35b50346101d757806003193601126101d757610e30612331565b610e3861235d565b6001805460ff60a01b1916600160a01b1790556040513381527f62e78cea01bee320cd4e420270b5ea74000d11b0c9f74754ebdbfc544b05a25890602090a180f35b50346101d75760603660031901126101d757610e9461213d565b6001600160401b03604435818111610fe557610eb4903690600401612167565b9290610ebe612331565b610ec661237e565b610ece61235d565b6004543a11610fab5784916001600160a01b037f0000000000000000000000000000000000000000000000000000000000000000811691823b15610fa75760c4859188604051998a97889687946310ac2ddf60e21b8652306004870152166024850152602435604485015260a060648501528160a48501528484013783838284010152836084830152601f801991011681010301925af18015610f9c57610f78575b826001815580f35b8111610f88576040523880610f70565b634e487b7160e01b82526041600452602482fd5b6040513d85823e3d90fd5b8480fd5b60405162461bcd60e51b815260206004820152601260248201527108ec2e640e0e4d2c6ca40e8dede40d0d2ced60731b6044820152606490fd5b8380fd5b50346101d757806003193601126101d7576040517f00000000000000000000000000000000000000000000000000000000000000006001600160a01b03168152602090f35b50346101d75760603660031901126101d757604435602435600435611051612331565b80151580611177575b1561113d5781151580611131575b156110f55782156110b8577f6d05db271e19f930af71c4765de54ef86294762644c20f4d6fd2609d057d3c7b9260609282600255806003558160045560405192835260208301526040820152a180f35b60405162461bcd60e51b8152602060048201526015602482015274496e76616c6964206d61782067617320707269636560581b6044820152606490fd5b60405162461bcd60e51b8152602060048201526014602482015273496e76616c6964206d617820736c69707061676560601b6044820152606490fd5b506103e8821115611068565b60405162461bcd60e51b8152602060048201526012602482015271125b9d985b1a59081b5a5b881c1c9bd99a5d60721b6044820152606490fd5b506103e881111561105a565b50346101d757806003193601126101d75761119c612331565b600180546001600160a01b0319811690915581906001600160a01b03167f8be0079c531659141344cd1fd0a4f28419497f9722a3daafe3b4186f6b6457e08280a380f35b50346101d75760203660031901126101d7576020906040906001600160a01b0361120861213d565b168152600983522054604051908152f35b50346101d757806003193601126101d757602060ff60015460a01c166040519015158152f35b50346101d75760203660031901126101d757600435600c5481101561062757611267906121c4565b5060018060a01b0380825416906001830154169160028101546003820154916112dc600482015461129a6005840161224f565b90600684015495600860ff60078701541695015495604051998a998a5260208a01526040890152606088015260808701526101208060a08801528601906122f5565b9260c0850152151560e08401526101008301520390f35b50346101d757806003193601126101d75761130c612331565b8047801590811561131b575050f35b82809291819260018060a01b0360015416908390611349575bf11561133d5780f35b604051903d90823e3d90fd5b506108fc611334565b50346101d757806003193601126101d757602061136d612c68565b604051908152f35b50346101d757806003193601126101d7576020600c54604051908152f35b50346101d757806003193601126101d7576020604051732626664c2603336e57b271c5c0b26f421741e4818152f35b50346101d757806003193601126101d7576113db612331565b60015460ff8160a01c16156114235760ff60a01b19166001556040513381527f5db9ee0a495bf2e6ff9c91a7834c1ba4fdd244a5e8aa4e537bd38aeae4b073aa90602090a180f35b604051638dfc202b60e01b8152600490fd5b50346101d757806003193601126101d7576020600454604051908152f35b50346101d75760a03660031901126101d75761146d61213d565b506024356001600160a01b038116036101d7576001600160401b036064358181116114d1576114a0903690600401612194565b5050608435908111610627576114ba903690600401612194565b505060408051600181526064604435046020820152f35b8280fd5b50346101d757806003193601126101d7576020600354604051908152f35b50346101d75760a03660031901126101d75761150d61213d565b6064356001600160a01b03811691908290036114d1576084356001600160401b038111610fe557611542903690600401612167565b90927f00000000000000000000000000000000000000000000000000000000000000006001600160a01b03163303611f14573003611ecf575a926020818381010312610fa7578035906001600160401b038211611ecb5760c08282018483010312611ecb57604051926115b484612056565b6115bf838301612153565b84526115cf602084840101612153565b602085015281830160408181013590860152606001356001600160401b038111611ec757818301601f8286860101011215611ec7578084840101356116138161231a565b9161162160405193846120a7565b818352602083019084860160208460051b838a8a0101010111611e1057906020828888010101915b60208460051b828a8a010101018310611eac575050505060608501526001600160401b036080848401013511611ea857818101838301608081013501601f011215611ea85781830160808101350135906116a28261231a565b916116b060405193846120a7565b808352602083019180850160208360051b6080898901013589890101010111611ea457848601608081013501602001925b858701608081013501600584901b016020018410611e4957505050509060a09291608085015201013560a0820152839060405161171d81612071565b8581526040805163572c610360e11b815260206004820181905284516001600160a01b03908116602484015290850151166044820152908301516064820152606083015160c060848301529193918790829061177d9060e48301906123a1565b6080860151906023198382030160a4840152815180825260208201916020808360051b83010194019286915b838310611e18575050505050819060a087015160c4830152038183305af1908188918993611d7f575b50611d705750506117e686955b5a906123de565b82519360406020850151940151916040514260208201526bffffffffffffffffffffffff19808860601b1660408301528660601b1660548201528360688201523260601b6088820152607c81528060a08101106001600160401b0360a083011117611d5c5760a081016040528051602082012061186560a08301612024565b6001600160a01b0388811660a0840152871660c083015260e08201859052610100820186905261012082018390526101408201849052426101608301528915156101808301526101a0820152600c5468010000000000000000811015611d48578060016118d59201600c556121c4565b919091611d345760a081015182546001600160a01b039182166001600160a01b031991821617845560c083015160018501805491909316911617905560e08101516002830155610100810151600383015561012081015160048301556101408101518051906001600160401b038211611d20576119556005850154612215565b8d601f8211611cd9575b9050506020908d601f8411600114611c3d5793837fed7eba35acf844a173245a4fd7397564c70edbcd3764df0a10e30712c021e59f9a999896946008946101a094611a319a9892611c32575b50508160011b916000199060031b1c19161760058501555b610160810151600685015560078401610180820151151560ff8019835416911617905501519101556119f6600654612c27565b60065589611a0682600854612401565b600855611b9c575b60405194859485526020850152604084015260a0606084015260a08301906122f5565b4260808301526001600160a01b0394851695909416930390a36044359160243590611a5c8483612401565b6040516370a0823160e01b81523060048201526001600160a01b039094169590936020816024818a5afa91821561133d5790818693611b64575b505010611b14577fe7055bb7f757aae8cfbf6ea2247e26371914425f5500c1d720f0746ae1ff880393606093611af6907f00000000000000000000000000000000000000000000000000000000000000006001600160a01b03168861240e565b604051928352602083015215156040820152a2602060405160018152f35b60405162461bcd60e51b815260206004820152602260248201527f496e73756666696369656e742062616c616e636520746f207265706179206c6f60448201526130b760f11b6064820152608490fd5b915091506020823d602011611b94575b81611b81602093836120a7565b810103126101d757508390513880611a96565b3d9150611b74565b611ba7600754612c27565b600755611bb685600554612401565b6005556001600160a01b0388168b52600960205260408b208054611bdb908790612401565b90556001600160a01b0388168b52600a60205260408b208054611bff908690612401565b90556040516020818451611c16818385890161211a565b8101600b815203019020611c2b868254612401565b9055611a0e565b0151905038806119ab565b919060058601835260208320925b601f1985168110611cc15750936001846008946101a094611a319a987fed7eba35acf844a173245a4fd7397564c70edbcd3764df0a10e30712c021e59f9e9d9c9a98601f19811610611ca8575b505050811b0160058501556119c3565b015160001960f88460031b161c19169055388080611c98565b91926020600181928685015181550194019201611c4b565b60209060058701815220601f840160051c810160208510611d19575b8f5b601f840160051c83018210611d0e5791505061195f565b81556001018f611cf7565b5080611cf5565b634e487b7160e01b8d52604160045260248dfd5b634e487b7160e01b8b5260048b905260248bfd5b634e487b7160e01b8b52604160045260248bfd5b634e487b7160e01b8a52604160045260248afd5b915092506117e66001956117df565b915091503d908189823e611d9382826120a7565b6040818381010312611e14578051906020810151906001600160401b038211611e1057838101601f838301011215611e10578181015190611dd3826120c8565b94611de160405196876120a7565b8286528101602083858401010111611e0c576020611e049381870192010161211a565b9091386117d2565b8b80fd5b8a80fd5b8880fd5b92955092955092602080611e38600193601f1986820301875289516122f5565b9701930193018c95938795926117a9565b8335906001600160401b038211611e0c578683018888016080810135018301603f011215611e0c5760209182918291611e97908a8701908b8d016080810135010180850135906040016120e3565b81520194019390506116e1565b8980fd5b8680fd5b6020808093611eba86612153565b8152019301929150611649565b8780fd5b8580fd5b60405162461bcd60e51b815260206004820152601f60248201527f496e69746961746f72206d757374206265207468697320636f6e7472616374006044820152606490fd5b60405162461bcd60e51b815260206004820152601860248201527f43616c6c6572206d757374206265204141564520706f6f6c00000000000000006044820152606490fd5b50346101d75760203660031901126101d757600435906001600160401b0382116101d757366023830112156101d7576020611fb381611fa0366004870135602488016120e3565b816040519382858094519384920161211a565b8101600b81520301902054604051908152f35b50346101d757806003193601126101d757602061136d612c36565b9050346106275781600319360112610627577f00000000000000000000000000000000000000000000000000000000000000006001600160a01b03168152602090f35b61012081019081106001600160401b0382111761204057604052565b634e487b7160e01b600052604160045260246000fd5b60c081019081106001600160401b0382111761204057604052565b602081019081106001600160401b0382111761204057604052565b604081019081106001600160401b0382111761204057604052565b90601f801991011681019081106001600160401b0382111761204057604052565b6001600160401b03811161204057601f01601f191660200190565b9291926120ef826120c8565b916120fd60405193846120a7565b829481845281830111610ad2578281602093846000960137010152565b60005b83811061212d5750506000910152565b818101518382015260200161211d565b600435906001600160a01b0382168203610ad257565b35906001600160a01b0382168203610ad257565b9181601f84011215610ad2578235916001600160401b038311610ad25760208381860195010111610ad257565b9181601f84011215610ad2578235916001600160401b038311610ad2576020808501948460051b010111610ad257565b600c548110156121ff57600990600c600052027fdf6966c971051c3d54ec59162606531493a51404a002842f56009d7e5cf4a8c70190600090565b634e487b7160e01b600052603260045260246000fd5b90600182811c92168015612245575b602083101461222f57565b634e487b7160e01b600052602260045260246000fd5b91607f1691612224565b906040519182600082549261226384612215565b9081845260019485811690816000146122d2575060011461228f575b505061228d925003836120a7565b565b9093915060005260209081600020936000915b8183106122ba57505061228d9350820101388061227f565b855488840185015294850194879450918301916122a2565b91505061228d94506020925060ff191682840152151560051b820101388061227f565b9060209161230e8151809281855285808601910161211a565b601f01601f1916010190565b6001600160401b0381116120405760051b60200190565b6001546001600160a01b0316330361234557565b60405163118cdaa760e01b8152336004820152602490fd5b60ff60015460a01c1661236c57565b60405163d93c066560e01b8152600490fd5b60026000541461238f576002600055565b604051633ee5aeb560e01b8152600490fd5b90815180825260208080930193019160005b8281106123c1575050505090565b83516001600160a01b0316855293810193928101926001016123b3565b919082039182116123eb57565b634e487b7160e01b600052601160045260246000fd5b919082018092116123eb57565b60405163095ea7b360e01b602082018181526001600160a01b03851660248401526044808401969096529482529493909261244a6064856120a7565b60206000809386519082875af182513d826124e0575b505015612470575b505050509050565b60405160208101969096526001600160a01b031660248601526044808601829052855260808501906001600160401b038211868310176124cc57506124c293946124bd9160405282612505565b612505565b8038808080612468565b634e487b7160e01b81526041600452602490fd5b9091506124fd57506001600160a01b0383163b15155b3880612460565b6001146124f6565b906000602091828151910182855af115612561576000513d61255857506001600160a01b0381163b155b6125365750565b604051635274afe760e01b81526001600160a01b039091166004820152602490fd5b6001141561252f565b6040513d6000823e3d90fd5b8051156121ff5760200190565b8051600110156121ff5760400190565b80518210156121ff5760209160051b010190565b81156125a8570490565b634e487b7160e01b600052601260045260246000fd5b9194939290916001600160a01b0316906125d986828461240e565b734752ba5dbc23f44d87826276bf6fd6b1c372ad24926001600160a01b039190911691908383036127c757505050815182016020908184818301920312610ad257818401516001600160401b0394858211610ad257019281603f85011215610ad25782840151916126498361231a565b92604095612659875195866120a7565b818552868686019260051b820101928311610ad2578601905b8282106127a85750505061012c4201968742116123eb576126c1918551809481936338ed173960e01b835260048301528160009b8c96879384602485015260a0604485015260a48401906123a1565b90306064840152608483015203925af193841561279e578694612715575b505050508051906000198201918211612701576126fd92935061258a565b5190565b634e487b7160e01b84526011600452602484fd5b90919293503d8087843e61272981846120a7565b8201918381840312611ea8578051918211611ea8570181601f82011215611ecb578051906127626127598361231a565b955195866120a7565b818552838086019260051b820101928311611ea8578301905b82821061278f5750505050388080806126df565b8151815290830190830161277b565b83513d88823e3d90fd5b81516001600160a01b0381168103610ad2578152908501908501612672565b90919394959250732626664c2603336e57b271c5c0b26f421741e4819384811460001461292d57506020948581805181010312610ad2578501519362ffffff8516809503610ad25761012c42018042116123eb57604051906101008201928284106001600160401b038511176120405760409384529482526001600160a01b0393841682890190815282840197885230606084019081526080840192835260a08401978852600060c0850181815260e08601828152965163414bf38960e01b8152955188166004870152925187166024860152985162ffffff166044850152518516606484015290516084830152945160a4820152935160c4850152511660e48301529091908390839061010490829085905af19283156129205781936128ef575b50505090565b9091809350813d8311612919575b61290781836120a7565b810103126101d75750513880806128e9565b503d6128fd565b50604051903d90823e3d90fd5b91949093509073ba12222222228d8ba445958a75a0704d566bf2c803612b0457602081805181010312610ad257602001519160409384519361296e85612056565b845260006020850152848401526001600160a01b031660608301526080820152815161299981612071565b6000815260a0820152815190608082018281106001600160401b038211176120405783523082526000602083015230838301526000606083015261012c420142116123eb5760a0602091612a57936060865195869485946352bbbe2960e01b865260e06004870152805160e487015260ff8882015116610104870152600180831b038a82015116610124870152600180831b0384820151166101448701526080810151610164870152015160c06101848601526101a48501906122f5565b82516001600160a01b03908116602486015286840151151560448601528884015116606485015291015115156084830152600060a483018190524261012c0160c484015291900390829073ba12222222228d8ba445958a75a0704d566bf2c85af1918215612afa5750600091612acb575090565b90506020813d602011612af2575b81612ae6602093836120a7565b81010312610ad2575190565b3d9150612ad9565b513d6000823e3d90fd5b60405162461bcd60e51b815260206004820152600f60248201526e0aadce6eae0e0dee4e8cac840888ab608b1b6044820152606490fd5b6001600160a01b0316734752ba5dbc23f44d87826276bf6fd6b1c372ad248114612c0157732626664c2603336e57b271c5c0b26f421741e4818114612bdb5773ba12222222228d8ba445958a75a0704d566bf2c814612bb757604051612ba08161208c565b60078152662ab735b737bbb760c91b602082015290565b604051612bc38161208c565b60088152672130b630b731b2b960c11b602082015290565b50604051612be88161208c565b6009815268556e6973776170563360b81b602082015290565b50604051612c0e8161208c565b60098152682ab734b9bbb0b82b1960b91b602082015290565b60001981146123eb5760010190565b6006548015612c6257600754906064820291808304606414901517156123eb57612c5f9161259e565b90565b50600090565b6006548015612c6257612c5f9060085461259e565b15612c8457565b60405162461bcd60e51b8152602060048201526015602482015274496e76616c696420746f6b656e206164647265737360581b6044820152606490fd5b15612cc857565b60405162461bcd60e51b815260206004820152601760248201527f416d6f756e74206d75737420626520706f7369746976650000000000000000006044820152606490fd5b60405163a9059cbb60e01b60208201526001600160a01b0392909216602483015260448083019390935291815261228d916124bd6064836120a756fea26469706673582212203cda8c3d98e29dafa77822fc28df473c60888b7391a924e1f3b8f45805387cef64736f6c63430008140033",
  "linkReferences": {},
  "deployedLinkReferences": {}
}